{
	"lec25.sol": {
		"lec25": {
			"abi": [
				{
					"inputs": [],
					"name": "assertNow",
					"outputs": [],
					"stateMutability": "pure",
					"type": "function"
				},
				{
					"inputs": [],
					"name": "revertNow",
					"outputs": [],
					"stateMutability": "pure",
					"type": "function"
				}
			],
			"devdoc": {
				"kind": "dev",
				"methods": {},
				"version": 1
			},
			"evm": {
				"assembly": "    /* \"lec25.sol\":133:745  contract lec25{\r... */\n  mstore(0x40, 0x80)\n  callvalue\n  dup1\n  iszero\n  tag_1\n  jumpi\n  0x00\n  dup1\n  revert\ntag_1:\n  pop\n  dataSize(sub_0)\n  dup1\n  dataOffset(sub_0)\n  0x00\n  codecopy\n  0x00\n  return\nstop\n\nsub_0: assembly {\n        /* \"lec25.sol\":133:745  contract lec25{\r... */\n      mstore(0x40, 0x80)\n      callvalue\n      dup1\n      iszero\n      tag_1\n      jumpi\n      0x00\n      dup1\n      revert\n    tag_1:\n      pop\n      jumpi(tag_2, lt(calldatasize, 0x04))\n      shr(0xe0, calldataload(0x00))\n      dup1\n      0x2712f519\n      eq\n      tag_3\n      jumpi\n      dup1\n      0xafe26609\n      eq\n      tag_4\n      jumpi\n    tag_2:\n      0x00\n      dup1\n      revert\n        /* \"lec25.sol\":528:628  function assertNow() public pure{\r... */\n    tag_3:\n      tag_5\n      tag_6\n      jump\t// in\n    tag_5:\n      stop\n        /* \"lec25.sol\":636:742  function revertNow() public pure{\r... */\n    tag_4:\n      tag_7\n      tag_8\n      jump\t// in\n    tag_7:\n      stop\n        /* \"lec25.sol\":528:628  function assertNow() public pure{\r... */\n    tag_6:\n        /* \"lec25.sol\":578:583  false */\n      0x00\n        /* \"lec25.sol\":571:584  assert(false) */\n      tag_10\n      jumpi\n      invalid\n    tag_10:\n        /* \"lec25.sol\":528:628  function assertNow() public pure{\r... */\n      jump\t// out\n        /* \"lec25.sol\":636:742  function revertNow() public pure{\r... */\n    tag_8:\n        /* \"lec25.sol\":679:696  revert(\"error!!\") */\n      mload(0x40)\n      0x08c379a000000000000000000000000000000000000000000000000000000000\n      dup2\n      mstore\n      0x04\n      add\n      dup1\n      dup1\n      0x20\n      add\n      dup3\n      dup2\n      sub\n      dup3\n      mstore\n      0x07\n      dup2\n      mstore\n      0x20\n      add\n      dup1\n      0x6572726f72212100000000000000000000000000000000000000000000000000\n      dup2\n      mstore\n      pop\n      0x20\n      add\n      swap2\n      pop\n      pop\n      mload(0x40)\n      dup1\n      swap2\n      sub\n      swap1\n      revert\n\n    auxdata: 0xa2646970667358221220f3bf744a22074972360194e0da09d2c44374a939b3bf7219153745464179946764736f6c63430007040033\n}\n",
				"bytecode": {
					"linkReferences": {},
					"object": "6080604052348015600f57600080fd5b5060f48061001e6000396000f3fe6080604052348015600f57600080fd5b506004361060325760003560e01c80632712f519146037578063afe2660914603f575b600080fd5b603d6047565b005b60456050565b005b6000604e57fe5b565b6040517f08c379a00000000000000000000000000000000000000000000000000000000081526004018080602001828103825260078152602001807f6572726f7221210000000000000000000000000000000000000000000000000081525060200191505060405180910390fdfea2646970667358221220f3bf744a22074972360194e0da09d2c44374a939b3bf7219153745464179946764736f6c63430007040033",
					"opcodes": "PUSH1 0x80 PUSH1 0x40 MSTORE CALLVALUE DUP1 ISZERO PUSH1 0xF JUMPI PUSH1 0x0 DUP1 REVERT JUMPDEST POP PUSH1 0xF4 DUP1 PUSH2 0x1E PUSH1 0x0 CODECOPY PUSH1 0x0 RETURN INVALID PUSH1 0x80 PUSH1 0x40 MSTORE CALLVALUE DUP1 ISZERO PUSH1 0xF JUMPI PUSH1 0x0 DUP1 REVERT JUMPDEST POP PUSH1 0x4 CALLDATASIZE LT PUSH1 0x32 JUMPI PUSH1 0x0 CALLDATALOAD PUSH1 0xE0 SHR DUP1 PUSH4 0x2712F519 EQ PUSH1 0x37 JUMPI DUP1 PUSH4 0xAFE26609 EQ PUSH1 0x3F JUMPI JUMPDEST PUSH1 0x0 DUP1 REVERT JUMPDEST PUSH1 0x3D PUSH1 0x47 JUMP JUMPDEST STOP JUMPDEST PUSH1 0x45 PUSH1 0x50 JUMP JUMPDEST STOP JUMPDEST PUSH1 0x0 PUSH1 0x4E JUMPI INVALID JUMPDEST JUMP JUMPDEST PUSH1 0x40 MLOAD PUSH32 0x8C379A000000000000000000000000000000000000000000000000000000000 DUP2 MSTORE PUSH1 0x4 ADD DUP1 DUP1 PUSH1 0x20 ADD DUP3 DUP2 SUB DUP3 MSTORE PUSH1 0x7 DUP2 MSTORE PUSH1 0x20 ADD DUP1 PUSH32 0x6572726F72212100000000000000000000000000000000000000000000000000 DUP2 MSTORE POP PUSH1 0x20 ADD SWAP2 POP POP PUSH1 0x40 MLOAD DUP1 SWAP2 SUB SWAP1 REVERT INVALID LOG2 PUSH5 0x6970667358 0x22 SLT KECCAK256 RETURN 0xBF PUSH21 0x4A22074972360194E0DA09D2C44374A939B3BF7219 ISZERO CALLDATACOPY GASLIMIT CHAINID COINBASE PUSH26 0x946764736F6C6343000704003300000000000000000000000000 "
				},
				"gasEstimates": {
					"creation": {
						"codeDepositCost": "48800",
						"executionCost": "99",
						"totalCost": "48899"
					},
					"external": {
						"assertNow()": "129",
						"revertNow()": "258"
					}
				},
				"methodIdentifiers": {
					"assertNow()": "2712f519",
					"revertNow()": "afe26609"
				}
			},
			"userdoc": {
				"kind": "user",
				"methods": {},
				"version": 1
			}
		}
	}
}