{
	"lec25.sol": {
		"lec25": {
			"abi": [
				{
					"inputs": [],
					"name": "assertNow",
					"outputs": [],
					"stateMutability": "pure",
					"type": "function"
				},
				{
					"inputs": [],
					"name": "requireNow",
					"outputs": [],
					"stateMutability": "pure",
					"type": "function"
				},
				{
					"inputs": [],
					"name": "revertNow",
					"outputs": [],
					"stateMutability": "pure",
					"type": "function"
				}
			],
			"devdoc": {
				"kind": "dev",
				"methods": {},
				"version": 1
			},
			"evm": {
				"assembly": "    /* \"lec25.sol\":133:1024  contract lec25{\r... */\n  mstore(0x40, 0x80)\n  callvalue\n  dup1\n  iszero\n  tag_1\n  jumpi\n  0x00\n  dup1\n  revert\ntag_1:\n  pop\n  dataSize(sub_0)\n  dup1\n  dataOffset(sub_0)\n  0x00\n  codecopy\n  0x00\n  return\nstop\n\nsub_0: assembly {\n        /* \"lec25.sol\":133:1024  contract lec25{\r... */\n      mstore(0x40, 0x80)\n      callvalue\n      dup1\n      iszero\n      tag_1\n      jumpi\n      0x00\n      dup1\n      revert\n    tag_1:\n      pop\n      jumpi(tag_2, lt(calldatasize, 0x04))\n      shr(0xe0, calldataload(0x00))\n      dup1\n      0x2712f519\n      eq\n      tag_3\n      jumpi\n      dup1\n      0x844adfd2\n      eq\n      tag_4\n      jumpi\n      dup1\n      0xafe26609\n      eq\n      tag_5\n      jumpi\n    tag_2:\n      0x00\n      dup1\n      revert\n        /* \"lec25.sol\":547:693  function assertNow() public pure{\r... */\n    tag_3:\n      tag_6\n      tag_7\n      jump\t// in\n    tag_6:\n      stop\n        /* \"lec25.sol\":939:1021  function requireNow() public pure{\r... */\n    tag_4:\n      tag_8\n      tag_9\n      jump\t// in\n    tag_8:\n      stop\n        /* \"lec25.sol\":723:931  function revertNow() public pure{\r... */\n    tag_5:\n      tag_10\n      tag_11\n      jump\t// in\n    tag_10:\n      stop\n        /* \"lec25.sol\":547:693  function assertNow() public pure{\r... */\n    tag_7:\n        /* \"lec25.sol\":597:602  false */\n      0x00\n        /* \"lec25.sol\":590:603  assert(false) */\n      tag_13\n      jumpi\n      invalid\n    tag_13:\n        /* \"lec25.sol\":547:693  function assertNow() public pure{\r... */\n      jump\t// out\n        /* \"lec25.sol\":939:1021  function requireNow() public pure{\r... */\n    tag_9:\n        /* \"lec25.sol\":994:995  4 */\n      0x04\n        /* \"lec25.sol\":991:992  3 */\n      0x03\n        /* \"lec25.sol\":991:995  3==4 */\n      eq\n        /* \"lec25.sol\":983:1013  require(3==4, \"error message\") */\n      tag_15\n      jumpi\n      mload(0x40)\n      0x08c379a000000000000000000000000000000000000000000000000000000000\n      dup2\n      mstore\n      0x04\n      add\n      dup1\n      dup1\n      0x20\n      add\n      dup3\n      dup2\n      sub\n      dup3\n      mstore\n      0x0d\n      dup2\n      mstore\n      0x20\n      add\n      dup1\n      0x6572726f72206d65737361676500000000000000000000000000000000000000\n      dup2\n      mstore\n      pop\n      0x20\n      add\n      swap2\n      pop\n      pop\n      mload(0x40)\n      dup1\n      swap2\n      sub\n      swap1\n      revert\n    tag_15:\n        /* \"lec25.sol\":939:1021  function requireNow() public pure{\r... */\n      jump\t// out\n        /* \"lec25.sol\":723:931  function revertNow() public pure{\r... */\n    tag_11:\n        /* \"lec25.sol\":766:789  revert(\"error message\") */\n      mload(0x40)\n      0x08c379a000000000000000000000000000000000000000000000000000000000\n      dup2\n      mstore\n      0x04\n      add\n      dup1\n      dup1\n      0x20\n      add\n      dup3\n      dup2\n      sub\n      dup3\n      mstore\n      0x0d\n      dup2\n      mstore\n      0x20\n      add\n      dup1\n      0x6572726f72206d65737361676500000000000000000000000000000000000000\n      dup2\n      mstore\n      pop\n      0x20\n      add\n      swap2\n      pop\n      pop\n      mload(0x40)\n      dup1\n      swap2\n      sub\n      swap1\n      revert\n\n    auxdata: 0xa26469706673582212203395d49e6feb5839dc8affa68c565adcf158e0eeee808a5ba1f16cac2d396c7264736f6c63430007040033\n}\n",
				"bytecode": {
					"linkReferences": {},
					"object": "608060405234801561001057600080fd5b5061018b806100206000396000f3fe608060405234801561001057600080fd5b50600436106100415760003560e01c80632712f51914610046578063844adfd214610050578063afe266091461005a575b600080fd5b61004e610064565b005b61005861006e565b005b6100626100e7565b005b600061006c57fe5b565b60046003146100e5576040517f08c379a000000000000000000000000000000000000000000000000000000000815260040180806020018281038252600d8152602001807f6572726f72206d6573736167650000000000000000000000000000000000000081525060200191505060405180910390fd5b565b6040517f08c379a000000000000000000000000000000000000000000000000000000000815260040180806020018281038252600d8152602001807f6572726f72206d6573736167650000000000000000000000000000000000000081525060200191505060405180910390fdfea26469706673582212203395d49e6feb5839dc8affa68c565adcf158e0eeee808a5ba1f16cac2d396c7264736f6c63430007040033",
					"opcodes": "PUSH1 0x80 PUSH1 0x40 MSTORE CALLVALUE DUP1 ISZERO PUSH2 0x10 JUMPI PUSH1 0x0 DUP1 REVERT JUMPDEST POP PUSH2 0x18B DUP1 PUSH2 0x20 PUSH1 0x0 CODECOPY PUSH1 0x0 RETURN INVALID PUSH1 0x80 PUSH1 0x40 MSTORE CALLVALUE DUP1 ISZERO PUSH2 0x10 JUMPI PUSH1 0x0 DUP1 REVERT JUMPDEST POP PUSH1 0x4 CALLDATASIZE LT PUSH2 0x41 JUMPI PUSH1 0x0 CALLDATALOAD PUSH1 0xE0 SHR DUP1 PUSH4 0x2712F519 EQ PUSH2 0x46 JUMPI DUP1 PUSH4 0x844ADFD2 EQ PUSH2 0x50 JUMPI DUP1 PUSH4 0xAFE26609 EQ PUSH2 0x5A JUMPI JUMPDEST PUSH1 0x0 DUP1 REVERT JUMPDEST PUSH2 0x4E PUSH2 0x64 JUMP JUMPDEST STOP JUMPDEST PUSH2 0x58 PUSH2 0x6E JUMP JUMPDEST STOP JUMPDEST PUSH2 0x62 PUSH2 0xE7 JUMP JUMPDEST STOP JUMPDEST PUSH1 0x0 PUSH2 0x6C JUMPI INVALID JUMPDEST JUMP JUMPDEST PUSH1 0x4 PUSH1 0x3 EQ PUSH2 0xE5 JUMPI PUSH1 0x40 MLOAD PUSH32 0x8C379A000000000000000000000000000000000000000000000000000000000 DUP2 MSTORE PUSH1 0x4 ADD DUP1 DUP1 PUSH1 0x20 ADD DUP3 DUP2 SUB DUP3 MSTORE PUSH1 0xD DUP2 MSTORE PUSH1 0x20 ADD DUP1 PUSH32 0x6572726F72206D65737361676500000000000000000000000000000000000000 DUP2 MSTORE POP PUSH1 0x20 ADD SWAP2 POP POP PUSH1 0x40 MLOAD DUP1 SWAP2 SUB SWAP1 REVERT JUMPDEST JUMP JUMPDEST PUSH1 0x40 MLOAD PUSH32 0x8C379A000000000000000000000000000000000000000000000000000000000 DUP2 MSTORE PUSH1 0x4 ADD DUP1 DUP1 PUSH1 0x20 ADD DUP3 DUP2 SUB DUP3 MSTORE PUSH1 0xD DUP2 MSTORE PUSH1 0x20 ADD DUP1 PUSH32 0x6572726F72206D65737361676500000000000000000000000000000000000000 DUP2 MSTORE POP PUSH1 0x20 ADD SWAP2 POP POP PUSH1 0x40 MLOAD DUP1 SWAP2 SUB SWAP1 REVERT INVALID LOG2 PUSH5 0x6970667358 0x22 SLT KECCAK256 CALLER SWAP6 0xD4 SWAP15 PUSH16 0xEB5839DC8AFFA68C565ADCF158E0EEEE DUP1 DUP11 JUMPDEST LOG1 CALL PUSH13 0xAC2D396C7264736F6C63430007 DIV STOP CALLER "
				},
				"gasEstimates": {
					"creation": {
						"codeDepositCost": "79000",
						"executionCost": "129",
						"totalCost": "79129"
					},
					"external": {
						"assertNow()": "129",
						"requireNow()": "280",
						"revertNow()": "280"
					}
				},
				"methodIdentifiers": {
					"assertNow()": "2712f519",
					"requireNow()": "844adfd2",
					"revertNow()": "afe26609"
				}
			},
			"userdoc": {
				"kind": "user",
				"methods": {},
				"version": 1
			}
		}
	}
}