{
	"lec25.sol": {
		"lec25": {
			"abi": [
				{
					"inputs": [],
					"name": "assertNow",
					"outputs": [],
					"stateMutability": "pure",
					"type": "function"
				}
			],
			"devdoc": {
				"kind": "dev",
				"methods": {},
				"version": 1
			},
			"evm": {
				"assembly": "    /* \"lec25.sol\":133:631  contract lec25{\r... */\n  mstore(0x40, 0x80)\n  callvalue\n  dup1\n  iszero\n  tag_1\n  jumpi\n  0x00\n  dup1\n  revert\ntag_1:\n  pop\n  dataSize(sub_0)\n  dup1\n  dataOffset(sub_0)\n  0x00\n  codecopy\n  0x00\n  return\nstop\n\nsub_0: assembly {\n        /* \"lec25.sol\":133:631  contract lec25{\r... */\n      mstore(0x40, 0x80)\n      callvalue\n      dup1\n      iszero\n      tag_1\n      jumpi\n      0x00\n      dup1\n      revert\n    tag_1:\n      pop\n      jumpi(tag_2, lt(calldatasize, 0x04))\n      shr(0xe0, calldataload(0x00))\n      dup1\n      0x2712f519\n      eq\n      tag_3\n      jumpi\n    tag_2:\n      0x00\n      dup1\n      revert\n        /* \"lec25.sol\":528:628  function assertNow() public pure{\r... */\n    tag_3:\n      tag_4\n      tag_5\n      jump\t// in\n    tag_4:\n      stop\n    tag_5:\n        /* \"lec25.sol\":578:583  false */\n      0x00\n        /* \"lec25.sol\":571:584  assert(false) */\n      tag_7\n      jumpi\n      tag_8\n      tag_9\n      jump\t// in\n    tag_8:\n    tag_7:\n        /* \"lec25.sol\":528:628  function assertNow() public pure{\r... */\n      jump\t// out\n        /* \"#utility.yul\":7:187   */\n    tag_9:\n        /* \"#utility.yul\":55:132   */\n      0x4e487b7100000000000000000000000000000000000000000000000000000000\n        /* \"#utility.yul\":52:53   */\n      0x00\n        /* \"#utility.yul\":45:133   */\n      mstore\n        /* \"#utility.yul\":152:156   */\n      0x01\n        /* \"#utility.yul\":149:150   */\n      0x04\n        /* \"#utility.yul\":142:157   */\n      mstore\n        /* \"#utility.yul\":176:180   */\n      0x24\n        /* \"#utility.yul\":173:174   */\n      0x00\n        /* \"#utility.yul\":166:181   */\n      revert\n\n    auxdata: 0xa2646970667358221220d290943c3baabc2a17c14b1a9740a59946daf7b590975527fa04da1fa711ae3564736f6c63430008070033\n}\n",
				"bytecode": {
					"linkReferences": {},
					"object": "6080604052348015600f57600080fd5b5060a88061001e6000396000f3fe6080604052348015600f57600080fd5b506004361060285760003560e01c80632712f51914602d575b600080fd5b60336035565b005b600060415760406043565b5b565b7f4e487b7100000000000000000000000000000000000000000000000000000000600052600160045260246000fdfea2646970667358221220d290943c3baabc2a17c14b1a9740a59946daf7b590975527fa04da1fa711ae3564736f6c63430008070033",
					"opcodes": "PUSH1 0x80 PUSH1 0x40 MSTORE CALLVALUE DUP1 ISZERO PUSH1 0xF JUMPI PUSH1 0x0 DUP1 REVERT JUMPDEST POP PUSH1 0xA8 DUP1 PUSH2 0x1E PUSH1 0x0 CODECOPY PUSH1 0x0 RETURN INVALID PUSH1 0x80 PUSH1 0x40 MSTORE CALLVALUE DUP1 ISZERO PUSH1 0xF JUMPI PUSH1 0x0 DUP1 REVERT JUMPDEST POP PUSH1 0x4 CALLDATASIZE LT PUSH1 0x28 JUMPI PUSH1 0x0 CALLDATALOAD PUSH1 0xE0 SHR DUP1 PUSH4 0x2712F519 EQ PUSH1 0x2D JUMPI JUMPDEST PUSH1 0x0 DUP1 REVERT JUMPDEST PUSH1 0x33 PUSH1 0x35 JUMP JUMPDEST STOP JUMPDEST PUSH1 0x0 PUSH1 0x41 JUMPI PUSH1 0x40 PUSH1 0x43 JUMP JUMPDEST JUMPDEST JUMP JUMPDEST PUSH32 0x4E487B7100000000000000000000000000000000000000000000000000000000 PUSH1 0x0 MSTORE PUSH1 0x1 PUSH1 0x4 MSTORE PUSH1 0x24 PUSH1 0x0 REVERT INVALID LOG2 PUSH5 0x6970667358 0x22 SLT KECCAK256 0xD2 SWAP1 SWAP5 EXTCODECOPY EXTCODESIZE 0xAA 0xBC 0x2A OR 0xC1 0x4B BYTE SWAP8 BLOCKHASH 0xA5 SWAP10 CHAINID 0xDA 0xF7 0xB5 SWAP1 SWAP8 SSTORE 0x27 STATICCALL DIV 0xDA 0x1F 0xA7 GT 0xAE CALLDATALOAD PUSH5 0x736F6C6343 STOP ADDMOD SMOD STOP CALLER "
				},
				"gasEstimates": {
					"creation": {
						"codeDepositCost": "33600",
						"executionCost": "87",
						"totalCost": "33687"
					},
					"external": {
						"assertNow()": "168"
					}
				},
				"methodIdentifiers": {
					"assertNow()": "2712f519"
				}
			},
			"userdoc": {
				"kind": "user",
				"methods": {},
				"version": 1
			}
		}
	}
}