{
	"lecture/lec02.sol": {
		"lec2": {
			"abi": [
				{
					"inputs": [],
					"name": "addr",
					"outputs": [
						{
							"internalType": "address",
							"name": "",
							"type": "address"
						}
					],
					"stateMutability": "view",
					"type": "function"
				},
				{
					"inputs": [],
					"name": "b",
					"outputs": [
						{
							"internalType": "bool",
							"name": "",
							"type": "bool"
						}
					],
					"stateMutability": "view",
					"type": "function"
				},
				{
					"inputs": [],
					"name": "b1",
					"outputs": [
						{
							"internalType": "bool",
							"name": "",
							"type": "bool"
						}
					],
					"stateMutability": "view",
					"type": "function"
				},
				{
					"inputs": [],
					"name": "b2",
					"outputs": [
						{
							"internalType": "bool",
							"name": "",
							"type": "bool"
						}
					],
					"stateMutability": "view",
					"type": "function"
				},
				{
					"inputs": [],
					"name": "b3",
					"outputs": [
						{
							"internalType": "bool",
							"name": "",
							"type": "bool"
						}
					],
					"stateMutability": "view",
					"type": "function"
				},
				{
					"inputs": [],
					"name": "b4",
					"outputs": [
						{
							"internalType": "bool",
							"name": "",
							"type": "bool"
						}
					],
					"stateMutability": "view",
					"type": "function"
				},
				{
					"inputs": [],
					"name": "bt",
					"outputs": [
						{
							"internalType": "bytes4",
							"name": "",
							"type": "bytes4"
						}
					],
					"stateMutability": "view",
					"type": "function"
				},
				{
					"inputs": [],
					"name": "bt2",
					"outputs": [
						{
							"internalType": "bytes",
							"name": "",
							"type": "bytes"
						}
					],
					"stateMutability": "view",
					"type": "function"
				}
			],
			"devdoc": {
				"kind": "dev",
				"methods": {},
				"version": 1
			},
			"evm": {
				"assembly": "    /* \"lecture/lec02.sol\":74:752  contract lec2{... */\n  mstore(0x40, 0x80)\n    /* \"lecture/lec02.sol\":341:346  false */\n  0x00\n    /* \"lecture/lec02.sol\":325:346  bool public b = false */\n  dup1\n  exp(0x0100, 0x00)\n  dup2\n  sload\n  dup2\n  0xff\n  mul\n  not\n  and\n  swap1\n  dup4\n  iszero\n  iszero\n  mul\n  or\n  swap1\n  sstore\n  pop\n    /* \"lecture/lec02.sol\":392:397  false */\n  0x00\n    /* \"lecture/lec02.sol\":391:397  !false */\n  iszero\n    /* \"lecture/lec02.sol\":374:397  bool public b1 = !false */\n  0x00\n  exp(0x0100, 0x01)\n  dup2\n  sload\n  dup2\n  0xff\n  mul\n  not\n  and\n  swap1\n  dup4\n  iszero\n  iszero\n  mul\n  or\n  swap1\n  sstore\n  pop\n    /* \"lecture/lec02.sol\":428:433  false */\n  0x00\n    /* \"lecture/lec02.sol\":428:441  false || true */\n  dup1\n  tag_1\n  jumpi\n  pop\n    /* \"lecture/lec02.sol\":437:441  true */\n  0x01\n    /* \"lecture/lec02.sol\":428:441  false || true */\ntag_1:\n    /* \"lecture/lec02.sol\":411:441  bool public b2 = false || true */\n  0x00\n  exp(0x0100, 0x02)\n  dup2\n  sload\n  dup2\n  0xff\n  mul\n  not\n  and\n  swap1\n  dup4\n  iszero\n  iszero\n  mul\n  or\n  swap1\n  sstore\n  pop\n    /* \"lecture/lec02.sol\":481:485  true */\n  0x01\n    /* \"lecture/lec02.sol\":472:485  false == true */\n  iszero\n  iszero\n    /* \"lecture/lec02.sol\":472:477  false */\n  0x00\n    /* \"lecture/lec02.sol\":472:485  false == true */\n  iszero\n  iszero\n  eq\n    /* \"lecture/lec02.sol\":455:485  bool public b3 = false == true */\n  0x00\n  exp(0x0100, 0x03)\n  dup2\n  sload\n  dup2\n  0xff\n  mul\n  not\n  and\n  swap1\n  dup4\n  iszero\n  iszero\n  mul\n  or\n  swap1\n  sstore\n  pop\n    /* \"lecture/lec02.sol\":517:522  false */\n  0x00\n    /* \"lecture/lec02.sol\":517:530  false && true */\n  dup1\n  iszero\n  tag_2\n  jumpi\n  pop\n    /* \"lecture/lec02.sol\":526:530  true */\n  0x01\n    /* \"lecture/lec02.sol\":517:530  false && true */\ntag_2:\n    /* \"lecture/lec02.sol\":500:530  bool public b4 = false && true */\n  0x00\n  exp(0x0100, 0x04)\n  dup2\n  sload\n  dup2\n  0xff\n  mul\n  not\n  and\n  swap1\n  dup4\n  iszero\n  iszero\n  mul\n  or\n  swap1\n  sstore\n  pop\n    /* \"lecture/lec02.sol\":587:597  0x12345678 */\n  0x12345678\n    /* \"lecture/lec02.sol\":568:597  bytes4 public bt = 0x12345678 */\n  0xe0\n  shl\n  0x00\n  exp(0x0100, 0x05)\n  dup2\n  sload\n  dup2\n  0xffffffff\n  mul\n  not\n  and\n  swap1\n  dup4\n  0xe0\n  shr\n  mul\n  or\n  swap1\n  sstore\n  pop\n    /* \"lecture/lec02.sol\":604:631  bytes public bt2 = \"STRING\" */\n  mload(0x40)\n  dup1\n  0x40\n  add\n  0x40\n  mstore\n  dup1\n  0x06\n  dup2\n  mstore\n  0x20\n  add\n  0x535452494e470000000000000000000000000000000000000000000000000000\n  dup2\n  mstore\n  pop\n  0x01\n  swap1\n  dup1\n  mload\n  swap1\n  0x20\n  add\n  swap1\n  tag_3\n  swap3\n  swap2\n  swap1\n  tag_4\n  jump\t// in\ntag_3:\n  pop\n    /* \"lecture/lec02.sol\":679:721  0xd8b934580fcE35a11B58C6D73aDeE468a2833fa8 */\n  0xd8b934580fce35a11b58c6d73adee468a2833fa8\n    /* \"lecture/lec02.sol\":657:721  address public addr = 0xd8b934580fcE35a11B58C6D73aDeE468a2833fa8 */\n  0x02\n  exp(0x0100, 0x00)\n  dup2\n  sload\n  dup2\n  0xffffffffffffffffffffffffffffffffffffffff\n  mul\n  not\n  and\n  swap1\n  dup4\n  0xffffffffffffffffffffffffffffffffffffffff\n  and\n  mul\n  or\n  swap1\n  sstore\n  pop\n    /* \"lecture/lec02.sol\":74:752  contract lec2{... */\n  callvalue\n  dup1\n  iszero\n  tag_5\n  jumpi\n  0x00\n  dup1\n  revert\ntag_5:\n  pop\n  jump(tag_6)\ntag_4:\n  dup3\n  dup1\n  sload\n  tag_7\n  swap1\n  tag_8\n  jump\t// in\ntag_7:\n  swap1\n  0x00\n  mstore\n  keccak256(0x00, 0x20)\n  swap1\n  0x1f\n  add\n  0x20\n  swap1\n  div\n  dup2\n  add\n  swap3\n  dup3\n  tag_10\n  jumpi\n  0x00\n  dup6\n  sstore\n  jump(tag_9)\ntag_10:\n  dup3\n  0x1f\n  lt\n  tag_11\n  jumpi\n  dup1\n  mload\n  not(0xff)\n  and\n  dup4\n  dup1\n  add\n  or\n  dup6\n  sstore\n  jump(tag_9)\ntag_11:\n  dup3\n  dup1\n  add\n  0x01\n  add\n  dup6\n  sstore\n  dup3\n  iszero\n  tag_9\n  jumpi\n  swap2\n  dup3\n  add\ntag_12:\n  dup3\n  dup2\n  gt\n  iszero\n  tag_13\n  jumpi\n  dup3\n  mload\n  dup3\n  sstore\n  swap2\n  0x20\n  add\n  swap2\n  swap1\n  0x01\n  add\n  swap1\n  jump(tag_12)\ntag_13:\ntag_9:\n  pop\n  swap1\n  pop\n  tag_14\n  swap2\n  swap1\n  tag_15\n  jump\t// in\ntag_14:\n  pop\n  swap1\n  jump\t// out\ntag_15:\ntag_16:\n  dup1\n  dup3\n  gt\n  iszero\n  tag_17\n  jumpi\n  0x00\n  dup2\n  0x00\n  swap1\n  sstore\n  pop\n  0x01\n  add\n  jump(tag_16)\ntag_17:\n  pop\n  swap1\n  jump\t// out\n    /* \"#utility.yul\":7:187   */\ntag_18:\n    /* \"#utility.yul\":55:132   */\n  0x4e487b7100000000000000000000000000000000000000000000000000000000\n    /* \"#utility.yul\":52:53   */\n  0x00\n    /* \"#utility.yul\":45:133   */\n  mstore\n    /* \"#utility.yul\":152:156   */\n  0x22\n    /* \"#utility.yul\":149:150   */\n  0x04\n    /* \"#utility.yul\":142:157   */\n  mstore\n    /* \"#utility.yul\":176:180   */\n  0x24\n    /* \"#utility.yul\":173:174   */\n  0x00\n    /* \"#utility.yul\":166:181   */\n  revert\n    /* \"#utility.yul\":193:513   */\ntag_8:\n    /* \"#utility.yul\":237:243   */\n  0x00\n    /* \"#utility.yul\":274:275   */\n  0x02\n    /* \"#utility.yul\":268:272   */\n  dup3\n    /* \"#utility.yul\":264:276   */\n  div\n    /* \"#utility.yul\":254:276   */\n  swap1\n  pop\n    /* \"#utility.yul\":321:322   */\n  0x01\n    /* \"#utility.yul\":315:319   */\n  dup3\n    /* \"#utility.yul\":311:323   */\n  and\n    /* \"#utility.yul\":342:360   */\n  dup1\n    /* \"#utility.yul\":332:413   */\n  tag_22\n  jumpi\n    /* \"#utility.yul\":398:402   */\n  0x7f\n    /* \"#utility.yul\":390:396   */\n  dup3\n    /* \"#utility.yul\":386:403   */\n  and\n    /* \"#utility.yul\":376:403   */\n  swap2\n  pop\n    /* \"#utility.yul\":332:413   */\ntag_22:\n    /* \"#utility.yul\":460:462   */\n  0x20\n    /* \"#utility.yul\":452:458   */\n  dup3\n    /* \"#utility.yul\":449:463   */\n  lt\n    /* \"#utility.yul\":429:447   */\n  dup2\n    /* \"#utility.yul\":426:464   */\n  sub\n    /* \"#utility.yul\":423:507   */\n  tag_23\n  jumpi\n    /* \"#utility.yul\":479:497   */\n  tag_24\n  tag_18\n  jump\t// in\ntag_24:\n    /* \"#utility.yul\":423:507   */\ntag_23:\n    /* \"#utility.yul\":244:513   */\n  pop\n    /* \"#utility.yul\":193:513   */\n  swap2\n  swap1\n  pop\n  jump\t// out\n    /* \"lecture/lec02.sol\":74:752  contract lec2{... */\ntag_6:\n  dataSize(sub_0)\n  dup1\n  dataOffset(sub_0)\n  0x00\n  codecopy\n  0x00\n  return\nstop\n\nsub_0: assembly {\n        /* \"lecture/lec02.sol\":74:752  contract lec2{... */\n      mstore(0x40, 0x80)\n      callvalue\n      dup1\n      iszero\n      tag_1\n      jumpi\n      0x00\n      dup1\n      revert\n    tag_1:\n      pop\n      jumpi(tag_2, lt(calldatasize, 0x04))\n      shr(0xe0, calldataload(0x00))\n      dup1\n      0x767800de\n      gt\n      tag_11\n      jumpi\n      dup1\n      0x767800de\n      eq\n      tag_7\n      jumpi\n      dup1\n      0xac9c1959\n      eq\n      tag_8\n      jumpi\n      dup1\n      0xe9b61909\n      eq\n      tag_9\n      jumpi\n      dup1\n      0xee495002\n      eq\n      tag_10\n      jumpi\n      jump(tag_2)\n    tag_11:\n      dup1\n      0x0add6ef2\n      eq\n      tag_3\n      jumpi\n      dup1\n      0x2c622fae\n      eq\n      tag_4\n      jumpi\n      dup1\n      0x3db3fb0a\n      eq\n      tag_5\n      jumpi\n      dup1\n      0x4df7e3d0\n      eq\n      tag_6\n      jumpi\n    tag_2:\n      0x00\n      dup1\n      revert\n        /* \"lecture/lec02.sol\":411:441  bool public b2 = false || true */\n    tag_3:\n      tag_12\n      tag_13\n      jump\t// in\n    tag_12:\n      mload(0x40)\n      tag_14\n      swap2\n      swap1\n      tag_15\n      jump\t// in\n    tag_14:\n      mload(0x40)\n      dup1\n      swap2\n      sub\n      swap1\n      return\n        /* \"lecture/lec02.sol\":604:631  bytes public bt2 = \"STRING\" */\n    tag_4:\n      tag_16\n      tag_17\n      jump\t// in\n    tag_16:\n      mload(0x40)\n      tag_18\n      swap2\n      swap1\n      tag_19\n      jump\t// in\n    tag_18:\n      mload(0x40)\n      dup1\n      swap2\n      sub\n      swap1\n      return\n        /* \"lecture/lec02.sol\":500:530  bool public b4 = false && true */\n    tag_5:\n      tag_20\n      tag_21\n      jump\t// in\n    tag_20:\n      mload(0x40)\n      tag_22\n      swap2\n      swap1\n      tag_15\n      jump\t// in\n    tag_22:\n      mload(0x40)\n      dup1\n      swap2\n      sub\n      swap1\n      return\n        /* \"lecture/lec02.sol\":325:346  bool public b = false */\n    tag_6:\n      tag_23\n      tag_24\n      jump\t// in\n    tag_23:\n      mload(0x40)\n      tag_25\n      swap2\n      swap1\n      tag_15\n      jump\t// in\n    tag_25:\n      mload(0x40)\n      dup1\n      swap2\n      sub\n      swap1\n      return\n        /* \"lecture/lec02.sol\":657:721  address public addr = 0xd8b934580fcE35a11B58C6D73aDeE468a2833fa8 */\n    tag_7:\n      tag_26\n      tag_27\n      jump\t// in\n    tag_26:\n      mload(0x40)\n      tag_28\n      swap2\n      swap1\n      tag_29\n      jump\t// in\n    tag_28:\n      mload(0x40)\n      dup1\n      swap2\n      sub\n      swap1\n      return\n        /* \"lecture/lec02.sol\":568:597  bytes4 public bt = 0x12345678 */\n    tag_8:\n      tag_30\n      tag_31\n      jump\t// in\n    tag_30:\n      mload(0x40)\n      tag_32\n      swap2\n      swap1\n      tag_33\n      jump\t// in\n    tag_32:\n      mload(0x40)\n      dup1\n      swap2\n      sub\n      swap1\n      return\n        /* \"lecture/lec02.sol\":455:485  bool public b3 = false == true */\n    tag_9:\n      tag_34\n      tag_35\n      jump\t// in\n    tag_34:\n      mload(0x40)\n      tag_36\n      swap2\n      swap1\n      tag_15\n      jump\t// in\n    tag_36:\n      mload(0x40)\n      dup1\n      swap2\n      sub\n      swap1\n      return\n        /* \"lecture/lec02.sol\":374:397  bool public b1 = !false */\n    tag_10:\n      tag_37\n      tag_38\n      jump\t// in\n    tag_37:\n      mload(0x40)\n      tag_39\n      swap2\n      swap1\n      tag_15\n      jump\t// in\n    tag_39:\n      mload(0x40)\n      dup1\n      swap2\n      sub\n      swap1\n      return\n        /* \"lecture/lec02.sol\":411:441  bool public b2 = false || true */\n    tag_13:\n      0x00\n      0x02\n      swap1\n      sload\n      swap1\n      0x0100\n      exp\n      swap1\n      div\n      0xff\n      and\n      dup2\n      jump\t// out\n        /* \"lecture/lec02.sol\":604:631  bytes public bt2 = \"STRING\" */\n    tag_17:\n      0x01\n      dup1\n      sload\n      tag_40\n      swap1\n      tag_41\n      jump\t// in\n    tag_40:\n      dup1\n      0x1f\n      add\n      0x20\n      dup1\n      swap2\n      div\n      mul\n      0x20\n      add\n      mload(0x40)\n      swap1\n      dup2\n      add\n      0x40\n      mstore\n      dup1\n      swap3\n      swap2\n      swap1\n      dup2\n      dup2\n      mstore\n      0x20\n      add\n      dup3\n      dup1\n      sload\n      tag_42\n      swap1\n      tag_41\n      jump\t// in\n    tag_42:\n      dup1\n      iszero\n      tag_43\n      jumpi\n      dup1\n      0x1f\n      lt\n      tag_44\n      jumpi\n      0x0100\n      dup1\n      dup4\n      sload\n      div\n      mul\n      dup4\n      mstore\n      swap2\n      0x20\n      add\n      swap2\n      jump(tag_43)\n    tag_44:\n      dup3\n      add\n      swap2\n      swap1\n      0x00\n      mstore\n      keccak256(0x00, 0x20)\n      swap1\n    tag_45:\n      dup2\n      sload\n      dup2\n      mstore\n      swap1\n      0x01\n      add\n      swap1\n      0x20\n      add\n      dup1\n      dup4\n      gt\n      tag_45\n      jumpi\n      dup3\n      swap1\n      sub\n      0x1f\n      and\n      dup3\n      add\n      swap2\n    tag_43:\n      pop\n      pop\n      pop\n      pop\n      pop\n      dup2\n      jump\t// out\n        /* \"lecture/lec02.sol\":500:530  bool public b4 = false && true */\n    tag_21:\n      0x00\n      0x04\n      swap1\n      sload\n      swap1\n      0x0100\n      exp\n      swap1\n      div\n      0xff\n      and\n      dup2\n      jump\t// out\n        /* \"lecture/lec02.sol\":325:346  bool public b = false */\n    tag_24:\n      0x00\n      dup1\n      sload\n      swap1\n      0x0100\n      exp\n      swap1\n      div\n      0xff\n      and\n      dup2\n      jump\t// out\n        /* \"lecture/lec02.sol\":657:721  address public addr = 0xd8b934580fcE35a11B58C6D73aDeE468a2833fa8 */\n    tag_27:\n      0x02\n      0x00\n      swap1\n      sload\n      swap1\n      0x0100\n      exp\n      swap1\n      div\n      0xffffffffffffffffffffffffffffffffffffffff\n      and\n      dup2\n      jump\t// out\n        /* \"lecture/lec02.sol\":568:597  bytes4 public bt = 0x12345678 */\n    tag_31:\n      0x00\n      0x05\n      swap1\n      sload\n      swap1\n      0x0100\n      exp\n      swap1\n      div\n      0xe0\n      shl\n      dup2\n      jump\t// out\n        /* \"lecture/lec02.sol\":455:485  bool public b3 = false == true */\n    tag_35:\n      0x00\n      0x03\n      swap1\n      sload\n      swap1\n      0x0100\n      exp\n      swap1\n      div\n      0xff\n      and\n      dup2\n      jump\t// out\n        /* \"lecture/lec02.sol\":374:397  bool public b1 = !false */\n    tag_38:\n      0x00\n      0x01\n      swap1\n      sload\n      swap1\n      0x0100\n      exp\n      swap1\n      div\n      0xff\n      and\n      dup2\n      jump\t// out\n        /* \"#utility.yul\":7:97   */\n    tag_46:\n        /* \"#utility.yul\":41:48   */\n      0x00\n        /* \"#utility.yul\":84:89   */\n      dup2\n        /* \"#utility.yul\":77:90   */\n      iszero\n        /* \"#utility.yul\":70:91   */\n      iszero\n        /* \"#utility.yul\":59:91   */\n      swap1\n      pop\n        /* \"#utility.yul\":7:97   */\n      swap2\n      swap1\n      pop\n      jump\t// out\n        /* \"#utility.yul\":103:212   */\n    tag_47:\n        /* \"#utility.yul\":184:205   */\n      tag_62\n        /* \"#utility.yul\":199:204   */\n      dup2\n        /* \"#utility.yul\":184:205   */\n      tag_46\n      jump\t// in\n    tag_62:\n        /* \"#utility.yul\":179:182   */\n      dup3\n        /* \"#utility.yul\":172:206   */\n      mstore\n        /* \"#utility.yul\":103:212   */\n      pop\n      pop\n      jump\t// out\n        /* \"#utility.yul\":218:428   */\n    tag_15:\n        /* \"#utility.yul\":305:309   */\n      0x00\n        /* \"#utility.yul\":343:345   */\n      0x20\n        /* \"#utility.yul\":332:341   */\n      dup3\n        /* \"#utility.yul\":328:346   */\n      add\n        /* \"#utility.yul\":320:346   */\n      swap1\n      pop\n        /* \"#utility.yul\":356:421   */\n      tag_64\n        /* \"#utility.yul\":418:419   */\n      0x00\n        /* \"#utility.yul\":407:416   */\n      dup4\n        /* \"#utility.yul\":403:420   */\n      add\n        /* \"#utility.yul\":394:400   */\n      dup5\n        /* \"#utility.yul\":356:421   */\n      tag_47\n      jump\t// in\n    tag_64:\n        /* \"#utility.yul\":218:428   */\n      swap3\n      swap2\n      pop\n      pop\n      jump\t// out\n        /* \"#utility.yul\":434:532   */\n    tag_48:\n        /* \"#utility.yul\":485:491   */\n      0x00\n        /* \"#utility.yul\":519:524   */\n      dup2\n        /* \"#utility.yul\":513:525   */\n      mload\n        /* \"#utility.yul\":503:525   */\n      swap1\n      pop\n        /* \"#utility.yul\":434:532   */\n      swap2\n      swap1\n      pop\n      jump\t// out\n        /* \"#utility.yul\":538:706   */\n    tag_49:\n        /* \"#utility.yul\":621:632   */\n      0x00\n        /* \"#utility.yul\":655:661   */\n      dup3\n        /* \"#utility.yul\":650:653   */\n      dup3\n        /* \"#utility.yul\":643:662   */\n      mstore\n        /* \"#utility.yul\":695:699   */\n      0x20\n        /* \"#utility.yul\":690:693   */\n      dup3\n        /* \"#utility.yul\":686:700   */\n      add\n        /* \"#utility.yul\":671:700   */\n      swap1\n      pop\n        /* \"#utility.yul\":538:706   */\n      swap3\n      swap2\n      pop\n      pop\n      jump\t// out\n        /* \"#utility.yul\":712:1019   */\n    tag_50:\n        /* \"#utility.yul\":780:781   */\n      0x00\n        /* \"#utility.yul\":790:903   */\n    tag_68:\n        /* \"#utility.yul\":804:810   */\n      dup4\n        /* \"#utility.yul\":801:802   */\n      dup2\n        /* \"#utility.yul\":798:811   */\n      lt\n        /* \"#utility.yul\":790:903   */\n      iszero\n      tag_70\n      jumpi\n        /* \"#utility.yul\":889:890   */\n      dup1\n        /* \"#utility.yul\":884:887   */\n      dup3\n        /* \"#utility.yul\":880:891   */\n      add\n        /* \"#utility.yul\":874:892   */\n      mload\n        /* \"#utility.yul\":870:871   */\n      dup2\n        /* \"#utility.yul\":865:868   */\n      dup5\n        /* \"#utility.yul\":861:872   */\n      add\n        /* \"#utility.yul\":854:893   */\n      mstore\n        /* \"#utility.yul\":826:828   */\n      0x20\n        /* \"#utility.yul\":823:824   */\n      dup2\n        /* \"#utility.yul\":819:829   */\n      add\n        /* \"#utility.yul\":814:829   */\n      swap1\n      pop\n        /* \"#utility.yul\":790:903   */\n      jump(tag_68)\n    tag_70:\n        /* \"#utility.yul\":921:927   */\n      dup4\n        /* \"#utility.yul\":918:919   */\n      dup2\n        /* \"#utility.yul\":915:928   */\n      gt\n        /* \"#utility.yul\":912:1013   */\n      iszero\n      tag_71\n      jumpi\n        /* \"#utility.yul\":1001:1002   */\n      0x00\n        /* \"#utility.yul\":992:998   */\n      dup5\n        /* \"#utility.yul\":987:990   */\n      dup5\n        /* \"#utility.yul\":983:999   */\n      add\n        /* \"#utility.yul\":976:1003   */\n      mstore\n        /* \"#utility.yul\":912:1013   */\n    tag_71:\n        /* \"#utility.yul\":761:1019   */\n      pop\n        /* \"#utility.yul\":712:1019   */\n      pop\n      pop\n      pop\n      jump\t// out\n        /* \"#utility.yul\":1025:1127   */\n    tag_51:\n        /* \"#utility.yul\":1066:1072   */\n      0x00\n        /* \"#utility.yul\":1117:1119   */\n      0x1f\n        /* \"#utility.yul\":1113:1120   */\n      not\n        /* \"#utility.yul\":1108:1110   */\n      0x1f\n        /* \"#utility.yul\":1101:1106   */\n      dup4\n        /* \"#utility.yul\":1097:1111   */\n      add\n        /* \"#utility.yul\":1093:1121   */\n      and\n        /* \"#utility.yul\":1083:1121   */\n      swap1\n      pop\n        /* \"#utility.yul\":1025:1127   */\n      swap2\n      swap1\n      pop\n      jump\t// out\n        /* \"#utility.yul\":1133:1493   */\n    tag_52:\n        /* \"#utility.yul\":1219:1222   */\n      0x00\n        /* \"#utility.yul\":1247:1285   */\n      tag_74\n        /* \"#utility.yul\":1279:1284   */\n      dup3\n        /* \"#utility.yul\":1247:1285   */\n      tag_48\n      jump\t// in\n    tag_74:\n        /* \"#utility.yul\":1301:1371   */\n      tag_75\n        /* \"#utility.yul\":1364:1370   */\n      dup2\n        /* \"#utility.yul\":1359:1362   */\n      dup6\n        /* \"#utility.yul\":1301:1371   */\n      tag_49\n      jump\t// in\n    tag_75:\n        /* \"#utility.yul\":1294:1371   */\n      swap4\n      pop\n        /* \"#utility.yul\":1380:1432   */\n      tag_76\n        /* \"#utility.yul\":1425:1431   */\n      dup2\n        /* \"#utility.yul\":1420:1423   */\n      dup6\n        /* \"#utility.yul\":1413:1417   */\n      0x20\n        /* \"#utility.yul\":1406:1411   */\n      dup7\n        /* \"#utility.yul\":1402:1418   */\n      add\n        /* \"#utility.yul\":1380:1432   */\n      tag_50\n      jump\t// in\n    tag_76:\n        /* \"#utility.yul\":1457:1486   */\n      tag_77\n        /* \"#utility.yul\":1479:1485   */\n      dup2\n        /* \"#utility.yul\":1457:1486   */\n      tag_51\n      jump\t// in\n    tag_77:\n        /* \"#utility.yul\":1452:1455   */\n      dup5\n        /* \"#utility.yul\":1448:1487   */\n      add\n        /* \"#utility.yul\":1441:1487   */\n      swap2\n      pop\n        /* \"#utility.yul\":1223:1493   */\n      pop\n        /* \"#utility.yul\":1133:1493   */\n      swap3\n      swap2\n      pop\n      pop\n      jump\t// out\n        /* \"#utility.yul\":1499:1808   */\n    tag_19:\n        /* \"#utility.yul\":1610:1614   */\n      0x00\n        /* \"#utility.yul\":1648:1650   */\n      0x20\n        /* \"#utility.yul\":1637:1646   */\n      dup3\n        /* \"#utility.yul\":1633:1651   */\n      add\n        /* \"#utility.yul\":1625:1651   */\n      swap1\n      pop\n        /* \"#utility.yul\":1697:1706   */\n      dup2\n        /* \"#utility.yul\":1691:1695   */\n      dup2\n        /* \"#utility.yul\":1687:1707   */\n      sub\n        /* \"#utility.yul\":1683:1684   */\n      0x00\n        /* \"#utility.yul\":1672:1681   */\n      dup4\n        /* \"#utility.yul\":1668:1685   */\n      add\n        /* \"#utility.yul\":1661:1708   */\n      mstore\n        /* \"#utility.yul\":1725:1801   */\n      tag_79\n        /* \"#utility.yul\":1796:1800   */\n      dup2\n        /* \"#utility.yul\":1787:1793   */\n      dup5\n        /* \"#utility.yul\":1725:1801   */\n      tag_52\n      jump\t// in\n    tag_79:\n        /* \"#utility.yul\":1717:1801   */\n      swap1\n      pop\n        /* \"#utility.yul\":1499:1808   */\n      swap3\n      swap2\n      pop\n      pop\n      jump\t// out\n        /* \"#utility.yul\":1814:1940   */\n    tag_53:\n        /* \"#utility.yul\":1851:1858   */\n      0x00\n        /* \"#utility.yul\":1891:1933   */\n      0xffffffffffffffffffffffffffffffffffffffff\n        /* \"#utility.yul\":1884:1889   */\n      dup3\n        /* \"#utility.yul\":1880:1934   */\n      and\n        /* \"#utility.yul\":1869:1934   */\n      swap1\n      pop\n        /* \"#utility.yul\":1814:1940   */\n      swap2\n      swap1\n      pop\n      jump\t// out\n        /* \"#utility.yul\":1946:2042   */\n    tag_54:\n        /* \"#utility.yul\":1983:1990   */\n      0x00\n        /* \"#utility.yul\":2012:2036   */\n      tag_82\n        /* \"#utility.yul\":2030:2035   */\n      dup3\n        /* \"#utility.yul\":2012:2036   */\n      tag_53\n      jump\t// in\n    tag_82:\n        /* \"#utility.yul\":2001:2036   */\n      swap1\n      pop\n        /* \"#utility.yul\":1946:2042   */\n      swap2\n      swap1\n      pop\n      jump\t// out\n        /* \"#utility.yul\":2048:2166   */\n    tag_55:\n        /* \"#utility.yul\":2135:2159   */\n      tag_84\n        /* \"#utility.yul\":2153:2158   */\n      dup2\n        /* \"#utility.yul\":2135:2159   */\n      tag_54\n      jump\t// in\n    tag_84:\n        /* \"#utility.yul\":2130:2133   */\n      dup3\n        /* \"#utility.yul\":2123:2160   */\n      mstore\n        /* \"#utility.yul\":2048:2166   */\n      pop\n      pop\n      jump\t// out\n        /* \"#utility.yul\":2172:2394   */\n    tag_29:\n        /* \"#utility.yul\":2265:2269   */\n      0x00\n        /* \"#utility.yul\":2303:2305   */\n      0x20\n        /* \"#utility.yul\":2292:2301   */\n      dup3\n        /* \"#utility.yul\":2288:2306   */\n      add\n        /* \"#utility.yul\":2280:2306   */\n      swap1\n      pop\n        /* \"#utility.yul\":2316:2387   */\n      tag_86\n        /* \"#utility.yul\":2384:2385   */\n      0x00\n        /* \"#utility.yul\":2373:2382   */\n      dup4\n        /* \"#utility.yul\":2369:2386   */\n      add\n        /* \"#utility.yul\":2360:2366   */\n      dup5\n        /* \"#utility.yul\":2316:2387   */\n      tag_55\n      jump\t// in\n    tag_86:\n        /* \"#utility.yul\":2172:2394   */\n      swap3\n      swap2\n      pop\n      pop\n      jump\t// out\n        /* \"#utility.yul\":2400:2549   */\n    tag_56:\n        /* \"#utility.yul\":2436:2443   */\n      0x00\n        /* \"#utility.yul\":2476:2542   */\n      0xffffffff00000000000000000000000000000000000000000000000000000000\n        /* \"#utility.yul\":2469:2474   */\n      dup3\n        /* \"#utility.yul\":2465:2543   */\n      and\n        /* \"#utility.yul\":2454:2543   */\n      swap1\n      pop\n        /* \"#utility.yul\":2400:2549   */\n      swap2\n      swap1\n      pop\n      jump\t// out\n        /* \"#utility.yul\":2555:2670   */\n    tag_57:\n        /* \"#utility.yul\":2640:2663   */\n      tag_89\n        /* \"#utility.yul\":2657:2662   */\n      dup2\n        /* \"#utility.yul\":2640:2663   */\n      tag_56\n      jump\t// in\n    tag_89:\n        /* \"#utility.yul\":2635:2638   */\n      dup3\n        /* \"#utility.yul\":2628:2664   */\n      mstore\n        /* \"#utility.yul\":2555:2670   */\n      pop\n      pop\n      jump\t// out\n        /* \"#utility.yul\":2676:2894   */\n    tag_33:\n        /* \"#utility.yul\":2767:2771   */\n      0x00\n        /* \"#utility.yul\":2805:2807   */\n      0x20\n        /* \"#utility.yul\":2794:2803   */\n      dup3\n        /* \"#utility.yul\":2790:2808   */\n      add\n        /* \"#utility.yul\":2782:2808   */\n      swap1\n      pop\n        /* \"#utility.yul\":2818:2887   */\n      tag_91\n        /* \"#utility.yul\":2884:2885   */\n      0x00\n        /* \"#utility.yul\":2873:2882   */\n      dup4\n        /* \"#utility.yul\":2869:2886   */\n      add\n        /* \"#utility.yul\":2860:2866   */\n      dup5\n        /* \"#utility.yul\":2818:2887   */\n      tag_57\n      jump\t// in\n    tag_91:\n        /* \"#utility.yul\":2676:2894   */\n      swap3\n      swap2\n      pop\n      pop\n      jump\t// out\n        /* \"#utility.yul\":2900:3080   */\n    tag_58:\n        /* \"#utility.yul\":2948:3025   */\n      0x4e487b7100000000000000000000000000000000000000000000000000000000\n        /* \"#utility.yul\":2945:2946   */\n      0x00\n        /* \"#utility.yul\":2938:3026   */\n      mstore\n        /* \"#utility.yul\":3045:3049   */\n      0x22\n        /* \"#utility.yul\":3042:3043   */\n      0x04\n        /* \"#utility.yul\":3035:3050   */\n      mstore\n        /* \"#utility.yul\":3069:3073   */\n      0x24\n        /* \"#utility.yul\":3066:3067   */\n      0x00\n        /* \"#utility.yul\":3059:3074   */\n      revert\n        /* \"#utility.yul\":3086:3406   */\n    tag_41:\n        /* \"#utility.yul\":3130:3136   */\n      0x00\n        /* \"#utility.yul\":3167:3168   */\n      0x02\n        /* \"#utility.yul\":3161:3165   */\n      dup3\n        /* \"#utility.yul\":3157:3169   */\n      div\n        /* \"#utility.yul\":3147:3169   */\n      swap1\n      pop\n        /* \"#utility.yul\":3214:3215   */\n      0x01\n        /* \"#utility.yul\":3208:3212   */\n      dup3\n        /* \"#utility.yul\":3204:3216   */\n      and\n        /* \"#utility.yul\":3235:3253   */\n      dup1\n        /* \"#utility.yul\":3225:3306   */\n      tag_94\n      jumpi\n        /* \"#utility.yul\":3291:3295   */\n      0x7f\n        /* \"#utility.yul\":3283:3289   */\n      dup3\n        /* \"#utility.yul\":3279:3296   */\n      and\n        /* \"#utility.yul\":3269:3296   */\n      swap2\n      pop\n        /* \"#utility.yul\":3225:3306   */\n    tag_94:\n        /* \"#utility.yul\":3353:3355   */\n      0x20\n        /* \"#utility.yul\":3345:3351   */\n      dup3\n        /* \"#utility.yul\":3342:3356   */\n      lt\n        /* \"#utility.yul\":3322:3340   */\n      dup2\n        /* \"#utility.yul\":3319:3357   */\n      sub\n        /* \"#utility.yul\":3316:3400   */\n      tag_95\n      jumpi\n        /* \"#utility.yul\":3372:3390   */\n      tag_96\n      tag_58\n      jump\t// in\n    tag_96:\n        /* \"#utility.yul\":3316:3400   */\n    tag_95:\n        /* \"#utility.yul\":3137:3406   */\n      pop\n        /* \"#utility.yul\":3086:3406   */\n      swap2\n      swap1\n      pop\n      jump\t// out\n\n    auxdata: 0xa26469706673582212203ffba652b149dcc2ecad49f02d88d3cbf237b5e5454fc1da1342335af605b3ec64736f6c634300080d0033\n}\n",
				"bytecode": {
					"linkReferences": {},
					"object": "608060405260008060006101000a81548160ff021916908315150217905550600015600060016101000a81548160ff021916908315150217905550600080610045575060015b600060026101000a81548160ff021916908315150217905550600115156000151514600060036101000a81548160ff0219169083151502179055506000801561008c575060015b600060046101000a81548160ff021916908315150217905550631234567860e01b600060056101000a81548163ffffffff021916908360e01c02179055506040518060400160405280600681526020017f535452494e4700000000000000000000000000000000000000000000000000008152506001908051906020019061011592919061017d565b5073d8b934580fce35a11b58c6d73adee468a2833fa8600260006101000a81548173ffffffffffffffffffffffffffffffffffffffff021916908373ffffffffffffffffffffffffffffffffffffffff16021790555034801561017757600080fd5b50610280565b8280546101899061024f565b90600052602060002090601f0160209004810192826101ab57600085556101f2565b82601f106101c457805160ff19168380011785556101f2565b828001600101855582156101f2579182015b828111156101f15782518255916020019190600101906101d6565b5b5090506101ff9190610203565b5090565b5b8082111561021c576000816000905550600101610204565b5090565b7f4e487b7100000000000000000000000000000000000000000000000000000000600052602260045260246000fd5b6000600282049050600182168061026757607f821691505b60208210810361027a57610279610220565b5b50919050565b6104da8061028f6000396000f3fe608060405234801561001057600080fd5b50600436106100885760003560e01c8063767800de1161005b578063767800de14610105578063ac9c195914610123578063e9b6190914610141578063ee4950021461015f57610088565b80630add6ef21461008d5780632c622fae146100ab5780633db3fb0a146100c95780634df7e3d0146100e7575b600080fd5b61009561017d565b6040516100a291906102bc565b60405180910390f35b6100b3610190565b6040516100c09190610370565b60405180910390f35b6100d161021e565b6040516100de91906102bc565b60405180910390f35b6100ef610231565b6040516100fc91906102bc565b60405180910390f35b61010d610242565b60405161011a91906103d3565b60405180910390f35b61012b610268565b6040516101389190610429565b60405180910390f35b61014961027b565b60405161015691906102bc565b60405180910390f35b61016761028e565b60405161017491906102bc565b60405180910390f35b600060029054906101000a900460ff1681565b6001805461019d90610473565b80601f01602080910402602001604051908101604052809291908181526020018280546101c990610473565b80156102165780601f106101eb57610100808354040283529160200191610216565b820191906000526020600020905b8154815290600101906020018083116101f957829003601f168201915b505050505081565b600060049054906101000a900460ff1681565b60008054906101000a900460ff1681565b600260009054906101000a900473ffffffffffffffffffffffffffffffffffffffff1681565b600060059054906101000a900460e01b81565b600060039054906101000a900460ff1681565b600060019054906101000a900460ff1681565b60008115159050919050565b6102b6816102a1565b82525050565b60006020820190506102d160008301846102ad565b92915050565b600081519050919050565b600082825260208201905092915050565b60005b838110156103115780820151818401526020810190506102f6565b83811115610320576000848401525b50505050565b6000601f19601f8301169050919050565b6000610342826102d7565b61034c81856102e2565b935061035c8185602086016102f3565b61036581610326565b840191505092915050565b6000602082019050818103600083015261038a8184610337565b905092915050565b600073ffffffffffffffffffffffffffffffffffffffff82169050919050565b60006103bd82610392565b9050919050565b6103cd816103b2565b82525050565b60006020820190506103e860008301846103c4565b92915050565b60007fffffffff0000000000000000000000000000000000000000000000000000000082169050919050565b610423816103ee565b82525050565b600060208201905061043e600083018461041a565b92915050565b7f4e487b7100000000000000000000000000000000000000000000000000000000600052602260045260246000fd5b6000600282049050600182168061048b57607f821691505b60208210810361049e5761049d610444565b5b5091905056fea26469706673582212203ffba652b149dcc2ecad49f02d88d3cbf237b5e5454fc1da1342335af605b3ec64736f6c634300080d0033",
					"opcodes": "PUSH1 0x80 PUSH1 0x40 MSTORE PUSH1 0x0 DUP1 PUSH1 0x0 PUSH2 0x100 EXP DUP2 SLOAD DUP2 PUSH1 0xFF MUL NOT AND SWAP1 DUP4 ISZERO ISZERO MUL OR SWAP1 SSTORE POP PUSH1 0x0 ISZERO PUSH1 0x0 PUSH1 0x1 PUSH2 0x100 EXP DUP2 SLOAD DUP2 PUSH1 0xFF MUL NOT AND SWAP1 DUP4 ISZERO ISZERO MUL OR SWAP1 SSTORE POP PUSH1 0x0 DUP1 PUSH2 0x45 JUMPI POP PUSH1 0x1 JUMPDEST PUSH1 0x0 PUSH1 0x2 PUSH2 0x100 EXP DUP2 SLOAD DUP2 PUSH1 0xFF MUL NOT AND SWAP1 DUP4 ISZERO ISZERO MUL OR SWAP1 SSTORE POP PUSH1 0x1 ISZERO ISZERO PUSH1 0x0 ISZERO ISZERO EQ PUSH1 0x0 PUSH1 0x3 PUSH2 0x100 EXP DUP2 SLOAD DUP2 PUSH1 0xFF MUL NOT AND SWAP1 DUP4 ISZERO ISZERO MUL OR SWAP1 SSTORE POP PUSH1 0x0 DUP1 ISZERO PUSH2 0x8C JUMPI POP PUSH1 0x1 JUMPDEST PUSH1 0x0 PUSH1 0x4 PUSH2 0x100 EXP DUP2 SLOAD DUP2 PUSH1 0xFF MUL NOT AND SWAP1 DUP4 ISZERO ISZERO MUL OR SWAP1 SSTORE POP PUSH4 0x12345678 PUSH1 0xE0 SHL PUSH1 0x0 PUSH1 0x5 PUSH2 0x100 EXP DUP2 SLOAD DUP2 PUSH4 0xFFFFFFFF MUL NOT AND SWAP1 DUP4 PUSH1 0xE0 SHR MUL OR SWAP1 SSTORE POP PUSH1 0x40 MLOAD DUP1 PUSH1 0x40 ADD PUSH1 0x40 MSTORE DUP1 PUSH1 0x6 DUP2 MSTORE PUSH1 0x20 ADD PUSH32 0x535452494E470000000000000000000000000000000000000000000000000000 DUP2 MSTORE POP PUSH1 0x1 SWAP1 DUP1 MLOAD SWAP1 PUSH1 0x20 ADD SWAP1 PUSH2 0x115 SWAP3 SWAP2 SWAP1 PUSH2 0x17D JUMP JUMPDEST POP PUSH20 0xD8B934580FCE35A11B58C6D73ADEE468A2833FA8 PUSH1 0x2 PUSH1 0x0 PUSH2 0x100 EXP DUP2 SLOAD DUP2 PUSH20 0xFFFFFFFFFFFFFFFFFFFFFFFFFFFFFFFFFFFFFFFF MUL NOT AND SWAP1 DUP4 PUSH20 0xFFFFFFFFFFFFFFFFFFFFFFFFFFFFFFFFFFFFFFFF AND MUL OR SWAP1 SSTORE POP CALLVALUE DUP1 ISZERO PUSH2 0x177 JUMPI PUSH1 0x0 DUP1 REVERT JUMPDEST POP PUSH2 0x280 JUMP JUMPDEST DUP3 DUP1 SLOAD PUSH2 0x189 SWAP1 PUSH2 0x24F JUMP JUMPDEST SWAP1 PUSH1 0x0 MSTORE PUSH1 0x20 PUSH1 0x0 KECCAK256 SWAP1 PUSH1 0x1F ADD PUSH1 0x20 SWAP1 DIV DUP2 ADD SWAP3 DUP3 PUSH2 0x1AB JUMPI PUSH1 0x0 DUP6 SSTORE PUSH2 0x1F2 JUMP JUMPDEST DUP3 PUSH1 0x1F LT PUSH2 0x1C4 JUMPI DUP1 MLOAD PUSH1 0xFF NOT AND DUP4 DUP1 ADD OR DUP6 SSTORE PUSH2 0x1F2 JUMP JUMPDEST DUP3 DUP1 ADD PUSH1 0x1 ADD DUP6 SSTORE DUP3 ISZERO PUSH2 0x1F2 JUMPI SWAP2 DUP3 ADD JUMPDEST DUP3 DUP2 GT ISZERO PUSH2 0x1F1 JUMPI DUP3 MLOAD DUP3 SSTORE SWAP2 PUSH1 0x20 ADD SWAP2 SWAP1 PUSH1 0x1 ADD SWAP1 PUSH2 0x1D6 JUMP JUMPDEST JUMPDEST POP SWAP1 POP PUSH2 0x1FF SWAP2 SWAP1 PUSH2 0x203 JUMP JUMPDEST POP SWAP1 JUMP JUMPDEST JUMPDEST DUP1 DUP3 GT ISZERO PUSH2 0x21C JUMPI PUSH1 0x0 DUP2 PUSH1 0x0 SWAP1 SSTORE POP PUSH1 0x1 ADD PUSH2 0x204 JUMP JUMPDEST POP SWAP1 JUMP JUMPDEST PUSH32 0x4E487B7100000000000000000000000000000000000000000000000000000000 PUSH1 0x0 MSTORE PUSH1 0x22 PUSH1 0x4 MSTORE PUSH1 0x24 PUSH1 0x0 REVERT JUMPDEST PUSH1 0x0 PUSH1 0x2 DUP3 DIV SWAP1 POP PUSH1 0x1 DUP3 AND DUP1 PUSH2 0x267 JUMPI PUSH1 0x7F DUP3 AND SWAP2 POP JUMPDEST PUSH1 0x20 DUP3 LT DUP2 SUB PUSH2 0x27A JUMPI PUSH2 0x279 PUSH2 0x220 JUMP JUMPDEST JUMPDEST POP SWAP2 SWAP1 POP JUMP JUMPDEST PUSH2 0x4DA DUP1 PUSH2 0x28F PUSH1 0x0 CODECOPY PUSH1 0x0 RETURN INVALID PUSH1 0x80 PUSH1 0x40 MSTORE CALLVALUE DUP1 ISZERO PUSH2 0x10 JUMPI PUSH1 0x0 DUP1 REVERT JUMPDEST POP PUSH1 0x4 CALLDATASIZE LT PUSH2 0x88 JUMPI PUSH1 0x0 CALLDATALOAD PUSH1 0xE0 SHR DUP1 PUSH4 0x767800DE GT PUSH2 0x5B JUMPI DUP1 PUSH4 0x767800DE EQ PUSH2 0x105 JUMPI DUP1 PUSH4 0xAC9C1959 EQ PUSH2 0x123 JUMPI DUP1 PUSH4 0xE9B61909 EQ PUSH2 0x141 JUMPI DUP1 PUSH4 0xEE495002 EQ PUSH2 0x15F JUMPI PUSH2 0x88 JUMP JUMPDEST DUP1 PUSH4 0xADD6EF2 EQ PUSH2 0x8D JUMPI DUP1 PUSH4 0x2C622FAE EQ PUSH2 0xAB JUMPI DUP1 PUSH4 0x3DB3FB0A EQ PUSH2 0xC9 JUMPI DUP1 PUSH4 0x4DF7E3D0 EQ PUSH2 0xE7 JUMPI JUMPDEST PUSH1 0x0 DUP1 REVERT JUMPDEST PUSH2 0x95 PUSH2 0x17D JUMP JUMPDEST PUSH1 0x40 MLOAD PUSH2 0xA2 SWAP2 SWAP1 PUSH2 0x2BC JUMP JUMPDEST PUSH1 0x40 MLOAD DUP1 SWAP2 SUB SWAP1 RETURN JUMPDEST PUSH2 0xB3 PUSH2 0x190 JUMP JUMPDEST PUSH1 0x40 MLOAD PUSH2 0xC0 SWAP2 SWAP1 PUSH2 0x370 JUMP JUMPDEST PUSH1 0x40 MLOAD DUP1 SWAP2 SUB SWAP1 RETURN JUMPDEST PUSH2 0xD1 PUSH2 0x21E JUMP JUMPDEST PUSH1 0x40 MLOAD PUSH2 0xDE SWAP2 SWAP1 PUSH2 0x2BC JUMP JUMPDEST PUSH1 0x40 MLOAD DUP1 SWAP2 SUB SWAP1 RETURN JUMPDEST PUSH2 0xEF PUSH2 0x231 JUMP JUMPDEST PUSH1 0x40 MLOAD PUSH2 0xFC SWAP2 SWAP1 PUSH2 0x2BC JUMP JUMPDEST PUSH1 0x40 MLOAD DUP1 SWAP2 SUB SWAP1 RETURN JUMPDEST PUSH2 0x10D PUSH2 0x242 JUMP JUMPDEST PUSH1 0x40 MLOAD PUSH2 0x11A SWAP2 SWAP1 PUSH2 0x3D3 JUMP JUMPDEST PUSH1 0x40 MLOAD DUP1 SWAP2 SUB SWAP1 RETURN JUMPDEST PUSH2 0x12B PUSH2 0x268 JUMP JUMPDEST PUSH1 0x40 MLOAD PUSH2 0x138 SWAP2 SWAP1 PUSH2 0x429 JUMP JUMPDEST PUSH1 0x40 MLOAD DUP1 SWAP2 SUB SWAP1 RETURN JUMPDEST PUSH2 0x149 PUSH2 0x27B JUMP JUMPDEST PUSH1 0x40 MLOAD PUSH2 0x156 SWAP2 SWAP1 PUSH2 0x2BC JUMP JUMPDEST PUSH1 0x40 MLOAD DUP1 SWAP2 SUB SWAP1 RETURN JUMPDEST PUSH2 0x167 PUSH2 0x28E JUMP JUMPDEST PUSH1 0x40 MLOAD PUSH2 0x174 SWAP2 SWAP1 PUSH2 0x2BC JUMP JUMPDEST PUSH1 0x40 MLOAD DUP1 SWAP2 SUB SWAP1 RETURN JUMPDEST PUSH1 0x0 PUSH1 0x2 SWAP1 SLOAD SWAP1 PUSH2 0x100 EXP SWAP1 DIV PUSH1 0xFF AND DUP2 JUMP JUMPDEST PUSH1 0x1 DUP1 SLOAD PUSH2 0x19D SWAP1 PUSH2 0x473 JUMP JUMPDEST DUP1 PUSH1 0x1F ADD PUSH1 0x20 DUP1 SWAP2 DIV MUL PUSH1 0x20 ADD PUSH1 0x40 MLOAD SWAP1 DUP2 ADD PUSH1 0x40 MSTORE DUP1 SWAP3 SWAP2 SWAP1 DUP2 DUP2 MSTORE PUSH1 0x20 ADD DUP3 DUP1 SLOAD PUSH2 0x1C9 SWAP1 PUSH2 0x473 JUMP JUMPDEST DUP1 ISZERO PUSH2 0x216 JUMPI DUP1 PUSH1 0x1F LT PUSH2 0x1EB JUMPI PUSH2 0x100 DUP1 DUP4 SLOAD DIV MUL DUP4 MSTORE SWAP2 PUSH1 0x20 ADD SWAP2 PUSH2 0x216 JUMP JUMPDEST DUP3 ADD SWAP2 SWAP1 PUSH1 0x0 MSTORE PUSH1 0x20 PUSH1 0x0 KECCAK256 SWAP1 JUMPDEST DUP2 SLOAD DUP2 MSTORE SWAP1 PUSH1 0x1 ADD SWAP1 PUSH1 0x20 ADD DUP1 DUP4 GT PUSH2 0x1F9 JUMPI DUP3 SWAP1 SUB PUSH1 0x1F AND DUP3 ADD SWAP2 JUMPDEST POP POP POP POP POP DUP2 JUMP JUMPDEST PUSH1 0x0 PUSH1 0x4 SWAP1 SLOAD SWAP1 PUSH2 0x100 EXP SWAP1 DIV PUSH1 0xFF AND DUP2 JUMP JUMPDEST PUSH1 0x0 DUP1 SLOAD SWAP1 PUSH2 0x100 EXP SWAP1 DIV PUSH1 0xFF AND DUP2 JUMP JUMPDEST PUSH1 0x2 PUSH1 0x0 SWAP1 SLOAD SWAP1 PUSH2 0x100 EXP SWAP1 DIV PUSH20 0xFFFFFFFFFFFFFFFFFFFFFFFFFFFFFFFFFFFFFFFF AND DUP2 JUMP JUMPDEST PUSH1 0x0 PUSH1 0x5 SWAP1 SLOAD SWAP1 PUSH2 0x100 EXP SWAP1 DIV PUSH1 0xE0 SHL DUP2 JUMP JUMPDEST PUSH1 0x0 PUSH1 0x3 SWAP1 SLOAD SWAP1 PUSH2 0x100 EXP SWAP1 DIV PUSH1 0xFF AND DUP2 JUMP JUMPDEST PUSH1 0x0 PUSH1 0x1 SWAP1 SLOAD SWAP1 PUSH2 0x100 EXP SWAP1 DIV PUSH1 0xFF AND DUP2 JUMP JUMPDEST PUSH1 0x0 DUP2 ISZERO ISZERO SWAP1 POP SWAP2 SWAP1 POP JUMP JUMPDEST PUSH2 0x2B6 DUP2 PUSH2 0x2A1 JUMP JUMPDEST DUP3 MSTORE POP POP JUMP JUMPDEST PUSH1 0x0 PUSH1 0x20 DUP3 ADD SWAP1 POP PUSH2 0x2D1 PUSH1 0x0 DUP4 ADD DUP5 PUSH2 0x2AD JUMP JUMPDEST SWAP3 SWAP2 POP POP JUMP JUMPDEST PUSH1 0x0 DUP2 MLOAD SWAP1 POP SWAP2 SWAP1 POP JUMP JUMPDEST PUSH1 0x0 DUP3 DUP3 MSTORE PUSH1 0x20 DUP3 ADD SWAP1 POP SWAP3 SWAP2 POP POP JUMP JUMPDEST PUSH1 0x0 JUMPDEST DUP4 DUP2 LT ISZERO PUSH2 0x311 JUMPI DUP1 DUP3 ADD MLOAD DUP2 DUP5 ADD MSTORE PUSH1 0x20 DUP2 ADD SWAP1 POP PUSH2 0x2F6 JUMP JUMPDEST DUP4 DUP2 GT ISZERO PUSH2 0x320 JUMPI PUSH1 0x0 DUP5 DUP5 ADD MSTORE JUMPDEST POP POP POP POP JUMP JUMPDEST PUSH1 0x0 PUSH1 0x1F NOT PUSH1 0x1F DUP4 ADD AND SWAP1 POP SWAP2 SWAP1 POP JUMP JUMPDEST PUSH1 0x0 PUSH2 0x342 DUP3 PUSH2 0x2D7 JUMP JUMPDEST PUSH2 0x34C DUP2 DUP6 PUSH2 0x2E2 JUMP JUMPDEST SWAP4 POP PUSH2 0x35C DUP2 DUP6 PUSH1 0x20 DUP7 ADD PUSH2 0x2F3 JUMP JUMPDEST PUSH2 0x365 DUP2 PUSH2 0x326 JUMP JUMPDEST DUP5 ADD SWAP2 POP POP SWAP3 SWAP2 POP POP JUMP JUMPDEST PUSH1 0x0 PUSH1 0x20 DUP3 ADD SWAP1 POP DUP2 DUP2 SUB PUSH1 0x0 DUP4 ADD MSTORE PUSH2 0x38A DUP2 DUP5 PUSH2 0x337 JUMP JUMPDEST SWAP1 POP SWAP3 SWAP2 POP POP JUMP JUMPDEST PUSH1 0x0 PUSH20 0xFFFFFFFFFFFFFFFFFFFFFFFFFFFFFFFFFFFFFFFF DUP3 AND SWAP1 POP SWAP2 SWAP1 POP JUMP JUMPDEST PUSH1 0x0 PUSH2 0x3BD DUP3 PUSH2 0x392 JUMP JUMPDEST SWAP1 POP SWAP2 SWAP1 POP JUMP JUMPDEST PUSH2 0x3CD DUP2 PUSH2 0x3B2 JUMP JUMPDEST DUP3 MSTORE POP POP JUMP JUMPDEST PUSH1 0x0 PUSH1 0x20 DUP3 ADD SWAP1 POP PUSH2 0x3E8 PUSH1 0x0 DUP4 ADD DUP5 PUSH2 0x3C4 JUMP JUMPDEST SWAP3 SWAP2 POP POP JUMP JUMPDEST PUSH1 0x0 PUSH32 0xFFFFFFFF00000000000000000000000000000000000000000000000000000000 DUP3 AND SWAP1 POP SWAP2 SWAP1 POP JUMP JUMPDEST PUSH2 0x423 DUP2 PUSH2 0x3EE JUMP JUMPDEST DUP3 MSTORE POP POP JUMP JUMPDEST PUSH1 0x0 PUSH1 0x20 DUP3 ADD SWAP1 POP PUSH2 0x43E PUSH1 0x0 DUP4 ADD DUP5 PUSH2 0x41A JUMP JUMPDEST SWAP3 SWAP2 POP POP JUMP JUMPDEST PUSH32 0x4E487B7100000000000000000000000000000000000000000000000000000000 PUSH1 0x0 MSTORE PUSH1 0x22 PUSH1 0x4 MSTORE PUSH1 0x24 PUSH1 0x0 REVERT JUMPDEST PUSH1 0x0 PUSH1 0x2 DUP3 DIV SWAP1 POP PUSH1 0x1 DUP3 AND DUP1 PUSH2 0x48B JUMPI PUSH1 0x7F DUP3 AND SWAP2 POP JUMPDEST PUSH1 0x20 DUP3 LT DUP2 SUB PUSH2 0x49E JUMPI PUSH2 0x49D PUSH2 0x444 JUMP JUMPDEST JUMPDEST POP SWAP2 SWAP1 POP JUMP INVALID LOG2 PUSH5 0x6970667358 0x22 SLT KECCAK256 EXTCODEHASH 0xFB 0xA6 MSTORE 0xB1 0x49 0xDC 0xC2 0xEC 0xAD 0x49 CREATE 0x2D DUP9 0xD3 0xCB CALLCODE CALLDATACOPY 0xB5 0xE5 GASLIMIT 0x4F 0xC1 0xDA SGT TIMESTAMP CALLER GAS 0xF6 SDIV 0xB3 0xEC PUSH5 0x736F6C6343 STOP ADDMOD 0xD STOP CALLER "
				},
				"gasEstimates": {
					"creation": {
						"codeDepositCost": "248400",
						"executionCost": "infinite",
						"totalCost": "infinite"
					},
					"external": {
						"addr()": "2514",
						"b()": "2535",
						"b1()": "2587",
						"b2()": "2522",
						"b3()": "2565",
						"b4()": "2566",
						"bt()": "2543",
						"bt2()": "infinite"
					}
				},
				"methodIdentifiers": {
					"addr()": "767800de",
					"b()": "4df7e3d0",
					"b1()": "ee495002",
					"b2()": "0add6ef2",
					"b3()": "e9b61909",
					"b4()": "3db3fb0a",
					"bt()": "ac9c1959",
					"bt2()": "2c622fae"
				}
			},
			"userdoc": {
				"kind": "user",
				"methods": {},
				"version": 1
			}
		}
	}
}