{
	"lecture/lec15.sol": {
		"Son": {
			"abi": [
				{
					"anonymous": false,
					"inputs": [
						{
							"indexed": false,
							"internalType": "string",
							"name": "name",
							"type": "string"
						}
					],
					"name": "FatherName",
					"type": "event"
				},
				{
					"anonymous": false,
					"inputs": [
						{
							"indexed": false,
							"internalType": "string",
							"name": "name",
							"type": "string"
						}
					],
					"name": "SonName",
					"type": "event"
				},
				{
					"inputs": [],
					"name": "who",
					"outputs": [],
					"stateMutability": "nonpayable",
					"type": "function"
				}
			],
			"devdoc": {
				"kind": "dev",
				"methods": {},
				"version": 1
			},
			"evm": {
				"assembly": "    /* \"lecture/lec15.sol\":605:807  contract Son is Father{\r... */\n  mstore(0x40, 0x80)\n  callvalue\n  dup1\n  iszero\n  tag_1\n  jumpi\n  0x00\n  dup1\n  revert\ntag_1:\n  pop\n  dataSize(sub_0)\n  dup1\n  dataOffset(sub_0)\n  0x00\n  codecopy\n  0x00\n  return\nstop\n\nsub_0: assembly {\n        /* \"lecture/lec15.sol\":605:807  contract Son is Father{\r... */\n      mstore(0x40, 0x80)\n      callvalue\n      dup1\n      iszero\n      tag_1\n      jumpi\n      0x00\n      dup1\n      revert\n    tag_1:\n      pop\n      jumpi(tag_2, lt(calldatasize, 0x04))\n      shr(0xe0, calldataload(0x00))\n      dup1\n      0xd6d21dfd\n      eq\n      tag_3\n      jumpi\n    tag_2:\n      0x00\n      dup1\n      revert\n        /* \"lecture/lec15.sol\":667:804  function who() public override{\r... */\n    tag_3:\n      tag_4\n      tag_5\n      jump\t// in\n    tag_4:\n      stop\n    tag_5:\n        /* \"lecture/lec15.sol\":752:763  super.who() */\n      tag_7\n        /* \"lecture/lec15.sol\":752:761  super.who */\n      tag_8\n        /* \"lecture/lec15.sol\":752:763  super.who() */\n      jump\t// in\n    tag_7:\n        /* \"lecture/lec15.sol\":779:796  SonName(\"KimJin\") */\n      0x71dfb774a15fee750126e29b6ff589e5bb383b266b89f54d6ec14b4b2746059c\n      mload(0x40)\n      tag_9\n      swap1\n      tag_10\n      jump\t// in\n    tag_9:\n      mload(0x40)\n      dup1\n      swap2\n      sub\n      swap1\n      log1\n        /* \"lecture/lec15.sol\":667:804  function who() public override{\r... */\n      jump\t// out\n        /* \"lecture/lec15.sol\":344:598  function who() public virtual{\r... */\n    tag_8:\n        /* \"lecture/lec15.sol\":389:414  FatherName(\"KimJongHwan\") */\n      0x5657acc33fa9dbb926b6b6a1479e21e5e99a97b612f5d7f3ddfb47197d2148cc\n      mload(0x40)\n      tag_12\n      swap1\n      tag_13\n      jump\t// in\n    tag_12:\n      mload(0x40)\n      dup1\n      swap2\n      sub\n      swap1\n      log1\n        /* \"lecture/lec15.sol\":344:598  function who() public virtual{\r... */\n      jump\t// out\n        /* \"#utility.yul\":7:372   */\n    tag_15:\n        /* \"#utility.yul\":149:152   */\n      0x00\n        /* \"#utility.yul\":170:236   */\n      tag_17\n        /* \"#utility.yul\":234:235   */\n      0x06\n        /* \"#utility.yul\":229:232   */\n      dup4\n        /* \"#utility.yul\":170:236   */\n      tag_18\n      jump\t// in\n    tag_17:\n        /* \"#utility.yul\":163:236   */\n      swap2\n      pop\n        /* \"#utility.yul\":245:338   */\n      tag_19\n        /* \"#utility.yul\":334:337   */\n      dup3\n        /* \"#utility.yul\":245:338   */\n      tag_20\n      jump\t// in\n    tag_19:\n        /* \"#utility.yul\":363:365   */\n      0x20\n        /* \"#utility.yul\":358:361   */\n      dup3\n        /* \"#utility.yul\":354:366   */\n      add\n        /* \"#utility.yul\":347:366   */\n      swap1\n      pop\n        /* \"#utility.yul\":7:372   */\n      swap2\n      swap1\n      pop\n      jump\t// out\n        /* \"#utility.yul\":378:744   */\n    tag_21:\n        /* \"#utility.yul\":520:523   */\n      0x00\n        /* \"#utility.yul\":541:608   */\n      tag_23\n        /* \"#utility.yul\":605:607   */\n      0x0b\n        /* \"#utility.yul\":600:603   */\n      dup4\n        /* \"#utility.yul\":541:608   */\n      tag_18\n      jump\t// in\n    tag_23:\n        /* \"#utility.yul\":534:608   */\n      swap2\n      pop\n        /* \"#utility.yul\":617:710   */\n      tag_24\n        /* \"#utility.yul\":706:709   */\n      dup3\n        /* \"#utility.yul\":617:710   */\n      tag_25\n      jump\t// in\n    tag_24:\n        /* \"#utility.yul\":735:737   */\n      0x20\n        /* \"#utility.yul\":730:733   */\n      dup3\n        /* \"#utility.yul\":726:738   */\n      add\n        /* \"#utility.yul\":719:738   */\n      swap1\n      pop\n        /* \"#utility.yul\":378:744   */\n      swap2\n      swap1\n      pop\n      jump\t// out\n        /* \"#utility.yul\":750:1169   */\n    tag_10:\n        /* \"#utility.yul\":916:920   */\n      0x00\n        /* \"#utility.yul\":954:956   */\n      0x20\n        /* \"#utility.yul\":943:952   */\n      dup3\n        /* \"#utility.yul\":939:957   */\n      add\n        /* \"#utility.yul\":931:957   */\n      swap1\n      pop\n        /* \"#utility.yul\":1003:1012   */\n      dup2\n        /* \"#utility.yul\":997:1001   */\n      dup2\n        /* \"#utility.yul\":993:1013   */\n      sub\n        /* \"#utility.yul\":989:990   */\n      0x00\n        /* \"#utility.yul\":978:987   */\n      dup4\n        /* \"#utility.yul\":974:991   */\n      add\n        /* \"#utility.yul\":967:1014   */\n      mstore\n        /* \"#utility.yul\":1031:1162   */\n      tag_27\n        /* \"#utility.yul\":1157:1161   */\n      dup2\n        /* \"#utility.yul\":1031:1162   */\n      tag_15\n      jump\t// in\n    tag_27:\n        /* \"#utility.yul\":1023:1162   */\n      swap1\n      pop\n        /* \"#utility.yul\":750:1169   */\n      swap2\n      swap1\n      pop\n      jump\t// out\n        /* \"#utility.yul\":1175:1594   */\n    tag_13:\n        /* \"#utility.yul\":1341:1345   */\n      0x00\n        /* \"#utility.yul\":1379:1381   */\n      0x20\n        /* \"#utility.yul\":1368:1377   */\n      dup3\n        /* \"#utility.yul\":1364:1382   */\n      add\n        /* \"#utility.yul\":1356:1382   */\n      swap1\n      pop\n        /* \"#utility.yul\":1428:1437   */\n      dup2\n        /* \"#utility.yul\":1422:1426   */\n      dup2\n        /* \"#utility.yul\":1418:1438   */\n      sub\n        /* \"#utility.yul\":1414:1415   */\n      0x00\n        /* \"#utility.yul\":1403:1412   */\n      dup4\n        /* \"#utility.yul\":1399:1416   */\n      add\n        /* \"#utility.yul\":1392:1439   */\n      mstore\n        /* \"#utility.yul\":1456:1587   */\n      tag_29\n        /* \"#utility.yul\":1582:1586   */\n      dup2\n        /* \"#utility.yul\":1456:1587   */\n      tag_21\n      jump\t// in\n    tag_29:\n        /* \"#utility.yul\":1448:1587   */\n      swap1\n      pop\n        /* \"#utility.yul\":1175:1594   */\n      swap2\n      swap1\n      pop\n      jump\t// out\n        /* \"#utility.yul\":1600:1769   */\n    tag_18:\n        /* \"#utility.yul\":1684:1695   */\n      0x00\n        /* \"#utility.yul\":1718:1724   */\n      dup3\n        /* \"#utility.yul\":1713:1716   */\n      dup3\n        /* \"#utility.yul\":1706:1725   */\n      mstore\n        /* \"#utility.yul\":1758:1762   */\n      0x20\n        /* \"#utility.yul\":1753:1756   */\n      dup3\n        /* \"#utility.yul\":1749:1763   */\n      add\n        /* \"#utility.yul\":1734:1763   */\n      swap1\n      pop\n        /* \"#utility.yul\":1600:1769   */\n      swap3\n      swap2\n      pop\n      pop\n      jump\t// out\n        /* \"#utility.yul\":1775:1931   */\n    tag_20:\n        /* \"#utility.yul\":1915:1923   */\n      0x4b696d4a696e0000000000000000000000000000000000000000000000000000\n        /* \"#utility.yul\":1911:1912   */\n      0x00\n        /* \"#utility.yul\":1903:1909   */\n      dup3\n        /* \"#utility.yul\":1899:1913   */\n      add\n        /* \"#utility.yul\":1892:1924   */\n      mstore\n        /* \"#utility.yul\":1775:1931   */\n      pop\n      jump\t// out\n        /* \"#utility.yul\":1937:2098   */\n    tag_25:\n        /* \"#utility.yul\":2077:2090   */\n      0x4b696d4a6f6e674877616e000000000000000000000000000000000000000000\n        /* \"#utility.yul\":2073:2074   */\n      0x00\n        /* \"#utility.yul\":2065:2071   */\n      dup3\n        /* \"#utility.yul\":2061:2075   */\n      add\n        /* \"#utility.yul\":2054:2091   */\n      mstore\n        /* \"#utility.yul\":1937:2098   */\n      pop\n      jump\t// out\n\n    auxdata: 0xa2646970667358221220101a52aa4f0ea8dcb90f9dfadd06288e8d18f13f59f402772e09644a7735b4b364736f6c63430008070033\n}\n",
				"bytecode": {
					"linkReferences": {},
					"object": "608060405234801561001057600080fd5b506101cf806100206000396000f3fe608060405234801561001057600080fd5b506004361061002b5760003560e01c8063d6d21dfd14610030575b600080fd5b61003861003a565b005b610042610079565b7f71dfb774a15fee750126e29b6ff589e5bb383b266b89f54d6ec14b4b2746059c60405161006f906100f6565b60405180910390a1565b7f5657acc33fa9dbb926b6b6a1479e21e5e99a97b612f5d7f3ddfb47197d2148cc6040516100a690610116565b60405180910390a1565b60006100bd600683610136565b91506100c882610147565b602082019050919050565b60006100e0600b83610136565b91506100eb82610170565b602082019050919050565b6000602082019050818103600083015261010f816100b0565b9050919050565b6000602082019050818103600083015261012f816100d3565b9050919050565b600082825260208201905092915050565b7f4b696d4a696e0000000000000000000000000000000000000000000000000000600082015250565b7f4b696d4a6f6e674877616e00000000000000000000000000000000000000000060008201525056fea2646970667358221220101a52aa4f0ea8dcb90f9dfadd06288e8d18f13f59f402772e09644a7735b4b364736f6c63430008070033",
					"opcodes": "PUSH1 0x80 PUSH1 0x40 MSTORE CALLVALUE DUP1 ISZERO PUSH2 0x10 JUMPI PUSH1 0x0 DUP1 REVERT JUMPDEST POP PUSH2 0x1CF DUP1 PUSH2 0x20 PUSH1 0x0 CODECOPY PUSH1 0x0 RETURN INVALID PUSH1 0x80 PUSH1 0x40 MSTORE CALLVALUE DUP1 ISZERO PUSH2 0x10 JUMPI PUSH1 0x0 DUP1 REVERT JUMPDEST POP PUSH1 0x4 CALLDATASIZE LT PUSH2 0x2B JUMPI PUSH1 0x0 CALLDATALOAD PUSH1 0xE0 SHR DUP1 PUSH4 0xD6D21DFD EQ PUSH2 0x30 JUMPI JUMPDEST PUSH1 0x0 DUP1 REVERT JUMPDEST PUSH2 0x38 PUSH2 0x3A JUMP JUMPDEST STOP JUMPDEST PUSH2 0x42 PUSH2 0x79 JUMP JUMPDEST PUSH32 0x71DFB774A15FEE750126E29B6FF589E5BB383B266B89F54D6EC14B4B2746059C PUSH1 0x40 MLOAD PUSH2 0x6F SWAP1 PUSH2 0xF6 JUMP JUMPDEST PUSH1 0x40 MLOAD DUP1 SWAP2 SUB SWAP1 LOG1 JUMP JUMPDEST PUSH32 0x5657ACC33FA9DBB926B6B6A1479E21E5E99A97B612F5D7F3DDFB47197D2148CC PUSH1 0x40 MLOAD PUSH2 0xA6 SWAP1 PUSH2 0x116 JUMP JUMPDEST PUSH1 0x40 MLOAD DUP1 SWAP2 SUB SWAP1 LOG1 JUMP JUMPDEST PUSH1 0x0 PUSH2 0xBD PUSH1 0x6 DUP4 PUSH2 0x136 JUMP JUMPDEST SWAP2 POP PUSH2 0xC8 DUP3 PUSH2 0x147 JUMP JUMPDEST PUSH1 0x20 DUP3 ADD SWAP1 POP SWAP2 SWAP1 POP JUMP JUMPDEST PUSH1 0x0 PUSH2 0xE0 PUSH1 0xB DUP4 PUSH2 0x136 JUMP JUMPDEST SWAP2 POP PUSH2 0xEB DUP3 PUSH2 0x170 JUMP JUMPDEST PUSH1 0x20 DUP3 ADD SWAP1 POP SWAP2 SWAP1 POP JUMP JUMPDEST PUSH1 0x0 PUSH1 0x20 DUP3 ADD SWAP1 POP DUP2 DUP2 SUB PUSH1 0x0 DUP4 ADD MSTORE PUSH2 0x10F DUP2 PUSH2 0xB0 JUMP JUMPDEST SWAP1 POP SWAP2 SWAP1 POP JUMP JUMPDEST PUSH1 0x0 PUSH1 0x20 DUP3 ADD SWAP1 POP DUP2 DUP2 SUB PUSH1 0x0 DUP4 ADD MSTORE PUSH2 0x12F DUP2 PUSH2 0xD3 JUMP JUMPDEST SWAP1 POP SWAP2 SWAP1 POP JUMP JUMPDEST PUSH1 0x0 DUP3 DUP3 MSTORE PUSH1 0x20 DUP3 ADD SWAP1 POP SWAP3 SWAP2 POP POP JUMP JUMPDEST PUSH32 0x4B696D4A696E0000000000000000000000000000000000000000000000000000 PUSH1 0x0 DUP3 ADD MSTORE POP JUMP JUMPDEST PUSH32 0x4B696D4A6F6E674877616E000000000000000000000000000000000000000000 PUSH1 0x0 DUP3 ADD MSTORE POP JUMP INVALID LOG2 PUSH5 0x6970667358 0x22 SLT KECCAK256 LT BYTE MSTORE 0xAA 0x4F 0xE 0xA8 0xDC 0xB9 0xF SWAP14 STATICCALL 0xDD MOD 0x28 DUP15 DUP14 XOR CALL EXTCODEHASH MSIZE DELEGATECALL MUL PUSH24 0x2E09644A7735B4B364736F6C634300080700330000000000 "
				},
				"gasEstimates": {
					"creation": {
						"codeDepositCost": "92600",
						"executionCost": "141",
						"totalCost": "92741"
					},
					"external": {
						"who()": "infinite"
					}
				},
				"methodIdentifiers": {
					"who()": "d6d21dfd"
				}
			},
			"userdoc": {
				"kind": "user",
				"methods": {},
				"version": 1
			}
		}
	}
}