{
	"lec23.sol": {
		"lec23": {
			"abi": [
				{
					"anonymous": false,
					"inputs": [
						{
							"indexed": true,
							"internalType": "uint256",
							"name": "_index",
							"type": "uint256"
						},
						{
							"indexed": false,
							"internalType": "string",
							"name": "_name",
							"type": "string"
						}
					],
					"name": "CountryIndexName",
					"type": "event"
				},
				{
					"inputs": [],
					"name": "useContinue",
					"outputs": [],
					"stateMutability": "nonpayable",
					"type": "function"
				}
			],
			"devdoc": {
				"kind": "dev",
				"methods": {},
				"version": 1
			},
			"evm": {
				"assembly": "    /* \"lec23.sol\":94:558  contract lec23{\r... */\n  mstore(0x40, 0x80)\n    /* \"lec23.sol\":271:357  string[] private countryList = [\"South Korea\", \"North Korea\", \"USA\", \"China\", \"Japan\"] */\n  mload(0x40)\n  dup1\n  0xa0\n  add\n  0x40\n  mstore\n  dup1\n  mload(0x40)\n  dup1\n  0x40\n  add\n  0x40\n  mstore\n  dup1\n  0x0b\n  dup2\n  mstore\n  0x20\n  add\n  0x536f757468204b6f726561000000000000000000000000000000000000000000\n  dup2\n  mstore\n  pop\n  dup2\n  mstore\n  0x20\n  add\n  mload(0x40)\n  dup1\n  0x40\n  add\n  0x40\n  mstore\n  dup1\n  0x0b\n  dup2\n  mstore\n  0x20\n  add\n  0x4e6f727468204b6f726561000000000000000000000000000000000000000000\n  dup2\n  mstore\n  pop\n  dup2\n  mstore\n  0x20\n  add\n  mload(0x40)\n  dup1\n  0x40\n  add\n  0x40\n  mstore\n  dup1\n  0x03\n  dup2\n  mstore\n  0x20\n  add\n  0x5553410000000000000000000000000000000000000000000000000000000000\n  dup2\n  mstore\n  pop\n  dup2\n  mstore\n  0x20\n  add\n  mload(0x40)\n  dup1\n  0x40\n  add\n  0x40\n  mstore\n  dup1\n  0x05\n  dup2\n  mstore\n  0x20\n  add\n  0x4368696e61000000000000000000000000000000000000000000000000000000\n  dup2\n  mstore\n  pop\n  dup2\n  mstore\n  0x20\n  add\n  mload(0x40)\n  dup1\n  0x40\n  add\n  0x40\n  mstore\n  dup1\n  0x05\n  dup2\n  mstore\n  0x20\n  add\n  0x4a6170616e000000000000000000000000000000000000000000000000000000\n  dup2\n  mstore\n  pop\n  dup2\n  mstore\n  pop\n  0x00\n  swap1\n  0x05\n  tag_1\n  swap3\n  swap2\n  swap1\n  tag_2\n  jump\t// in\ntag_1:\n  pop\n    /* \"lec23.sol\":94:558  contract lec23{\r... */\n  callvalue\n  dup1\n  iszero\n  tag_3\n  jumpi\n  0x00\n  dup1\n  revert\ntag_3:\n  pop\n  jump(tag_4)\ntag_2:\n  dup3\n  dup1\n  sload\n  dup3\n  dup3\n  sstore\n  swap1\n  0x00\n  mstore\n  keccak256(0x00, 0x20)\n  swap1\n  dup2\n  add\n  swap3\n  dup3\n  iszero\n  tag_5\n  jumpi\n  swap2\n  0x20\n  mul\n  dup3\n  add\ntag_6:\n  dup3\n  dup2\n  gt\n  iszero\n  tag_7\n  jumpi\n  dup3\n  mload\n  dup3\n  swap1\n  dup1\n  mload\n  swap1\n  0x20\n  add\n  swap1\n  tag_8\n  swap3\n  swap2\n  swap1\n  tag_9\n  jump\t// in\ntag_8:\n  pop\n  swap2\n  0x20\n  add\n  swap2\n  swap1\n  0x01\n  add\n  swap1\n  jump(tag_6)\ntag_7:\ntag_5:\n  pop\n  swap1\n  pop\n  tag_10\n  swap2\n  swap1\n  tag_11\n  jump\t// in\ntag_10:\n  pop\n  swap1\n  jump\t// out\ntag_9:\n  dup3\n  dup1\n  sload\n  tag_12\n  swap1\n  tag_13\n  jump\t// in\ntag_12:\n  swap1\n  0x00\n  mstore\n  keccak256(0x00, 0x20)\n  swap1\n  0x1f\n  add\n  0x20\n  swap1\n  div\n  dup2\n  add\n  swap3\n  dup3\n  tag_15\n  jumpi\n  0x00\n  dup6\n  sstore\n  jump(tag_14)\ntag_15:\n  dup3\n  0x1f\n  lt\n  tag_16\n  jumpi\n  dup1\n  mload\n  not(0xff)\n  and\n  dup4\n  dup1\n  add\n  or\n  dup6\n  sstore\n  jump(tag_14)\ntag_16:\n  dup3\n  dup1\n  add\n  0x01\n  add\n  dup6\n  sstore\n  dup3\n  iszero\n  tag_14\n  jumpi\n  swap2\n  dup3\n  add\ntag_17:\n  dup3\n  dup2\n  gt\n  iszero\n  tag_18\n  jumpi\n  dup3\n  mload\n  dup3\n  sstore\n  swap2\n  0x20\n  add\n  swap2\n  swap1\n  0x01\n  add\n  swap1\n  jump(tag_17)\ntag_18:\ntag_14:\n  pop\n  swap1\n  pop\n  tag_19\n  swap2\n  swap1\n  tag_20\n  jump\t// in\ntag_19:\n  pop\n  swap1\n  jump\t// out\ntag_11:\ntag_21:\n  dup1\n  dup3\n  gt\n  iszero\n  tag_22\n  jumpi\n  0x00\n  dup2\n  dup2\n  tag_23\n  swap2\n  swap1\n  tag_24\n  jump\t// in\ntag_23:\n  pop\n  0x01\n  add\n  jump(tag_21)\ntag_22:\n  pop\n  swap1\n  jump\t// out\ntag_20:\ntag_25:\n  dup1\n  dup3\n  gt\n  iszero\n  tag_26\n  jumpi\n  0x00\n  dup2\n  0x00\n  swap1\n  sstore\n  pop\n  0x01\n  add\n  jump(tag_25)\ntag_26:\n  pop\n  swap1\n  jump\t// out\ntag_24:\n  pop\n  dup1\n  sload\n  tag_27\n  swap1\n  tag_13\n  jump\t// in\ntag_27:\n  0x00\n  dup3\n  sstore\n  dup1\n  0x1f\n  lt\n  tag_29\n  jumpi\n  pop\n  jump(tag_28)\ntag_29:\n  0x1f\n  add\n  0x20\n  swap1\n  div\n  swap1\n  0x00\n  mstore\n  keccak256(0x00, 0x20)\n  swap1\n  dup2\n  add\n  swap1\n  tag_30\n  swap2\n  swap1\n  tag_20\n  jump\t// in\ntag_30:\ntag_28:\n  pop\n  jump\t// out\n    /* \"#utility.yul\":7:327   */\ntag_13:\n    /* \"#utility.yul\":51:57   */\n  0x00\n    /* \"#utility.yul\":88:89   */\n  0x02\n    /* \"#utility.yul\":82:86   */\n  dup3\n    /* \"#utility.yul\":78:90   */\n  div\n    /* \"#utility.yul\":68:90   */\n  swap1\n  pop\n    /* \"#utility.yul\":135:136   */\n  0x01\n    /* \"#utility.yul\":129:133   */\n  dup3\n    /* \"#utility.yul\":125:137   */\n  and\n    /* \"#utility.yul\":156:174   */\n  dup1\n    /* \"#utility.yul\":146:227   */\n  tag_33\n  jumpi\n    /* \"#utility.yul\":212:216   */\n  0x7f\n    /* \"#utility.yul\":204:210   */\n  dup3\n    /* \"#utility.yul\":200:217   */\n  and\n    /* \"#utility.yul\":190:217   */\n  swap2\n  pop\n    /* \"#utility.yul\":146:227   */\ntag_33:\n    /* \"#utility.yul\":274:276   */\n  0x20\n    /* \"#utility.yul\":266:272   */\n  dup3\n    /* \"#utility.yul\":263:277   */\n  lt\n    /* \"#utility.yul\":243:261   */\n  dup2\n    /* \"#utility.yul\":240:278   */\n  eq\n    /* \"#utility.yul\":237:321   */\n  iszero\n  tag_34\n  jumpi\n    /* \"#utility.yul\":293:311   */\n  tag_35\n  tag_36\n  jump\t// in\ntag_35:\n    /* \"#utility.yul\":237:321   */\ntag_34:\n    /* \"#utility.yul\":58:327   */\n  pop\n    /* \"#utility.yul\":7:327   */\n  swap2\n  swap1\n  pop\n  jump\t// out\n    /* \"#utility.yul\":333:513   */\ntag_36:\n    /* \"#utility.yul\":381:458   */\n  0x4e487b7100000000000000000000000000000000000000000000000000000000\n    /* \"#utility.yul\":378:379   */\n  0x00\n    /* \"#utility.yul\":371:459   */\n  mstore\n    /* \"#utility.yul\":478:482   */\n  0x22\n    /* \"#utility.yul\":475:476   */\n  0x04\n    /* \"#utility.yul\":468:483   */\n  mstore\n    /* \"#utility.yul\":502:506   */\n  0x24\n    /* \"#utility.yul\":499:500   */\n  0x00\n    /* \"#utility.yul\":492:507   */\n  revert\n    /* \"lec23.sol\":94:558  contract lec23{\r... */\ntag_4:\n  dataSize(sub_0)\n  dup1\n  dataOffset(sub_0)\n  0x00\n  codecopy\n  0x00\n  return\nstop\n\nsub_0: assembly {\n        /* \"lec23.sol\":94:558  contract lec23{\r... */\n      mstore(0x40, 0x80)\n      callvalue\n      dup1\n      iszero\n      tag_1\n      jumpi\n      0x00\n      dup1\n      revert\n    tag_1:\n      pop\n      jumpi(tag_2, lt(calldatasize, 0x04))\n      shr(0xe0, calldataload(0x00))\n      dup1\n      0x1e2ae857\n      eq\n      tag_3\n      jumpi\n    tag_2:\n      0x00\n      dup1\n      revert\n        /* \"lec23.sol\":366:555  function useContinue() public {\r... */\n    tag_3:\n      tag_4\n      tag_5\n      jump\t// in\n    tag_4:\n      stop\n    tag_5:\n        /* \"lec23.sol\":411:420  uint256 i */\n      0x00\n        /* \"lec23.sol\":407:548  for(uint256 i=0; i<countryList.length; i++){\r... */\n    tag_7:\n        /* \"lec23.sol\":426:437  countryList */\n      0x00\n        /* \"lec23.sol\":426:444  countryList.length */\n      dup1\n      sload\n      swap1\n      pop\n        /* \"lec23.sol\":424:425  i */\n      dup2\n        /* \"lec23.sol\":424:444  i<countryList.length */\n      lt\n        /* \"lec23.sol\":407:548  for(uint256 i=0; i<countryList.length; i++){\r... */\n      iszero\n      tag_8\n      jumpi\n        /* \"lec23.sol\":473:474  1 */\n      0x01\n        /* \"lec23.sol\":470:471  2 */\n      0x02\n        /* \"lec23.sol\":468:469  i */\n      dup3\n        /* \"lec23.sol\":468:471  i%2 */\n      tag_10\n      swap2\n      swap1\n      tag_11\n      jump\t// in\n    tag_10:\n        /* \"lec23.sol\":468:474  i%2==1 */\n      eq\n        /* \"lec23.sol\":465:537  if(i%2==1){\r... */\n      iszero\n      tag_12\n      jumpi\n        /* \"lec23.sol\":494:502  continue */\n      jump(tag_9)\n        /* \"lec23.sol\":465:537  if(i%2==1){\r... */\n    tag_12:\n        /* \"lec23.sol\":407:548  for(uint256 i=0; i<countryList.length; i++){\r... */\n    tag_9:\n        /* \"lec23.sol\":446:449  i++ */\n      dup1\n      dup1\n      tag_13\n      swap1\n      tag_14\n      jump\t// in\n    tag_13:\n      swap2\n      pop\n      pop\n        /* \"lec23.sol\":407:548  for(uint256 i=0; i<countryList.length; i++){\r... */\n      jump(tag_7)\n    tag_8:\n      pop\n        /* \"lec23.sol\":366:555  function useContinue() public {\r... */\n      jump\t// out\n        /* \"#utility.yul\":7:84   */\n    tag_16:\n        /* \"#utility.yul\":44:51   */\n      0x00\n        /* \"#utility.yul\":73:78   */\n      dup2\n        /* \"#utility.yul\":62:78   */\n      swap1\n      pop\n        /* \"#utility.yul\":7:84   */\n      swap2\n      swap1\n      pop\n      jump\t// out\n        /* \"#utility.yul\":90:323   */\n    tag_14:\n        /* \"#utility.yul\":129:132   */\n      0x00\n        /* \"#utility.yul\":152:176   */\n      tag_19\n        /* \"#utility.yul\":170:175   */\n      dup3\n        /* \"#utility.yul\":152:176   */\n      tag_16\n      jump\t// in\n    tag_19:\n        /* \"#utility.yul\":143:176   */\n      swap2\n      pop\n        /* \"#utility.yul\":198:264   */\n      0xffffffffffffffffffffffffffffffffffffffffffffffffffffffffffffffff\n        /* \"#utility.yul\":191:196   */\n      dup3\n        /* \"#utility.yul\":188:265   */\n      eq\n        /* \"#utility.yul\":185:288   */\n      iszero\n      tag_20\n      jumpi\n        /* \"#utility.yul\":268:286   */\n      tag_21\n      tag_22\n      jump\t// in\n    tag_21:\n        /* \"#utility.yul\":185:288   */\n    tag_20:\n        /* \"#utility.yul\":315:316   */\n      0x01\n        /* \"#utility.yul\":308:313   */\n      dup3\n        /* \"#utility.yul\":304:317   */\n      add\n        /* \"#utility.yul\":297:317   */\n      swap1\n      pop\n        /* \"#utility.yul\":90:323   */\n      swap2\n      swap1\n      pop\n      jump\t// out\n        /* \"#utility.yul\":329:505   */\n    tag_11:\n        /* \"#utility.yul\":361:362   */\n      0x00\n        /* \"#utility.yul\":378:398   */\n      tag_24\n        /* \"#utility.yul\":396:397   */\n      dup3\n        /* \"#utility.yul\":378:398   */\n      tag_16\n      jump\t// in\n    tag_24:\n        /* \"#utility.yul\":373:398   */\n      swap2\n      pop\n        /* \"#utility.yul\":412:432   */\n      tag_25\n        /* \"#utility.yul\":430:431   */\n      dup4\n        /* \"#utility.yul\":412:432   */\n      tag_16\n      jump\t// in\n    tag_25:\n        /* \"#utility.yul\":407:432   */\n      swap3\n      pop\n        /* \"#utility.yul\":451:452   */\n      dup3\n        /* \"#utility.yul\":441:476   */\n      tag_26\n      jumpi\n        /* \"#utility.yul\":456:474   */\n      tag_27\n      tag_28\n      jump\t// in\n    tag_27:\n        /* \"#utility.yul\":441:476   */\n    tag_26:\n        /* \"#utility.yul\":497:498   */\n      dup3\n        /* \"#utility.yul\":494:495   */\n      dup3\n        /* \"#utility.yul\":490:499   */\n      mod\n        /* \"#utility.yul\":485:499   */\n      swap1\n      pop\n        /* \"#utility.yul\":329:505   */\n      swap3\n      swap2\n      pop\n      pop\n      jump\t// out\n        /* \"#utility.yul\":511:691   */\n    tag_22:\n        /* \"#utility.yul\":559:636   */\n      0x4e487b7100000000000000000000000000000000000000000000000000000000\n        /* \"#utility.yul\":556:557   */\n      0x00\n        /* \"#utility.yul\":549:637   */\n      mstore\n        /* \"#utility.yul\":656:660   */\n      0x11\n        /* \"#utility.yul\":653:654   */\n      0x04\n        /* \"#utility.yul\":646:661   */\n      mstore\n        /* \"#utility.yul\":680:684   */\n      0x24\n        /* \"#utility.yul\":677:678   */\n      0x00\n        /* \"#utility.yul\":670:685   */\n      revert\n        /* \"#utility.yul\":697:877   */\n    tag_28:\n        /* \"#utility.yul\":745:822   */\n      0x4e487b7100000000000000000000000000000000000000000000000000000000\n        /* \"#utility.yul\":742:743   */\n      0x00\n        /* \"#utility.yul\":735:823   */\n      mstore\n        /* \"#utility.yul\":842:846   */\n      0x12\n        /* \"#utility.yul\":839:840   */\n      0x04\n        /* \"#utility.yul\":832:847   */\n      mstore\n        /* \"#utility.yul\":866:870   */\n      0x24\n        /* \"#utility.yul\":863:864   */\n      0x00\n        /* \"#utility.yul\":856:871   */\n      revert\n\n    auxdata: 0xa2646970667358221220e0fe6ab98e12f40bcaac9fff6884d03a127aa5a45b8d271cba52b7a1ee03982164736f6c63430008070033\n}\n",
				"bytecode": {
					"linkReferences": {},
					"object": "60806040526040518060a001604052806040518060400160405280600b81526020017f536f757468204b6f72656100000000000000000000000000000000000000000081525081526020016040518060400160405280600b81526020017f4e6f727468204b6f72656100000000000000000000000000000000000000000081525081526020016040518060400160405280600381526020017f555341000000000000000000000000000000000000000000000000000000000081525081526020016040518060400160405280600581526020017f4368696e6100000000000000000000000000000000000000000000000000000081525081526020016040518060400160405280600581526020017f4a6170616e0000000000000000000000000000000000000000000000000000008152508152506000906005610144929190610157565b5034801561015157600080fd5b5061031f565b8280548282559060005260206000209081019282156101a6579160200282015b828111156101a55782518290805190602001906101959291906101b7565b5091602001919060010190610177565b5b5090506101b3919061023d565b5090565b8280546101c3906102be565b90600052602060002090601f0160209004810192826101e5576000855561022c565b82601f106101fe57805160ff191683800117855561022c565b8280016001018555821561022c579182015b8281111561022b578251825591602001919060010190610210565b5b5090506102399190610261565b5090565b5b8082111561025d5760008181610254919061027e565b5060010161023e565b5090565b5b8082111561027a576000816000905550600101610262565b5090565b50805461028a906102be565b6000825580601f1061029c57506102bb565b601f0160209004906000526020600020908101906102ba9190610261565b5b50565b600060028204905060018216806102d657607f821691505b602082108114156102ea576102e96102f0565b5b50919050565b7f4e487b7100000000000000000000000000000000000000000000000000000000600052602260045260246000fd5b6101938061032e6000396000f3fe608060405234801561001057600080fd5b506004361061002b5760003560e01c80631e2ae85714610030575b600080fd5b61003861003a565b005b60005b60008054905081101561007857600160028261005991906100ce565b141561006457610065565b5b808061007090610085565b91505061003d565b50565b6000819050919050565b60006100908261007b565b91507fffffffffffffffffffffffffffffffffffffffffffffffffffffffffffffffff8214156100c3576100c26100ff565b5b600182019050919050565b60006100d98261007b565b91506100e48361007b565b9250826100f4576100f361012e565b5b828206905092915050565b7f4e487b7100000000000000000000000000000000000000000000000000000000600052601160045260246000fd5b7f4e487b7100000000000000000000000000000000000000000000000000000000600052601260045260246000fdfea2646970667358221220e0fe6ab98e12f40bcaac9fff6884d03a127aa5a45b8d271cba52b7a1ee03982164736f6c63430008070033",
					"opcodes": "PUSH1 0x80 PUSH1 0x40 MSTORE PUSH1 0x40 MLOAD DUP1 PUSH1 0xA0 ADD PUSH1 0x40 MSTORE DUP1 PUSH1 0x40 MLOAD DUP1 PUSH1 0x40 ADD PUSH1 0x40 MSTORE DUP1 PUSH1 0xB DUP2 MSTORE PUSH1 0x20 ADD PUSH32 0x536F757468204B6F726561000000000000000000000000000000000000000000 DUP2 MSTORE POP DUP2 MSTORE PUSH1 0x20 ADD PUSH1 0x40 MLOAD DUP1 PUSH1 0x40 ADD PUSH1 0x40 MSTORE DUP1 PUSH1 0xB DUP2 MSTORE PUSH1 0x20 ADD PUSH32 0x4E6F727468204B6F726561000000000000000000000000000000000000000000 DUP2 MSTORE POP DUP2 MSTORE PUSH1 0x20 ADD PUSH1 0x40 MLOAD DUP1 PUSH1 0x40 ADD PUSH1 0x40 MSTORE DUP1 PUSH1 0x3 DUP2 MSTORE PUSH1 0x20 ADD PUSH32 0x5553410000000000000000000000000000000000000000000000000000000000 DUP2 MSTORE POP DUP2 MSTORE PUSH1 0x20 ADD PUSH1 0x40 MLOAD DUP1 PUSH1 0x40 ADD PUSH1 0x40 MSTORE DUP1 PUSH1 0x5 DUP2 MSTORE PUSH1 0x20 ADD PUSH32 0x4368696E61000000000000000000000000000000000000000000000000000000 DUP2 MSTORE POP DUP2 MSTORE PUSH1 0x20 ADD PUSH1 0x40 MLOAD DUP1 PUSH1 0x40 ADD PUSH1 0x40 MSTORE DUP1 PUSH1 0x5 DUP2 MSTORE PUSH1 0x20 ADD PUSH32 0x4A6170616E000000000000000000000000000000000000000000000000000000 DUP2 MSTORE POP DUP2 MSTORE POP PUSH1 0x0 SWAP1 PUSH1 0x5 PUSH2 0x144 SWAP3 SWAP2 SWAP1 PUSH2 0x157 JUMP JUMPDEST POP CALLVALUE DUP1 ISZERO PUSH2 0x151 JUMPI PUSH1 0x0 DUP1 REVERT JUMPDEST POP PUSH2 0x31F JUMP JUMPDEST DUP3 DUP1 SLOAD DUP3 DUP3 SSTORE SWAP1 PUSH1 0x0 MSTORE PUSH1 0x20 PUSH1 0x0 KECCAK256 SWAP1 DUP2 ADD SWAP3 DUP3 ISZERO PUSH2 0x1A6 JUMPI SWAP2 PUSH1 0x20 MUL DUP3 ADD JUMPDEST DUP3 DUP2 GT ISZERO PUSH2 0x1A5 JUMPI DUP3 MLOAD DUP3 SWAP1 DUP1 MLOAD SWAP1 PUSH1 0x20 ADD SWAP1 PUSH2 0x195 SWAP3 SWAP2 SWAP1 PUSH2 0x1B7 JUMP JUMPDEST POP SWAP2 PUSH1 0x20 ADD SWAP2 SWAP1 PUSH1 0x1 ADD SWAP1 PUSH2 0x177 JUMP JUMPDEST JUMPDEST POP SWAP1 POP PUSH2 0x1B3 SWAP2 SWAP1 PUSH2 0x23D JUMP JUMPDEST POP SWAP1 JUMP JUMPDEST DUP3 DUP1 SLOAD PUSH2 0x1C3 SWAP1 PUSH2 0x2BE JUMP JUMPDEST SWAP1 PUSH1 0x0 MSTORE PUSH1 0x20 PUSH1 0x0 KECCAK256 SWAP1 PUSH1 0x1F ADD PUSH1 0x20 SWAP1 DIV DUP2 ADD SWAP3 DUP3 PUSH2 0x1E5 JUMPI PUSH1 0x0 DUP6 SSTORE PUSH2 0x22C JUMP JUMPDEST DUP3 PUSH1 0x1F LT PUSH2 0x1FE JUMPI DUP1 MLOAD PUSH1 0xFF NOT AND DUP4 DUP1 ADD OR DUP6 SSTORE PUSH2 0x22C JUMP JUMPDEST DUP3 DUP1 ADD PUSH1 0x1 ADD DUP6 SSTORE DUP3 ISZERO PUSH2 0x22C JUMPI SWAP2 DUP3 ADD JUMPDEST DUP3 DUP2 GT ISZERO PUSH2 0x22B JUMPI DUP3 MLOAD DUP3 SSTORE SWAP2 PUSH1 0x20 ADD SWAP2 SWAP1 PUSH1 0x1 ADD SWAP1 PUSH2 0x210 JUMP JUMPDEST JUMPDEST POP SWAP1 POP PUSH2 0x239 SWAP2 SWAP1 PUSH2 0x261 JUMP JUMPDEST POP SWAP1 JUMP JUMPDEST JUMPDEST DUP1 DUP3 GT ISZERO PUSH2 0x25D JUMPI PUSH1 0x0 DUP2 DUP2 PUSH2 0x254 SWAP2 SWAP1 PUSH2 0x27E JUMP JUMPDEST POP PUSH1 0x1 ADD PUSH2 0x23E JUMP JUMPDEST POP SWAP1 JUMP JUMPDEST JUMPDEST DUP1 DUP3 GT ISZERO PUSH2 0x27A JUMPI PUSH1 0x0 DUP2 PUSH1 0x0 SWAP1 SSTORE POP PUSH1 0x1 ADD PUSH2 0x262 JUMP JUMPDEST POP SWAP1 JUMP JUMPDEST POP DUP1 SLOAD PUSH2 0x28A SWAP1 PUSH2 0x2BE JUMP JUMPDEST PUSH1 0x0 DUP3 SSTORE DUP1 PUSH1 0x1F LT PUSH2 0x29C JUMPI POP PUSH2 0x2BB JUMP JUMPDEST PUSH1 0x1F ADD PUSH1 0x20 SWAP1 DIV SWAP1 PUSH1 0x0 MSTORE PUSH1 0x20 PUSH1 0x0 KECCAK256 SWAP1 DUP2 ADD SWAP1 PUSH2 0x2BA SWAP2 SWAP1 PUSH2 0x261 JUMP JUMPDEST JUMPDEST POP JUMP JUMPDEST PUSH1 0x0 PUSH1 0x2 DUP3 DIV SWAP1 POP PUSH1 0x1 DUP3 AND DUP1 PUSH2 0x2D6 JUMPI PUSH1 0x7F DUP3 AND SWAP2 POP JUMPDEST PUSH1 0x20 DUP3 LT DUP2 EQ ISZERO PUSH2 0x2EA JUMPI PUSH2 0x2E9 PUSH2 0x2F0 JUMP JUMPDEST JUMPDEST POP SWAP2 SWAP1 POP JUMP JUMPDEST PUSH32 0x4E487B7100000000000000000000000000000000000000000000000000000000 PUSH1 0x0 MSTORE PUSH1 0x22 PUSH1 0x4 MSTORE PUSH1 0x24 PUSH1 0x0 REVERT JUMPDEST PUSH2 0x193 DUP1 PUSH2 0x32E PUSH1 0x0 CODECOPY PUSH1 0x0 RETURN INVALID PUSH1 0x80 PUSH1 0x40 MSTORE CALLVALUE DUP1 ISZERO PUSH2 0x10 JUMPI PUSH1 0x0 DUP1 REVERT JUMPDEST POP PUSH1 0x4 CALLDATASIZE LT PUSH2 0x2B JUMPI PUSH1 0x0 CALLDATALOAD PUSH1 0xE0 SHR DUP1 PUSH4 0x1E2AE857 EQ PUSH2 0x30 JUMPI JUMPDEST PUSH1 0x0 DUP1 REVERT JUMPDEST PUSH2 0x38 PUSH2 0x3A JUMP JUMPDEST STOP JUMPDEST PUSH1 0x0 JUMPDEST PUSH1 0x0 DUP1 SLOAD SWAP1 POP DUP2 LT ISZERO PUSH2 0x78 JUMPI PUSH1 0x1 PUSH1 0x2 DUP3 PUSH2 0x59 SWAP2 SWAP1 PUSH2 0xCE JUMP JUMPDEST EQ ISZERO PUSH2 0x64 JUMPI PUSH2 0x65 JUMP JUMPDEST JUMPDEST DUP1 DUP1 PUSH2 0x70 SWAP1 PUSH2 0x85 JUMP JUMPDEST SWAP2 POP POP PUSH2 0x3D JUMP JUMPDEST POP JUMP JUMPDEST PUSH1 0x0 DUP2 SWAP1 POP SWAP2 SWAP1 POP JUMP JUMPDEST PUSH1 0x0 PUSH2 0x90 DUP3 PUSH2 0x7B JUMP JUMPDEST SWAP2 POP PUSH32 0xFFFFFFFFFFFFFFFFFFFFFFFFFFFFFFFFFFFFFFFFFFFFFFFFFFFFFFFFFFFFFFFF DUP3 EQ ISZERO PUSH2 0xC3 JUMPI PUSH2 0xC2 PUSH2 0xFF JUMP JUMPDEST JUMPDEST PUSH1 0x1 DUP3 ADD SWAP1 POP SWAP2 SWAP1 POP JUMP JUMPDEST PUSH1 0x0 PUSH2 0xD9 DUP3 PUSH2 0x7B JUMP JUMPDEST SWAP2 POP PUSH2 0xE4 DUP4 PUSH2 0x7B JUMP JUMPDEST SWAP3 POP DUP3 PUSH2 0xF4 JUMPI PUSH2 0xF3 PUSH2 0x12E JUMP JUMPDEST JUMPDEST DUP3 DUP3 MOD SWAP1 POP SWAP3 SWAP2 POP POP JUMP JUMPDEST PUSH32 0x4E487B7100000000000000000000000000000000000000000000000000000000 PUSH1 0x0 MSTORE PUSH1 0x11 PUSH1 0x4 MSTORE PUSH1 0x24 PUSH1 0x0 REVERT JUMPDEST PUSH32 0x4E487B7100000000000000000000000000000000000000000000000000000000 PUSH1 0x0 MSTORE PUSH1 0x12 PUSH1 0x4 MSTORE PUSH1 0x24 PUSH1 0x0 REVERT INVALID LOG2 PUSH5 0x6970667358 0x22 SLT KECCAK256 0xE0 INVALID PUSH11 0xB98E12F40BCAAC9FFF6884 0xD0 GASPRICE SLT PUSH27 0xA5A45B8D271CBA52B7A1EE03982164736F6C634300080700330000 "
				},
				"gasEstimates": {
					"creation": {
						"codeDepositCost": "80600",
						"executionCost": "infinite",
						"totalCost": "infinite"
					},
					"external": {
						"useContinue()": "infinite"
					}
				},
				"methodIdentifiers": {
					"useContinue()": "1e2ae857"
				}
			},
			"userdoc": {
				"kind": "user",
				"methods": {},
				"version": 1
			}
		}
	}
}