{
	"lecture/lec17.sol": {
		"lec17": {
			"abi": [
				{
					"inputs": [
						{
							"internalType": "uint256",
							"name": "_index",
							"type": "uint256"
						}
					],
					"name": "getAge",
					"outputs": [
						{
							"internalType": "uint256",
							"name": "",
							"type": "uint256"
						}
					],
					"stateMutability": "view",
					"type": "function"
				},
				{
					"inputs": [
						{
							"internalType": "string",
							"name": "_str",
							"type": "string"
						}
					],
					"name": "getPirce",
					"outputs": [
						{
							"internalType": "uint256",
							"name": "",
							"type": "uint256"
						}
					],
					"stateMutability": "view",
					"type": "function"
				},
				{
					"inputs": [
						{
							"internalType": "uint256",
							"name": "_index",
							"type": "uint256"
						},
						{
							"internalType": "uint256",
							"name": "_age",
							"type": "uint256"
						}
					],
					"name": "setAgeList",
					"outputs": [],
					"stateMutability": "nonpayable",
					"type": "function"
				},
				{
					"inputs": [
						{
							"internalType": "string",
							"name": "_str",
							"type": "string"
						},
						{
							"internalType": "uint256",
							"name": "_price",
							"type": "uint256"
						}
					],
					"name": "setPirceList",
					"outputs": [],
					"stateMutability": "nonpayable",
					"type": "function"
				}
			],
			"devdoc": {
				"kind": "dev",
				"methods": {},
				"version": 1
			},
			"evm": {
				"assembly": "    /* \"lecture/lec17.sol\":86:923  contract lec17{\r... */\n  mstore(0x40, 0x80)\n  callvalue\n  dup1\n  iszero\n  tag_1\n  jumpi\n  0x00\n  dup1\n  revert\ntag_1:\n  pop\n  dataSize(sub_0)\n  dup1\n  dataOffset(sub_0)\n  0x00\n  codecopy\n  0x00\n  return\nstop\n\nsub_0: assembly {\n        /* \"lecture/lec17.sol\":86:923  contract lec17{\r... */\n      mstore(0x40, 0x80)\n      callvalue\n      dup1\n      iszero\n      tag_1\n      jumpi\n      0x00\n      dup1\n      revert\n    tag_1:\n      pop\n      jumpi(tag_2, lt(calldatasize, 0x04))\n      shr(0xe0, calldataload(0x00))\n      dup1\n      0x0e37008a\n      eq\n      tag_3\n      jumpi\n      dup1\n      0x3cb8faf3\n      eq\n      tag_4\n      jumpi\n      dup1\n      0xef3b9fde\n      eq\n      tag_5\n      jumpi\n      dup1\n      0xfe093d3b\n      eq\n      tag_6\n      jumpi\n    tag_2:\n      0x00\n      dup1\n      revert\n        /* \"lecture/lec17.sol\":591:692  function getAge(uint256 _index) public view returns(uint256){\r... */\n    tag_3:\n      tag_7\n      0x04\n      dup1\n      calldatasize\n      sub\n      dup2\n      add\n      swap1\n      tag_8\n      swap2\n      swap1\n      tag_9\n      jump\t// in\n    tag_8:\n      tag_10\n      jump\t// in\n    tag_7:\n      mload(0x40)\n      tag_11\n      swap2\n      swap1\n      tag_12\n      jump\t// in\n    tag_11:\n      mload(0x40)\n      dup1\n      swap2\n      sub\n      swap1\n      return\n        /* \"lecture/lec17.sol\":700:807  function setPirceList(string memory _str, uint256 _price) public{\r... */\n    tag_4:\n      tag_13\n      0x04\n      dup1\n      calldatasize\n      sub\n      dup2\n      add\n      swap1\n      tag_14\n      swap2\n      swap1\n      tag_15\n      jump\t// in\n    tag_14:\n      tag_16\n      jump\t// in\n    tag_13:\n      stop\n        /* \"lecture/lec17.sol\":813:920  function getPirce(string memory _str) public view returns(uint256){\r... */\n    tag_5:\n      tag_17\n      0x04\n      dup1\n      calldatasize\n      sub\n      dup2\n      add\n      swap1\n      tag_18\n      swap2\n      swap1\n      tag_19\n      jump\t// in\n    tag_18:\n      tag_20\n      jump\t// in\n    tag_17:\n      mload(0x40)\n      tag_21\n      swap2\n      swap1\n      tag_12\n      jump\t// in\n    tag_21:\n      mload(0x40)\n      dup1\n      swap2\n      sub\n      swap1\n      return\n        /* \"lecture/lec17.sol\":488:585  function setAgeList(uint256 _index, uint256 _age) public{\r... */\n    tag_6:\n      tag_22\n      0x04\n      dup1\n      calldatasize\n      sub\n      dup2\n      add\n      swap1\n      tag_23\n      swap2\n      swap1\n      tag_24\n      jump\t// in\n    tag_23:\n      tag_25\n      jump\t// in\n    tag_22:\n      stop\n        /* \"lecture/lec17.sol\":591:692  function getAge(uint256 _index) public view returns(uint256){\r... */\n    tag_10:\n        /* \"lecture/lec17.sol\":643:650  uint256 */\n      0x00\n        /* \"lecture/lec17.sol\":669:676  ageList */\n      dup1\n        /* \"lecture/lec17.sol\":669:684  ageList[_index] */\n      0x00\n        /* \"lecture/lec17.sol\":677:683  _index */\n      dup4\n        /* \"lecture/lec17.sol\":669:684  ageList[_index] */\n      dup2\n      mstore\n      0x20\n      add\n      swap1\n      dup2\n      mstore\n      0x20\n      add\n      0x00\n      keccak256\n      sload\n        /* \"lecture/lec17.sol\":662:684  return ageList[_index] */\n      swap1\n      pop\n        /* \"lecture/lec17.sol\":591:692  function getAge(uint256 _index) public view returns(uint256){\r... */\n      swap2\n      swap1\n      pop\n      jump\t// out\n        /* \"lecture/lec17.sol\":700:807  function setPirceList(string memory _str, uint256 _price) public{\r... */\n    tag_16:\n        /* \"lecture/lec17.sol\":793:799  _price */\n      dup1\n        /* \"lecture/lec17.sol\":775:784  priceList */\n      0x01\n        /* \"lecture/lec17.sol\":785:789  _str */\n      dup4\n        /* \"lecture/lec17.sol\":775:790  priceList[_str] */\n      mload(0x40)\n      tag_28\n      swap2\n      swap1\n      tag_29\n      jump\t// in\n    tag_28:\n      swap1\n      dup2\n      mstore\n      0x20\n      add\n      mload(0x40)\n      dup1\n      swap2\n      sub\n      swap1\n      keccak256\n        /* \"lecture/lec17.sol\":775:799  priceList[_str] = _price */\n      dup2\n      swap1\n      sstore\n      pop\n        /* \"lecture/lec17.sol\":700:807  function setPirceList(string memory _str, uint256 _price) public{\r... */\n      pop\n      pop\n      jump\t// out\n        /* \"lecture/lec17.sol\":813:920  function getPirce(string memory _str) public view returns(uint256){\r... */\n    tag_20:\n        /* \"lecture/lec17.sol\":871:878  uint256 */\n      0x00\n        /* \"lecture/lec17.sol\":897:906  priceList */\n      0x01\n        /* \"lecture/lec17.sol\":907:911  _str */\n      dup3\n        /* \"lecture/lec17.sol\":897:912  priceList[_str] */\n      mload(0x40)\n      tag_31\n      swap2\n      swap1\n      tag_29\n      jump\t// in\n    tag_31:\n      swap1\n      dup2\n      mstore\n      0x20\n      add\n      mload(0x40)\n      dup1\n      swap2\n      sub\n      swap1\n      keccak256\n      sload\n        /* \"lecture/lec17.sol\":890:912  return priceList[_str] */\n      swap1\n      pop\n        /* \"lecture/lec17.sol\":813:920  function getPirce(string memory _str) public view returns(uint256){\r... */\n      swap2\n      swap1\n      pop\n      jump\t// out\n        /* \"lecture/lec17.sol\":488:585  function setAgeList(uint256 _index, uint256 _age) public{\r... */\n    tag_25:\n        /* \"lecture/lec17.sol\":573:577  _age */\n      dup1\n        /* \"lecture/lec17.sol\":555:562  ageList */\n      0x00\n        /* \"lecture/lec17.sol\":555:570  ageList[_index] */\n      dup1\n        /* \"lecture/lec17.sol\":563:569  _index */\n      dup5\n        /* \"lecture/lec17.sol\":555:570  ageList[_index] */\n      dup2\n      mstore\n      0x20\n      add\n      swap1\n      dup2\n      mstore\n      0x20\n      add\n      0x00\n      keccak256\n        /* \"lecture/lec17.sol\":555:577  ageList[_index] = _age */\n      dup2\n      swap1\n      sstore\n      pop\n        /* \"lecture/lec17.sol\":488:585  function setAgeList(uint256 _index, uint256 _age) public{\r... */\n      pop\n      pop\n      jump\t// out\n        /* \"#utility.yul\":7:419   */\n    tag_34:\n        /* \"#utility.yul\":85:90   */\n      0x00\n        /* \"#utility.yul\":110:176   */\n      tag_36\n        /* \"#utility.yul\":126:175   */\n      tag_37\n        /* \"#utility.yul\":168:174   */\n      dup5\n        /* \"#utility.yul\":126:175   */\n      tag_38\n      jump\t// in\n    tag_37:\n        /* \"#utility.yul\":110:176   */\n      tag_39\n      jump\t// in\n    tag_36:\n        /* \"#utility.yul\":101:176   */\n      swap1\n      pop\n        /* \"#utility.yul\":199:205   */\n      dup3\n        /* \"#utility.yul\":192:197   */\n      dup2\n        /* \"#utility.yul\":185:206   */\n      mstore\n        /* \"#utility.yul\":237:241   */\n      0x20\n        /* \"#utility.yul\":230:235   */\n      dup2\n        /* \"#utility.yul\":226:242   */\n      add\n        /* \"#utility.yul\":275:278   */\n      dup5\n        /* \"#utility.yul\":266:272   */\n      dup5\n        /* \"#utility.yul\":261:264   */\n      dup5\n        /* \"#utility.yul\":257:273   */\n      add\n        /* \"#utility.yul\":254:279   */\n      gt\n        /* \"#utility.yul\":251:363   */\n      iszero\n      tag_40\n      jumpi\n        /* \"#utility.yul\":282:361   */\n      tag_41\n      tag_42\n      jump\t// in\n    tag_41:\n        /* \"#utility.yul\":251:363   */\n    tag_40:\n        /* \"#utility.yul\":372:413   */\n      tag_43\n        /* \"#utility.yul\":406:412   */\n      dup5\n        /* \"#utility.yul\":401:404   */\n      dup3\n        /* \"#utility.yul\":396:399   */\n      dup6\n        /* \"#utility.yul\":372:413   */\n      tag_44\n      jump\t// in\n    tag_43:\n        /* \"#utility.yul\":91:419   */\n      pop\n        /* \"#utility.yul\":7:419   */\n      swap4\n      swap3\n      pop\n      pop\n      pop\n      jump\t// out\n        /* \"#utility.yul\":439:779   */\n    tag_45:\n        /* \"#utility.yul\":495:500   */\n      0x00\n        /* \"#utility.yul\":544:547   */\n      dup3\n        /* \"#utility.yul\":537:541   */\n      0x1f\n        /* \"#utility.yul\":529:535   */\n      dup4\n        /* \"#utility.yul\":525:542   */\n      add\n        /* \"#utility.yul\":521:548   */\n      slt\n        /* \"#utility.yul\":511:633   */\n      tag_47\n      jumpi\n        /* \"#utility.yul\":552:631   */\n      tag_48\n      tag_49\n      jump\t// in\n    tag_48:\n        /* \"#utility.yul\":511:633   */\n    tag_47:\n        /* \"#utility.yul\":669:675   */\n      dup2\n        /* \"#utility.yul\":656:676   */\n      calldataload\n        /* \"#utility.yul\":694:773   */\n      tag_50\n        /* \"#utility.yul\":769:772   */\n      dup5\n        /* \"#utility.yul\":761:767   */\n      dup3\n        /* \"#utility.yul\":754:758   */\n      0x20\n        /* \"#utility.yul\":746:752   */\n      dup7\n        /* \"#utility.yul\":742:759   */\n      add\n        /* \"#utility.yul\":694:773   */\n      tag_34\n      jump\t// in\n    tag_50:\n        /* \"#utility.yul\":685:773   */\n      swap2\n      pop\n        /* \"#utility.yul\":501:779   */\n      pop\n        /* \"#utility.yul\":439:779   */\n      swap3\n      swap2\n      pop\n      pop\n      jump\t// out\n        /* \"#utility.yul\":785:924   */\n    tag_51:\n        /* \"#utility.yul\":831:836   */\n      0x00\n        /* \"#utility.yul\":869:875   */\n      dup2\n        /* \"#utility.yul\":856:876   */\n      calldataload\n        /* \"#utility.yul\":847:876   */\n      swap1\n      pop\n        /* \"#utility.yul\":885:918   */\n      tag_53\n        /* \"#utility.yul\":912:917   */\n      dup2\n        /* \"#utility.yul\":885:918   */\n      tag_54\n      jump\t// in\n    tag_53:\n        /* \"#utility.yul\":785:924   */\n      swap3\n      swap2\n      pop\n      pop\n      jump\t// out\n        /* \"#utility.yul\":930:1439   */\n    tag_19:\n        /* \"#utility.yul\":999:1005   */\n      0x00\n        /* \"#utility.yul\":1048:1050   */\n      0x20\n        /* \"#utility.yul\":1036:1045   */\n      dup3\n        /* \"#utility.yul\":1027:1034   */\n      dup5\n        /* \"#utility.yul\":1023:1046   */\n      sub\n        /* \"#utility.yul\":1019:1051   */\n      slt\n        /* \"#utility.yul\":1016:1135   */\n      iszero\n      tag_56\n      jumpi\n        /* \"#utility.yul\":1054:1133   */\n      tag_57\n      tag_58\n      jump\t// in\n    tag_57:\n        /* \"#utility.yul\":1016:1135   */\n    tag_56:\n        /* \"#utility.yul\":1202:1203   */\n      0x00\n        /* \"#utility.yul\":1191:1200   */\n      dup3\n        /* \"#utility.yul\":1187:1204   */\n      add\n        /* \"#utility.yul\":1174:1205   */\n      calldataload\n        /* \"#utility.yul\":1232:1250   */\n      0xffffffffffffffff\n        /* \"#utility.yul\":1224:1230   */\n      dup2\n        /* \"#utility.yul\":1221:1251   */\n      gt\n        /* \"#utility.yul\":1218:1335   */\n      iszero\n      tag_59\n      jumpi\n        /* \"#utility.yul\":1254:1333   */\n      tag_60\n      tag_61\n      jump\t// in\n    tag_60:\n        /* \"#utility.yul\":1218:1335   */\n    tag_59:\n        /* \"#utility.yul\":1359:1422   */\n      tag_62\n        /* \"#utility.yul\":1414:1421   */\n      dup5\n        /* \"#utility.yul\":1405:1411   */\n      dup3\n        /* \"#utility.yul\":1394:1403   */\n      dup6\n        /* \"#utility.yul\":1390:1412   */\n      add\n        /* \"#utility.yul\":1359:1422   */\n      tag_45\n      jump\t// in\n    tag_62:\n        /* \"#utility.yul\":1349:1422   */\n      swap2\n      pop\n        /* \"#utility.yul\":1145:1432   */\n      pop\n        /* \"#utility.yul\":930:1439   */\n      swap3\n      swap2\n      pop\n      pop\n      jump\t// out\n        /* \"#utility.yul\":1445:2099   */\n    tag_15:\n        /* \"#utility.yul\":1523:1529   */\n      0x00\n        /* \"#utility.yul\":1531:1537   */\n      dup1\n        /* \"#utility.yul\":1580:1582   */\n      0x40\n        /* \"#utility.yul\":1568:1577   */\n      dup4\n        /* \"#utility.yul\":1559:1566   */\n      dup6\n        /* \"#utility.yul\":1555:1578   */\n      sub\n        /* \"#utility.yul\":1551:1583   */\n      slt\n        /* \"#utility.yul\":1548:1667   */\n      iszero\n      tag_64\n      jumpi\n        /* \"#utility.yul\":1586:1665   */\n      tag_65\n      tag_58\n      jump\t// in\n    tag_65:\n        /* \"#utility.yul\":1548:1667   */\n    tag_64:\n        /* \"#utility.yul\":1734:1735   */\n      0x00\n        /* \"#utility.yul\":1723:1732   */\n      dup4\n        /* \"#utility.yul\":1719:1736   */\n      add\n        /* \"#utility.yul\":1706:1737   */\n      calldataload\n        /* \"#utility.yul\":1764:1782   */\n      0xffffffffffffffff\n        /* \"#utility.yul\":1756:1762   */\n      dup2\n        /* \"#utility.yul\":1753:1783   */\n      gt\n        /* \"#utility.yul\":1750:1867   */\n      iszero\n      tag_66\n      jumpi\n        /* \"#utility.yul\":1786:1865   */\n      tag_67\n      tag_61\n      jump\t// in\n    tag_67:\n        /* \"#utility.yul\":1750:1867   */\n    tag_66:\n        /* \"#utility.yul\":1891:1954   */\n      tag_68\n        /* \"#utility.yul\":1946:1953   */\n      dup6\n        /* \"#utility.yul\":1937:1943   */\n      dup3\n        /* \"#utility.yul\":1926:1935   */\n      dup7\n        /* \"#utility.yul\":1922:1944   */\n      add\n        /* \"#utility.yul\":1891:1954   */\n      tag_45\n      jump\t// in\n    tag_68:\n        /* \"#utility.yul\":1881:1954   */\n      swap3\n      pop\n        /* \"#utility.yul\":1677:1964   */\n      pop\n        /* \"#utility.yul\":2003:2005   */\n      0x20\n        /* \"#utility.yul\":2029:2082   */\n      tag_69\n        /* \"#utility.yul\":2074:2081   */\n      dup6\n        /* \"#utility.yul\":2065:2071   */\n      dup3\n        /* \"#utility.yul\":2054:2063   */\n      dup7\n        /* \"#utility.yul\":2050:2072   */\n      add\n        /* \"#utility.yul\":2029:2082   */\n      tag_51\n      jump\t// in\n    tag_69:\n        /* \"#utility.yul\":2019:2082   */\n      swap2\n      pop\n        /* \"#utility.yul\":1974:2092   */\n      pop\n        /* \"#utility.yul\":1445:2099   */\n      swap3\n      pop\n      swap3\n      swap1\n      pop\n      jump\t// out\n        /* \"#utility.yul\":2105:2434   */\n    tag_9:\n        /* \"#utility.yul\":2164:2170   */\n      0x00\n        /* \"#utility.yul\":2213:2215   */\n      0x20\n        /* \"#utility.yul\":2201:2210   */\n      dup3\n        /* \"#utility.yul\":2192:2199   */\n      dup5\n        /* \"#utility.yul\":2188:2211   */\n      sub\n        /* \"#utility.yul\":2184:2216   */\n      slt\n        /* \"#utility.yul\":2181:2300   */\n      iszero\n      tag_71\n      jumpi\n        /* \"#utility.yul\":2219:2298   */\n      tag_72\n      tag_58\n      jump\t// in\n    tag_72:\n        /* \"#utility.yul\":2181:2300   */\n    tag_71:\n        /* \"#utility.yul\":2339:2340   */\n      0x00\n        /* \"#utility.yul\":2364:2417   */\n      tag_73\n        /* \"#utility.yul\":2409:2416   */\n      dup5\n        /* \"#utility.yul\":2400:2406   */\n      dup3\n        /* \"#utility.yul\":2389:2398   */\n      dup6\n        /* \"#utility.yul\":2385:2407   */\n      add\n        /* \"#utility.yul\":2364:2417   */\n      tag_51\n      jump\t// in\n    tag_73:\n        /* \"#utility.yul\":2354:2417   */\n      swap2\n      pop\n        /* \"#utility.yul\":2310:2427   */\n      pop\n        /* \"#utility.yul\":2105:2434   */\n      swap3\n      swap2\n      pop\n      pop\n      jump\t// out\n        /* \"#utility.yul\":2440:2914   */\n    tag_24:\n        /* \"#utility.yul\":2508:2514   */\n      0x00\n        /* \"#utility.yul\":2516:2522   */\n      dup1\n        /* \"#utility.yul\":2565:2567   */\n      0x40\n        /* \"#utility.yul\":2553:2562   */\n      dup4\n        /* \"#utility.yul\":2544:2551   */\n      dup6\n        /* \"#utility.yul\":2540:2563   */\n      sub\n        /* \"#utility.yul\":2536:2568   */\n      slt\n        /* \"#utility.yul\":2533:2652   */\n      iszero\n      tag_75\n      jumpi\n        /* \"#utility.yul\":2571:2650   */\n      tag_76\n      tag_58\n      jump\t// in\n    tag_76:\n        /* \"#utility.yul\":2533:2652   */\n    tag_75:\n        /* \"#utility.yul\":2691:2692   */\n      0x00\n        /* \"#utility.yul\":2716:2769   */\n      tag_77\n        /* \"#utility.yul\":2761:2768   */\n      dup6\n        /* \"#utility.yul\":2752:2758   */\n      dup3\n        /* \"#utility.yul\":2741:2750   */\n      dup7\n        /* \"#utility.yul\":2737:2759   */\n      add\n        /* \"#utility.yul\":2716:2769   */\n      tag_51\n      jump\t// in\n    tag_77:\n        /* \"#utility.yul\":2706:2769   */\n      swap3\n      pop\n        /* \"#utility.yul\":2662:2779   */\n      pop\n        /* \"#utility.yul\":2818:2820   */\n      0x20\n        /* \"#utility.yul\":2844:2897   */\n      tag_78\n        /* \"#utility.yul\":2889:2896   */\n      dup6\n        /* \"#utility.yul\":2880:2886   */\n      dup3\n        /* \"#utility.yul\":2869:2878   */\n      dup7\n        /* \"#utility.yul\":2865:2887   */\n      add\n        /* \"#utility.yul\":2844:2897   */\n      tag_51\n      jump\t// in\n    tag_78:\n        /* \"#utility.yul\":2834:2897   */\n      swap2\n      pop\n        /* \"#utility.yul\":2789:2907   */\n      pop\n        /* \"#utility.yul\":2440:2914   */\n      swap3\n      pop\n      swap3\n      swap1\n      pop\n      jump\t// out\n        /* \"#utility.yul\":2920:3297   */\n    tag_79:\n        /* \"#utility.yul\":3026:3029   */\n      0x00\n        /* \"#utility.yul\":3054:3093   */\n      tag_81\n        /* \"#utility.yul\":3087:3092   */\n      dup3\n        /* \"#utility.yul\":3054:3093   */\n      tag_82\n      jump\t// in\n    tag_81:\n        /* \"#utility.yul\":3109:3198   */\n      tag_83\n        /* \"#utility.yul\":3191:3197   */\n      dup2\n        /* \"#utility.yul\":3186:3189   */\n      dup6\n        /* \"#utility.yul\":3109:3198   */\n      tag_84\n      jump\t// in\n    tag_83:\n        /* \"#utility.yul\":3102:3198   */\n      swap4\n      pop\n        /* \"#utility.yul\":3207:3259   */\n      tag_85\n        /* \"#utility.yul\":3252:3258   */\n      dup2\n        /* \"#utility.yul\":3247:3250   */\n      dup6\n        /* \"#utility.yul\":3240:3244   */\n      0x20\n        /* \"#utility.yul\":3233:3238   */\n      dup7\n        /* \"#utility.yul\":3229:3245   */\n      add\n        /* \"#utility.yul\":3207:3259   */\n      tag_86\n      jump\t// in\n    tag_85:\n        /* \"#utility.yul\":3284:3290   */\n      dup1\n        /* \"#utility.yul\":3279:3282   */\n      dup5\n        /* \"#utility.yul\":3275:3291   */\n      add\n        /* \"#utility.yul\":3268:3291   */\n      swap2\n      pop\n        /* \"#utility.yul\":3030:3297   */\n      pop\n        /* \"#utility.yul\":2920:3297   */\n      swap3\n      swap2\n      pop\n      pop\n      jump\t// out\n        /* \"#utility.yul\":3303:3421   */\n    tag_87:\n        /* \"#utility.yul\":3390:3414   */\n      tag_89\n        /* \"#utility.yul\":3408:3413   */\n      dup2\n        /* \"#utility.yul\":3390:3414   */\n      tag_90\n      jump\t// in\n    tag_89:\n        /* \"#utility.yul\":3385:3388   */\n      dup3\n        /* \"#utility.yul\":3378:3415   */\n      mstore\n        /* \"#utility.yul\":3303:3421   */\n      pop\n      pop\n      jump\t// out\n        /* \"#utility.yul\":3427:3702   */\n    tag_29:\n        /* \"#utility.yul\":3559:3562   */\n      0x00\n        /* \"#utility.yul\":3581:3676   */\n      tag_92\n        /* \"#utility.yul\":3672:3675   */\n      dup3\n        /* \"#utility.yul\":3663:3669   */\n      dup5\n        /* \"#utility.yul\":3581:3676   */\n      tag_79\n      jump\t// in\n    tag_92:\n        /* \"#utility.yul\":3574:3676   */\n      swap2\n      pop\n        /* \"#utility.yul\":3693:3696   */\n      dup2\n        /* \"#utility.yul\":3686:3696   */\n      swap1\n      pop\n        /* \"#utility.yul\":3427:3702   */\n      swap3\n      swap2\n      pop\n      pop\n      jump\t// out\n        /* \"#utility.yul\":3708:3930   */\n    tag_12:\n        /* \"#utility.yul\":3801:3805   */\n      0x00\n        /* \"#utility.yul\":3839:3841   */\n      0x20\n        /* \"#utility.yul\":3828:3837   */\n      dup3\n        /* \"#utility.yul\":3824:3842   */\n      add\n        /* \"#utility.yul\":3816:3842   */\n      swap1\n      pop\n        /* \"#utility.yul\":3852:3923   */\n      tag_94\n        /* \"#utility.yul\":3920:3921   */\n      0x00\n        /* \"#utility.yul\":3909:3918   */\n      dup4\n        /* \"#utility.yul\":3905:3922   */\n      add\n        /* \"#utility.yul\":3896:3902   */\n      dup5\n        /* \"#utility.yul\":3852:3923   */\n      tag_87\n      jump\t// in\n    tag_94:\n        /* \"#utility.yul\":3708:3930   */\n      swap3\n      swap2\n      pop\n      pop\n      jump\t// out\n        /* \"#utility.yul\":3936:4065   */\n    tag_39:\n        /* \"#utility.yul\":3970:3976   */\n      0x00\n        /* \"#utility.yul\":3997:4017   */\n      tag_96\n      tag_97\n      jump\t// in\n    tag_96:\n        /* \"#utility.yul\":3987:4017   */\n      swap1\n      pop\n        /* \"#utility.yul\":4026:4059   */\n      tag_98\n        /* \"#utility.yul\":4054:4058   */\n      dup3\n        /* \"#utility.yul\":4046:4052   */\n      dup3\n        /* \"#utility.yul\":4026:4059   */\n      tag_99\n      jump\t// in\n    tag_98:\n        /* \"#utility.yul\":3936:4065   */\n      swap2\n      swap1\n      pop\n      jump\t// out\n        /* \"#utility.yul\":4071:4146   */\n    tag_97:\n        /* \"#utility.yul\":4104:4110   */\n      0x00\n        /* \"#utility.yul\":4137:4139   */\n      0x40\n        /* \"#utility.yul\":4131:4140   */\n      mload\n        /* \"#utility.yul\":4121:4140   */\n      swap1\n      pop\n        /* \"#utility.yul\":4071:4146   */\n      swap1\n      jump\t// out\n        /* \"#utility.yul\":4152:4460   */\n    tag_38:\n        /* \"#utility.yul\":4214:4218   */\n      0x00\n        /* \"#utility.yul\":4304:4322   */\n      0xffffffffffffffff\n        /* \"#utility.yul\":4296:4302   */\n      dup3\n        /* \"#utility.yul\":4293:4323   */\n      gt\n        /* \"#utility.yul\":4290:4346   */\n      iszero\n      tag_102\n      jumpi\n        /* \"#utility.yul\":4326:4344   */\n      tag_103\n      tag_104\n      jump\t// in\n    tag_103:\n        /* \"#utility.yul\":4290:4346   */\n    tag_102:\n        /* \"#utility.yul\":4364:4393   */\n      tag_105\n        /* \"#utility.yul\":4386:4392   */\n      dup3\n        /* \"#utility.yul\":4364:4393   */\n      tag_106\n      jump\t// in\n    tag_105:\n        /* \"#utility.yul\":4356:4393   */\n      swap1\n      pop\n        /* \"#utility.yul\":4448:4452   */\n      0x20\n        /* \"#utility.yul\":4442:4446   */\n      dup2\n        /* \"#utility.yul\":4438:4453   */\n      add\n        /* \"#utility.yul\":4430:4453   */\n      swap1\n      pop\n        /* \"#utility.yul\":4152:4460   */\n      swap2\n      swap1\n      pop\n      jump\t// out\n        /* \"#utility.yul\":4466:4565   */\n    tag_82:\n        /* \"#utility.yul\":4518:4524   */\n      0x00\n        /* \"#utility.yul\":4552:4557   */\n      dup2\n        /* \"#utility.yul\":4546:4558   */\n      mload\n        /* \"#utility.yul\":4536:4558   */\n      swap1\n      pop\n        /* \"#utility.yul\":4466:4565   */\n      swap2\n      swap1\n      pop\n      jump\t// out\n        /* \"#utility.yul\":4571:4719   */\n    tag_84:\n        /* \"#utility.yul\":4673:4684   */\n      0x00\n        /* \"#utility.yul\":4710:4713   */\n      dup2\n        /* \"#utility.yul\":4695:4713   */\n      swap1\n      pop\n        /* \"#utility.yul\":4571:4719   */\n      swap3\n      swap2\n      pop\n      pop\n      jump\t// out\n        /* \"#utility.yul\":4725:4802   */\n    tag_90:\n        /* \"#utility.yul\":4762:4769   */\n      0x00\n        /* \"#utility.yul\":4791:4796   */\n      dup2\n        /* \"#utility.yul\":4780:4796   */\n      swap1\n      pop\n        /* \"#utility.yul\":4725:4802   */\n      swap2\n      swap1\n      pop\n      jump\t// out\n        /* \"#utility.yul\":4808:4962   */\n    tag_44:\n        /* \"#utility.yul\":4892:4898   */\n      dup3\n        /* \"#utility.yul\":4887:4890   */\n      dup2\n        /* \"#utility.yul\":4882:4885   */\n      dup4\n        /* \"#utility.yul\":4869:4899   */\n      calldatacopy\n        /* \"#utility.yul\":4954:4955   */\n      0x00\n        /* \"#utility.yul\":4945:4951   */\n      dup4\n        /* \"#utility.yul\":4940:4943   */\n      dup4\n        /* \"#utility.yul\":4936:4952   */\n      add\n        /* \"#utility.yul\":4929:4956   */\n      mstore\n        /* \"#utility.yul\":4808:4962   */\n      pop\n      pop\n      pop\n      jump\t// out\n        /* \"#utility.yul\":4968:5275   */\n    tag_86:\n        /* \"#utility.yul\":5036:5037   */\n      0x00\n        /* \"#utility.yul\":5046:5159   */\n    tag_112:\n        /* \"#utility.yul\":5060:5066   */\n      dup4\n        /* \"#utility.yul\":5057:5058   */\n      dup2\n        /* \"#utility.yul\":5054:5067   */\n      lt\n        /* \"#utility.yul\":5046:5159   */\n      iszero\n      tag_114\n      jumpi\n        /* \"#utility.yul\":5145:5146   */\n      dup1\n        /* \"#utility.yul\":5140:5143   */\n      dup3\n        /* \"#utility.yul\":5136:5147   */\n      add\n        /* \"#utility.yul\":5130:5148   */\n      mload\n        /* \"#utility.yul\":5126:5127   */\n      dup2\n        /* \"#utility.yul\":5121:5124   */\n      dup5\n        /* \"#utility.yul\":5117:5128   */\n      add\n        /* \"#utility.yul\":5110:5149   */\n      mstore\n        /* \"#utility.yul\":5082:5084   */\n      0x20\n        /* \"#utility.yul\":5079:5080   */\n      dup2\n        /* \"#utility.yul\":5075:5085   */\n      add\n        /* \"#utility.yul\":5070:5085   */\n      swap1\n      pop\n        /* \"#utility.yul\":5046:5159   */\n      jump(tag_112)\n    tag_114:\n        /* \"#utility.yul\":5177:5183   */\n      dup4\n        /* \"#utility.yul\":5174:5175   */\n      dup2\n        /* \"#utility.yul\":5171:5184   */\n      gt\n        /* \"#utility.yul\":5168:5269   */\n      iszero\n      tag_115\n      jumpi\n        /* \"#utility.yul\":5257:5258   */\n      0x00\n        /* \"#utility.yul\":5248:5254   */\n      dup5\n        /* \"#utility.yul\":5243:5246   */\n      dup5\n        /* \"#utility.yul\":5239:5255   */\n      add\n        /* \"#utility.yul\":5232:5259   */\n      mstore\n        /* \"#utility.yul\":5168:5269   */\n    tag_115:\n        /* \"#utility.yul\":5017:5275   */\n      pop\n        /* \"#utility.yul\":4968:5275   */\n      pop\n      pop\n      pop\n      jump\t// out\n        /* \"#utility.yul\":5281:5562   */\n    tag_99:\n        /* \"#utility.yul\":5364:5391   */\n      tag_117\n        /* \"#utility.yul\":5386:5390   */\n      dup3\n        /* \"#utility.yul\":5364:5391   */\n      tag_106\n      jump\t// in\n    tag_117:\n        /* \"#utility.yul\":5356:5362   */\n      dup2\n        /* \"#utility.yul\":5352:5392   */\n      add\n        /* \"#utility.yul\":5494:5500   */\n      dup2\n        /* \"#utility.yul\":5482:5492   */\n      dup2\n        /* \"#utility.yul\":5479:5501   */\n      lt\n        /* \"#utility.yul\":5458:5476   */\n      0xffffffffffffffff\n        /* \"#utility.yul\":5446:5456   */\n      dup3\n        /* \"#utility.yul\":5443:5477   */\n      gt\n        /* \"#utility.yul\":5440:5502   */\n      or\n        /* \"#utility.yul\":5437:5525   */\n      iszero\n      tag_118\n      jumpi\n        /* \"#utility.yul\":5505:5523   */\n      tag_119\n      tag_104\n      jump\t// in\n    tag_119:\n        /* \"#utility.yul\":5437:5525   */\n    tag_118:\n        /* \"#utility.yul\":5545:5555   */\n      dup1\n        /* \"#utility.yul\":5541:5543   */\n      0x40\n        /* \"#utility.yul\":5534:5556   */\n      mstore\n        /* \"#utility.yul\":5324:5562   */\n      pop\n        /* \"#utility.yul\":5281:5562   */\n      pop\n      pop\n      jump\t// out\n        /* \"#utility.yul\":5568:5748   */\n    tag_104:\n        /* \"#utility.yul\":5616:5693   */\n      0x4e487b7100000000000000000000000000000000000000000000000000000000\n        /* \"#utility.yul\":5613:5614   */\n      0x00\n        /* \"#utility.yul\":5606:5694   */\n      mstore\n        /* \"#utility.yul\":5713:5717   */\n      0x41\n        /* \"#utility.yul\":5710:5711   */\n      0x04\n        /* \"#utility.yul\":5703:5718   */\n      mstore\n        /* \"#utility.yul\":5737:5741   */\n      0x24\n        /* \"#utility.yul\":5734:5735   */\n      0x00\n        /* \"#utility.yul\":5727:5742   */\n      revert\n        /* \"#utility.yul\":5754:5871   */\n    tag_49:\n        /* \"#utility.yul\":5863:5864   */\n      0x00\n        /* \"#utility.yul\":5860:5861   */\n      dup1\n        /* \"#utility.yul\":5853:5865   */\n      revert\n        /* \"#utility.yul\":5877:5994   */\n    tag_42:\n        /* \"#utility.yul\":5986:5987   */\n      0x00\n        /* \"#utility.yul\":5983:5984   */\n      dup1\n        /* \"#utility.yul\":5976:5988   */\n      revert\n        /* \"#utility.yul\":6000:6117   */\n    tag_61:\n        /* \"#utility.yul\":6109:6110   */\n      0x00\n        /* \"#utility.yul\":6106:6107   */\n      dup1\n        /* \"#utility.yul\":6099:6111   */\n      revert\n        /* \"#utility.yul\":6123:6240   */\n    tag_58:\n        /* \"#utility.yul\":6232:6233   */\n      0x00\n        /* \"#utility.yul\":6229:6230   */\n      dup1\n        /* \"#utility.yul\":6222:6234   */\n      revert\n        /* \"#utility.yul\":6246:6348   */\n    tag_106:\n        /* \"#utility.yul\":6287:6293   */\n      0x00\n        /* \"#utility.yul\":6338:6340   */\n      0x1f\n        /* \"#utility.yul\":6334:6341   */\n      not\n        /* \"#utility.yul\":6329:6331   */\n      0x1f\n        /* \"#utility.yul\":6322:6327   */\n      dup4\n        /* \"#utility.yul\":6318:6332   */\n      add\n        /* \"#utility.yul\":6314:6342   */\n      and\n        /* \"#utility.yul\":6304:6342   */\n      swap1\n      pop\n        /* \"#utility.yul\":6246:6348   */\n      swap2\n      swap1\n      pop\n      jump\t// out\n        /* \"#utility.yul\":6354:6476   */\n    tag_54:\n        /* \"#utility.yul\":6427:6451   */\n      tag_127\n        /* \"#utility.yul\":6445:6450   */\n      dup2\n        /* \"#utility.yul\":6427:6451   */\n      tag_90\n      jump\t// in\n    tag_127:\n        /* \"#utility.yul\":6420:6425   */\n      dup2\n        /* \"#utility.yul\":6417:6452   */\n      eq\n        /* \"#utility.yul\":6407:6470   */\n      tag_128\n      jumpi\n        /* \"#utility.yul\":6466:6467   */\n      0x00\n        /* \"#utility.yul\":6463:6464   */\n      dup1\n        /* \"#utility.yul\":6456:6468   */\n      revert\n        /* \"#utility.yul\":6407:6470   */\n    tag_128:\n        /* \"#utility.yul\":6354:6476   */\n      pop\n      jump\t// out\n\n    auxdata: 0xa264697066735822122061633dce0238d2554d420aff8bca5a52fa2e3c8138035ff1bb996dddc94791b364736f6c63430008070033\n}\n",
				"bytecode": {
					"linkReferences": {},
					"object": "608060405234801561001057600080fd5b50610502806100206000396000f3fe608060405234801561001057600080fd5b506004361061004c5760003560e01c80630e37008a146100515780633cb8faf314610081578063ef3b9fde1461009d578063fe093d3b146100cd575b600080fd5b61006b60048036038101906100669190610299565b6100e9565b604051610078919061035d565b60405180910390f35b61009b6004803603810190610096919061023d565b610105565b005b6100b760048036038101906100b291906101f4565b61012c565b6040516100c4919061035d565b60405180910390f35b6100e760048036038101906100e291906102c6565b610154565b005b6000806000838152602001908152602001600020549050919050565b806001836040516101169190610346565b9081526020016040518091039020819055505050565b600060018260405161013e9190610346565b9081526020016040518091039020549050919050565b80600080848152602001908152602001600020819055505050565b600061018261017d8461039d565b610378565b90508281526020810184848401111561019e5761019d610495565b5b6101a98482856103ee565b509392505050565b600082601f8301126101c6576101c5610490565b5b81356101d684826020860161016f565b91505092915050565b6000813590506101ee816104b5565b92915050565b60006020828403121561020a5761020961049f565b5b600082013567ffffffffffffffff8111156102285761022761049a565b5b610234848285016101b1565b91505092915050565b600080604083850312156102545761025361049f565b5b600083013567ffffffffffffffff8111156102725761027161049a565b5b61027e858286016101b1565b925050602061028f858286016101df565b9150509250929050565b6000602082840312156102af576102ae61049f565b5b60006102bd848285016101df565b91505092915050565b600080604083850312156102dd576102dc61049f565b5b60006102eb858286016101df565b92505060206102fc858286016101df565b9150509250929050565b6000610311826103ce565b61031b81856103d9565b935061032b8185602086016103fd565b80840191505092915050565b610340816103e4565b82525050565b60006103528284610306565b915081905092915050565b60006020820190506103726000830184610337565b92915050565b6000610382610393565b905061038e8282610430565b919050565b6000604051905090565b600067ffffffffffffffff8211156103b8576103b7610461565b5b6103c1826104a4565b9050602081019050919050565b600081519050919050565b600081905092915050565b6000819050919050565b82818337600083830152505050565b60005b8381101561041b578082015181840152602081019050610400565b8381111561042a576000848401525b50505050565b610439826104a4565b810181811067ffffffffffffffff8211171561045857610457610461565b5b80604052505050565b7f4e487b7100000000000000000000000000000000000000000000000000000000600052604160045260246000fd5b600080fd5b600080fd5b600080fd5b600080fd5b6000601f19601f8301169050919050565b6104be816103e4565b81146104c957600080fd5b5056fea264697066735822122061633dce0238d2554d420aff8bca5a52fa2e3c8138035ff1bb996dddc94791b364736f6c63430008070033",
					"opcodes": "PUSH1 0x80 PUSH1 0x40 MSTORE CALLVALUE DUP1 ISZERO PUSH2 0x10 JUMPI PUSH1 0x0 DUP1 REVERT JUMPDEST POP PUSH2 0x502 DUP1 PUSH2 0x20 PUSH1 0x0 CODECOPY PUSH1 0x0 RETURN INVALID PUSH1 0x80 PUSH1 0x40 MSTORE CALLVALUE DUP1 ISZERO PUSH2 0x10 JUMPI PUSH1 0x0 DUP1 REVERT JUMPDEST POP PUSH1 0x4 CALLDATASIZE LT PUSH2 0x4C JUMPI PUSH1 0x0 CALLDATALOAD PUSH1 0xE0 SHR DUP1 PUSH4 0xE37008A EQ PUSH2 0x51 JUMPI DUP1 PUSH4 0x3CB8FAF3 EQ PUSH2 0x81 JUMPI DUP1 PUSH4 0xEF3B9FDE EQ PUSH2 0x9D JUMPI DUP1 PUSH4 0xFE093D3B EQ PUSH2 0xCD JUMPI JUMPDEST PUSH1 0x0 DUP1 REVERT JUMPDEST PUSH2 0x6B PUSH1 0x4 DUP1 CALLDATASIZE SUB DUP2 ADD SWAP1 PUSH2 0x66 SWAP2 SWAP1 PUSH2 0x299 JUMP JUMPDEST PUSH2 0xE9 JUMP JUMPDEST PUSH1 0x40 MLOAD PUSH2 0x78 SWAP2 SWAP1 PUSH2 0x35D JUMP JUMPDEST PUSH1 0x40 MLOAD DUP1 SWAP2 SUB SWAP1 RETURN JUMPDEST PUSH2 0x9B PUSH1 0x4 DUP1 CALLDATASIZE SUB DUP2 ADD SWAP1 PUSH2 0x96 SWAP2 SWAP1 PUSH2 0x23D JUMP JUMPDEST PUSH2 0x105 JUMP JUMPDEST STOP JUMPDEST PUSH2 0xB7 PUSH1 0x4 DUP1 CALLDATASIZE SUB DUP2 ADD SWAP1 PUSH2 0xB2 SWAP2 SWAP1 PUSH2 0x1F4 JUMP JUMPDEST PUSH2 0x12C JUMP JUMPDEST PUSH1 0x40 MLOAD PUSH2 0xC4 SWAP2 SWAP1 PUSH2 0x35D JUMP JUMPDEST PUSH1 0x40 MLOAD DUP1 SWAP2 SUB SWAP1 RETURN JUMPDEST PUSH2 0xE7 PUSH1 0x4 DUP1 CALLDATASIZE SUB DUP2 ADD SWAP1 PUSH2 0xE2 SWAP2 SWAP1 PUSH2 0x2C6 JUMP JUMPDEST PUSH2 0x154 JUMP JUMPDEST STOP JUMPDEST PUSH1 0x0 DUP1 PUSH1 0x0 DUP4 DUP2 MSTORE PUSH1 0x20 ADD SWAP1 DUP2 MSTORE PUSH1 0x20 ADD PUSH1 0x0 KECCAK256 SLOAD SWAP1 POP SWAP2 SWAP1 POP JUMP JUMPDEST DUP1 PUSH1 0x1 DUP4 PUSH1 0x40 MLOAD PUSH2 0x116 SWAP2 SWAP1 PUSH2 0x346 JUMP JUMPDEST SWAP1 DUP2 MSTORE PUSH1 0x20 ADD PUSH1 0x40 MLOAD DUP1 SWAP2 SUB SWAP1 KECCAK256 DUP2 SWAP1 SSTORE POP POP POP JUMP JUMPDEST PUSH1 0x0 PUSH1 0x1 DUP3 PUSH1 0x40 MLOAD PUSH2 0x13E SWAP2 SWAP1 PUSH2 0x346 JUMP JUMPDEST SWAP1 DUP2 MSTORE PUSH1 0x20 ADD PUSH1 0x40 MLOAD DUP1 SWAP2 SUB SWAP1 KECCAK256 SLOAD SWAP1 POP SWAP2 SWAP1 POP JUMP JUMPDEST DUP1 PUSH1 0x0 DUP1 DUP5 DUP2 MSTORE PUSH1 0x20 ADD SWAP1 DUP2 MSTORE PUSH1 0x20 ADD PUSH1 0x0 KECCAK256 DUP2 SWAP1 SSTORE POP POP POP JUMP JUMPDEST PUSH1 0x0 PUSH2 0x182 PUSH2 0x17D DUP5 PUSH2 0x39D JUMP JUMPDEST PUSH2 0x378 JUMP JUMPDEST SWAP1 POP DUP3 DUP2 MSTORE PUSH1 0x20 DUP2 ADD DUP5 DUP5 DUP5 ADD GT ISZERO PUSH2 0x19E JUMPI PUSH2 0x19D PUSH2 0x495 JUMP JUMPDEST JUMPDEST PUSH2 0x1A9 DUP5 DUP3 DUP6 PUSH2 0x3EE JUMP JUMPDEST POP SWAP4 SWAP3 POP POP POP JUMP JUMPDEST PUSH1 0x0 DUP3 PUSH1 0x1F DUP4 ADD SLT PUSH2 0x1C6 JUMPI PUSH2 0x1C5 PUSH2 0x490 JUMP JUMPDEST JUMPDEST DUP2 CALLDATALOAD PUSH2 0x1D6 DUP5 DUP3 PUSH1 0x20 DUP7 ADD PUSH2 0x16F JUMP JUMPDEST SWAP2 POP POP SWAP3 SWAP2 POP POP JUMP JUMPDEST PUSH1 0x0 DUP2 CALLDATALOAD SWAP1 POP PUSH2 0x1EE DUP2 PUSH2 0x4B5 JUMP JUMPDEST SWAP3 SWAP2 POP POP JUMP JUMPDEST PUSH1 0x0 PUSH1 0x20 DUP3 DUP5 SUB SLT ISZERO PUSH2 0x20A JUMPI PUSH2 0x209 PUSH2 0x49F JUMP JUMPDEST JUMPDEST PUSH1 0x0 DUP3 ADD CALLDATALOAD PUSH8 0xFFFFFFFFFFFFFFFF DUP2 GT ISZERO PUSH2 0x228 JUMPI PUSH2 0x227 PUSH2 0x49A JUMP JUMPDEST JUMPDEST PUSH2 0x234 DUP5 DUP3 DUP6 ADD PUSH2 0x1B1 JUMP JUMPDEST SWAP2 POP POP SWAP3 SWAP2 POP POP JUMP JUMPDEST PUSH1 0x0 DUP1 PUSH1 0x40 DUP4 DUP6 SUB SLT ISZERO PUSH2 0x254 JUMPI PUSH2 0x253 PUSH2 0x49F JUMP JUMPDEST JUMPDEST PUSH1 0x0 DUP4 ADD CALLDATALOAD PUSH8 0xFFFFFFFFFFFFFFFF DUP2 GT ISZERO PUSH2 0x272 JUMPI PUSH2 0x271 PUSH2 0x49A JUMP JUMPDEST JUMPDEST PUSH2 0x27E DUP6 DUP3 DUP7 ADD PUSH2 0x1B1 JUMP JUMPDEST SWAP3 POP POP PUSH1 0x20 PUSH2 0x28F DUP6 DUP3 DUP7 ADD PUSH2 0x1DF JUMP JUMPDEST SWAP2 POP POP SWAP3 POP SWAP3 SWAP1 POP JUMP JUMPDEST PUSH1 0x0 PUSH1 0x20 DUP3 DUP5 SUB SLT ISZERO PUSH2 0x2AF JUMPI PUSH2 0x2AE PUSH2 0x49F JUMP JUMPDEST JUMPDEST PUSH1 0x0 PUSH2 0x2BD DUP5 DUP3 DUP6 ADD PUSH2 0x1DF JUMP JUMPDEST SWAP2 POP POP SWAP3 SWAP2 POP POP JUMP JUMPDEST PUSH1 0x0 DUP1 PUSH1 0x40 DUP4 DUP6 SUB SLT ISZERO PUSH2 0x2DD JUMPI PUSH2 0x2DC PUSH2 0x49F JUMP JUMPDEST JUMPDEST PUSH1 0x0 PUSH2 0x2EB DUP6 DUP3 DUP7 ADD PUSH2 0x1DF JUMP JUMPDEST SWAP3 POP POP PUSH1 0x20 PUSH2 0x2FC DUP6 DUP3 DUP7 ADD PUSH2 0x1DF JUMP JUMPDEST SWAP2 POP POP SWAP3 POP SWAP3 SWAP1 POP JUMP JUMPDEST PUSH1 0x0 PUSH2 0x311 DUP3 PUSH2 0x3CE JUMP JUMPDEST PUSH2 0x31B DUP2 DUP6 PUSH2 0x3D9 JUMP JUMPDEST SWAP4 POP PUSH2 0x32B DUP2 DUP6 PUSH1 0x20 DUP7 ADD PUSH2 0x3FD JUMP JUMPDEST DUP1 DUP5 ADD SWAP2 POP POP SWAP3 SWAP2 POP POP JUMP JUMPDEST PUSH2 0x340 DUP2 PUSH2 0x3E4 JUMP JUMPDEST DUP3 MSTORE POP POP JUMP JUMPDEST PUSH1 0x0 PUSH2 0x352 DUP3 DUP5 PUSH2 0x306 JUMP JUMPDEST SWAP2 POP DUP2 SWAP1 POP SWAP3 SWAP2 POP POP JUMP JUMPDEST PUSH1 0x0 PUSH1 0x20 DUP3 ADD SWAP1 POP PUSH2 0x372 PUSH1 0x0 DUP4 ADD DUP5 PUSH2 0x337 JUMP JUMPDEST SWAP3 SWAP2 POP POP JUMP JUMPDEST PUSH1 0x0 PUSH2 0x382 PUSH2 0x393 JUMP JUMPDEST SWAP1 POP PUSH2 0x38E DUP3 DUP3 PUSH2 0x430 JUMP JUMPDEST SWAP2 SWAP1 POP JUMP JUMPDEST PUSH1 0x0 PUSH1 0x40 MLOAD SWAP1 POP SWAP1 JUMP JUMPDEST PUSH1 0x0 PUSH8 0xFFFFFFFFFFFFFFFF DUP3 GT ISZERO PUSH2 0x3B8 JUMPI PUSH2 0x3B7 PUSH2 0x461 JUMP JUMPDEST JUMPDEST PUSH2 0x3C1 DUP3 PUSH2 0x4A4 JUMP JUMPDEST SWAP1 POP PUSH1 0x20 DUP2 ADD SWAP1 POP SWAP2 SWAP1 POP JUMP JUMPDEST PUSH1 0x0 DUP2 MLOAD SWAP1 POP SWAP2 SWAP1 POP JUMP JUMPDEST PUSH1 0x0 DUP2 SWAP1 POP SWAP3 SWAP2 POP POP JUMP JUMPDEST PUSH1 0x0 DUP2 SWAP1 POP SWAP2 SWAP1 POP JUMP JUMPDEST DUP3 DUP2 DUP4 CALLDATACOPY PUSH1 0x0 DUP4 DUP4 ADD MSTORE POP POP POP JUMP JUMPDEST PUSH1 0x0 JUMPDEST DUP4 DUP2 LT ISZERO PUSH2 0x41B JUMPI DUP1 DUP3 ADD MLOAD DUP2 DUP5 ADD MSTORE PUSH1 0x20 DUP2 ADD SWAP1 POP PUSH2 0x400 JUMP JUMPDEST DUP4 DUP2 GT ISZERO PUSH2 0x42A JUMPI PUSH1 0x0 DUP5 DUP5 ADD MSTORE JUMPDEST POP POP POP POP JUMP JUMPDEST PUSH2 0x439 DUP3 PUSH2 0x4A4 JUMP JUMPDEST DUP2 ADD DUP2 DUP2 LT PUSH8 0xFFFFFFFFFFFFFFFF DUP3 GT OR ISZERO PUSH2 0x458 JUMPI PUSH2 0x457 PUSH2 0x461 JUMP JUMPDEST JUMPDEST DUP1 PUSH1 0x40 MSTORE POP POP POP JUMP JUMPDEST PUSH32 0x4E487B7100000000000000000000000000000000000000000000000000000000 PUSH1 0x0 MSTORE PUSH1 0x41 PUSH1 0x4 MSTORE PUSH1 0x24 PUSH1 0x0 REVERT JUMPDEST PUSH1 0x0 DUP1 REVERT JUMPDEST PUSH1 0x0 DUP1 REVERT JUMPDEST PUSH1 0x0 DUP1 REVERT JUMPDEST PUSH1 0x0 DUP1 REVERT JUMPDEST PUSH1 0x0 PUSH1 0x1F NOT PUSH1 0x1F DUP4 ADD AND SWAP1 POP SWAP2 SWAP1 POP JUMP JUMPDEST PUSH2 0x4BE DUP2 PUSH2 0x3E4 JUMP JUMPDEST DUP2 EQ PUSH2 0x4C9 JUMPI PUSH1 0x0 DUP1 REVERT JUMPDEST POP JUMP INVALID LOG2 PUSH5 0x6970667358 0x22 SLT KECCAK256 PUSH2 0x633D 0xCE MUL CODESIZE 0xD2 SSTORE 0x4D TIMESTAMP EXP SELFDESTRUCT DUP12 0xCA GAS MSTORE STATICCALL 0x2E EXTCODECOPY DUP2 CODESIZE SUB 0x5F CALL 0xBB SWAP10 PUSH14 0xDDC94791B364736F6C6343000807 STOP CALLER "
				},
				"gasEstimates": {
					"creation": {
						"codeDepositCost": "256400",
						"executionCost": "300",
						"totalCost": "256700"
					},
					"external": {
						"getAge(uint256)": "infinite",
						"getPirce(string)": "infinite",
						"setAgeList(uint256,uint256)": "infinite",
						"setPirceList(string,uint256)": "infinite"
					}
				},
				"methodIdentifiers": {
					"getAge(uint256)": "0e37008a",
					"getPirce(string)": "ef3b9fde",
					"setAgeList(uint256,uint256)": "fe093d3b",
					"setPirceList(string,uint256)": "3cb8faf3"
				}
			},
			"userdoc": {
				"kind": "user",
				"methods": {},
				"version": 1
			}
		}
	}
}