{
	"lecture/lec19.sol": {
		"lec19": {
			"abi": [
				{
					"inputs": [
						{
							"internalType": "uint256",
							"name": "_num",
							"type": "uint256"
						}
					],
					"name": "ChangeNum",
					"outputs": [],
					"stateMutability": "nonpayable",
					"type": "function"
				},
				{
					"inputs": [],
					"name": "NumArrayAdd",
					"outputs": [],
					"stateMutability": "nonpayable",
					"type": "function"
				},
				{
					"inputs": [],
					"name": "NumMapAdd",
					"outputs": [],
					"stateMutability": "nonpayable",
					"type": "function"
				},
				{
					"inputs": [],
					"name": "ShowNum",
					"outputs": [
						{
							"internalType": "uint256",
							"name": "",
							"type": "uint256"
						}
					],
					"stateMutability": "view",
					"type": "function"
				},
				{
					"inputs": [],
					"name": "ShowNumArray",
					"outputs": [
						{
							"internalType": "uint256",
							"name": "",
							"type": "uint256"
						}
					],
					"stateMutability": "view",
					"type": "function"
				},
				{
					"inputs": [],
					"name": "ShowNumMap",
					"outputs": [
						{
							"internalType": "uint256",
							"name": "",
							"type": "uint256"
						}
					],
					"stateMutability": "view",
					"type": "function"
				},
				{
					"inputs": [],
					"name": "num",
					"outputs": [
						{
							"internalType": "uint256",
							"name": "",
							"type": "uint256"
						}
					],
					"stateMutability": "view",
					"type": "function"
				},
				{
					"inputs": [
						{
							"internalType": "uint256",
							"name": "",
							"type": "uint256"
						}
					],
					"name": "numArray",
					"outputs": [
						{
							"internalType": "uint256",
							"name": "",
							"type": "uint256"
						}
					],
					"stateMutability": "view",
					"type": "function"
				},
				{
					"inputs": [
						{
							"internalType": "uint256",
							"name": "",
							"type": "uint256"
						}
					],
					"name": "numMap",
					"outputs": [
						{
							"internalType": "uint256",
							"name": "",
							"type": "uint256"
						}
					],
					"stateMutability": "view",
					"type": "function"
				}
			],
			"devdoc": {
				"kind": "dev",
				"methods": {},
				"version": 1
			},
			"evm": {
				"assembly": "    /* \"lecture/lec19.sol\":110:727  contract lec19{\r... */\n  mstore(0x40, 0x80)\n    /* \"lecture/lec19.sol\":152:154  80 */\n  0x50\n    /* \"lecture/lec19.sol\":131:154  uint256 public num = 80 */\n  0x00\n  sstore\n    /* \"lecture/lec19.sol\":110:727  contract lec19{\r... */\n  callvalue\n  dup1\n  iszero\n  tag_1\n  jumpi\n  0x00\n  dup1\n  revert\ntag_1:\n  pop\n  dataSize(sub_0)\n  dup1\n  dataOffset(sub_0)\n  0x00\n  codecopy\n  0x00\n  return\nstop\n\nsub_0: assembly {\n        /* \"lecture/lec19.sol\":110:727  contract lec19{\r... */\n      mstore(0x40, 0x80)\n      callvalue\n      dup1\n      iszero\n      tag_1\n      jumpi\n      0x00\n      dup1\n      revert\n    tag_1:\n      pop\n      jumpi(tag_2, lt(calldatasize, 0x04))\n      shr(0xe0, calldataload(0x00))\n      dup1\n      0x6e734738\n      gt\n      tag_12\n      jumpi\n      dup1\n      0x6e734738\n      eq\n      tag_7\n      jumpi\n      dup1\n      0x7b7075b2\n      eq\n      tag_8\n      jumpi\n      dup1\n      0xc8f1def6\n      eq\n      tag_9\n      jumpi\n      dup1\n      0xda0c2599\n      eq\n      tag_10\n      jumpi\n      dup1\n      0xe41fd6ff\n      eq\n      tag_11\n      jumpi\n      jump(tag_2)\n    tag_12:\n      dup1\n      0x1490a23f\n      eq\n      tag_3\n      jumpi\n      dup1\n      0x3982075d\n      eq\n      tag_4\n      jumpi\n      dup1\n      0x4e70b1dc\n      eq\n      tag_5\n      jumpi\n      dup1\n      0x677c2f05\n      eq\n      tag_6\n      jumpi\n    tag_2:\n      0x00\n      dup1\n      revert\n        /* \"lecture/lec19.sol\":161:200  mapping(uint256=>uint256) public numMap */\n    tag_3:\n      tag_13\n      0x04\n      dup1\n      calldatasize\n      sub\n      dup2\n      add\n      swap1\n      tag_14\n      swap2\n      swap1\n      tag_15\n      jump\t// in\n    tag_14:\n      tag_16\n      jump\t// in\n    tag_13:\n      mload(0x40)\n      tag_17\n      swap2\n      swap1\n      tag_18\n      jump\t// in\n    tag_17:\n      mload(0x40)\n      dup1\n      swap2\n      sub\n      swap1\n      return\n        /* \"lecture/lec19.sol\":494:583  function ShowNumArray() public view returns(uint256){\r... */\n    tag_4:\n      tag_19\n      tag_20\n      jump\t// in\n    tag_19:\n      mload(0x40)\n      tag_21\n      swap2\n      swap1\n      tag_18\n      jump\t// in\n    tag_21:\n      mload(0x40)\n      dup1\n      swap2\n      sub\n      swap1\n      return\n        /* \"lecture/lec19.sol\":131:154  uint256 public num = 80 */\n    tag_5:\n      tag_22\n      tag_23\n      jump\t// in\n    tag_22:\n      mload(0x40)\n      tag_24\n      swap2\n      swap1\n      tag_18\n      jump\t// in\n    tag_24:\n      mload(0x40)\n      dup1\n      swap2\n      sub\n      swap1\n      return\n        /* \"lecture/lec19.sol\":317:393  function ShowNum() public view returns(uint256){\r... */\n    tag_6:\n      tag_25\n      tag_26\n      jump\t// in\n    tag_25:\n      mload(0x40)\n      tag_27\n      swap2\n      swap1\n      tag_18\n      jump\t// in\n    tag_27:\n      mload(0x40)\n      dup1\n      swap2\n      sub\n      swap1\n      return\n        /* \"lecture/lec19.sol\":207:232  uint256[] public numArray */\n    tag_7:\n      tag_28\n      0x04\n      dup1\n      calldatasize\n      sub\n      dup2\n      add\n      swap1\n      tag_29\n      swap2\n      swap1\n      tag_15\n      jump\t// in\n    tag_29:\n      tag_30\n      jump\t// in\n    tag_28:\n      mload(0x40)\n      tag_31\n      swap2\n      swap1\n      tag_18\n      jump\t// in\n    tag_31:\n      mload(0x40)\n      dup1\n      swap2\n      sub\n      swap1\n      return\n        /* \"lecture/lec19.sol\":401:486  function ShowNumMap() public view returns(uint256){\r... */\n    tag_8:\n      tag_32\n      tag_33\n      jump\t// in\n    tag_32:\n      mload(0x40)\n      tag_34\n      swap2\n      swap1\n      tag_18\n      jump\t// in\n    tag_34:\n      mload(0x40)\n      dup1\n      swap2\n      sub\n      swap1\n      return\n        /* \"lecture/lec19.sol\":241:309  function ChangeNum(uint256 _num) public{\r... */\n    tag_9:\n      tag_35\n      0x04\n      dup1\n      calldatasize\n      sub\n      dup2\n      add\n      swap1\n      tag_36\n      swap2\n      swap1\n      tag_15\n      jump\t// in\n    tag_36:\n      tag_37\n      jump\t// in\n    tag_35:\n      stop\n        /* \"lecture/lec19.sol\":591:650  function NumMapAdd() public{\r... */\n    tag_10:\n      tag_38\n      tag_39\n      jump\t// in\n    tag_38:\n      stop\n        /* \"lecture/lec19.sol\":658:724  function NumArrayAdd() public{\r... */\n    tag_11:\n      tag_40\n      tag_41\n      jump\t// in\n    tag_40:\n      stop\n        /* \"lecture/lec19.sol\":161:200  mapping(uint256=>uint256) public numMap */\n    tag_16:\n      mstore(0x20, 0x01)\n      dup1\n      0x00\n      mstore\n      keccak256(0x00, 0x40)\n      0x00\n      swap2\n      pop\n      swap1\n      pop\n      sload\n      dup2\n      jump\t// out\n        /* \"lecture/lec19.sol\":494:583  function ShowNumArray() public view returns(uint256){\r... */\n    tag_20:\n        /* \"lecture/lec19.sol\":538:545  uint256 */\n      0x00\n        /* \"lecture/lec19.sol\":564:572  numArray */\n      0x02\n        /* \"lecture/lec19.sol\":573:574  1 */\n      0x01\n        /* \"lecture/lec19.sol\":564:575  numArray[1] */\n      dup2\n      sload\n      dup2\n      lt\n      tag_43\n      jumpi\n      tag_44\n      tag_45\n      jump\t// in\n    tag_44:\n    tag_43:\n      swap1\n      0x00\n      mstore\n      keccak256(0x00, 0x20)\n      add\n      sload\n        /* \"lecture/lec19.sol\":557:575  return numArray[1] */\n      swap1\n      pop\n        /* \"lecture/lec19.sol\":494:583  function ShowNumArray() public view returns(uint256){\r... */\n      swap1\n      jump\t// out\n        /* \"lecture/lec19.sol\":131:154  uint256 public num = 80 */\n    tag_23:\n      sload(0x00)\n      dup2\n      jump\t// out\n        /* \"lecture/lec19.sol\":317:393  function ShowNum() public view returns(uint256){\r... */\n    tag_26:\n        /* \"lecture/lec19.sol\":356:363  uint256 */\n      0x00\n        /* \"lecture/lec19.sol\":382:385  num */\n      dup1\n      sload\n        /* \"lecture/lec19.sol\":375:385  return num */\n      swap1\n      pop\n        /* \"lecture/lec19.sol\":317:393  function ShowNum() public view returns(uint256){\r... */\n      swap1\n      jump\t// out\n        /* \"lecture/lec19.sol\":207:232  uint256[] public numArray */\n    tag_30:\n      0x02\n      dup2\n      dup2\n      sload\n      dup2\n      lt\n      tag_48\n      jumpi\n      0x00\n      dup1\n      revert\n    tag_48:\n      swap1\n      0x00\n      mstore\n      keccak256(0x00, 0x20)\n      add\n      0x00\n      swap2\n      pop\n      swap1\n      pop\n      sload\n      dup2\n      jump\t// out\n        /* \"lecture/lec19.sol\":401:486  function ShowNumMap() public view returns(uint256){\r... */\n    tag_33:\n        /* \"lecture/lec19.sol\":443:450  uint256 */\n      0x00\n        /* \"lecture/lec19.sol\":469:475  numMap */\n      0x01\n        /* \"lecture/lec19.sol\":469:478  numMap[0] */\n      0x00\n        /* \"lecture/lec19.sol\":476:477  0 */\n      dup1\n        /* \"lecture/lec19.sol\":469:478  numMap[0] */\n      dup2\n      mstore\n      0x20\n      add\n      swap1\n      dup2\n      mstore\n      0x20\n      add\n      0x00\n      keccak256\n      sload\n        /* \"lecture/lec19.sol\":462:478  return numMap[0] */\n      swap1\n      pop\n        /* \"lecture/lec19.sol\":401:486  function ShowNumMap() public view returns(uint256){\r... */\n      swap1\n      jump\t// out\n        /* \"lecture/lec19.sol\":241:309  function ChangeNum(uint256 _num) public{\r... */\n    tag_37:\n        /* \"lecture/lec19.sol\":297:301  _num */\n      dup1\n        /* \"lecture/lec19.sol\":291:294  num */\n      0x00\n        /* \"lecture/lec19.sol\":291:301  num = _num */\n      dup2\n      swap1\n      sstore\n      pop\n        /* \"lecture/lec19.sol\":241:309  function ChangeNum(uint256 _num) public{\r... */\n      pop\n      jump\t// out\n        /* \"lecture/lec19.sol\":591:650  function NumMapAdd() public{\r... */\n    tag_39:\n        /* \"lecture/lec19.sol\":639:642  num */\n      sload(0x00)\n        /* \"lecture/lec19.sol\":629:635  numMap */\n      0x01\n        /* \"lecture/lec19.sol\":629:638  numMap[0] */\n      0x00\n        /* \"lecture/lec19.sol\":636:637  0 */\n      dup1\n        /* \"lecture/lec19.sol\":629:638  numMap[0] */\n      dup2\n      mstore\n      0x20\n      add\n      swap1\n      dup2\n      mstore\n      0x20\n      add\n      0x00\n      keccak256\n        /* \"lecture/lec19.sol\":629:642  numMap[0]=num */\n      dup2\n      swap1\n      sstore\n      pop\n        /* \"lecture/lec19.sol\":591:650  function NumMapAdd() public{\r... */\n      jump\t// out\n        /* \"lecture/lec19.sol\":658:724  function NumArrayAdd() public{\r... */\n    tag_41:\n        /* \"lecture/lec19.sol\":698:706  numArray */\n      0x02\n        /* \"lecture/lec19.sol\":712:715  num */\n      sload(0x00)\n        /* \"lecture/lec19.sol\":698:716  numArray.push(num) */\n      swap1\n      dup1\n      0x01\n      dup2\n      sload\n      add\n      dup1\n      dup3\n      sstore\n      dup1\n      swap2\n      pop\n      pop\n      0x01\n      swap1\n      sub\n      swap1\n      0x00\n      mstore\n      keccak256(0x00, 0x20)\n      add\n      0x00\n      swap1\n      swap2\n      swap1\n      swap2\n      swap1\n      swap2\n      pop\n      sstore\n        /* \"lecture/lec19.sol\":658:724  function NumArrayAdd() public{\r... */\n      jump\t// out\n        /* \"#utility.yul\":7:146   */\n    tag_56:\n        /* \"#utility.yul\":53:58   */\n      0x00\n        /* \"#utility.yul\":91:97   */\n      dup2\n        /* \"#utility.yul\":78:98   */\n      calldataload\n        /* \"#utility.yul\":69:98   */\n      swap1\n      pop\n        /* \"#utility.yul\":107:140   */\n      tag_58\n        /* \"#utility.yul\":134:139   */\n      dup2\n        /* \"#utility.yul\":107:140   */\n      tag_59\n      jump\t// in\n    tag_58:\n        /* \"#utility.yul\":7:146   */\n      swap3\n      swap2\n      pop\n      pop\n      jump\t// out\n        /* \"#utility.yul\":152:481   */\n    tag_15:\n        /* \"#utility.yul\":211:217   */\n      0x00\n        /* \"#utility.yul\":260:262   */\n      0x20\n        /* \"#utility.yul\":248:257   */\n      dup3\n        /* \"#utility.yul\":239:246   */\n      dup5\n        /* \"#utility.yul\":235:258   */\n      sub\n        /* \"#utility.yul\":231:263   */\n      slt\n        /* \"#utility.yul\":228:347   */\n      iszero\n      tag_61\n      jumpi\n        /* \"#utility.yul\":266:345   */\n      tag_62\n      tag_63\n      jump\t// in\n    tag_62:\n        /* \"#utility.yul\":228:347   */\n    tag_61:\n        /* \"#utility.yul\":386:387   */\n      0x00\n        /* \"#utility.yul\":411:464   */\n      tag_64\n        /* \"#utility.yul\":456:463   */\n      dup5\n        /* \"#utility.yul\":447:453   */\n      dup3\n        /* \"#utility.yul\":436:445   */\n      dup6\n        /* \"#utility.yul\":432:454   */\n      add\n        /* \"#utility.yul\":411:464   */\n      tag_56\n      jump\t// in\n    tag_64:\n        /* \"#utility.yul\":401:464   */\n      swap2\n      pop\n        /* \"#utility.yul\":357:474   */\n      pop\n        /* \"#utility.yul\":152:481   */\n      swap3\n      swap2\n      pop\n      pop\n      jump\t// out\n        /* \"#utility.yul\":487:605   */\n    tag_65:\n        /* \"#utility.yul\":574:598   */\n      tag_67\n        /* \"#utility.yul\":592:597   */\n      dup2\n        /* \"#utility.yul\":574:598   */\n      tag_68\n      jump\t// in\n    tag_67:\n        /* \"#utility.yul\":569:572   */\n      dup3\n        /* \"#utility.yul\":562:599   */\n      mstore\n        /* \"#utility.yul\":487:605   */\n      pop\n      pop\n      jump\t// out\n        /* \"#utility.yul\":611:833   */\n    tag_18:\n        /* \"#utility.yul\":704:708   */\n      0x00\n        /* \"#utility.yul\":742:744   */\n      0x20\n        /* \"#utility.yul\":731:740   */\n      dup3\n        /* \"#utility.yul\":727:745   */\n      add\n        /* \"#utility.yul\":719:745   */\n      swap1\n      pop\n        /* \"#utility.yul\":755:826   */\n      tag_70\n        /* \"#utility.yul\":823:824   */\n      0x00\n        /* \"#utility.yul\":812:821   */\n      dup4\n        /* \"#utility.yul\":808:825   */\n      add\n        /* \"#utility.yul\":799:805   */\n      dup5\n        /* \"#utility.yul\":755:826   */\n      tag_65\n      jump\t// in\n    tag_70:\n        /* \"#utility.yul\":611:833   */\n      swap3\n      swap2\n      pop\n      pop\n      jump\t// out\n        /* \"#utility.yul\":920:997   */\n    tag_68:\n        /* \"#utility.yul\":957:964   */\n      0x00\n        /* \"#utility.yul\":986:991   */\n      dup2\n        /* \"#utility.yul\":975:991   */\n      swap1\n      pop\n        /* \"#utility.yul\":920:997   */\n      swap2\n      swap1\n      pop\n      jump\t// out\n        /* \"#utility.yul\":1003:1183   */\n    tag_45:\n        /* \"#utility.yul\":1051:1128   */\n      0x4e487b7100000000000000000000000000000000000000000000000000000000\n        /* \"#utility.yul\":1048:1049   */\n      0x00\n        /* \"#utility.yul\":1041:1129   */\n      mstore\n        /* \"#utility.yul\":1148:1152   */\n      0x32\n        /* \"#utility.yul\":1145:1146   */\n      0x04\n        /* \"#utility.yul\":1138:1153   */\n      mstore\n        /* \"#utility.yul\":1172:1176   */\n      0x24\n        /* \"#utility.yul\":1169:1170   */\n      0x00\n        /* \"#utility.yul\":1162:1177   */\n      revert\n        /* \"#utility.yul\":1312:1429   */\n    tag_63:\n        /* \"#utility.yul\":1421:1422   */\n      0x00\n        /* \"#utility.yul\":1418:1419   */\n      dup1\n        /* \"#utility.yul\":1411:1423   */\n      revert\n        /* \"#utility.yul\":1435:1557   */\n    tag_59:\n        /* \"#utility.yul\":1508:1532   */\n      tag_79\n        /* \"#utility.yul\":1526:1531   */\n      dup2\n        /* \"#utility.yul\":1508:1532   */\n      tag_68\n      jump\t// in\n    tag_79:\n        /* \"#utility.yul\":1501:1506   */\n      dup2\n        /* \"#utility.yul\":1498:1533   */\n      eq\n        /* \"#utility.yul\":1488:1551   */\n      tag_80\n      jumpi\n        /* \"#utility.yul\":1547:1548   */\n      0x00\n        /* \"#utility.yul\":1544:1545   */\n      dup1\n        /* \"#utility.yul\":1537:1549   */\n      revert\n        /* \"#utility.yul\":1488:1551   */\n    tag_80:\n        /* \"#utility.yul\":1435:1557   */\n      pop\n      jump\t// out\n\n    auxdata: 0xa2646970667358221220a562ffda7086ab19e86a6ff573286c573a95e9ebce5099cbd6db712dcfc934a264736f6c63430008070033\n}\n",
				"bytecode": {
					"linkReferences": {},
					"object": "6080604052605060005534801561001557600080fd5b50610377806100256000396000f3fe608060405234801561001057600080fd5b50600436106100935760003560e01c80636e734738116100665780636e734738146101225780637b7075b214610152578063c8f1def614610170578063da0c25991461018c578063e41fd6ff1461019657610093565b80631490a23f146100985780633982075d146100c85780634e70b1dc146100e6578063677c2f0514610104575b600080fd5b6100b260048036038101906100ad9190610295565b6101a0565b6040516100bf91906102d1565b60405180910390f35b6100d06101b8565b6040516100dd91906102d1565b60405180910390f35b6100ee6101df565b6040516100fb91906102d1565b60405180910390f35b61010c6101e5565b60405161011991906102d1565b60405180910390f35b61013c60048036038101906101379190610295565b6101ee565b60405161014991906102d1565b60405180910390f35b61015a610212565b60405161016791906102d1565b60405180910390f35b61018a60048036038101906101859190610295565b61022d565b005b610194610237565b005b61019e610253565b005b60016020528060005260406000206000915090505481565b600060026001815481106101cf576101ce6102f6565b5b9060005260206000200154905090565b60005481565b60008054905090565b600281815481106101fe57600080fd5b906000526020600020016000915090505481565b60006001600080815260200190815260200160002054905090565b8060008190555050565b6000546001600080815260200190815260200160002081905550565b60026000549080600181540180825580915050600190039060005260206000200160009091909190915055565b60008135905061028f8161032a565b92915050565b6000602082840312156102ab576102aa610325565b5b60006102b984828501610280565b91505092915050565b6102cb816102ec565b82525050565b60006020820190506102e660008301846102c2565b92915050565b6000819050919050565b7f4e487b7100000000000000000000000000000000000000000000000000000000600052603260045260246000fd5b600080fd5b610333816102ec565b811461033e57600080fd5b5056fea2646970667358221220a562ffda7086ab19e86a6ff573286c573a95e9ebce5099cbd6db712dcfc934a264736f6c63430008070033",
					"opcodes": "PUSH1 0x80 PUSH1 0x40 MSTORE PUSH1 0x50 PUSH1 0x0 SSTORE CALLVALUE DUP1 ISZERO PUSH2 0x15 JUMPI PUSH1 0x0 DUP1 REVERT JUMPDEST POP PUSH2 0x377 DUP1 PUSH2 0x25 PUSH1 0x0 CODECOPY PUSH1 0x0 RETURN INVALID PUSH1 0x80 PUSH1 0x40 MSTORE CALLVALUE DUP1 ISZERO PUSH2 0x10 JUMPI PUSH1 0x0 DUP1 REVERT JUMPDEST POP PUSH1 0x4 CALLDATASIZE LT PUSH2 0x93 JUMPI PUSH1 0x0 CALLDATALOAD PUSH1 0xE0 SHR DUP1 PUSH4 0x6E734738 GT PUSH2 0x66 JUMPI DUP1 PUSH4 0x6E734738 EQ PUSH2 0x122 JUMPI DUP1 PUSH4 0x7B7075B2 EQ PUSH2 0x152 JUMPI DUP1 PUSH4 0xC8F1DEF6 EQ PUSH2 0x170 JUMPI DUP1 PUSH4 0xDA0C2599 EQ PUSH2 0x18C JUMPI DUP1 PUSH4 0xE41FD6FF EQ PUSH2 0x196 JUMPI PUSH2 0x93 JUMP JUMPDEST DUP1 PUSH4 0x1490A23F EQ PUSH2 0x98 JUMPI DUP1 PUSH4 0x3982075D EQ PUSH2 0xC8 JUMPI DUP1 PUSH4 0x4E70B1DC EQ PUSH2 0xE6 JUMPI DUP1 PUSH4 0x677C2F05 EQ PUSH2 0x104 JUMPI JUMPDEST PUSH1 0x0 DUP1 REVERT JUMPDEST PUSH2 0xB2 PUSH1 0x4 DUP1 CALLDATASIZE SUB DUP2 ADD SWAP1 PUSH2 0xAD SWAP2 SWAP1 PUSH2 0x295 JUMP JUMPDEST PUSH2 0x1A0 JUMP JUMPDEST PUSH1 0x40 MLOAD PUSH2 0xBF SWAP2 SWAP1 PUSH2 0x2D1 JUMP JUMPDEST PUSH1 0x40 MLOAD DUP1 SWAP2 SUB SWAP1 RETURN JUMPDEST PUSH2 0xD0 PUSH2 0x1B8 JUMP JUMPDEST PUSH1 0x40 MLOAD PUSH2 0xDD SWAP2 SWAP1 PUSH2 0x2D1 JUMP JUMPDEST PUSH1 0x40 MLOAD DUP1 SWAP2 SUB SWAP1 RETURN JUMPDEST PUSH2 0xEE PUSH2 0x1DF JUMP JUMPDEST PUSH1 0x40 MLOAD PUSH2 0xFB SWAP2 SWAP1 PUSH2 0x2D1 JUMP JUMPDEST PUSH1 0x40 MLOAD DUP1 SWAP2 SUB SWAP1 RETURN JUMPDEST PUSH2 0x10C PUSH2 0x1E5 JUMP JUMPDEST PUSH1 0x40 MLOAD PUSH2 0x119 SWAP2 SWAP1 PUSH2 0x2D1 JUMP JUMPDEST PUSH1 0x40 MLOAD DUP1 SWAP2 SUB SWAP1 RETURN JUMPDEST PUSH2 0x13C PUSH1 0x4 DUP1 CALLDATASIZE SUB DUP2 ADD SWAP1 PUSH2 0x137 SWAP2 SWAP1 PUSH2 0x295 JUMP JUMPDEST PUSH2 0x1EE JUMP JUMPDEST PUSH1 0x40 MLOAD PUSH2 0x149 SWAP2 SWAP1 PUSH2 0x2D1 JUMP JUMPDEST PUSH1 0x40 MLOAD DUP1 SWAP2 SUB SWAP1 RETURN JUMPDEST PUSH2 0x15A PUSH2 0x212 JUMP JUMPDEST PUSH1 0x40 MLOAD PUSH2 0x167 SWAP2 SWAP1 PUSH2 0x2D1 JUMP JUMPDEST PUSH1 0x40 MLOAD DUP1 SWAP2 SUB SWAP1 RETURN JUMPDEST PUSH2 0x18A PUSH1 0x4 DUP1 CALLDATASIZE SUB DUP2 ADD SWAP1 PUSH2 0x185 SWAP2 SWAP1 PUSH2 0x295 JUMP JUMPDEST PUSH2 0x22D JUMP JUMPDEST STOP JUMPDEST PUSH2 0x194 PUSH2 0x237 JUMP JUMPDEST STOP JUMPDEST PUSH2 0x19E PUSH2 0x253 JUMP JUMPDEST STOP JUMPDEST PUSH1 0x1 PUSH1 0x20 MSTORE DUP1 PUSH1 0x0 MSTORE PUSH1 0x40 PUSH1 0x0 KECCAK256 PUSH1 0x0 SWAP2 POP SWAP1 POP SLOAD DUP2 JUMP JUMPDEST PUSH1 0x0 PUSH1 0x2 PUSH1 0x1 DUP2 SLOAD DUP2 LT PUSH2 0x1CF JUMPI PUSH2 0x1CE PUSH2 0x2F6 JUMP JUMPDEST JUMPDEST SWAP1 PUSH1 0x0 MSTORE PUSH1 0x20 PUSH1 0x0 KECCAK256 ADD SLOAD SWAP1 POP SWAP1 JUMP JUMPDEST PUSH1 0x0 SLOAD DUP2 JUMP JUMPDEST PUSH1 0x0 DUP1 SLOAD SWAP1 POP SWAP1 JUMP JUMPDEST PUSH1 0x2 DUP2 DUP2 SLOAD DUP2 LT PUSH2 0x1FE JUMPI PUSH1 0x0 DUP1 REVERT JUMPDEST SWAP1 PUSH1 0x0 MSTORE PUSH1 0x20 PUSH1 0x0 KECCAK256 ADD PUSH1 0x0 SWAP2 POP SWAP1 POP SLOAD DUP2 JUMP JUMPDEST PUSH1 0x0 PUSH1 0x1 PUSH1 0x0 DUP1 DUP2 MSTORE PUSH1 0x20 ADD SWAP1 DUP2 MSTORE PUSH1 0x20 ADD PUSH1 0x0 KECCAK256 SLOAD SWAP1 POP SWAP1 JUMP JUMPDEST DUP1 PUSH1 0x0 DUP2 SWAP1 SSTORE POP POP JUMP JUMPDEST PUSH1 0x0 SLOAD PUSH1 0x1 PUSH1 0x0 DUP1 DUP2 MSTORE PUSH1 0x20 ADD SWAP1 DUP2 MSTORE PUSH1 0x20 ADD PUSH1 0x0 KECCAK256 DUP2 SWAP1 SSTORE POP JUMP JUMPDEST PUSH1 0x2 PUSH1 0x0 SLOAD SWAP1 DUP1 PUSH1 0x1 DUP2 SLOAD ADD DUP1 DUP3 SSTORE DUP1 SWAP2 POP POP PUSH1 0x1 SWAP1 SUB SWAP1 PUSH1 0x0 MSTORE PUSH1 0x20 PUSH1 0x0 KECCAK256 ADD PUSH1 0x0 SWAP1 SWAP2 SWAP1 SWAP2 SWAP1 SWAP2 POP SSTORE JUMP JUMPDEST PUSH1 0x0 DUP2 CALLDATALOAD SWAP1 POP PUSH2 0x28F DUP2 PUSH2 0x32A JUMP JUMPDEST SWAP3 SWAP2 POP POP JUMP JUMPDEST PUSH1 0x0 PUSH1 0x20 DUP3 DUP5 SUB SLT ISZERO PUSH2 0x2AB JUMPI PUSH2 0x2AA PUSH2 0x325 JUMP JUMPDEST JUMPDEST PUSH1 0x0 PUSH2 0x2B9 DUP5 DUP3 DUP6 ADD PUSH2 0x280 JUMP JUMPDEST SWAP2 POP POP SWAP3 SWAP2 POP POP JUMP JUMPDEST PUSH2 0x2CB DUP2 PUSH2 0x2EC JUMP JUMPDEST DUP3 MSTORE POP POP JUMP JUMPDEST PUSH1 0x0 PUSH1 0x20 DUP3 ADD SWAP1 POP PUSH2 0x2E6 PUSH1 0x0 DUP4 ADD DUP5 PUSH2 0x2C2 JUMP JUMPDEST SWAP3 SWAP2 POP POP JUMP JUMPDEST PUSH1 0x0 DUP2 SWAP1 POP SWAP2 SWAP1 POP JUMP JUMPDEST PUSH32 0x4E487B7100000000000000000000000000000000000000000000000000000000 PUSH1 0x0 MSTORE PUSH1 0x32 PUSH1 0x4 MSTORE PUSH1 0x24 PUSH1 0x0 REVERT JUMPDEST PUSH1 0x0 DUP1 REVERT JUMPDEST PUSH2 0x333 DUP2 PUSH2 0x2EC JUMP JUMPDEST DUP2 EQ PUSH2 0x33E JUMPI PUSH1 0x0 DUP1 REVERT JUMPDEST POP JUMP INVALID LOG2 PUSH5 0x6970667358 0x22 SLT KECCAK256 0xA5 PUSH3 0xFFDA70 DUP7 0xAB NOT 0xE8 PUSH11 0x6FF573286C573A95E9EBCE POP SWAP10 0xCB 0xD6 0xDB PUSH18 0x2DCFC934A264736F6C634300080700330000 "
				},
				"gasEstimates": {
					"creation": {
						"codeDepositCost": "177400",
						"executionCost": "22326",
						"totalCost": "199726"
					},
					"external": {
						"ChangeNum(uint256)": "22564",
						"NumArrayAdd()": "48755",
						"NumMapAdd()": "24502",
						"ShowNum()": "2504",
						"ShowNumArray()": "4640",
						"ShowNumMap()": "2537",
						"num()": "2474",
						"numArray(uint256)": "infinite",
						"numMap(uint256)": "infinite"
					}
				},
				"methodIdentifiers": {
					"ChangeNum(uint256)": "c8f1def6",
					"NumArrayAdd()": "e41fd6ff",
					"NumMapAdd()": "da0c2599",
					"ShowNum()": "677c2f05",
					"ShowNumArray()": "3982075d",
					"ShowNumMap()": "7b7075b2",
					"num()": "4e70b1dc",
					"numArray(uint256)": "6e734738",
					"numMap(uint256)": "1490a23f"
				}
			},
			"userdoc": {
				"kind": "user",
				"methods": {},
				"version": 1
			}
		}
	}
}