{
	"lecture/lec22.sol": {
		"lec22": {
			"abi": [
				{
					"anonymous": false,
					"inputs": [
						{
							"indexed": false,
							"internalType": "uint256",
							"name": "_index",
							"type": "uint256"
						},
						{
							"indexed": false,
							"internalType": "string",
							"name": "_name",
							"type": "string"
						}
					],
					"name": "CountryIndexName",
					"type": "event"
				},
				{
					"inputs": [],
					"name": "forLoopEvents",
					"outputs": [],
					"stateMutability": "nonpayable",
					"type": "function"
				},
				{
					"inputs": [],
					"name": "whileLoopEvents",
					"outputs": [],
					"stateMutability": "nonpayable",
					"type": "function"
				}
			],
			"devdoc": {
				"kind": "dev",
				"methods": {},
				"version": 1
			},
			"evm": {
				"assembly": "    /* \"lecture/lec22.sol\":98:634  contract lec22{\r... */\n  mstore(0x40, 0x80)\n    /* \"lecture/lec22.sol\":180:266  string[] private countryList = [\"South Korea\", \"North Korea\", \"USA\", \"China\", \"Japan\"] */\n  mload(0x40)\n  dup1\n  0xa0\n  add\n  0x40\n  mstore\n  dup1\n  mload(0x40)\n  dup1\n  0x40\n  add\n  0x40\n  mstore\n  dup1\n  0x0b\n  dup2\n  mstore\n  0x20\n  add\n  0x536f757468204b6f726561000000000000000000000000000000000000000000\n  dup2\n  mstore\n  pop\n  dup2\n  mstore\n  0x20\n  add\n  mload(0x40)\n  dup1\n  0x40\n  add\n  0x40\n  mstore\n  dup1\n  0x0b\n  dup2\n  mstore\n  0x20\n  add\n  0x4e6f727468204b6f726561000000000000000000000000000000000000000000\n  dup2\n  mstore\n  pop\n  dup2\n  mstore\n  0x20\n  add\n  mload(0x40)\n  dup1\n  0x40\n  add\n  0x40\n  mstore\n  dup1\n  0x03\n  dup2\n  mstore\n  0x20\n  add\n  0x5553410000000000000000000000000000000000000000000000000000000000\n  dup2\n  mstore\n  pop\n  dup2\n  mstore\n  0x20\n  add\n  mload(0x40)\n  dup1\n  0x40\n  add\n  0x40\n  mstore\n  dup1\n  0x05\n  dup2\n  mstore\n  0x20\n  add\n  0x4368696e61000000000000000000000000000000000000000000000000000000\n  dup2\n  mstore\n  pop\n  dup2\n  mstore\n  0x20\n  add\n  mload(0x40)\n  dup1\n  0x40\n  add\n  0x40\n  mstore\n  dup1\n  0x05\n  dup2\n  mstore\n  0x20\n  add\n  0x4a6170616e000000000000000000000000000000000000000000000000000000\n  dup2\n  mstore\n  pop\n  dup2\n  mstore\n  pop\n  0x00\n  swap1\n  0x05\n  tag_1\n  swap3\n  swap2\n  swap1\n  tag_2\n  jump\t// in\ntag_1:\n  pop\n    /* \"lecture/lec22.sol\":98:634  contract lec22{\r... */\n  callvalue\n  dup1\n  iszero\n  tag_3\n  jumpi\n  0x00\n  dup1\n  revert\ntag_3:\n  pop\n  jump(tag_4)\ntag_2:\n  dup3\n  dup1\n  sload\n  dup3\n  dup3\n  sstore\n  swap1\n  0x00\n  mstore\n  keccak256(0x00, 0x20)\n  swap1\n  dup2\n  add\n  swap3\n  dup3\n  iszero\n  tag_5\n  jumpi\n  swap2\n  0x20\n  mul\n  dup3\n  add\ntag_6:\n  dup3\n  dup2\n  gt\n  iszero\n  tag_7\n  jumpi\n  dup3\n  mload\n  dup3\n  swap1\n  dup1\n  mload\n  swap1\n  0x20\n  add\n  swap1\n  tag_8\n  swap3\n  swap2\n  swap1\n  tag_9\n  jump\t// in\ntag_8:\n  pop\n  swap2\n  0x20\n  add\n  swap2\n  swap1\n  0x01\n  add\n  swap1\n  jump(tag_6)\ntag_7:\ntag_5:\n  pop\n  swap1\n  pop\n  tag_10\n  swap2\n  swap1\n  tag_11\n  jump\t// in\ntag_10:\n  pop\n  swap1\n  jump\t// out\ntag_9:\n  dup3\n  dup1\n  sload\n  tag_12\n  swap1\n  tag_13\n  jump\t// in\ntag_12:\n  swap1\n  0x00\n  mstore\n  keccak256(0x00, 0x20)\n  swap1\n  0x1f\n  add\n  0x20\n  swap1\n  div\n  dup2\n  add\n  swap3\n  dup3\n  tag_15\n  jumpi\n  0x00\n  dup6\n  sstore\n  jump(tag_14)\ntag_15:\n  dup3\n  0x1f\n  lt\n  tag_16\n  jumpi\n  dup1\n  mload\n  not(0xff)\n  and\n  dup4\n  dup1\n  add\n  or\n  dup6\n  sstore\n  jump(tag_14)\ntag_16:\n  dup3\n  dup1\n  add\n  0x01\n  add\n  dup6\n  sstore\n  dup3\n  iszero\n  tag_14\n  jumpi\n  swap2\n  dup3\n  add\ntag_17:\n  dup3\n  dup2\n  gt\n  iszero\n  tag_18\n  jumpi\n  dup3\n  mload\n  dup3\n  sstore\n  swap2\n  0x20\n  add\n  swap2\n  swap1\n  0x01\n  add\n  swap1\n  jump(tag_17)\ntag_18:\ntag_14:\n  pop\n  swap1\n  pop\n  tag_19\n  swap2\n  swap1\n  tag_20\n  jump\t// in\ntag_19:\n  pop\n  swap1\n  jump\t// out\ntag_11:\ntag_21:\n  dup1\n  dup3\n  gt\n  iszero\n  tag_22\n  jumpi\n  0x00\n  dup2\n  dup2\n  tag_23\n  swap2\n  swap1\n  tag_24\n  jump\t// in\ntag_23:\n  pop\n  0x01\n  add\n  jump(tag_21)\ntag_22:\n  pop\n  swap1\n  jump\t// out\ntag_20:\ntag_25:\n  dup1\n  dup3\n  gt\n  iszero\n  tag_26\n  jumpi\n  0x00\n  dup2\n  0x00\n  swap1\n  sstore\n  pop\n  0x01\n  add\n  jump(tag_25)\ntag_26:\n  pop\n  swap1\n  jump\t// out\ntag_24:\n  pop\n  dup1\n  sload\n  tag_27\n  swap1\n  tag_13\n  jump\t// in\ntag_27:\n  0x00\n  dup3\n  sstore\n  dup1\n  0x1f\n  lt\n  tag_29\n  jumpi\n  pop\n  jump(tag_28)\ntag_29:\n  0x1f\n  add\n  0x20\n  swap1\n  div\n  swap1\n  0x00\n  mstore\n  keccak256(0x00, 0x20)\n  swap1\n  dup2\n  add\n  swap1\n  tag_30\n  swap2\n  swap1\n  tag_20\n  jump\t// in\ntag_30:\ntag_28:\n  pop\n  jump\t// out\n    /* \"#utility.yul\":7:327   */\ntag_13:\n    /* \"#utility.yul\":51:57   */\n  0x00\n    /* \"#utility.yul\":88:89   */\n  0x02\n    /* \"#utility.yul\":82:86   */\n  dup3\n    /* \"#utility.yul\":78:90   */\n  div\n    /* \"#utility.yul\":68:90   */\n  swap1\n  pop\n    /* \"#utility.yul\":135:136   */\n  0x01\n    /* \"#utility.yul\":129:133   */\n  dup3\n    /* \"#utility.yul\":125:137   */\n  and\n    /* \"#utility.yul\":156:174   */\n  dup1\n    /* \"#utility.yul\":146:227   */\n  tag_33\n  jumpi\n    /* \"#utility.yul\":212:216   */\n  0x7f\n    /* \"#utility.yul\":204:210   */\n  dup3\n    /* \"#utility.yul\":200:217   */\n  and\n    /* \"#utility.yul\":190:217   */\n  swap2\n  pop\n    /* \"#utility.yul\":146:227   */\ntag_33:\n    /* \"#utility.yul\":274:276   */\n  0x20\n    /* \"#utility.yul\":266:272   */\n  dup3\n    /* \"#utility.yul\":263:277   */\n  lt\n    /* \"#utility.yul\":243:261   */\n  dup2\n    /* \"#utility.yul\":240:278   */\n  eq\n    /* \"#utility.yul\":237:321   */\n  iszero\n  tag_34\n  jumpi\n    /* \"#utility.yul\":293:311   */\n  tag_35\n  tag_36\n  jump\t// in\ntag_35:\n    /* \"#utility.yul\":237:321   */\ntag_34:\n    /* \"#utility.yul\":58:327   */\n  pop\n    /* \"#utility.yul\":7:327   */\n  swap2\n  swap1\n  pop\n  jump\t// out\n    /* \"#utility.yul\":333:513   */\ntag_36:\n    /* \"#utility.yul\":381:458   */\n  0x4e487b7100000000000000000000000000000000000000000000000000000000\n    /* \"#utility.yul\":378:379   */\n  0x00\n    /* \"#utility.yul\":371:459   */\n  mstore\n    /* \"#utility.yul\":478:482   */\n  0x22\n    /* \"#utility.yul\":475:476   */\n  0x04\n    /* \"#utility.yul\":468:483   */\n  mstore\n    /* \"#utility.yul\":502:506   */\n  0x24\n    /* \"#utility.yul\":499:500   */\n  0x00\n    /* \"#utility.yul\":492:507   */\n  revert\n    /* \"lecture/lec22.sol\":98:634  contract lec22{\r... */\ntag_4:\n  dataSize(sub_0)\n  dup1\n  dataOffset(sub_0)\n  0x00\n  codecopy\n  0x00\n  return\nstop\n\nsub_0: assembly {\n        /* \"lecture/lec22.sol\":98:634  contract lec22{\r... */\n      mstore(0x40, 0x80)\n      callvalue\n      dup1\n      iszero\n      tag_1\n      jumpi\n      0x00\n      dup1\n      revert\n    tag_1:\n      pop\n      jumpi(tag_2, lt(calldatasize, 0x04))\n      shr(0xe0, calldataload(0x00))\n      dup1\n      0x6cde9f8c\n      eq\n      tag_3\n      jumpi\n      dup1\n      0xddea9b0a\n      eq\n      tag_4\n      jumpi\n    tag_2:\n      0x00\n      dup1\n      revert\n        /* \"lecture/lec22.sol\":275:436  function forLoopEvents() public{\r... */\n    tag_3:\n      tag_5\n      tag_6\n      jump\t// in\n    tag_5:\n      stop\n        /* \"lecture/lec22.sol\":444:631  function whileLoopEvents() public{\r... */\n    tag_4:\n      tag_7\n      tag_8\n      jump\t// in\n    tag_7:\n      stop\n        /* \"lecture/lec22.sol\":275:436  function forLoopEvents() public{\r... */\n    tag_6:\n        /* \"lecture/lec22.sol\":321:330  uint256 i */\n      0x00\n        /* \"lecture/lec22.sol\":317:429  for(uint256 i = 0; i<countryList.length; i++){\r... */\n    tag_10:\n        /* \"lecture/lec22.sol\":338:349  countryList */\n      0x00\n        /* \"lecture/lec22.sol\":338:356  countryList.length */\n      dup1\n      sload\n      swap1\n      pop\n        /* \"lecture/lec22.sol\":336:337  i */\n      dup2\n        /* \"lecture/lec22.sol\":336:356  i<countryList.length */\n      lt\n        /* \"lecture/lec22.sol\":317:429  for(uint256 i = 0; i<countryList.length; i++){\r... */\n      iszero\n      tag_11\n      jumpi\n        /* \"lecture/lec22.sol\":382:417  CountryIndexName(i, countryList[i]) */\n      0xc3750795857a09dd89d722c915dbd49e7496a6f23cad9de450838745e45f9329\n        /* \"lecture/lec22.sol\":399:400  i */\n      dup2\n        /* \"lecture/lec22.sol\":402:413  countryList */\n      0x00\n        /* \"lecture/lec22.sol\":414:415  i */\n      dup4\n        /* \"lecture/lec22.sol\":402:416  countryList[i] */\n      dup2\n      sload\n      dup2\n      lt\n      tag_13\n      jumpi\n      tag_14\n      tag_15\n      jump\t// in\n    tag_14:\n    tag_13:\n      swap1\n      0x00\n      mstore\n      keccak256(0x00, 0x20)\n      add\n        /* \"lecture/lec22.sol\":382:417  CountryIndexName(i, countryList[i]) */\n      mload(0x40)\n      tag_17\n      swap3\n      swap2\n      swap1\n      tag_18\n      jump\t// in\n    tag_17:\n      mload(0x40)\n      dup1\n      swap2\n      sub\n      swap1\n      log1\n        /* \"lecture/lec22.sol\":358:361  i++ */\n      dup1\n      dup1\n      tag_19\n      swap1\n      tag_20\n      jump\t// in\n    tag_19:\n      swap2\n      pop\n      pop\n        /* \"lecture/lec22.sol\":317:429  for(uint256 i = 0; i<countryList.length; i++){\r... */\n      jump(tag_10)\n    tag_11:\n      pop\n        /* \"lecture/lec22.sol\":275:436  function forLoopEvents() public{\r... */\n      jump\t// out\n        /* \"lecture/lec22.sol\":444:631  function whileLoopEvents() public{\r... */\n    tag_8:\n        /* \"lecture/lec22.sol\":488:497  uint256 i */\n      0x00\n        /* \"lecture/lec22.sol\":512:624  while(i<countryList.length){\r... */\n    tag_22:\n        /* \"lecture/lec22.sol\":520:531  countryList */\n      0x00\n        /* \"lecture/lec22.sol\":520:538  countryList.length */\n      dup1\n      sload\n      swap1\n      pop\n        /* \"lecture/lec22.sol\":518:519  i */\n      dup2\n        /* \"lecture/lec22.sol\":518:538  i<countryList.length */\n      lt\n        /* \"lecture/lec22.sol\":512:624  while(i<countryList.length){\r... */\n      iszero\n      tag_23\n      jumpi\n        /* \"lecture/lec22.sol\":559:594  CountryIndexName(i, countryList[i]) */\n      0xc3750795857a09dd89d722c915dbd49e7496a6f23cad9de450838745e45f9329\n        /* \"lecture/lec22.sol\":576:577  i */\n      dup2\n        /* \"lecture/lec22.sol\":579:590  countryList */\n      0x00\n        /* \"lecture/lec22.sol\":591:592  i */\n      dup4\n        /* \"lecture/lec22.sol\":579:593  countryList[i] */\n      dup2\n      sload\n      dup2\n      lt\n      tag_24\n      jumpi\n      tag_25\n      tag_15\n      jump\t// in\n    tag_25:\n    tag_24:\n      swap1\n      0x00\n      mstore\n      keccak256(0x00, 0x20)\n      add\n        /* \"lecture/lec22.sol\":559:594  CountryIndexName(i, countryList[i]) */\n      mload(0x40)\n      tag_27\n      swap3\n      swap2\n      swap1\n      tag_18\n      jump\t// in\n    tag_27:\n      mload(0x40)\n      dup1\n      swap2\n      sub\n      swap1\n      log1\n        /* \"lecture/lec22.sol\":609:612  i++ */\n      dup1\n      dup1\n      tag_28\n      swap1\n      tag_20\n      jump\t// in\n    tag_28:\n      swap2\n      pop\n      pop\n        /* \"lecture/lec22.sol\":512:624  while(i<countryList.length){\r... */\n      jump(tag_22)\n    tag_23:\n        /* \"lecture/lec22.sol\":477:631  {\r... */\n      pop\n        /* \"lecture/lec22.sol\":444:631  function whileLoopEvents() public{\r... */\n      jump\t// out\n        /* \"#utility.yul\":31:833   */\n    tag_30:\n        /* \"#utility.yul\":116:119   */\n      0x00\n        /* \"#utility.yul\":153:158   */\n      dup2\n        /* \"#utility.yul\":147:159   */\n      sload\n        /* \"#utility.yul\":182:218   */\n      tag_32\n        /* \"#utility.yul\":208:217   */\n      dup2\n        /* \"#utility.yul\":182:218   */\n      tag_33\n      jump\t// in\n    tag_32:\n        /* \"#utility.yul\":234:305   */\n      tag_34\n        /* \"#utility.yul\":298:304   */\n      dup2\n        /* \"#utility.yul\":293:296   */\n      dup7\n        /* \"#utility.yul\":234:305   */\n      tag_35\n      jump\t// in\n    tag_34:\n        /* \"#utility.yul\":227:305   */\n      swap5\n      pop\n        /* \"#utility.yul\":336:337   */\n      0x01\n        /* \"#utility.yul\":325:334   */\n      dup3\n        /* \"#utility.yul\":321:338   */\n      and\n        /* \"#utility.yul\":352:353   */\n      0x00\n        /* \"#utility.yul\":347:482   */\n      dup2\n      eq\n      tag_37\n      jumpi\n        /* \"#utility.yul\":496:497   */\n      0x01\n        /* \"#utility.yul\":491:827   */\n      dup2\n      eq\n      tag_38\n      jumpi\n        /* \"#utility.yul\":314:827   */\n      jump(tag_36)\n        /* \"#utility.yul\":347:482   */\n    tag_37:\n        /* \"#utility.yul\":431:435   */\n      0xff\n        /* \"#utility.yul\":427:436   */\n      not\n        /* \"#utility.yul\":416:425   */\n      dup4\n        /* \"#utility.yul\":412:437   */\n      and\n        /* \"#utility.yul\":407:410   */\n      dup7\n        /* \"#utility.yul\":400:438   */\n      mstore\n        /* \"#utility.yul\":467:471   */\n      0x20\n        /* \"#utility.yul\":462:465   */\n      dup7\n        /* \"#utility.yul\":458:472   */\n      add\n        /* \"#utility.yul\":451:472   */\n      swap4\n      pop\n        /* \"#utility.yul\":347:482   */\n      jump(tag_36)\n        /* \"#utility.yul\":491:827   */\n    tag_38:\n        /* \"#utility.yul\":558:596   */\n      tag_39\n        /* \"#utility.yul\":590:595   */\n      dup6\n        /* \"#utility.yul\":558:596   */\n      tag_40\n      jump\t// in\n    tag_39:\n        /* \"#utility.yul\":618:619   */\n      0x00\n        /* \"#utility.yul\":632:786   */\n    tag_41:\n        /* \"#utility.yul\":646:652   */\n      dup4\n        /* \"#utility.yul\":643:644   */\n      dup2\n        /* \"#utility.yul\":640:653   */\n      lt\n        /* \"#utility.yul\":632:786   */\n      iszero\n      tag_43\n      jumpi\n        /* \"#utility.yul\":720:727   */\n      dup2\n        /* \"#utility.yul\":714:728   */\n      sload\n        /* \"#utility.yul\":710:711   */\n      dup2\n        /* \"#utility.yul\":705:708   */\n      dup10\n        /* \"#utility.yul\":701:712   */\n      add\n        /* \"#utility.yul\":694:729   */\n      mstore\n        /* \"#utility.yul\":770:771   */\n      0x01\n        /* \"#utility.yul\":761:768   */\n      dup3\n        /* \"#utility.yul\":757:772   */\n      add\n        /* \"#utility.yul\":746:772   */\n      swap2\n      pop\n        /* \"#utility.yul\":668:672   */\n      0x20\n        /* \"#utility.yul\":665:666   */\n      dup2\n        /* \"#utility.yul\":661:673   */\n      add\n        /* \"#utility.yul\":656:673   */\n      swap1\n      pop\n        /* \"#utility.yul\":632:786   */\n      jump(tag_41)\n    tag_43:\n        /* \"#utility.yul\":815:816   */\n      dup1\n        /* \"#utility.yul\":810:813   */\n      dup9\n        /* \"#utility.yul\":806:817   */\n      add\n        /* \"#utility.yul\":799:817   */\n      swap6\n      pop\n        /* \"#utility.yul\":498:827   */\n      pop\n      pop\n        /* \"#utility.yul\":314:827   */\n    tag_36:\n      pop\n        /* \"#utility.yul\":120:833   */\n      pop\n      pop\n        /* \"#utility.yul\":31:833   */\n      swap3\n      swap2\n      pop\n      pop\n      jump\t// out\n        /* \"#utility.yul\":839:957   */\n    tag_44:\n        /* \"#utility.yul\":926:950   */\n      tag_46\n        /* \"#utility.yul\":944:949   */\n      dup2\n        /* \"#utility.yul\":926:950   */\n      tag_47\n      jump\t// in\n    tag_46:\n        /* \"#utility.yul\":921:924   */\n      dup3\n        /* \"#utility.yul\":914:951   */\n      mstore\n        /* \"#utility.yul\":839:957   */\n      pop\n      pop\n      jump\t// out\n        /* \"#utility.yul\":963:1380   */\n    tag_18:\n        /* \"#utility.yul\":1101:1105   */\n      0x00\n        /* \"#utility.yul\":1139:1141   */\n      0x40\n        /* \"#utility.yul\":1128:1137   */\n      dup3\n        /* \"#utility.yul\":1124:1142   */\n      add\n        /* \"#utility.yul\":1116:1142   */\n      swap1\n      pop\n        /* \"#utility.yul\":1152:1223   */\n      tag_49\n        /* \"#utility.yul\":1220:1221   */\n      0x00\n        /* \"#utility.yul\":1209:1218   */\n      dup4\n        /* \"#utility.yul\":1205:1222   */\n      add\n        /* \"#utility.yul\":1196:1202   */\n      dup6\n        /* \"#utility.yul\":1152:1223   */\n      tag_44\n      jump\t// in\n    tag_49:\n        /* \"#utility.yul\":1270:1279   */\n      dup2\n        /* \"#utility.yul\":1264:1268   */\n      dup2\n        /* \"#utility.yul\":1260:1280   */\n      sub\n        /* \"#utility.yul\":1255:1257   */\n      0x20\n        /* \"#utility.yul\":1244:1253   */\n      dup4\n        /* \"#utility.yul\":1240:1258   */\n      add\n        /* \"#utility.yul\":1233:1281   */\n      mstore\n        /* \"#utility.yul\":1298:1373   */\n      tag_50\n        /* \"#utility.yul\":1368:1372   */\n      dup2\n        /* \"#utility.yul\":1359:1365   */\n      dup5\n        /* \"#utility.yul\":1298:1373   */\n      tag_30\n      jump\t// in\n    tag_50:\n        /* \"#utility.yul\":1290:1373   */\n      swap1\n      pop\n        /* \"#utility.yul\":963:1380   */\n      swap4\n      swap3\n      pop\n      pop\n      pop\n      jump\t// out\n        /* \"#utility.yul\":1386:1527   */\n    tag_40:\n        /* \"#utility.yul\":1435:1439   */\n      0x00\n        /* \"#utility.yul\":1458:1461   */\n      dup2\n        /* \"#utility.yul\":1450:1461   */\n      swap1\n      pop\n        /* \"#utility.yul\":1481:1484   */\n      dup2\n        /* \"#utility.yul\":1478:1479   */\n      0x00\n        /* \"#utility.yul\":1471:1485   */\n      mstore\n        /* \"#utility.yul\":1515:1519   */\n      0x20\n        /* \"#utility.yul\":1512:1513   */\n      0x00\n        /* \"#utility.yul\":1502:1520   */\n      keccak256\n        /* \"#utility.yul\":1494:1520   */\n      swap1\n      pop\n        /* \"#utility.yul\":1386:1527   */\n      swap2\n      swap1\n      pop\n      jump\t// out\n        /* \"#utility.yul\":1533:1702   */\n    tag_35:\n        /* \"#utility.yul\":1617:1628   */\n      0x00\n        /* \"#utility.yul\":1651:1657   */\n      dup3\n        /* \"#utility.yul\":1646:1649   */\n      dup3\n        /* \"#utility.yul\":1639:1658   */\n      mstore\n        /* \"#utility.yul\":1691:1695   */\n      0x20\n        /* \"#utility.yul\":1686:1689   */\n      dup3\n        /* \"#utility.yul\":1682:1696   */\n      add\n        /* \"#utility.yul\":1667:1696   */\n      swap1\n      pop\n        /* \"#utility.yul\":1533:1702   */\n      swap3\n      swap2\n      pop\n      pop\n      jump\t// out\n        /* \"#utility.yul\":1708:1785   */\n    tag_47:\n        /* \"#utility.yul\":1745:1752   */\n      0x00\n        /* \"#utility.yul\":1774:1779   */\n      dup2\n        /* \"#utility.yul\":1763:1779   */\n      swap1\n      pop\n        /* \"#utility.yul\":1708:1785   */\n      swap2\n      swap1\n      pop\n      jump\t// out\n        /* \"#utility.yul\":1791:2111   */\n    tag_33:\n        /* \"#utility.yul\":1835:1841   */\n      0x00\n        /* \"#utility.yul\":1872:1873   */\n      0x02\n        /* \"#utility.yul\":1866:1870   */\n      dup3\n        /* \"#utility.yul\":1862:1874   */\n      div\n        /* \"#utility.yul\":1852:1874   */\n      swap1\n      pop\n        /* \"#utility.yul\":1919:1920   */\n      0x01\n        /* \"#utility.yul\":1913:1917   */\n      dup3\n        /* \"#utility.yul\":1909:1921   */\n      and\n        /* \"#utility.yul\":1940:1958   */\n      dup1\n        /* \"#utility.yul\":1930:2011   */\n      tag_55\n      jumpi\n        /* \"#utility.yul\":1996:2000   */\n      0x7f\n        /* \"#utility.yul\":1988:1994   */\n      dup3\n        /* \"#utility.yul\":1984:2001   */\n      and\n        /* \"#utility.yul\":1974:2001   */\n      swap2\n      pop\n        /* \"#utility.yul\":1930:2011   */\n    tag_55:\n        /* \"#utility.yul\":2058:2060   */\n      0x20\n        /* \"#utility.yul\":2050:2056   */\n      dup3\n        /* \"#utility.yul\":2047:2061   */\n      lt\n        /* \"#utility.yul\":2027:2045   */\n      dup2\n        /* \"#utility.yul\":2024:2062   */\n      eq\n        /* \"#utility.yul\":2021:2105   */\n      iszero\n      tag_56\n      jumpi\n        /* \"#utility.yul\":2077:2095   */\n      tag_57\n      tag_58\n      jump\t// in\n    tag_57:\n        /* \"#utility.yul\":2021:2105   */\n    tag_56:\n        /* \"#utility.yul\":1842:2111   */\n      pop\n        /* \"#utility.yul\":1791:2111   */\n      swap2\n      swap1\n      pop\n      jump\t// out\n        /* \"#utility.yul\":2117:2350   */\n    tag_20:\n        /* \"#utility.yul\":2156:2159   */\n      0x00\n        /* \"#utility.yul\":2179:2203   */\n      tag_60\n        /* \"#utility.yul\":2197:2202   */\n      dup3\n        /* \"#utility.yul\":2179:2203   */\n      tag_47\n      jump\t// in\n    tag_60:\n        /* \"#utility.yul\":2170:2203   */\n      swap2\n      pop\n        /* \"#utility.yul\":2225:2291   */\n      0xffffffffffffffffffffffffffffffffffffffffffffffffffffffffffffffff\n        /* \"#utility.yul\":2218:2223   */\n      dup3\n        /* \"#utility.yul\":2215:2292   */\n      eq\n        /* \"#utility.yul\":2212:2315   */\n      iszero\n      tag_61\n      jumpi\n        /* \"#utility.yul\":2295:2313   */\n      tag_62\n      tag_63\n      jump\t// in\n    tag_62:\n        /* \"#utility.yul\":2212:2315   */\n    tag_61:\n        /* \"#utility.yul\":2342:2343   */\n      0x01\n        /* \"#utility.yul\":2335:2340   */\n      dup3\n        /* \"#utility.yul\":2331:2344   */\n      add\n        /* \"#utility.yul\":2324:2344   */\n      swap1\n      pop\n        /* \"#utility.yul\":2117:2350   */\n      swap2\n      swap1\n      pop\n      jump\t// out\n        /* \"#utility.yul\":2356:2536   */\n    tag_63:\n        /* \"#utility.yul\":2404:2481   */\n      0x4e487b7100000000000000000000000000000000000000000000000000000000\n        /* \"#utility.yul\":2401:2402   */\n      0x00\n        /* \"#utility.yul\":2394:2482   */\n      mstore\n        /* \"#utility.yul\":2501:2505   */\n      0x11\n        /* \"#utility.yul\":2498:2499   */\n      0x04\n        /* \"#utility.yul\":2491:2506   */\n      mstore\n        /* \"#utility.yul\":2525:2529   */\n      0x24\n        /* \"#utility.yul\":2522:2523   */\n      0x00\n        /* \"#utility.yul\":2515:2530   */\n      revert\n        /* \"#utility.yul\":2542:2722   */\n    tag_58:\n        /* \"#utility.yul\":2590:2667   */\n      0x4e487b7100000000000000000000000000000000000000000000000000000000\n        /* \"#utility.yul\":2587:2588   */\n      0x00\n        /* \"#utility.yul\":2580:2668   */\n      mstore\n        /* \"#utility.yul\":2687:2691   */\n      0x22\n        /* \"#utility.yul\":2684:2685   */\n      0x04\n        /* \"#utility.yul\":2677:2692   */\n      mstore\n        /* \"#utility.yul\":2711:2715   */\n      0x24\n        /* \"#utility.yul\":2708:2709   */\n      0x00\n        /* \"#utility.yul\":2701:2716   */\n      revert\n        /* \"#utility.yul\":2728:2908   */\n    tag_15:\n        /* \"#utility.yul\":2776:2853   */\n      0x4e487b7100000000000000000000000000000000000000000000000000000000\n        /* \"#utility.yul\":2773:2774   */\n      0x00\n        /* \"#utility.yul\":2766:2854   */\n      mstore\n        /* \"#utility.yul\":2873:2877   */\n      0x32\n        /* \"#utility.yul\":2870:2871   */\n      0x04\n        /* \"#utility.yul\":2863:2878   */\n      mstore\n        /* \"#utility.yul\":2897:2901   */\n      0x24\n        /* \"#utility.yul\":2894:2895   */\n      0x00\n        /* \"#utility.yul\":2887:2902   */\n      revert\n\n    auxdata: 0xa2646970667358221220eba63cabb400f9a3ed64fc05bafe39e475ac9faf7eb51117671153632b39347064736f6c63430008070033\n}\n",
				"bytecode": {
					"linkReferences": {},
					"object": "60806040526040518060a001604052806040518060400160405280600b81526020017f536f757468204b6f72656100000000000000000000000000000000000000000081525081526020016040518060400160405280600b81526020017f4e6f727468204b6f72656100000000000000000000000000000000000000000081525081526020016040518060400160405280600381526020017f555341000000000000000000000000000000000000000000000000000000000081525081526020016040518060400160405280600581526020017f4368696e6100000000000000000000000000000000000000000000000000000081525081526020016040518060400160405280600581526020017f4a6170616e0000000000000000000000000000000000000000000000000000008152508152506000906005610144929190610157565b5034801561015157600080fd5b5061031f565b8280548282559060005260206000209081019282156101a6579160200282015b828111156101a55782518290805190602001906101959291906101b7565b5091602001919060010190610177565b5b5090506101b3919061023d565b5090565b8280546101c3906102be565b90600052602060002090601f0160209004810192826101e5576000855561022c565b82601f106101fe57805160ff191683800117855561022c565b8280016001018555821561022c579182015b8281111561022b578251825591602001919060010190610210565b5b5090506102399190610261565b5090565b5b8082111561025d5760008181610254919061027e565b5060010161023e565b5090565b5b8082111561027a576000816000905550600101610262565b5090565b50805461028a906102be565b6000825580601f1061029c57506102bb565b601f0160209004906000526020600020908101906102ba9190610261565b5b50565b600060028204905060018216806102d657607f821691505b602082108114156102ea576102e96102f0565b5b50919050565b7f4e487b7100000000000000000000000000000000000000000000000000000000600052602260045260246000fd5b6103748061032e6000396000f3fe608060405234801561001057600080fd5b50600436106100365760003560e01c80636cde9f8c1461003b578063ddea9b0a14610045575b600080fd5b61004361004f565b005b61004d6100cb565b005b60005b6000805490508110156100c8577fc3750795857a09dd89d722c915dbd49e7496a6f23cad9de450838745e45f932981600083815481106100955761009461030f565b5b906000526020600020016040516100ad9291906101d6565b60405180910390a180806100c090610268565b915050610052565b50565b60005b600080549050811015610144577fc3750795857a09dd89d722c915dbd49e7496a6f23cad9de450838745e45f932981600083815481106101115761011061030f565b5b906000526020600020016040516101299291906101d6565b60405180910390a1808061013c90610268565b9150506100ce565b50565b6000815461015481610236565b61015e818661021b565b94506001821660008114610179576001811461018b576101be565b60ff19831686526020860193506101be565b61019485610206565b60005b838110156101b657815481890152600182019150602081019050610197565b808801955050505b50505092915050565b6101d08161022c565b82525050565b60006040820190506101eb60008301856101c7565b81810360208301526101fd8184610147565b90509392505050565b60008190508160005260206000209050919050565b600082825260208201905092915050565b6000819050919050565b6000600282049050600182168061024e57607f821691505b60208210811415610262576102616102e0565b5b50919050565b60006102738261022c565b91507fffffffffffffffffffffffffffffffffffffffffffffffffffffffffffffffff8214156102a6576102a56102b1565b5b600182019050919050565b7f4e487b7100000000000000000000000000000000000000000000000000000000600052601160045260246000fd5b7f4e487b7100000000000000000000000000000000000000000000000000000000600052602260045260246000fd5b7f4e487b7100000000000000000000000000000000000000000000000000000000600052603260045260246000fdfea2646970667358221220eba63cabb400f9a3ed64fc05bafe39e475ac9faf7eb51117671153632b39347064736f6c63430008070033",
					"opcodes": "PUSH1 0x80 PUSH1 0x40 MSTORE PUSH1 0x40 MLOAD DUP1 PUSH1 0xA0 ADD PUSH1 0x40 MSTORE DUP1 PUSH1 0x40 MLOAD DUP1 PUSH1 0x40 ADD PUSH1 0x40 MSTORE DUP1 PUSH1 0xB DUP2 MSTORE PUSH1 0x20 ADD PUSH32 0x536F757468204B6F726561000000000000000000000000000000000000000000 DUP2 MSTORE POP DUP2 MSTORE PUSH1 0x20 ADD PUSH1 0x40 MLOAD DUP1 PUSH1 0x40 ADD PUSH1 0x40 MSTORE DUP1 PUSH1 0xB DUP2 MSTORE PUSH1 0x20 ADD PUSH32 0x4E6F727468204B6F726561000000000000000000000000000000000000000000 DUP2 MSTORE POP DUP2 MSTORE PUSH1 0x20 ADD PUSH1 0x40 MLOAD DUP1 PUSH1 0x40 ADD PUSH1 0x40 MSTORE DUP1 PUSH1 0x3 DUP2 MSTORE PUSH1 0x20 ADD PUSH32 0x5553410000000000000000000000000000000000000000000000000000000000 DUP2 MSTORE POP DUP2 MSTORE PUSH1 0x20 ADD PUSH1 0x40 MLOAD DUP1 PUSH1 0x40 ADD PUSH1 0x40 MSTORE DUP1 PUSH1 0x5 DUP2 MSTORE PUSH1 0x20 ADD PUSH32 0x4368696E61000000000000000000000000000000000000000000000000000000 DUP2 MSTORE POP DUP2 MSTORE PUSH1 0x20 ADD PUSH1 0x40 MLOAD DUP1 PUSH1 0x40 ADD PUSH1 0x40 MSTORE DUP1 PUSH1 0x5 DUP2 MSTORE PUSH1 0x20 ADD PUSH32 0x4A6170616E000000000000000000000000000000000000000000000000000000 DUP2 MSTORE POP DUP2 MSTORE POP PUSH1 0x0 SWAP1 PUSH1 0x5 PUSH2 0x144 SWAP3 SWAP2 SWAP1 PUSH2 0x157 JUMP JUMPDEST POP CALLVALUE DUP1 ISZERO PUSH2 0x151 JUMPI PUSH1 0x0 DUP1 REVERT JUMPDEST POP PUSH2 0x31F JUMP JUMPDEST DUP3 DUP1 SLOAD DUP3 DUP3 SSTORE SWAP1 PUSH1 0x0 MSTORE PUSH1 0x20 PUSH1 0x0 KECCAK256 SWAP1 DUP2 ADD SWAP3 DUP3 ISZERO PUSH2 0x1A6 JUMPI SWAP2 PUSH1 0x20 MUL DUP3 ADD JUMPDEST DUP3 DUP2 GT ISZERO PUSH2 0x1A5 JUMPI DUP3 MLOAD DUP3 SWAP1 DUP1 MLOAD SWAP1 PUSH1 0x20 ADD SWAP1 PUSH2 0x195 SWAP3 SWAP2 SWAP1 PUSH2 0x1B7 JUMP JUMPDEST POP SWAP2 PUSH1 0x20 ADD SWAP2 SWAP1 PUSH1 0x1 ADD SWAP1 PUSH2 0x177 JUMP JUMPDEST JUMPDEST POP SWAP1 POP PUSH2 0x1B3 SWAP2 SWAP1 PUSH2 0x23D JUMP JUMPDEST POP SWAP1 JUMP JUMPDEST DUP3 DUP1 SLOAD PUSH2 0x1C3 SWAP1 PUSH2 0x2BE JUMP JUMPDEST SWAP1 PUSH1 0x0 MSTORE PUSH1 0x20 PUSH1 0x0 KECCAK256 SWAP1 PUSH1 0x1F ADD PUSH1 0x20 SWAP1 DIV DUP2 ADD SWAP3 DUP3 PUSH2 0x1E5 JUMPI PUSH1 0x0 DUP6 SSTORE PUSH2 0x22C JUMP JUMPDEST DUP3 PUSH1 0x1F LT PUSH2 0x1FE JUMPI DUP1 MLOAD PUSH1 0xFF NOT AND DUP4 DUP1 ADD OR DUP6 SSTORE PUSH2 0x22C JUMP JUMPDEST DUP3 DUP1 ADD PUSH1 0x1 ADD DUP6 SSTORE DUP3 ISZERO PUSH2 0x22C JUMPI SWAP2 DUP3 ADD JUMPDEST DUP3 DUP2 GT ISZERO PUSH2 0x22B JUMPI DUP3 MLOAD DUP3 SSTORE SWAP2 PUSH1 0x20 ADD SWAP2 SWAP1 PUSH1 0x1 ADD SWAP1 PUSH2 0x210 JUMP JUMPDEST JUMPDEST POP SWAP1 POP PUSH2 0x239 SWAP2 SWAP1 PUSH2 0x261 JUMP JUMPDEST POP SWAP1 JUMP JUMPDEST JUMPDEST DUP1 DUP3 GT ISZERO PUSH2 0x25D JUMPI PUSH1 0x0 DUP2 DUP2 PUSH2 0x254 SWAP2 SWAP1 PUSH2 0x27E JUMP JUMPDEST POP PUSH1 0x1 ADD PUSH2 0x23E JUMP JUMPDEST POP SWAP1 JUMP JUMPDEST JUMPDEST DUP1 DUP3 GT ISZERO PUSH2 0x27A JUMPI PUSH1 0x0 DUP2 PUSH1 0x0 SWAP1 SSTORE POP PUSH1 0x1 ADD PUSH2 0x262 JUMP JUMPDEST POP SWAP1 JUMP JUMPDEST POP DUP1 SLOAD PUSH2 0x28A SWAP1 PUSH2 0x2BE JUMP JUMPDEST PUSH1 0x0 DUP3 SSTORE DUP1 PUSH1 0x1F LT PUSH2 0x29C JUMPI POP PUSH2 0x2BB JUMP JUMPDEST PUSH1 0x1F ADD PUSH1 0x20 SWAP1 DIV SWAP1 PUSH1 0x0 MSTORE PUSH1 0x20 PUSH1 0x0 KECCAK256 SWAP1 DUP2 ADD SWAP1 PUSH2 0x2BA SWAP2 SWAP1 PUSH2 0x261 JUMP JUMPDEST JUMPDEST POP JUMP JUMPDEST PUSH1 0x0 PUSH1 0x2 DUP3 DIV SWAP1 POP PUSH1 0x1 DUP3 AND DUP1 PUSH2 0x2D6 JUMPI PUSH1 0x7F DUP3 AND SWAP2 POP JUMPDEST PUSH1 0x20 DUP3 LT DUP2 EQ ISZERO PUSH2 0x2EA JUMPI PUSH2 0x2E9 PUSH2 0x2F0 JUMP JUMPDEST JUMPDEST POP SWAP2 SWAP1 POP JUMP JUMPDEST PUSH32 0x4E487B7100000000000000000000000000000000000000000000000000000000 PUSH1 0x0 MSTORE PUSH1 0x22 PUSH1 0x4 MSTORE PUSH1 0x24 PUSH1 0x0 REVERT JUMPDEST PUSH2 0x374 DUP1 PUSH2 0x32E PUSH1 0x0 CODECOPY PUSH1 0x0 RETURN INVALID PUSH1 0x80 PUSH1 0x40 MSTORE CALLVALUE DUP1 ISZERO PUSH2 0x10 JUMPI PUSH1 0x0 DUP1 REVERT JUMPDEST POP PUSH1 0x4 CALLDATASIZE LT PUSH2 0x36 JUMPI PUSH1 0x0 CALLDATALOAD PUSH1 0xE0 SHR DUP1 PUSH4 0x6CDE9F8C EQ PUSH2 0x3B JUMPI DUP1 PUSH4 0xDDEA9B0A EQ PUSH2 0x45 JUMPI JUMPDEST PUSH1 0x0 DUP1 REVERT JUMPDEST PUSH2 0x43 PUSH2 0x4F JUMP JUMPDEST STOP JUMPDEST PUSH2 0x4D PUSH2 0xCB JUMP JUMPDEST STOP JUMPDEST PUSH1 0x0 JUMPDEST PUSH1 0x0 DUP1 SLOAD SWAP1 POP DUP2 LT ISZERO PUSH2 0xC8 JUMPI PUSH32 0xC3750795857A09DD89D722C915DBD49E7496A6F23CAD9DE450838745E45F9329 DUP2 PUSH1 0x0 DUP4 DUP2 SLOAD DUP2 LT PUSH2 0x95 JUMPI PUSH2 0x94 PUSH2 0x30F JUMP JUMPDEST JUMPDEST SWAP1 PUSH1 0x0 MSTORE PUSH1 0x20 PUSH1 0x0 KECCAK256 ADD PUSH1 0x40 MLOAD PUSH2 0xAD SWAP3 SWAP2 SWAP1 PUSH2 0x1D6 JUMP JUMPDEST PUSH1 0x40 MLOAD DUP1 SWAP2 SUB SWAP1 LOG1 DUP1 DUP1 PUSH2 0xC0 SWAP1 PUSH2 0x268 JUMP JUMPDEST SWAP2 POP POP PUSH2 0x52 JUMP JUMPDEST POP JUMP JUMPDEST PUSH1 0x0 JUMPDEST PUSH1 0x0 DUP1 SLOAD SWAP1 POP DUP2 LT ISZERO PUSH2 0x144 JUMPI PUSH32 0xC3750795857A09DD89D722C915DBD49E7496A6F23CAD9DE450838745E45F9329 DUP2 PUSH1 0x0 DUP4 DUP2 SLOAD DUP2 LT PUSH2 0x111 JUMPI PUSH2 0x110 PUSH2 0x30F JUMP JUMPDEST JUMPDEST SWAP1 PUSH1 0x0 MSTORE PUSH1 0x20 PUSH1 0x0 KECCAK256 ADD PUSH1 0x40 MLOAD PUSH2 0x129 SWAP3 SWAP2 SWAP1 PUSH2 0x1D6 JUMP JUMPDEST PUSH1 0x40 MLOAD DUP1 SWAP2 SUB SWAP1 LOG1 DUP1 DUP1 PUSH2 0x13C SWAP1 PUSH2 0x268 JUMP JUMPDEST SWAP2 POP POP PUSH2 0xCE JUMP JUMPDEST POP JUMP JUMPDEST PUSH1 0x0 DUP2 SLOAD PUSH2 0x154 DUP2 PUSH2 0x236 JUMP JUMPDEST PUSH2 0x15E DUP2 DUP7 PUSH2 0x21B JUMP JUMPDEST SWAP5 POP PUSH1 0x1 DUP3 AND PUSH1 0x0 DUP2 EQ PUSH2 0x179 JUMPI PUSH1 0x1 DUP2 EQ PUSH2 0x18B JUMPI PUSH2 0x1BE JUMP JUMPDEST PUSH1 0xFF NOT DUP4 AND DUP7 MSTORE PUSH1 0x20 DUP7 ADD SWAP4 POP PUSH2 0x1BE JUMP JUMPDEST PUSH2 0x194 DUP6 PUSH2 0x206 JUMP JUMPDEST PUSH1 0x0 JUMPDEST DUP4 DUP2 LT ISZERO PUSH2 0x1B6 JUMPI DUP2 SLOAD DUP2 DUP10 ADD MSTORE PUSH1 0x1 DUP3 ADD SWAP2 POP PUSH1 0x20 DUP2 ADD SWAP1 POP PUSH2 0x197 JUMP JUMPDEST DUP1 DUP9 ADD SWAP6 POP POP POP JUMPDEST POP POP POP SWAP3 SWAP2 POP POP JUMP JUMPDEST PUSH2 0x1D0 DUP2 PUSH2 0x22C JUMP JUMPDEST DUP3 MSTORE POP POP JUMP JUMPDEST PUSH1 0x0 PUSH1 0x40 DUP3 ADD SWAP1 POP PUSH2 0x1EB PUSH1 0x0 DUP4 ADD DUP6 PUSH2 0x1C7 JUMP JUMPDEST DUP2 DUP2 SUB PUSH1 0x20 DUP4 ADD MSTORE PUSH2 0x1FD DUP2 DUP5 PUSH2 0x147 JUMP JUMPDEST SWAP1 POP SWAP4 SWAP3 POP POP POP JUMP JUMPDEST PUSH1 0x0 DUP2 SWAP1 POP DUP2 PUSH1 0x0 MSTORE PUSH1 0x20 PUSH1 0x0 KECCAK256 SWAP1 POP SWAP2 SWAP1 POP JUMP JUMPDEST PUSH1 0x0 DUP3 DUP3 MSTORE PUSH1 0x20 DUP3 ADD SWAP1 POP SWAP3 SWAP2 POP POP JUMP JUMPDEST PUSH1 0x0 DUP2 SWAP1 POP SWAP2 SWAP1 POP JUMP JUMPDEST PUSH1 0x0 PUSH1 0x2 DUP3 DIV SWAP1 POP PUSH1 0x1 DUP3 AND DUP1 PUSH2 0x24E JUMPI PUSH1 0x7F DUP3 AND SWAP2 POP JUMPDEST PUSH1 0x20 DUP3 LT DUP2 EQ ISZERO PUSH2 0x262 JUMPI PUSH2 0x261 PUSH2 0x2E0 JUMP JUMPDEST JUMPDEST POP SWAP2 SWAP1 POP JUMP JUMPDEST PUSH1 0x0 PUSH2 0x273 DUP3 PUSH2 0x22C JUMP JUMPDEST SWAP2 POP PUSH32 0xFFFFFFFFFFFFFFFFFFFFFFFFFFFFFFFFFFFFFFFFFFFFFFFFFFFFFFFFFFFFFFFF DUP3 EQ ISZERO PUSH2 0x2A6 JUMPI PUSH2 0x2A5 PUSH2 0x2B1 JUMP JUMPDEST JUMPDEST PUSH1 0x1 DUP3 ADD SWAP1 POP SWAP2 SWAP1 POP JUMP JUMPDEST PUSH32 0x4E487B7100000000000000000000000000000000000000000000000000000000 PUSH1 0x0 MSTORE PUSH1 0x11 PUSH1 0x4 MSTORE PUSH1 0x24 PUSH1 0x0 REVERT JUMPDEST PUSH32 0x4E487B7100000000000000000000000000000000000000000000000000000000 PUSH1 0x0 MSTORE PUSH1 0x22 PUSH1 0x4 MSTORE PUSH1 0x24 PUSH1 0x0 REVERT JUMPDEST PUSH32 0x4E487B7100000000000000000000000000000000000000000000000000000000 PUSH1 0x0 MSTORE PUSH1 0x32 PUSH1 0x4 MSTORE PUSH1 0x24 PUSH1 0x0 REVERT INVALID LOG2 PUSH5 0x6970667358 0x22 SLT KECCAK256 0xEB 0xA6 EXTCODECOPY 0xAB 0xB4 STOP 0xF9 LOG3 0xED PUSH5 0xFC05BAFE39 0xE4 PUSH22 0xAC9FAF7EB51117671153632B39347064736F6C634300 ADDMOD SMOD STOP CALLER "
				},
				"gasEstimates": {
					"creation": {
						"codeDepositCost": "176800",
						"executionCost": "infinite",
						"totalCost": "infinite"
					},
					"external": {
						"forLoopEvents()": "infinite",
						"whileLoopEvents()": "infinite"
					}
				},
				"methodIdentifiers": {
					"forLoopEvents()": "6cde9f8c",
					"whileLoopEvents()": "ddea9b0a"
				}
			},
			"userdoc": {
				"kind": "user",
				"methods": {},
				"version": 1
			}
		}
	}
}