{
	"data": {
		"bytecode": {
			"linkReferences": {},
			"object": "608060405234801561001057600080fd5b506103d5806100206000396000f3fe608060405234801561001057600080fd5b50600436106100365760003560e01c8063d57f43831461003b578063df201a461461005a575b600080fd5b610043610078565b6040516100519291906102b8565b60405180910390f35b610062610144565b60405161006f919061029d565b60405180910390f35b6000803073ffffffffffffffffffffffffffffffffffffffff1663df201a466040518163ffffffff1660e01b815260040160206040518083038186803b1580156100c157600080fd5b505afa9250505080156100f257506040513d601f19601f820116820180604052508101906100ef9190610196565b60015b610137577fed1339d3b97aca38a4bc95190b93af9130be96b54e1bc34caa04b59819decfa06040516101239061026a565b60405180910390a160008091509150610140565b80600192509250505b9091565b60006040517f08c379a00000000000000000000000000000000000000000000000000000000081526004016101789061024a565b60405180910390fd5b60008151905061019081610388565b92915050565b6000602082840312156101ac576101ab610308565b5b60006101ba84828501610181565b91505092915050565b6101cc816102f2565b82525050565b60006101df6008836102e1565b91506101ea8261030d565b602082019050919050565b60006102026005836102e1565b915061020d82610336565b602082019050919050565b60006102256005836102e1565b91506102308261035f565b602082019050919050565b610244816102fe565b82525050565b60006020820190508181036000830152610263816101f5565b9050919050565b6000604082019050818103600083015261028381610218565b90508181036020830152610296816101d2565b9050919050565b60006020820190506102b2600083018461023b565b92915050565b60006040820190506102cd600083018561023b565b6102da60208301846101c3565b9392505050565b600082825260208201905092915050565b60008115159050919050565b6000819050919050565b600080fd5b7f4572726f72732121000000000000000000000000000000000000000000000000600082015250565b7f6572726f72000000000000000000000000000000000000000000000000000000600082015250565b7f6361746368000000000000000000000000000000000000000000000000000000600082015250565b610391816102fe565b811461039c57600080fd5b5056fea264697066735822122075b9bb35f5f69d3854b51b10c04e33a8ec2558740f24d83536f45d95e7790b0c64736f6c63430008070033",
			"opcodes": "PUSH1 0x80 PUSH1 0x40 MSTORE CALLVALUE DUP1 ISZERO PUSH2 0x10 JUMPI PUSH1 0x0 DUP1 REVERT JUMPDEST POP PUSH2 0x3D5 DUP1 PUSH2 0x20 PUSH1 0x0 CODECOPY PUSH1 0x0 RETURN INVALID PUSH1 0x80 PUSH1 0x40 MSTORE CALLVALUE DUP1 ISZERO PUSH2 0x10 JUMPI PUSH1 0x0 DUP1 REVERT JUMPDEST POP PUSH1 0x4 CALLDATASIZE LT PUSH2 0x36 JUMPI PUSH1 0x0 CALLDATALOAD PUSH1 0xE0 SHR DUP1 PUSH4 0xD57F4383 EQ PUSH2 0x3B JUMPI DUP1 PUSH4 0xDF201A46 EQ PUSH2 0x5A JUMPI JUMPDEST PUSH1 0x0 DUP1 REVERT JUMPDEST PUSH2 0x43 PUSH2 0x78 JUMP JUMPDEST PUSH1 0x40 MLOAD PUSH2 0x51 SWAP3 SWAP2 SWAP1 PUSH2 0x2B8 JUMP JUMPDEST PUSH1 0x40 MLOAD DUP1 SWAP2 SUB SWAP1 RETURN JUMPDEST PUSH2 0x62 PUSH2 0x144 JUMP JUMPDEST PUSH1 0x40 MLOAD PUSH2 0x6F SWAP2 SWAP1 PUSH2 0x29D JUMP JUMPDEST PUSH1 0x40 MLOAD DUP1 SWAP2 SUB SWAP1 RETURN JUMPDEST PUSH1 0x0 DUP1 ADDRESS PUSH20 0xFFFFFFFFFFFFFFFFFFFFFFFFFFFFFFFFFFFFFFFF AND PUSH4 0xDF201A46 PUSH1 0x40 MLOAD DUP2 PUSH4 0xFFFFFFFF AND PUSH1 0xE0 SHL DUP2 MSTORE PUSH1 0x4 ADD PUSH1 0x20 PUSH1 0x40 MLOAD DUP1 DUP4 SUB DUP2 DUP7 DUP1 EXTCODESIZE ISZERO DUP1 ISZERO PUSH2 0xC1 JUMPI PUSH1 0x0 DUP1 REVERT JUMPDEST POP GAS STATICCALL SWAP3 POP POP POP DUP1 ISZERO PUSH2 0xF2 JUMPI POP PUSH1 0x40 MLOAD RETURNDATASIZE PUSH1 0x1F NOT PUSH1 0x1F DUP3 ADD AND DUP3 ADD DUP1 PUSH1 0x40 MSTORE POP DUP2 ADD SWAP1 PUSH2 0xEF SWAP2 SWAP1 PUSH2 0x196 JUMP JUMPDEST PUSH1 0x1 JUMPDEST PUSH2 0x137 JUMPI PUSH32 0xED1339D3B97ACA38A4BC95190B93AF9130BE96B54E1BC34CAA04B59819DECFA0 PUSH1 0x40 MLOAD PUSH2 0x123 SWAP1 PUSH2 0x26A JUMP JUMPDEST PUSH1 0x40 MLOAD DUP1 SWAP2 SUB SWAP1 LOG1 PUSH1 0x0 DUP1 SWAP2 POP SWAP2 POP PUSH2 0x140 JUMP JUMPDEST DUP1 PUSH1 0x1 SWAP3 POP SWAP3 POP POP JUMPDEST SWAP1 SWAP2 JUMP JUMPDEST PUSH1 0x0 PUSH1 0x40 MLOAD PUSH32 0x8C379A000000000000000000000000000000000000000000000000000000000 DUP2 MSTORE PUSH1 0x4 ADD PUSH2 0x178 SWAP1 PUSH2 0x24A JUMP JUMPDEST PUSH1 0x40 MLOAD DUP1 SWAP2 SUB SWAP1 REVERT JUMPDEST PUSH1 0x0 DUP2 MLOAD SWAP1 POP PUSH2 0x190 DUP2 PUSH2 0x388 JUMP JUMPDEST SWAP3 SWAP2 POP POP JUMP JUMPDEST PUSH1 0x0 PUSH1 0x20 DUP3 DUP5 SUB SLT ISZERO PUSH2 0x1AC JUMPI PUSH2 0x1AB PUSH2 0x308 JUMP JUMPDEST JUMPDEST PUSH1 0x0 PUSH2 0x1BA DUP5 DUP3 DUP6 ADD PUSH2 0x181 JUMP JUMPDEST SWAP2 POP POP SWAP3 SWAP2 POP POP JUMP JUMPDEST PUSH2 0x1CC DUP2 PUSH2 0x2F2 JUMP JUMPDEST DUP3 MSTORE POP POP JUMP JUMPDEST PUSH1 0x0 PUSH2 0x1DF PUSH1 0x8 DUP4 PUSH2 0x2E1 JUMP JUMPDEST SWAP2 POP PUSH2 0x1EA DUP3 PUSH2 0x30D JUMP JUMPDEST PUSH1 0x20 DUP3 ADD SWAP1 POP SWAP2 SWAP1 POP JUMP JUMPDEST PUSH1 0x0 PUSH2 0x202 PUSH1 0x5 DUP4 PUSH2 0x2E1 JUMP JUMPDEST SWAP2 POP PUSH2 0x20D DUP3 PUSH2 0x336 JUMP JUMPDEST PUSH1 0x20 DUP3 ADD SWAP1 POP SWAP2 SWAP1 POP JUMP JUMPDEST PUSH1 0x0 PUSH2 0x225 PUSH1 0x5 DUP4 PUSH2 0x2E1 JUMP JUMPDEST SWAP2 POP PUSH2 0x230 DUP3 PUSH2 0x35F JUMP JUMPDEST PUSH1 0x20 DUP3 ADD SWAP1 POP SWAP2 SWAP1 POP JUMP JUMPDEST PUSH2 0x244 DUP2 PUSH2 0x2FE JUMP JUMPDEST DUP3 MSTORE POP POP JUMP JUMPDEST PUSH1 0x0 PUSH1 0x20 DUP3 ADD SWAP1 POP DUP2 DUP2 SUB PUSH1 0x0 DUP4 ADD MSTORE PUSH2 0x263 DUP2 PUSH2 0x1F5 JUMP JUMPDEST SWAP1 POP SWAP2 SWAP1 POP JUMP JUMPDEST PUSH1 0x0 PUSH1 0x40 DUP3 ADD SWAP1 POP DUP2 DUP2 SUB PUSH1 0x0 DUP4 ADD MSTORE PUSH2 0x283 DUP2 PUSH2 0x218 JUMP JUMPDEST SWAP1 POP DUP2 DUP2 SUB PUSH1 0x20 DUP4 ADD MSTORE PUSH2 0x296 DUP2 PUSH2 0x1D2 JUMP JUMPDEST SWAP1 POP SWAP2 SWAP1 POP JUMP JUMPDEST PUSH1 0x0 PUSH1 0x20 DUP3 ADD SWAP1 POP PUSH2 0x2B2 PUSH1 0x0 DUP4 ADD DUP5 PUSH2 0x23B JUMP JUMPDEST SWAP3 SWAP2 POP POP JUMP JUMPDEST PUSH1 0x0 PUSH1 0x40 DUP3 ADD SWAP1 POP PUSH2 0x2CD PUSH1 0x0 DUP4 ADD DUP6 PUSH2 0x23B JUMP JUMPDEST PUSH2 0x2DA PUSH1 0x20 DUP4 ADD DUP5 PUSH2 0x1C3 JUMP JUMPDEST SWAP4 SWAP3 POP POP POP JUMP JUMPDEST PUSH1 0x0 DUP3 DUP3 MSTORE PUSH1 0x20 DUP3 ADD SWAP1 POP SWAP3 SWAP2 POP POP JUMP JUMPDEST PUSH1 0x0 DUP2 ISZERO ISZERO SWAP1 POP SWAP2 SWAP1 POP JUMP JUMPDEST PUSH1 0x0 DUP2 SWAP1 POP SWAP2 SWAP1 POP JUMP JUMPDEST PUSH1 0x0 DUP1 REVERT JUMPDEST PUSH32 0x4572726F72732121000000000000000000000000000000000000000000000000 PUSH1 0x0 DUP3 ADD MSTORE POP JUMP JUMPDEST PUSH32 0x6572726F72000000000000000000000000000000000000000000000000000000 PUSH1 0x0 DUP3 ADD MSTORE POP JUMP JUMPDEST PUSH32 0x6361746368000000000000000000000000000000000000000000000000000000 PUSH1 0x0 DUP3 ADD MSTORE POP JUMP JUMPDEST PUSH2 0x391 DUP2 PUSH2 0x2FE JUMP JUMPDEST DUP2 EQ PUSH2 0x39C JUMPI PUSH1 0x0 DUP1 REVERT JUMPDEST POP JUMP INVALID LOG2 PUSH5 0x6970667358 0x22 SLT KECCAK256 PUSH22 0xB9BB35F5F69D3854B51B10C04E33A8EC2558740F24D8 CALLDATALOAD CALLDATASIZE DELEGATECALL 0x5D SWAP6 0xE7 PUSH26 0xB0C64736F6C6343000807003300000000000000000000000000 "
		},
		"gasEstimates": {
			"creation": {
				"codeDepositCost": "196200",
				"executionCost": "238",
				"totalCost": "196438"
			},
			"external": {
				"playTryCatch()": "infinite",
				"simple()": "437"
			}
		},
		"methodIdentifiers": {
			"playTryCatch()": "d57f4383",
			"simple()": "df201a46"
		}
	},
	"abi": [
		{
			"anonymous": false,
			"inputs": [
				{
					"indexed": false,
					"internalType": "string",
					"name": "_name",
					"type": "string"
				},
				{
					"indexed": false,
					"internalType": "string",
					"name": "_err",
					"type": "string"
				}
			],
			"name": "catchOnly",
			"type": "event"
		},
		{
			"inputs": [],
			"name": "playTryCatch",
			"outputs": [
				{
					"internalType": "uint256",
					"name": "",
					"type": "uint256"
				},
				{
					"internalType": "bool",
					"name": "",
					"type": "bool"
				}
			],
			"stateMutability": "nonpayable",
			"type": "function"
		},
		{
			"inputs": [],
			"name": "simple",
			"outputs": [
				{
					"internalType": "uint256",
					"name": "",
					"type": "uint256"
				}
			],
			"stateMutability": "pure",
			"type": "function"
		}
	]
}