{
	"lecture/lec26.sol": {
		"lec26": {
			"abi": [
				{
					"inputs": [
						{
							"internalType": "uint256",
							"name": "_age",
							"type": "uint256"
						}
					],
					"name": "onlyAdults",
					"outputs": [
						{
							"internalType": "string",
							"name": "",
							"type": "string"
						}
					],
					"stateMutability": "pure",
					"type": "function"
				},
				{
					"inputs": [
						{
							"internalType": "uint256",
							"name": "_age",
							"type": "uint256"
						}
					],
					"name": "onlyAdults2",
					"outputs": [
						{
							"internalType": "string",
							"name": "",
							"type": "string"
						}
					],
					"stateMutability": "pure",
					"type": "function"
				},
				{
					"inputs": [],
					"name": "requireNow",
					"outputs": [],
					"stateMutability": "pure",
					"type": "function"
				},
				{
					"inputs": [],
					"name": "revertNow",
					"outputs": [],
					"stateMutability": "pure",
					"type": "function"
				}
			],
			"devdoc": {
				"kind": "dev",
				"methods": {},
				"version": 1
			},
			"evm": {
				"assembly": "    /* \"lecture/lec26.sol\":135:1155  contract lec26{... */\n  mstore(0x40, 0x80)\n  callvalue\n  dup1\n  iszero\n  tag_1\n  jumpi\n  0x00\n  dup1\n  revert\ntag_1:\n  pop\n  dataSize(sub_0)\n  dup1\n  dataOffset(sub_0)\n  0x00\n  codecopy\n  0x00\n  return\nstop\n\nsub_0: assembly {\n        /* \"lecture/lec26.sol\":135:1155  contract lec26{... */\n      mstore(0x40, 0x80)\n      callvalue\n      dup1\n      iszero\n      tag_1\n      jumpi\n      0x00\n      dup1\n      revert\n    tag_1:\n      pop\n      jumpi(tag_2, lt(calldatasize, 0x04))\n      shr(0xe0, calldataload(0x00))\n      dup1\n      0x746715\n      eq\n      tag_3\n      jumpi\n      dup1\n      0x844adfd2\n      eq\n      tag_4\n      jumpi\n      dup1\n      0x9de5b7d2\n      eq\n      tag_5\n      jumpi\n      dup1\n      0xafe26609\n      eq\n      tag_6\n      jumpi\n    tag_2:\n      0x00\n      dup1\n      revert\n        /* \"lecture/lec26.sol\":952:1150  function onlyAdults2(uint256 _age) public pure returns(string memory){... */\n    tag_3:\n      tag_7\n      0x04\n      dup1\n      calldatasize\n      sub\n      dup2\n      add\n      swap1\n      tag_8\n      swap2\n      swap1\n      tag_9\n      jump\t// in\n    tag_8:\n      tag_10\n      jump\t// in\n    tag_7:\n      mload(0x40)\n      tag_11\n      swap2\n      swap1\n      tag_12\n      jump\t// in\n    tag_11:\n      mload(0x40)\n      dup1\n      swap2\n      sub\n      swap1\n      return\n        /* \"lecture/lec26.sol\":628:711  function requireNow() public pure{... */\n    tag_4:\n      tag_13\n      tag_14\n      jump\t// in\n    tag_13:\n      stop\n        /* \"lecture/lec26.sol\":719:944  function onlyAdults(uint256 _age) public pure returns(string memory){... */\n    tag_5:\n      tag_15\n      0x04\n      dup1\n      calldatasize\n      sub\n      dup2\n      add\n      swap1\n      tag_16\n      swap2\n      swap1\n      tag_9\n      jump\t// in\n    tag_16:\n      tag_17\n      jump\t// in\n    tag_15:\n      mload(0x40)\n      tag_18\n      swap2\n      swap1\n      tag_12\n      jump\t// in\n    tag_18:\n      mload(0x40)\n      dup1\n      swap2\n      sub\n      swap1\n      return\n        /* \"lecture/lec26.sol\":412:620  function revertNow() public pure{... */\n    tag_6:\n      tag_19\n      tag_20\n      jump\t// in\n    tag_19:\n      stop\n        /* \"lecture/lec26.sol\":952:1150  function onlyAdults2(uint256 _age) public pure returns(string memory){... */\n    tag_10:\n        /* \"lecture/lec26.sol\":1007:1020  string memory */\n      0x60\n        /* \"lecture/lec26.sol\":1047:1049  19 */\n      0x13\n        /* \"lecture/lec26.sol\":1040:1044  _age */\n      dup3\n        /* \"lecture/lec26.sol\":1040:1049  _age > 19 */\n      gt\n        /* \"lecture/lec26.sol\":1032:1097  require(_age > 19,\"You are not allowed to pay for the cigarette\") */\n      tag_22\n      jumpi\n      mload(0x40)\n      0x08c379a000000000000000000000000000000000000000000000000000000000\n      dup2\n      mstore\n      0x04\n      add\n      tag_23\n      swap1\n      tag_24\n      jump\t// in\n    tag_23:\n      mload(0x40)\n      dup1\n      swap2\n      sub\n      swap1\n      revert\n    tag_22:\n        /* \"lecture/lec26.sol\":1108:1142  return \"Your payment is succeeded\" */\n      mload(0x40)\n      dup1\n      0x40\n      add\n      0x40\n      mstore\n      dup1\n      0x19\n      dup2\n      mstore\n      0x20\n      add\n      0x596f7572207061796d656e742069732073756363656564656400000000000000\n      dup2\n      mstore\n      pop\n      swap1\n      pop\n        /* \"lecture/lec26.sol\":952:1150  function onlyAdults2(uint256 _age) public pure returns(string memory){... */\n      swap2\n      swap1\n      pop\n      jump\t// out\n        /* \"lecture/lec26.sol\":628:711  function requireNow() public pure{... */\n    tag_14:\n        /* \"lecture/lec26.sol\":680:685  false */\n      0x00\n        /* \"lecture/lec26.sol\":672:703  require(false, \"error message\") */\n      tag_26\n      jumpi\n      mload(0x40)\n      0x08c379a000000000000000000000000000000000000000000000000000000000\n      dup2\n      mstore\n      0x04\n      add\n      tag_27\n      swap1\n      tag_28\n      jump\t// in\n    tag_27:\n      mload(0x40)\n      dup1\n      swap2\n      sub\n      swap1\n      revert\n    tag_26:\n        /* \"lecture/lec26.sol\":628:711  function requireNow() public pure{... */\n      jump\t// out\n        /* \"lecture/lec26.sol\":719:944  function onlyAdults(uint256 _age) public pure returns(string memory){... */\n    tag_17:\n        /* \"lecture/lec26.sol\":773:786  string memory */\n      0x60\n        /* \"lecture/lec26.sol\":808:810  19 */\n      0x13\n        /* \"lecture/lec26.sol\":801:805  _age */\n      dup3\n        /* \"lecture/lec26.sol\":801:810  _age < 19 */\n      lt\n        /* \"lecture/lec26.sol\":798:892  if(_age < 19){... */\n      iszero\n      tag_30\n      jumpi\n        /* \"lecture/lec26.sol\":826:880  revert(\"You are not allowed to pay for the cigarette\") */\n      mload(0x40)\n      0x08c379a000000000000000000000000000000000000000000000000000000000\n      dup2\n      mstore\n      0x04\n      add\n      tag_31\n      swap1\n      tag_24\n      jump\t// in\n    tag_31:\n      mload(0x40)\n      dup1\n      swap2\n      sub\n      swap1\n      revert\n        /* \"lecture/lec26.sol\":798:892  if(_age < 19){... */\n    tag_30:\n        /* \"lecture/lec26.sol\":902:936  return \"Your payment is succeeded\" */\n      mload(0x40)\n      dup1\n      0x40\n      add\n      0x40\n      mstore\n      dup1\n      0x19\n      dup2\n      mstore\n      0x20\n      add\n      0x596f7572207061796d656e742069732073756363656564656400000000000000\n      dup2\n      mstore\n      pop\n      swap1\n      pop\n        /* \"lecture/lec26.sol\":719:944  function onlyAdults(uint256 _age) public pure returns(string memory){... */\n      swap2\n      swap1\n      pop\n      jump\t// out\n        /* \"lecture/lec26.sol\":412:620  function revertNow() public pure{... */\n    tag_20:\n        /* \"lecture/lec26.sol\":455:478  revert(\"error message\") */\n      mload(0x40)\n      0x08c379a000000000000000000000000000000000000000000000000000000000\n      dup2\n      mstore\n      0x04\n      add\n      tag_33\n      swap1\n      tag_28\n      jump\t// in\n    tag_33:\n      mload(0x40)\n      dup1\n      swap2\n      sub\n      swap1\n      revert\n        /* \"#utility.yul\":88:205   */\n    tag_35:\n        /* \"#utility.yul\":197:198   */\n      0x00\n        /* \"#utility.yul\":194:195   */\n      dup1\n        /* \"#utility.yul\":187:199   */\n      revert\n        /* \"#utility.yul\":334:411   */\n    tag_37:\n        /* \"#utility.yul\":371:378   */\n      0x00\n        /* \"#utility.yul\":400:405   */\n      dup2\n        /* \"#utility.yul\":389:405   */\n      swap1\n      pop\n        /* \"#utility.yul\":334:411   */\n      swap2\n      swap1\n      pop\n      jump\t// out\n        /* \"#utility.yul\":417:539   */\n    tag_38:\n        /* \"#utility.yul\":490:514   */\n      tag_55\n        /* \"#utility.yul\":508:513   */\n      dup2\n        /* \"#utility.yul\":490:514   */\n      tag_37\n      jump\t// in\n    tag_55:\n        /* \"#utility.yul\":483:488   */\n      dup2\n        /* \"#utility.yul\":480:515   */\n      eq\n        /* \"#utility.yul\":470:533   */\n      tag_56\n      jumpi\n        /* \"#utility.yul\":529:530   */\n      0x00\n        /* \"#utility.yul\":526:527   */\n      dup1\n        /* \"#utility.yul\":519:531   */\n      revert\n        /* \"#utility.yul\":470:533   */\n    tag_56:\n        /* \"#utility.yul\":417:539   */\n      pop\n      jump\t// out\n        /* \"#utility.yul\":545:684   */\n    tag_39:\n        /* \"#utility.yul\":591:596   */\n      0x00\n        /* \"#utility.yul\":629:635   */\n      dup2\n        /* \"#utility.yul\":616:636   */\n      calldataload\n        /* \"#utility.yul\":607:636   */\n      swap1\n      pop\n        /* \"#utility.yul\":645:678   */\n      tag_58\n        /* \"#utility.yul\":672:677   */\n      dup2\n        /* \"#utility.yul\":645:678   */\n      tag_38\n      jump\t// in\n    tag_58:\n        /* \"#utility.yul\":545:684   */\n      swap3\n      swap2\n      pop\n      pop\n      jump\t// out\n        /* \"#utility.yul\":690:1019   */\n    tag_9:\n        /* \"#utility.yul\":749:755   */\n      0x00\n        /* \"#utility.yul\":798:800   */\n      0x20\n        /* \"#utility.yul\":786:795   */\n      dup3\n        /* \"#utility.yul\":777:784   */\n      dup5\n        /* \"#utility.yul\":773:796   */\n      sub\n        /* \"#utility.yul\":769:801   */\n      slt\n        /* \"#utility.yul\":766:885   */\n      iszero\n      tag_60\n      jumpi\n        /* \"#utility.yul\":804:883   */\n      tag_61\n      tag_35\n      jump\t// in\n    tag_61:\n        /* \"#utility.yul\":766:885   */\n    tag_60:\n        /* \"#utility.yul\":924:925   */\n      0x00\n        /* \"#utility.yul\":949:1002   */\n      tag_62\n        /* \"#utility.yul\":994:1001   */\n      dup5\n        /* \"#utility.yul\":985:991   */\n      dup3\n        /* \"#utility.yul\":974:983   */\n      dup6\n        /* \"#utility.yul\":970:992   */\n      add\n        /* \"#utility.yul\":949:1002   */\n      tag_39\n      jump\t// in\n    tag_62:\n        /* \"#utility.yul\":939:1002   */\n      swap2\n      pop\n        /* \"#utility.yul\":895:1012   */\n      pop\n        /* \"#utility.yul\":690:1019   */\n      swap3\n      swap2\n      pop\n      pop\n      jump\t// out\n        /* \"#utility.yul\":1025:1124   */\n    tag_40:\n        /* \"#utility.yul\":1077:1083   */\n      0x00\n        /* \"#utility.yul\":1111:1116   */\n      dup2\n        /* \"#utility.yul\":1105:1117   */\n      mload\n        /* \"#utility.yul\":1095:1117   */\n      swap1\n      pop\n        /* \"#utility.yul\":1025:1124   */\n      swap2\n      swap1\n      pop\n      jump\t// out\n        /* \"#utility.yul\":1130:1299   */\n    tag_41:\n        /* \"#utility.yul\":1214:1225   */\n      0x00\n        /* \"#utility.yul\":1248:1254   */\n      dup3\n        /* \"#utility.yul\":1243:1246   */\n      dup3\n        /* \"#utility.yul\":1236:1255   */\n      mstore\n        /* \"#utility.yul\":1288:1292   */\n      0x20\n        /* \"#utility.yul\":1283:1286   */\n      dup3\n        /* \"#utility.yul\":1279:1293   */\n      add\n        /* \"#utility.yul\":1264:1293   */\n      swap1\n      pop\n        /* \"#utility.yul\":1130:1299   */\n      swap3\n      swap2\n      pop\n      pop\n      jump\t// out\n        /* \"#utility.yul\":1305:1612   */\n    tag_42:\n        /* \"#utility.yul\":1373:1374   */\n      0x00\n        /* \"#utility.yul\":1383:1496   */\n    tag_66:\n        /* \"#utility.yul\":1397:1403   */\n      dup4\n        /* \"#utility.yul\":1394:1395   */\n      dup2\n        /* \"#utility.yul\":1391:1404   */\n      lt\n        /* \"#utility.yul\":1383:1496   */\n      iszero\n      tag_68\n      jumpi\n        /* \"#utility.yul\":1482:1483   */\n      dup1\n        /* \"#utility.yul\":1477:1480   */\n      dup3\n        /* \"#utility.yul\":1473:1484   */\n      add\n        /* \"#utility.yul\":1467:1485   */\n      mload\n        /* \"#utility.yul\":1463:1464   */\n      dup2\n        /* \"#utility.yul\":1458:1461   */\n      dup5\n        /* \"#utility.yul\":1454:1465   */\n      add\n        /* \"#utility.yul\":1447:1486   */\n      mstore\n        /* \"#utility.yul\":1419:1421   */\n      0x20\n        /* \"#utility.yul\":1416:1417   */\n      dup2\n        /* \"#utility.yul\":1412:1422   */\n      add\n        /* \"#utility.yul\":1407:1422   */\n      swap1\n      pop\n        /* \"#utility.yul\":1383:1496   */\n      jump(tag_66)\n    tag_68:\n        /* \"#utility.yul\":1514:1520   */\n      dup4\n        /* \"#utility.yul\":1511:1512   */\n      dup2\n        /* \"#utility.yul\":1508:1521   */\n      gt\n        /* \"#utility.yul\":1505:1606   */\n      iszero\n      tag_69\n      jumpi\n        /* \"#utility.yul\":1594:1595   */\n      0x00\n        /* \"#utility.yul\":1585:1591   */\n      dup5\n        /* \"#utility.yul\":1580:1583   */\n      dup5\n        /* \"#utility.yul\":1576:1592   */\n      add\n        /* \"#utility.yul\":1569:1596   */\n      mstore\n        /* \"#utility.yul\":1505:1606   */\n    tag_69:\n        /* \"#utility.yul\":1354:1612   */\n      pop\n        /* \"#utility.yul\":1305:1612   */\n      pop\n      pop\n      pop\n      jump\t// out\n        /* \"#utility.yul\":1618:1720   */\n    tag_43:\n        /* \"#utility.yul\":1659:1665   */\n      0x00\n        /* \"#utility.yul\":1710:1712   */\n      0x1f\n        /* \"#utility.yul\":1706:1713   */\n      not\n        /* \"#utility.yul\":1701:1703   */\n      0x1f\n        /* \"#utility.yul\":1694:1699   */\n      dup4\n        /* \"#utility.yul\":1690:1704   */\n      add\n        /* \"#utility.yul\":1686:1714   */\n      and\n        /* \"#utility.yul\":1676:1714   */\n      swap1\n      pop\n        /* \"#utility.yul\":1618:1720   */\n      swap2\n      swap1\n      pop\n      jump\t// out\n        /* \"#utility.yul\":1726:2090   */\n    tag_44:\n        /* \"#utility.yul\":1814:1817   */\n      0x00\n        /* \"#utility.yul\":1842:1881   */\n      tag_72\n        /* \"#utility.yul\":1875:1880   */\n      dup3\n        /* \"#utility.yul\":1842:1881   */\n      tag_40\n      jump\t// in\n    tag_72:\n        /* \"#utility.yul\":1897:1968   */\n      tag_73\n        /* \"#utility.yul\":1961:1967   */\n      dup2\n        /* \"#utility.yul\":1956:1959   */\n      dup6\n        /* \"#utility.yul\":1897:1968   */\n      tag_41\n      jump\t// in\n    tag_73:\n        /* \"#utility.yul\":1890:1968   */\n      swap4\n      pop\n        /* \"#utility.yul\":1977:2029   */\n      tag_74\n        /* \"#utility.yul\":2022:2028   */\n      dup2\n        /* \"#utility.yul\":2017:2020   */\n      dup6\n        /* \"#utility.yul\":2010:2014   */\n      0x20\n        /* \"#utility.yul\":2003:2008   */\n      dup7\n        /* \"#utility.yul\":1999:2015   */\n      add\n        /* \"#utility.yul\":1977:2029   */\n      tag_42\n      jump\t// in\n    tag_74:\n        /* \"#utility.yul\":2054:2083   */\n      tag_75\n        /* \"#utility.yul\":2076:2082   */\n      dup2\n        /* \"#utility.yul\":2054:2083   */\n      tag_43\n      jump\t// in\n    tag_75:\n        /* \"#utility.yul\":2049:2052   */\n      dup5\n        /* \"#utility.yul\":2045:2084   */\n      add\n        /* \"#utility.yul\":2038:2084   */\n      swap2\n      pop\n        /* \"#utility.yul\":1818:2090   */\n      pop\n        /* \"#utility.yul\":1726:2090   */\n      swap3\n      swap2\n      pop\n      pop\n      jump\t// out\n        /* \"#utility.yul\":2096:2409   */\n    tag_12:\n        /* \"#utility.yul\":2209:2213   */\n      0x00\n        /* \"#utility.yul\":2247:2249   */\n      0x20\n        /* \"#utility.yul\":2236:2245   */\n      dup3\n        /* \"#utility.yul\":2232:2250   */\n      add\n        /* \"#utility.yul\":2224:2250   */\n      swap1\n      pop\n        /* \"#utility.yul\":2296:2305   */\n      dup2\n        /* \"#utility.yul\":2290:2294   */\n      dup2\n        /* \"#utility.yul\":2286:2306   */\n      sub\n        /* \"#utility.yul\":2282:2283   */\n      0x00\n        /* \"#utility.yul\":2271:2280   */\n      dup4\n        /* \"#utility.yul\":2267:2284   */\n      add\n        /* \"#utility.yul\":2260:2307   */\n      mstore\n        /* \"#utility.yul\":2324:2402   */\n      tag_77\n        /* \"#utility.yul\":2397:2401   */\n      dup2\n        /* \"#utility.yul\":2388:2394   */\n      dup5\n        /* \"#utility.yul\":2324:2402   */\n      tag_44\n      jump\t// in\n    tag_77:\n        /* \"#utility.yul\":2316:2402   */\n      swap1\n      pop\n        /* \"#utility.yul\":2096:2409   */\n      swap3\n      swap2\n      pop\n      pop\n      jump\t// out\n        /* \"#utility.yul\":2415:2646   */\n    tag_45:\n        /* \"#utility.yul\":2555:2589   */\n      0x596f7520617265206e6f7420616c6c6f77656420746f2070617920666f722074\n        /* \"#utility.yul\":2551:2552   */\n      0x00\n        /* \"#utility.yul\":2543:2549   */\n      dup3\n        /* \"#utility.yul\":2539:2553   */\n      add\n        /* \"#utility.yul\":2532:2590   */\n      mstore\n        /* \"#utility.yul\":2624:2638   */\n      0x6865206369676172657474650000000000000000000000000000000000000000\n        /* \"#utility.yul\":2619:2621   */\n      0x20\n        /* \"#utility.yul\":2611:2617   */\n      dup3\n        /* \"#utility.yul\":2607:2622   */\n      add\n        /* \"#utility.yul\":2600:2639   */\n      mstore\n        /* \"#utility.yul\":2415:2646   */\n      pop\n      jump\t// out\n        /* \"#utility.yul\":2652:3018   */\n    tag_46:\n        /* \"#utility.yul\":2794:2797   */\n      0x00\n        /* \"#utility.yul\":2815:2882   */\n      tag_80\n        /* \"#utility.yul\":2879:2881   */\n      0x2c\n        /* \"#utility.yul\":2874:2877   */\n      dup4\n        /* \"#utility.yul\":2815:2882   */\n      tag_41\n      jump\t// in\n    tag_80:\n        /* \"#utility.yul\":2808:2882   */\n      swap2\n      pop\n        /* \"#utility.yul\":2891:2984   */\n      tag_81\n        /* \"#utility.yul\":2980:2983   */\n      dup3\n        /* \"#utility.yul\":2891:2984   */\n      tag_45\n      jump\t// in\n    tag_81:\n        /* \"#utility.yul\":3009:3011   */\n      0x40\n        /* \"#utility.yul\":3004:3007   */\n      dup3\n        /* \"#utility.yul\":3000:3012   */\n      add\n        /* \"#utility.yul\":2993:3012   */\n      swap1\n      pop\n        /* \"#utility.yul\":2652:3018   */\n      swap2\n      swap1\n      pop\n      jump\t// out\n        /* \"#utility.yul\":3024:3443   */\n    tag_24:\n        /* \"#utility.yul\":3190:3194   */\n      0x00\n        /* \"#utility.yul\":3228:3230   */\n      0x20\n        /* \"#utility.yul\":3217:3226   */\n      dup3\n        /* \"#utility.yul\":3213:3231   */\n      add\n        /* \"#utility.yul\":3205:3231   */\n      swap1\n      pop\n        /* \"#utility.yul\":3277:3286   */\n      dup2\n        /* \"#utility.yul\":3271:3275   */\n      dup2\n        /* \"#utility.yul\":3267:3287   */\n      sub\n        /* \"#utility.yul\":3263:3264   */\n      0x00\n        /* \"#utility.yul\":3252:3261   */\n      dup4\n        /* \"#utility.yul\":3248:3265   */\n      add\n        /* \"#utility.yul\":3241:3288   */\n      mstore\n        /* \"#utility.yul\":3305:3436   */\n      tag_83\n        /* \"#utility.yul\":3431:3435   */\n      dup2\n        /* \"#utility.yul\":3305:3436   */\n      tag_46\n      jump\t// in\n    tag_83:\n        /* \"#utility.yul\":3297:3436   */\n      swap1\n      pop\n        /* \"#utility.yul\":3024:3443   */\n      swap2\n      swap1\n      pop\n      jump\t// out\n        /* \"#utility.yul\":3449:3612   */\n    tag_47:\n        /* \"#utility.yul\":3589:3604   */\n      0x6572726f72206d65737361676500000000000000000000000000000000000000\n        /* \"#utility.yul\":3585:3586   */\n      0x00\n        /* \"#utility.yul\":3577:3583   */\n      dup3\n        /* \"#utility.yul\":3573:3587   */\n      add\n        /* \"#utility.yul\":3566:3605   */\n      mstore\n        /* \"#utility.yul\":3449:3612   */\n      pop\n      jump\t// out\n        /* \"#utility.yul\":3618:3984   */\n    tag_48:\n        /* \"#utility.yul\":3760:3763   */\n      0x00\n        /* \"#utility.yul\":3781:3848   */\n      tag_86\n        /* \"#utility.yul\":3845:3847   */\n      0x0d\n        /* \"#utility.yul\":3840:3843   */\n      dup4\n        /* \"#utility.yul\":3781:3848   */\n      tag_41\n      jump\t// in\n    tag_86:\n        /* \"#utility.yul\":3774:3848   */\n      swap2\n      pop\n        /* \"#utility.yul\":3857:3950   */\n      tag_87\n        /* \"#utility.yul\":3946:3949   */\n      dup3\n        /* \"#utility.yul\":3857:3950   */\n      tag_47\n      jump\t// in\n    tag_87:\n        /* \"#utility.yul\":3975:3977   */\n      0x20\n        /* \"#utility.yul\":3970:3973   */\n      dup3\n        /* \"#utility.yul\":3966:3978   */\n      add\n        /* \"#utility.yul\":3959:3978   */\n      swap1\n      pop\n        /* \"#utility.yul\":3618:3984   */\n      swap2\n      swap1\n      pop\n      jump\t// out\n        /* \"#utility.yul\":3990:4409   */\n    tag_28:\n        /* \"#utility.yul\":4156:4160   */\n      0x00\n        /* \"#utility.yul\":4194:4196   */\n      0x20\n        /* \"#utility.yul\":4183:4192   */\n      dup3\n        /* \"#utility.yul\":4179:4197   */\n      add\n        /* \"#utility.yul\":4171:4197   */\n      swap1\n      pop\n        /* \"#utility.yul\":4243:4252   */\n      dup2\n        /* \"#utility.yul\":4237:4241   */\n      dup2\n        /* \"#utility.yul\":4233:4253   */\n      sub\n        /* \"#utility.yul\":4229:4230   */\n      0x00\n        /* \"#utility.yul\":4218:4227   */\n      dup4\n        /* \"#utility.yul\":4214:4231   */\n      add\n        /* \"#utility.yul\":4207:4254   */\n      mstore\n        /* \"#utility.yul\":4271:4402   */\n      tag_89\n        /* \"#utility.yul\":4397:4401   */\n      dup2\n        /* \"#utility.yul\":4271:4402   */\n      tag_48\n      jump\t// in\n    tag_89:\n        /* \"#utility.yul\":4263:4402   */\n      swap1\n      pop\n        /* \"#utility.yul\":3990:4409   */\n      swap2\n      swap1\n      pop\n      jump\t// out\n\n    auxdata: 0xa264697066735822122073bdc68004923f52ec4803594d0103f6fb447cd016d164f04d11d79e4ba6324a64736f6c634300080c0033\n}\n",
				"bytecode": {
					"linkReferences": {},
					"object": "608060405234801561001057600080fd5b5061049e806100206000396000f3fe608060405234801561001057600080fd5b506004361061004b5760003560e01c806274671514610050578063844adfd2146100805780639de5b7d21461008a578063afe26609146100ba575b600080fd5b61006a60048036038101906100659190610282565b6100c4565b6040516100779190610348565b60405180910390f35b610088610146565b005b6100a4600480360381019061009f9190610282565b610189565b6040516100b19190610348565b60405180910390f35b6100c261020c565b005b606060138211610109576040517f08c379a0000000000000000000000000000000000000000000000000000000008152600401610100906103dc565b60405180910390fd5b6040518060400160405280601981526020017f596f7572207061796d656e7420697320737563636565646564000000000000008152509050919050565b6000610187576040517f08c379a000000000000000000000000000000000000000000000000000000000815260040161017e90610448565b60405180910390fd5b565b606060138210156101cf576040517f08c379a00000000000000000000000000000000000000000000000000000000081526004016101c6906103dc565b60405180910390fd5b6040518060400160405280601981526020017f596f7572207061796d656e7420697320737563636565646564000000000000008152509050919050565b6040517f08c379a000000000000000000000000000000000000000000000000000000000815260040161023e90610448565b60405180910390fd5b600080fd5b6000819050919050565b61025f8161024c565b811461026a57600080fd5b50565b60008135905061027c81610256565b92915050565b60006020828403121561029857610297610247565b5b60006102a68482850161026d565b91505092915050565b600081519050919050565b600082825260208201905092915050565b60005b838110156102e95780820151818401526020810190506102ce565b838111156102f8576000848401525b50505050565b6000601f19601f8301169050919050565b600061031a826102af565b61032481856102ba565b93506103348185602086016102cb565b61033d816102fe565b840191505092915050565b60006020820190508181036000830152610362818461030f565b905092915050565b7f596f7520617265206e6f7420616c6c6f77656420746f2070617920666f72207460008201527f6865206369676172657474650000000000000000000000000000000000000000602082015250565b60006103c6602c836102ba565b91506103d18261036a565b604082019050919050565b600060208201905081810360008301526103f5816103b9565b9050919050565b7f6572726f72206d65737361676500000000000000000000000000000000000000600082015250565b6000610432600d836102ba565b915061043d826103fc565b602082019050919050565b6000602082019050818103600083015261046181610425565b905091905056fea264697066735822122073bdc68004923f52ec4803594d0103f6fb447cd016d164f04d11d79e4ba6324a64736f6c634300080c0033",
					"opcodes": "PUSH1 0x80 PUSH1 0x40 MSTORE CALLVALUE DUP1 ISZERO PUSH2 0x10 JUMPI PUSH1 0x0 DUP1 REVERT JUMPDEST POP PUSH2 0x49E DUP1 PUSH2 0x20 PUSH1 0x0 CODECOPY PUSH1 0x0 RETURN INVALID PUSH1 0x80 PUSH1 0x40 MSTORE CALLVALUE DUP1 ISZERO PUSH2 0x10 JUMPI PUSH1 0x0 DUP1 REVERT JUMPDEST POP PUSH1 0x4 CALLDATASIZE LT PUSH2 0x4B JUMPI PUSH1 0x0 CALLDATALOAD PUSH1 0xE0 SHR DUP1 PUSH3 0x746715 EQ PUSH2 0x50 JUMPI DUP1 PUSH4 0x844ADFD2 EQ PUSH2 0x80 JUMPI DUP1 PUSH4 0x9DE5B7D2 EQ PUSH2 0x8A JUMPI DUP1 PUSH4 0xAFE26609 EQ PUSH2 0xBA JUMPI JUMPDEST PUSH1 0x0 DUP1 REVERT JUMPDEST PUSH2 0x6A PUSH1 0x4 DUP1 CALLDATASIZE SUB DUP2 ADD SWAP1 PUSH2 0x65 SWAP2 SWAP1 PUSH2 0x282 JUMP JUMPDEST PUSH2 0xC4 JUMP JUMPDEST PUSH1 0x40 MLOAD PUSH2 0x77 SWAP2 SWAP1 PUSH2 0x348 JUMP JUMPDEST PUSH1 0x40 MLOAD DUP1 SWAP2 SUB SWAP1 RETURN JUMPDEST PUSH2 0x88 PUSH2 0x146 JUMP JUMPDEST STOP JUMPDEST PUSH2 0xA4 PUSH1 0x4 DUP1 CALLDATASIZE SUB DUP2 ADD SWAP1 PUSH2 0x9F SWAP2 SWAP1 PUSH2 0x282 JUMP JUMPDEST PUSH2 0x189 JUMP JUMPDEST PUSH1 0x40 MLOAD PUSH2 0xB1 SWAP2 SWAP1 PUSH2 0x348 JUMP JUMPDEST PUSH1 0x40 MLOAD DUP1 SWAP2 SUB SWAP1 RETURN JUMPDEST PUSH2 0xC2 PUSH2 0x20C JUMP JUMPDEST STOP JUMPDEST PUSH1 0x60 PUSH1 0x13 DUP3 GT PUSH2 0x109 JUMPI PUSH1 0x40 MLOAD PUSH32 0x8C379A000000000000000000000000000000000000000000000000000000000 DUP2 MSTORE PUSH1 0x4 ADD PUSH2 0x100 SWAP1 PUSH2 0x3DC JUMP JUMPDEST PUSH1 0x40 MLOAD DUP1 SWAP2 SUB SWAP1 REVERT JUMPDEST PUSH1 0x40 MLOAD DUP1 PUSH1 0x40 ADD PUSH1 0x40 MSTORE DUP1 PUSH1 0x19 DUP2 MSTORE PUSH1 0x20 ADD PUSH32 0x596F7572207061796D656E742069732073756363656564656400000000000000 DUP2 MSTORE POP SWAP1 POP SWAP2 SWAP1 POP JUMP JUMPDEST PUSH1 0x0 PUSH2 0x187 JUMPI PUSH1 0x40 MLOAD PUSH32 0x8C379A000000000000000000000000000000000000000000000000000000000 DUP2 MSTORE PUSH1 0x4 ADD PUSH2 0x17E SWAP1 PUSH2 0x448 JUMP JUMPDEST PUSH1 0x40 MLOAD DUP1 SWAP2 SUB SWAP1 REVERT JUMPDEST JUMP JUMPDEST PUSH1 0x60 PUSH1 0x13 DUP3 LT ISZERO PUSH2 0x1CF JUMPI PUSH1 0x40 MLOAD PUSH32 0x8C379A000000000000000000000000000000000000000000000000000000000 DUP2 MSTORE PUSH1 0x4 ADD PUSH2 0x1C6 SWAP1 PUSH2 0x3DC JUMP JUMPDEST PUSH1 0x40 MLOAD DUP1 SWAP2 SUB SWAP1 REVERT JUMPDEST PUSH1 0x40 MLOAD DUP1 PUSH1 0x40 ADD PUSH1 0x40 MSTORE DUP1 PUSH1 0x19 DUP2 MSTORE PUSH1 0x20 ADD PUSH32 0x596F7572207061796D656E742069732073756363656564656400000000000000 DUP2 MSTORE POP SWAP1 POP SWAP2 SWAP1 POP JUMP JUMPDEST PUSH1 0x40 MLOAD PUSH32 0x8C379A000000000000000000000000000000000000000000000000000000000 DUP2 MSTORE PUSH1 0x4 ADD PUSH2 0x23E SWAP1 PUSH2 0x448 JUMP JUMPDEST PUSH1 0x40 MLOAD DUP1 SWAP2 SUB SWAP1 REVERT JUMPDEST PUSH1 0x0 DUP1 REVERT JUMPDEST PUSH1 0x0 DUP2 SWAP1 POP SWAP2 SWAP1 POP JUMP JUMPDEST PUSH2 0x25F DUP2 PUSH2 0x24C JUMP JUMPDEST DUP2 EQ PUSH2 0x26A JUMPI PUSH1 0x0 DUP1 REVERT JUMPDEST POP JUMP JUMPDEST PUSH1 0x0 DUP2 CALLDATALOAD SWAP1 POP PUSH2 0x27C DUP2 PUSH2 0x256 JUMP JUMPDEST SWAP3 SWAP2 POP POP JUMP JUMPDEST PUSH1 0x0 PUSH1 0x20 DUP3 DUP5 SUB SLT ISZERO PUSH2 0x298 JUMPI PUSH2 0x297 PUSH2 0x247 JUMP JUMPDEST JUMPDEST PUSH1 0x0 PUSH2 0x2A6 DUP5 DUP3 DUP6 ADD PUSH2 0x26D JUMP JUMPDEST SWAP2 POP POP SWAP3 SWAP2 POP POP JUMP JUMPDEST PUSH1 0x0 DUP2 MLOAD SWAP1 POP SWAP2 SWAP1 POP JUMP JUMPDEST PUSH1 0x0 DUP3 DUP3 MSTORE PUSH1 0x20 DUP3 ADD SWAP1 POP SWAP3 SWAP2 POP POP JUMP JUMPDEST PUSH1 0x0 JUMPDEST DUP4 DUP2 LT ISZERO PUSH2 0x2E9 JUMPI DUP1 DUP3 ADD MLOAD DUP2 DUP5 ADD MSTORE PUSH1 0x20 DUP2 ADD SWAP1 POP PUSH2 0x2CE JUMP JUMPDEST DUP4 DUP2 GT ISZERO PUSH2 0x2F8 JUMPI PUSH1 0x0 DUP5 DUP5 ADD MSTORE JUMPDEST POP POP POP POP JUMP JUMPDEST PUSH1 0x0 PUSH1 0x1F NOT PUSH1 0x1F DUP4 ADD AND SWAP1 POP SWAP2 SWAP1 POP JUMP JUMPDEST PUSH1 0x0 PUSH2 0x31A DUP3 PUSH2 0x2AF JUMP JUMPDEST PUSH2 0x324 DUP2 DUP6 PUSH2 0x2BA JUMP JUMPDEST SWAP4 POP PUSH2 0x334 DUP2 DUP6 PUSH1 0x20 DUP7 ADD PUSH2 0x2CB JUMP JUMPDEST PUSH2 0x33D DUP2 PUSH2 0x2FE JUMP JUMPDEST DUP5 ADD SWAP2 POP POP SWAP3 SWAP2 POP POP JUMP JUMPDEST PUSH1 0x0 PUSH1 0x20 DUP3 ADD SWAP1 POP DUP2 DUP2 SUB PUSH1 0x0 DUP4 ADD MSTORE PUSH2 0x362 DUP2 DUP5 PUSH2 0x30F JUMP JUMPDEST SWAP1 POP SWAP3 SWAP2 POP POP JUMP JUMPDEST PUSH32 0x596F7520617265206E6F7420616C6C6F77656420746F2070617920666F722074 PUSH1 0x0 DUP3 ADD MSTORE PUSH32 0x6865206369676172657474650000000000000000000000000000000000000000 PUSH1 0x20 DUP3 ADD MSTORE POP JUMP JUMPDEST PUSH1 0x0 PUSH2 0x3C6 PUSH1 0x2C DUP4 PUSH2 0x2BA JUMP JUMPDEST SWAP2 POP PUSH2 0x3D1 DUP3 PUSH2 0x36A JUMP JUMPDEST PUSH1 0x40 DUP3 ADD SWAP1 POP SWAP2 SWAP1 POP JUMP JUMPDEST PUSH1 0x0 PUSH1 0x20 DUP3 ADD SWAP1 POP DUP2 DUP2 SUB PUSH1 0x0 DUP4 ADD MSTORE PUSH2 0x3F5 DUP2 PUSH2 0x3B9 JUMP JUMPDEST SWAP1 POP SWAP2 SWAP1 POP JUMP JUMPDEST PUSH32 0x6572726F72206D65737361676500000000000000000000000000000000000000 PUSH1 0x0 DUP3 ADD MSTORE POP JUMP JUMPDEST PUSH1 0x0 PUSH2 0x432 PUSH1 0xD DUP4 PUSH2 0x2BA JUMP JUMPDEST SWAP2 POP PUSH2 0x43D DUP3 PUSH2 0x3FC JUMP JUMPDEST PUSH1 0x20 DUP3 ADD SWAP1 POP SWAP2 SWAP1 POP JUMP JUMPDEST PUSH1 0x0 PUSH1 0x20 DUP3 ADD SWAP1 POP DUP2 DUP2 SUB PUSH1 0x0 DUP4 ADD MSTORE PUSH2 0x461 DUP2 PUSH2 0x425 JUMP JUMPDEST SWAP1 POP SWAP2 SWAP1 POP JUMP INVALID LOG2 PUSH5 0x6970667358 0x22 SLT KECCAK256 PUSH20 0xBDC68004923F52EC4803594D0103F6FB447CD016 0xD1 PUSH5 0xF04D11D79E 0x4B 0xA6 ORIGIN 0x4A PUSH5 0x736F6C6343 STOP ADDMOD 0xC STOP CALLER "
				},
				"gasEstimates": {
					"creation": {
						"codeDepositCost": "236400",
						"executionCost": "275",
						"totalCost": "236675"
					},
					"external": {
						"onlyAdults(uint256)": "infinite",
						"onlyAdults2(uint256)": "infinite",
						"requireNow()": "450",
						"revertNow()": "478"
					}
				},
				"methodIdentifiers": {
					"onlyAdults(uint256)": "9de5b7d2",
					"onlyAdults2(uint256)": "00746715",
					"requireNow()": "844adfd2",
					"revertNow()": "afe26609"
				}
			},
			"userdoc": {
				"kind": "user",
				"methods": {},
				"version": 1
			}
		}
	}
}