{
	"lecture/lec28.sol": {
		"runner": {
			"abi": [
				{
					"anonymous": false,
					"inputs": [
						{
							"indexed": false,
							"internalType": "string",
							"name": "_name",
							"type": "string"
						},
						{
							"indexed": false,
							"internalType": "string",
							"name": "_err",
							"type": "string"
						}
					],
					"name": "catchOnly",
					"type": "event"
				},
				{
					"inputs": [
						{
							"internalType": "string",
							"name": "_name",
							"type": "string"
						},
						{
							"internalType": "uint256",
							"name": "_power",
							"type": "uint256"
						}
					],
					"name": "playTryCatch",
					"outputs": [
						{
							"internalType": "bool",
							"name": "successOrFail",
							"type": "bool"
						}
					],
					"stateMutability": "nonpayable",
					"type": "function"
				}
			],
			"devdoc": {
				"kind": "dev",
				"methods": {},
				"version": 1
			},
			"evm": {
				"assembly": "    /* \"lecture/lec28.sol\":393:798  contract runner{\r... */\n  mstore(0x40, 0x80)\n  callvalue\n  dup1\n  iszero\n  tag_1\n  jumpi\n  0x00\n  dup1\n  revert\ntag_1:\n  pop\n  dataSize(sub_0)\n  dup1\n  dataOffset(sub_0)\n  0x00\n  codecopy\n  0x00\n  return\nstop\n\nsub_0: assembly {\n        /* \"lecture/lec28.sol\":393:798  contract runner{\r... */\n      mstore(0x40, 0x80)\n      callvalue\n      dup1\n      iszero\n      tag_1\n      jumpi\n      0x00\n      dup1\n      revert\n    tag_1:\n      pop\n      jumpi(tag_2, lt(calldatasize, 0x04))\n      shr(0xe0, calldataload(0x00))\n      dup1\n      0x447bce4a\n      eq\n      tag_3\n      jumpi\n    tag_2:\n      0x00\n      dup1\n      revert\n        /* \"lecture/lec28.sol\":466:795  function playTryCatch(string memory _name, uint256 _power) public returns(bool successOrFail){\r... */\n    tag_3:\n      tag_4\n      0x04\n      dup1\n      calldatasize\n      sub\n      dup2\n      add\n      swap1\n      tag_5\n      swap2\n      swap1\n      tag_6\n      jump\t// in\n    tag_5:\n      tag_7\n      jump\t// in\n    tag_4:\n      mload(0x40)\n      tag_8\n      swap2\n      swap1\n      tag_9\n      jump\t// in\n    tag_8:\n      mload(0x40)\n      dup1\n      swap2\n      sub\n      swap1\n      return\n    tag_7:\n        /* \"lecture/lec28.sol\":540:558  bool successOrFail */\n      0x00\n        /* \"lecture/lec28.sol\":570:609  revert(\"errors in the try/catch block\") */\n      mload(0x40)\n      0x08c379a000000000000000000000000000000000000000000000000000000000\n      dup2\n      mstore\n      0x04\n      add\n      tag_11\n      swap1\n      tag_12\n      jump\t// in\n    tag_11:\n      mload(0x40)\n      dup1\n      swap2\n      sub\n      swap1\n      revert\n        /* \"#utility.yul\":7:419   */\n    tag_26:\n        /* \"#utility.yul\":85:90   */\n      0x00\n        /* \"#utility.yul\":110:176   */\n      tag_28\n        /* \"#utility.yul\":126:175   */\n      tag_29\n        /* \"#utility.yul\":168:174   */\n      dup5\n        /* \"#utility.yul\":126:175   */\n      tag_30\n      jump\t// in\n    tag_29:\n        /* \"#utility.yul\":110:176   */\n      tag_31\n      jump\t// in\n    tag_28:\n        /* \"#utility.yul\":101:176   */\n      swap1\n      pop\n        /* \"#utility.yul\":199:205   */\n      dup3\n        /* \"#utility.yul\":192:197   */\n      dup2\n        /* \"#utility.yul\":185:206   */\n      mstore\n        /* \"#utility.yul\":237:241   */\n      0x20\n        /* \"#utility.yul\":230:235   */\n      dup2\n        /* \"#utility.yul\":226:242   */\n      add\n        /* \"#utility.yul\":275:278   */\n      dup5\n        /* \"#utility.yul\":266:272   */\n      dup5\n        /* \"#utility.yul\":261:264   */\n      dup5\n        /* \"#utility.yul\":257:273   */\n      add\n        /* \"#utility.yul\":254:279   */\n      gt\n        /* \"#utility.yul\":251:363   */\n      iszero\n      tag_32\n      jumpi\n        /* \"#utility.yul\":282:361   */\n      tag_33\n      tag_34\n      jump\t// in\n    tag_33:\n        /* \"#utility.yul\":251:363   */\n    tag_32:\n        /* \"#utility.yul\":372:413   */\n      tag_35\n        /* \"#utility.yul\":406:412   */\n      dup5\n        /* \"#utility.yul\":401:404   */\n      dup3\n        /* \"#utility.yul\":396:399   */\n      dup6\n        /* \"#utility.yul\":372:413   */\n      tag_36\n      jump\t// in\n    tag_35:\n        /* \"#utility.yul\":91:419   */\n      pop\n        /* \"#utility.yul\":7:419   */\n      swap4\n      swap3\n      pop\n      pop\n      pop\n      jump\t// out\n        /* \"#utility.yul\":439:779   */\n    tag_37:\n        /* \"#utility.yul\":495:500   */\n      0x00\n        /* \"#utility.yul\":544:547   */\n      dup3\n        /* \"#utility.yul\":537:541   */\n      0x1f\n        /* \"#utility.yul\":529:535   */\n      dup4\n        /* \"#utility.yul\":525:542   */\n      add\n        /* \"#utility.yul\":521:548   */\n      slt\n        /* \"#utility.yul\":511:633   */\n      tag_39\n      jumpi\n        /* \"#utility.yul\":552:631   */\n      tag_40\n      tag_41\n      jump\t// in\n    tag_40:\n        /* \"#utility.yul\":511:633   */\n    tag_39:\n        /* \"#utility.yul\":669:675   */\n      dup2\n        /* \"#utility.yul\":656:676   */\n      calldataload\n        /* \"#utility.yul\":694:773   */\n      tag_42\n        /* \"#utility.yul\":769:772   */\n      dup5\n        /* \"#utility.yul\":761:767   */\n      dup3\n        /* \"#utility.yul\":754:758   */\n      0x20\n        /* \"#utility.yul\":746:752   */\n      dup7\n        /* \"#utility.yul\":742:759   */\n      add\n        /* \"#utility.yul\":694:773   */\n      tag_26\n      jump\t// in\n    tag_42:\n        /* \"#utility.yul\":685:773   */\n      swap2\n      pop\n        /* \"#utility.yul\":501:779   */\n      pop\n        /* \"#utility.yul\":439:779   */\n      swap3\n      swap2\n      pop\n      pop\n      jump\t// out\n        /* \"#utility.yul\":785:924   */\n    tag_43:\n        /* \"#utility.yul\":831:836   */\n      0x00\n        /* \"#utility.yul\":869:875   */\n      dup2\n        /* \"#utility.yul\":856:876   */\n      calldataload\n        /* \"#utility.yul\":847:876   */\n      swap1\n      pop\n        /* \"#utility.yul\":885:918   */\n      tag_45\n        /* \"#utility.yul\":912:917   */\n      dup2\n        /* \"#utility.yul\":885:918   */\n      tag_46\n      jump\t// in\n    tag_45:\n        /* \"#utility.yul\":785:924   */\n      swap3\n      swap2\n      pop\n      pop\n      jump\t// out\n        /* \"#utility.yul\":930:1584   */\n    tag_6:\n        /* \"#utility.yul\":1008:1014   */\n      0x00\n        /* \"#utility.yul\":1016:1022   */\n      dup1\n        /* \"#utility.yul\":1065:1067   */\n      0x40\n        /* \"#utility.yul\":1053:1062   */\n      dup4\n        /* \"#utility.yul\":1044:1051   */\n      dup6\n        /* \"#utility.yul\":1040:1063   */\n      sub\n        /* \"#utility.yul\":1036:1068   */\n      slt\n        /* \"#utility.yul\":1033:1152   */\n      iszero\n      tag_48\n      jumpi\n        /* \"#utility.yul\":1071:1150   */\n      tag_49\n      tag_50\n      jump\t// in\n    tag_49:\n        /* \"#utility.yul\":1033:1152   */\n    tag_48:\n        /* \"#utility.yul\":1219:1220   */\n      0x00\n        /* \"#utility.yul\":1208:1217   */\n      dup4\n        /* \"#utility.yul\":1204:1221   */\n      add\n        /* \"#utility.yul\":1191:1222   */\n      calldataload\n        /* \"#utility.yul\":1249:1267   */\n      0xffffffffffffffff\n        /* \"#utility.yul\":1241:1247   */\n      dup2\n        /* \"#utility.yul\":1238:1268   */\n      gt\n        /* \"#utility.yul\":1235:1352   */\n      iszero\n      tag_51\n      jumpi\n        /* \"#utility.yul\":1271:1350   */\n      tag_52\n      tag_53\n      jump\t// in\n    tag_52:\n        /* \"#utility.yul\":1235:1352   */\n    tag_51:\n        /* \"#utility.yul\":1376:1439   */\n      tag_54\n        /* \"#utility.yul\":1431:1438   */\n      dup6\n        /* \"#utility.yul\":1422:1428   */\n      dup3\n        /* \"#utility.yul\":1411:1420   */\n      dup7\n        /* \"#utility.yul\":1407:1429   */\n      add\n        /* \"#utility.yul\":1376:1439   */\n      tag_37\n      jump\t// in\n    tag_54:\n        /* \"#utility.yul\":1366:1439   */\n      swap3\n      pop\n        /* \"#utility.yul\":1162:1449   */\n      pop\n        /* \"#utility.yul\":1488:1490   */\n      0x20\n        /* \"#utility.yul\":1514:1567   */\n      tag_55\n        /* \"#utility.yul\":1559:1566   */\n      dup6\n        /* \"#utility.yul\":1550:1556   */\n      dup3\n        /* \"#utility.yul\":1539:1548   */\n      dup7\n        /* \"#utility.yul\":1535:1557   */\n      add\n        /* \"#utility.yul\":1514:1567   */\n      tag_43\n      jump\t// in\n    tag_55:\n        /* \"#utility.yul\":1504:1567   */\n      swap2\n      pop\n        /* \"#utility.yul\":1459:1577   */\n      pop\n        /* \"#utility.yul\":930:1584   */\n      swap3\n      pop\n      swap3\n      swap1\n      pop\n      jump\t// out\n        /* \"#utility.yul\":1590:1699   */\n    tag_56:\n        /* \"#utility.yul\":1671:1692   */\n      tag_58\n        /* \"#utility.yul\":1686:1691   */\n      dup2\n        /* \"#utility.yul\":1671:1692   */\n      tag_59\n      jump\t// in\n    tag_58:\n        /* \"#utility.yul\":1666:1669   */\n      dup3\n        /* \"#utility.yul\":1659:1693   */\n      mstore\n        /* \"#utility.yul\":1590:1699   */\n      pop\n      pop\n      jump\t// out\n        /* \"#utility.yul\":2446:2812   */\n    tag_75:\n        /* \"#utility.yul\":2588:2591   */\n      0x00\n        /* \"#utility.yul\":2609:2676   */\n      tag_77\n        /* \"#utility.yul\":2673:2675   */\n      0x1d\n        /* \"#utility.yul\":2668:2671   */\n      dup4\n        /* \"#utility.yul\":2609:2676   */\n      tag_65\n      jump\t// in\n    tag_77:\n        /* \"#utility.yul\":2602:2676   */\n      swap2\n      pop\n        /* \"#utility.yul\":2685:2778   */\n      tag_78\n        /* \"#utility.yul\":2774:2777   */\n      dup3\n        /* \"#utility.yul\":2685:2778   */\n      tag_79\n      jump\t// in\n    tag_78:\n        /* \"#utility.yul\":2803:2805   */\n      0x20\n        /* \"#utility.yul\":2798:2801   */\n      dup3\n        /* \"#utility.yul\":2794:2806   */\n      add\n        /* \"#utility.yul\":2787:2806   */\n      swap1\n      pop\n        /* \"#utility.yul\":2446:2812   */\n      swap2\n      swap1\n      pop\n      jump\t// out\n        /* \"#utility.yul\":3313:3523   */\n    tag_9:\n        /* \"#utility.yul\":3400:3404   */\n      0x00\n        /* \"#utility.yul\":3438:3440   */\n      0x20\n        /* \"#utility.yul\":3427:3436   */\n      dup3\n        /* \"#utility.yul\":3423:3441   */\n      add\n        /* \"#utility.yul\":3415:3441   */\n      swap1\n      pop\n        /* \"#utility.yul\":3451:3516   */\n      tag_90\n        /* \"#utility.yul\":3513:3514   */\n      0x00\n        /* \"#utility.yul\":3502:3511   */\n      dup4\n        /* \"#utility.yul\":3498:3515   */\n      add\n        /* \"#utility.yul\":3489:3495   */\n      dup5\n        /* \"#utility.yul\":3451:3516   */\n      tag_56\n      jump\t// in\n    tag_90:\n        /* \"#utility.yul\":3313:3523   */\n      swap3\n      swap2\n      pop\n      pop\n      jump\t// out\n        /* \"#utility.yul\":3958:4377   */\n    tag_12:\n        /* \"#utility.yul\":4124:4128   */\n      0x00\n        /* \"#utility.yul\":4162:4164   */\n      0x20\n        /* \"#utility.yul\":4151:4160   */\n      dup3\n        /* \"#utility.yul\":4147:4165   */\n      add\n        /* \"#utility.yul\":4139:4165   */\n      swap1\n      pop\n        /* \"#utility.yul\":4211:4220   */\n      dup2\n        /* \"#utility.yul\":4205:4209   */\n      dup2\n        /* \"#utility.yul\":4201:4221   */\n      sub\n        /* \"#utility.yul\":4197:4198   */\n      0x00\n        /* \"#utility.yul\":4186:4195   */\n      dup4\n        /* \"#utility.yul\":4182:4199   */\n      add\n        /* \"#utility.yul\":4175:4222   */\n      mstore\n        /* \"#utility.yul\":4239:4370   */\n      tag_95\n        /* \"#utility.yul\":4365:4369   */\n      dup2\n        /* \"#utility.yul\":4239:4370   */\n      tag_75\n      jump\t// in\n    tag_95:\n        /* \"#utility.yul\":4231:4370   */\n      swap1\n      pop\n        /* \"#utility.yul\":3958:4377   */\n      swap2\n      swap1\n      pop\n      jump\t// out\n        /* \"#utility.yul\":5115:5244   */\n    tag_31:\n        /* \"#utility.yul\":5149:5155   */\n      0x00\n        /* \"#utility.yul\":5176:5196   */\n      tag_100\n      tag_101\n      jump\t// in\n    tag_100:\n        /* \"#utility.yul\":5166:5196   */\n      swap1\n      pop\n        /* \"#utility.yul\":5205:5238   */\n      tag_102\n        /* \"#utility.yul\":5233:5237   */\n      dup3\n        /* \"#utility.yul\":5225:5231   */\n      dup3\n        /* \"#utility.yul\":5205:5238   */\n      tag_103\n      jump\t// in\n    tag_102:\n        /* \"#utility.yul\":5115:5244   */\n      swap2\n      swap1\n      pop\n      jump\t// out\n        /* \"#utility.yul\":5250:5325   */\n    tag_101:\n        /* \"#utility.yul\":5283:5289   */\n      0x00\n        /* \"#utility.yul\":5316:5318   */\n      0x40\n        /* \"#utility.yul\":5310:5319   */\n      mload\n        /* \"#utility.yul\":5300:5319   */\n      swap1\n      pop\n        /* \"#utility.yul\":5250:5325   */\n      swap1\n      jump\t// out\n        /* \"#utility.yul\":5331:5639   */\n    tag_30:\n        /* \"#utility.yul\":5393:5397   */\n      0x00\n        /* \"#utility.yul\":5483:5501   */\n      0xffffffffffffffff\n        /* \"#utility.yul\":5475:5481   */\n      dup3\n        /* \"#utility.yul\":5472:5502   */\n      gt\n        /* \"#utility.yul\":5469:5525   */\n      iszero\n      tag_106\n      jumpi\n        /* \"#utility.yul\":5505:5523   */\n      tag_107\n      tag_108\n      jump\t// in\n    tag_107:\n        /* \"#utility.yul\":5469:5525   */\n    tag_106:\n        /* \"#utility.yul\":5543:5572   */\n      tag_109\n        /* \"#utility.yul\":5565:5571   */\n      dup3\n        /* \"#utility.yul\":5543:5572   */\n      tag_69\n      jump\t// in\n    tag_109:\n        /* \"#utility.yul\":5535:5572   */\n      swap1\n      pop\n        /* \"#utility.yul\":5627:5631   */\n      0x20\n        /* \"#utility.yul\":5621:5625   */\n      dup2\n        /* \"#utility.yul\":5617:5632   */\n      add\n        /* \"#utility.yul\":5609:5632   */\n      swap1\n      pop\n        /* \"#utility.yul\":5331:5639   */\n      swap2\n      swap1\n      pop\n      jump\t// out\n        /* \"#utility.yul\":5750:5919   */\n    tag_65:\n        /* \"#utility.yul\":5834:5845   */\n      0x00\n        /* \"#utility.yul\":5868:5874   */\n      dup3\n        /* \"#utility.yul\":5863:5866   */\n      dup3\n        /* \"#utility.yul\":5856:5875   */\n      mstore\n        /* \"#utility.yul\":5908:5912   */\n      0x20\n        /* \"#utility.yul\":5903:5906   */\n      dup3\n        /* \"#utility.yul\":5899:5913   */\n      add\n        /* \"#utility.yul\":5884:5913   */\n      swap1\n      pop\n        /* \"#utility.yul\":5750:5919   */\n      swap3\n      swap2\n      pop\n      pop\n      jump\t// out\n        /* \"#utility.yul\":5925:6015   */\n    tag_59:\n        /* \"#utility.yul\":5959:5966   */\n      0x00\n        /* \"#utility.yul\":6002:6007   */\n      dup2\n        /* \"#utility.yul\":5995:6008   */\n      iszero\n        /* \"#utility.yul\":5988:6009   */\n      iszero\n        /* \"#utility.yul\":5977:6009   */\n      swap1\n      pop\n        /* \"#utility.yul\":5925:6015   */\n      swap2\n      swap1\n      pop\n      jump\t// out\n        /* \"#utility.yul\":6021:6098   */\n    tag_88:\n        /* \"#utility.yul\":6058:6065   */\n      0x00\n        /* \"#utility.yul\":6087:6092   */\n      dup2\n        /* \"#utility.yul\":6076:6092   */\n      swap1\n      pop\n        /* \"#utility.yul\":6021:6098   */\n      swap2\n      swap1\n      pop\n      jump\t// out\n        /* \"#utility.yul\":6104:6258   */\n    tag_36:\n        /* \"#utility.yul\":6188:6194   */\n      dup3\n        /* \"#utility.yul\":6183:6186   */\n      dup2\n        /* \"#utility.yul\":6178:6181   */\n      dup4\n        /* \"#utility.yul\":6165:6195   */\n      calldatacopy\n        /* \"#utility.yul\":6250:6251   */\n      0x00\n        /* \"#utility.yul\":6241:6247   */\n      dup4\n        /* \"#utility.yul\":6236:6239   */\n      dup4\n        /* \"#utility.yul\":6232:6248   */\n      add\n        /* \"#utility.yul\":6225:6252   */\n      mstore\n        /* \"#utility.yul\":6104:6258   */\n      pop\n      pop\n      pop\n      jump\t// out\n        /* \"#utility.yul\":6342:6455   */\n    tag_116:\n        /* \"#utility.yul\":6356:6362   */\n      dup4\n        /* \"#utility.yul\":6353:6354   */\n      dup2\n        /* \"#utility.yul\":6350:6363   */\n      lt\n        /* \"#utility.yul\":6342:6455   */\n      iszero\n      tag_118\n      jumpi\n        /* \"#utility.yul\":6441:6442   */\n      dup1\n        /* \"#utility.yul\":6436:6439   */\n      dup3\n        /* \"#utility.yul\":6432:6443   */\n      add\n        /* \"#utility.yul\":6426:6444   */\n      mload\n        /* \"#utility.yul\":6422:6423   */\n      dup2\n        /* \"#utility.yul\":6417:6420   */\n      dup5\n        /* \"#utility.yul\":6413:6424   */\n      add\n        /* \"#utility.yul\":6406:6445   */\n      mstore\n        /* \"#utility.yul\":6378:6380   */\n      0x20\n        /* \"#utility.yul\":6375:6376   */\n      dup2\n        /* \"#utility.yul\":6371:6381   */\n      add\n        /* \"#utility.yul\":6366:6381   */\n      swap1\n      pop\n        /* \"#utility.yul\":6342:6455   */\n      jump(tag_116)\n    tag_118:\n        /* \"#utility.yul\":6473:6479   */\n      dup4\n        /* \"#utility.yul\":6470:6471   */\n      dup2\n        /* \"#utility.yul\":6467:6480   */\n      gt\n        /* \"#utility.yul\":6464:6565   */\n      iszero\n      tag_119\n      jumpi\n        /* \"#utility.yul\":6553:6554   */\n      0x00\n        /* \"#utility.yul\":6544:6550   */\n      dup5\n        /* \"#utility.yul\":6539:6542   */\n      dup5\n        /* \"#utility.yul\":6535:6551   */\n      add\n        /* \"#utility.yul\":6528:6555   */\n      mstore\n        /* \"#utility.yul\":6464:6565   */\n    tag_119:\n        /* \"#utility.yul\":6313:6571   */\n      pop\n        /* \"#utility.yul\":6264:6571   */\n      pop\n      pop\n      pop\n      jump\t// out\n        /* \"#utility.yul\":6577:6858   */\n    tag_103:\n        /* \"#utility.yul\":6660:6687   */\n      tag_121\n        /* \"#utility.yul\":6682:6686   */\n      dup3\n        /* \"#utility.yul\":6660:6687   */\n      tag_69\n      jump\t// in\n    tag_121:\n        /* \"#utility.yul\":6652:6658   */\n      dup2\n        /* \"#utility.yul\":6648:6688   */\n      add\n        /* \"#utility.yul\":6790:6796   */\n      dup2\n        /* \"#utility.yul\":6778:6788   */\n      dup2\n        /* \"#utility.yul\":6775:6797   */\n      lt\n        /* \"#utility.yul\":6754:6772   */\n      0xffffffffffffffff\n        /* \"#utility.yul\":6742:6752   */\n      dup3\n        /* \"#utility.yul\":6739:6773   */\n      gt\n        /* \"#utility.yul\":6736:6798   */\n      or\n        /* \"#utility.yul\":6733:6821   */\n      iszero\n      tag_122\n      jumpi\n        /* \"#utility.yul\":6801:6819   */\n      tag_123\n      tag_108\n      jump\t// in\n    tag_123:\n        /* \"#utility.yul\":6733:6821   */\n    tag_122:\n        /* \"#utility.yul\":6841:6851   */\n      dup1\n        /* \"#utility.yul\":6837:6839   */\n      0x40\n        /* \"#utility.yul\":6830:6852   */\n      mstore\n        /* \"#utility.yul\":6620:6858   */\n      pop\n        /* \"#utility.yul\":6577:6858   */\n      pop\n      pop\n      jump\t// out\n        /* \"#utility.yul\":6864:7044   */\n    tag_108:\n        /* \"#utility.yul\":6912:6989   */\n      0x4e487b7100000000000000000000000000000000000000000000000000000000\n        /* \"#utility.yul\":6909:6910   */\n      0x00\n        /* \"#utility.yul\":6902:6990   */\n      mstore\n        /* \"#utility.yul\":7009:7013   */\n      0x41\n        /* \"#utility.yul\":7006:7007   */\n      0x04\n        /* \"#utility.yul\":6999:7014   */\n      mstore\n        /* \"#utility.yul\":7033:7037   */\n      0x24\n        /* \"#utility.yul\":7030:7031   */\n      0x00\n        /* \"#utility.yul\":7023:7038   */\n      revert\n        /* \"#utility.yul\":7050:7167   */\n    tag_41:\n        /* \"#utility.yul\":7159:7160   */\n      0x00\n        /* \"#utility.yul\":7156:7157   */\n      dup1\n        /* \"#utility.yul\":7149:7161   */\n      revert\n        /* \"#utility.yul\":7173:7290   */\n    tag_34:\n        /* \"#utility.yul\":7282:7283   */\n      0x00\n        /* \"#utility.yul\":7279:7280   */\n      dup1\n        /* \"#utility.yul\":7272:7284   */\n      revert\n        /* \"#utility.yul\":7296:7413   */\n    tag_53:\n        /* \"#utility.yul\":7405:7406   */\n      0x00\n        /* \"#utility.yul\":7402:7403   */\n      dup1\n        /* \"#utility.yul\":7395:7407   */\n      revert\n        /* \"#utility.yul\":7419:7536   */\n    tag_50:\n        /* \"#utility.yul\":7528:7529   */\n      0x00\n        /* \"#utility.yul\":7525:7526   */\n      dup1\n        /* \"#utility.yul\":7518:7530   */\n      revert\n        /* \"#utility.yul\":7542:7644   */\n    tag_69:\n        /* \"#utility.yul\":7583:7589   */\n      0x00\n        /* \"#utility.yul\":7634:7636   */\n      0x1f\n        /* \"#utility.yul\":7630:7637   */\n      not\n        /* \"#utility.yul\":7625:7627   */\n      0x1f\n        /* \"#utility.yul\":7618:7623   */\n      dup4\n        /* \"#utility.yul\":7614:7628   */\n      add\n        /* \"#utility.yul\":7610:7638   */\n      and\n        /* \"#utility.yul\":7600:7638   */\n      swap1\n      pop\n        /* \"#utility.yul\":7542:7644   */\n      swap2\n      swap1\n      pop\n      jump\t// out\n        /* \"#utility.yul\":7814:7993   */\n    tag_79:\n        /* \"#utility.yul\":7954:7985   */\n      0x6572726f727320696e20746865207472792f636174636820626c6f636b000000\n        /* \"#utility.yul\":7950:7951   */\n      0x00\n        /* \"#utility.yul\":7942:7948   */\n      dup3\n        /* \"#utility.yul\":7938:7952   */\n      add\n        /* \"#utility.yul\":7931:7986   */\n      mstore\n        /* \"#utility.yul\":7814:7993   */\n      pop\n      jump\t// out\n        /* \"#utility.yul\":8160:8282   */\n    tag_46:\n        /* \"#utility.yul\":8233:8257   */\n      tag_134\n        /* \"#utility.yul\":8251:8256   */\n      dup2\n        /* \"#utility.yul\":8233:8257   */\n      tag_88\n      jump\t// in\n    tag_134:\n        /* \"#utility.yul\":8226:8231   */\n      dup2\n        /* \"#utility.yul\":8223:8258   */\n      eq\n        /* \"#utility.yul\":8213:8276   */\n      tag_135\n      jumpi\n        /* \"#utility.yul\":8272:8273   */\n      0x00\n        /* \"#utility.yul\":8269:8270   */\n      dup1\n        /* \"#utility.yul\":8262:8274   */\n      revert\n        /* \"#utility.yul\":8213:8276   */\n    tag_135:\n        /* \"#utility.yul\":8160:8282   */\n      pop\n      jump\t// out\n    stop\n\n    sub_0: assembly {\n            /* \"lecture/lec28.sol\":138:389  contract character{\r... */\n          mstore(0x40, 0x80)\n            /* \"lecture/lec28.sol\":219:386  constructor(string memory _name, uint256 _power){\r... */\n          callvalue\n          dup1\n          iszero\n          tag_1\n          jumpi\n          0x00\n          dup1\n          revert\n        tag_1:\n          pop\n          mload(0x40)\n          sub(codesize, bytecodeSize)\n          dup1\n          bytecodeSize\n          dup4\n          codecopy\n          dup2\n          dup2\n          add\n          0x40\n          mstore\n          dup2\n          add\n          swap1\n          tag_2\n          swap2\n          swap1\n          tag_3\n          jump\t// in\n        tag_2:\n            /* \"lecture/lec28.sol\":278:293  revert(\"error\") */\n          mload(0x40)\n          0x08c379a000000000000000000000000000000000000000000000000000000000\n          dup2\n          mstore\n          0x04\n          add\n          tag_6\n          swap1\n          tag_7\n          jump\t// in\n        tag_6:\n          mload(0x40)\n          dup1\n          swap2\n          sub\n          swap1\n          revert\n            /* \"lecture/lec28.sol\":138:389  contract character{\r... */\n        tag_16:\n          dup3\n          dup2\n          gt\n          iszero\n          tag_17\n          jumpi\n          dup3\n          mload\n          dup3\n          sstore\n          swap2\n          0x20\n          add\n          swap2\n          swap1\n          0x01\n          add\n          swap1\n          jump(tag_16)\n        tag_17:\n          pop\n          swap1\n          pop\n          tag_18\n          swap2\n          swap1\n          tag_19\n          jump\t// in\n        tag_18:\n          pop\n          swap1\n          jump\t// out\n        tag_19:\n        tag_20:\n          dup1\n          dup3\n          gt\n          iszero\n          tag_21\n          jumpi\n          0x00\n          dup2\n          0x00\n          swap1\n          sstore\n          pop\n          0x01\n          add\n          jump(tag_20)\n        tag_21:\n          pop\n          swap1\n          jump\t// out\n            /* \"#utility.yul\":7:428   */\n        tag_23:\n            /* \"#utility.yul\":96:101   */\n          0x00\n            /* \"#utility.yul\":121:187   */\n          tag_25\n            /* \"#utility.yul\":137:186   */\n          tag_26\n            /* \"#utility.yul\":179:185   */\n          dup5\n            /* \"#utility.yul\":137:186   */\n          tag_27\n          jump\t// in\n        tag_26:\n            /* \"#utility.yul\":121:187   */\n          tag_28\n          jump\t// in\n        tag_25:\n            /* \"#utility.yul\":112:187   */\n          swap1\n          pop\n            /* \"#utility.yul\":210:216   */\n          dup3\n            /* \"#utility.yul\":203:208   */\n          dup2\n            /* \"#utility.yul\":196:217   */\n          mstore\n            /* \"#utility.yul\":248:252   */\n          0x20\n            /* \"#utility.yul\":241:246   */\n          dup2\n            /* \"#utility.yul\":237:253   */\n          add\n            /* \"#utility.yul\":286:289   */\n          dup5\n            /* \"#utility.yul\":277:283   */\n          dup5\n            /* \"#utility.yul\":272:275   */\n          dup5\n            /* \"#utility.yul\":268:284   */\n          add\n            /* \"#utility.yul\":265:290   */\n          gt\n            /* \"#utility.yul\":262:374   */\n          iszero\n          tag_29\n          jumpi\n            /* \"#utility.yul\":293:372   */\n          tag_30\n          tag_31\n          jump\t// in\n        tag_30:\n            /* \"#utility.yul\":262:374   */\n        tag_29:\n            /* \"#utility.yul\":383:422   */\n          tag_32\n            /* \"#utility.yul\":415:421   */\n          dup5\n            /* \"#utility.yul\":410:413   */\n          dup3\n            /* \"#utility.yul\":405:408   */\n          dup6\n            /* \"#utility.yul\":383:422   */\n          tag_33\n          jump\t// in\n        tag_32:\n            /* \"#utility.yul\":102:428   */\n          pop\n            /* \"#utility.yul\":7:428   */\n          swap4\n          swap3\n          pop\n          pop\n          pop\n          jump\t// out\n            /* \"#utility.yul\":448:803   */\n        tag_34:\n            /* \"#utility.yul\":515:520   */\n          0x00\n            /* \"#utility.yul\":564:567   */\n          dup3\n            /* \"#utility.yul\":557:561   */\n          0x1f\n            /* \"#utility.yul\":549:555   */\n          dup4\n            /* \"#utility.yul\":545:562   */\n          add\n            /* \"#utility.yul\":541:568   */\n          slt\n            /* \"#utility.yul\":531:653   */\n          tag_36\n          jumpi\n            /* \"#utility.yul\":572:651   */\n          tag_37\n          tag_38\n          jump\t// in\n        tag_37:\n            /* \"#utility.yul\":531:653   */\n        tag_36:\n            /* \"#utility.yul\":682:688   */\n          dup2\n            /* \"#utility.yul\":676:689   */\n          mload\n            /* \"#utility.yul\":707:797   */\n          tag_39\n            /* \"#utility.yul\":793:796   */\n          dup5\n            /* \"#utility.yul\":785:791   */\n          dup3\n            /* \"#utility.yul\":778:782   */\n          0x20\n            /* \"#utility.yul\":770:776   */\n          dup7\n            /* \"#utility.yul\":766:783   */\n          add\n            /* \"#utility.yul\":707:797   */\n          tag_23\n          jump\t// in\n        tag_39:\n            /* \"#utility.yul\":698:797   */\n          swap2\n          pop\n            /* \"#utility.yul\":521:803   */\n          pop\n            /* \"#utility.yul\":448:803   */\n          swap3\n          swap2\n          pop\n          pop\n          jump\t// out\n            /* \"#utility.yul\":809:952   */\n        tag_40:\n            /* \"#utility.yul\":866:871   */\n          0x00\n            /* \"#utility.yul\":897:903   */\n          dup2\n            /* \"#utility.yul\":891:904   */\n          mload\n            /* \"#utility.yul\":882:904   */\n          swap1\n          pop\n            /* \"#utility.yul\":913:946   */\n          tag_42\n            /* \"#utility.yul\":940:945   */\n          dup2\n            /* \"#utility.yul\":913:946   */\n          tag_43\n          jump\t// in\n        tag_42:\n            /* \"#utility.yul\":809:952   */\n          swap3\n          swap2\n          pop\n          pop\n          jump\t// out\n            /* \"#utility.yul\":958:1638   */\n        tag_3:\n            /* \"#utility.yul\":1047:1053   */\n          0x00\n            /* \"#utility.yul\":1055:1061   */\n          dup1\n            /* \"#utility.yul\":1104:1106   */\n          0x40\n            /* \"#utility.yul\":1092:1101   */\n          dup4\n            /* \"#utility.yul\":1083:1090   */\n          dup6\n            /* \"#utility.yul\":1079:1102   */\n          sub\n            /* \"#utility.yul\":1075:1107   */\n          slt\n            /* \"#utility.yul\":1072:1191   */\n          iszero\n          tag_45\n          jumpi\n            /* \"#utility.yul\":1110:1189   */\n          tag_46\n          tag_47\n          jump\t// in\n        tag_46:\n            /* \"#utility.yul\":1072:1191   */\n        tag_45:\n            /* \"#utility.yul\":1251:1252   */\n          0x00\n            /* \"#utility.yul\":1240:1249   */\n          dup4\n            /* \"#utility.yul\":1236:1253   */\n          add\n            /* \"#utility.yul\":1230:1254   */\n          mload\n            /* \"#utility.yul\":1281:1299   */\n          0xffffffffffffffff\n            /* \"#utility.yul\":1273:1279   */\n          dup2\n            /* \"#utility.yul\":1270:1300   */\n          gt\n            /* \"#utility.yul\":1267:1384   */\n          iszero\n          tag_48\n          jumpi\n            /* \"#utility.yul\":1303:1382   */\n          tag_49\n          tag_50\n          jump\t// in\n        tag_49:\n            /* \"#utility.yul\":1267:1384   */\n        tag_48:\n            /* \"#utility.yul\":1408:1482   */\n          tag_51\n            /* \"#utility.yul\":1474:1481   */\n          dup6\n            /* \"#utility.yul\":1465:1471   */\n          dup3\n            /* \"#utility.yul\":1454:1463   */\n          dup7\n            /* \"#utility.yul\":1450:1472   */\n          add\n            /* \"#utility.yul\":1408:1482   */\n          tag_34\n          jump\t// in\n        tag_51:\n            /* \"#utility.yul\":1398:1482   */\n          swap3\n          pop\n            /* \"#utility.yul\":1201:1492   */\n          pop\n            /* \"#utility.yul\":1531:1533   */\n          0x20\n            /* \"#utility.yul\":1557:1621   */\n          tag_52\n            /* \"#utility.yul\":1613:1620   */\n          dup6\n            /* \"#utility.yul\":1604:1610   */\n          dup3\n            /* \"#utility.yul\":1593:1602   */\n          dup7\n            /* \"#utility.yul\":1589:1611   */\n          add\n            /* \"#utility.yul\":1557:1621   */\n          tag_40\n          jump\t// in\n        tag_52:\n            /* \"#utility.yul\":1547:1621   */\n          swap2\n          pop\n            /* \"#utility.yul\":1502:1631   */\n          pop\n            /* \"#utility.yul\":958:1638   */\n          swap3\n          pop\n          swap3\n          swap1\n          pop\n          jump\t// out\n            /* \"#utility.yul\":1644:2009   */\n        tag_53:\n            /* \"#utility.yul\":1786:1789   */\n          0x00\n            /* \"#utility.yul\":1807:1873   */\n          tag_55\n            /* \"#utility.yul\":1871:1872   */\n          0x05\n            /* \"#utility.yul\":1866:1869   */\n          dup4\n            /* \"#utility.yul\":1807:1873   */\n          tag_56\n          jump\t// in\n        tag_55:\n            /* \"#utility.yul\":1800:1873   */\n          swap2\n          pop\n            /* \"#utility.yul\":1882:1975   */\n          tag_57\n            /* \"#utility.yul\":1971:1974   */\n          dup3\n            /* \"#utility.yul\":1882:1975   */\n          tag_58\n          jump\t// in\n        tag_57:\n            /* \"#utility.yul\":2000:2002   */\n          0x20\n            /* \"#utility.yul\":1995:1998   */\n          dup3\n            /* \"#utility.yul\":1991:2003   */\n          add\n            /* \"#utility.yul\":1984:2003   */\n          swap1\n          pop\n            /* \"#utility.yul\":1644:2009   */\n          swap2\n          swap1\n          pop\n          jump\t// out\n            /* \"#utility.yul\":2015:2434   */\n        tag_7:\n            /* \"#utility.yul\":2181:2185   */\n          0x00\n            /* \"#utility.yul\":2219:2221   */\n          0x20\n            /* \"#utility.yul\":2208:2217   */\n          dup3\n            /* \"#utility.yul\":2204:2222   */\n          add\n            /* \"#utility.yul\":2196:2222   */\n          swap1\n          pop\n            /* \"#utility.yul\":2268:2277   */\n          dup2\n            /* \"#utility.yul\":2262:2266   */\n          dup2\n            /* \"#utility.yul\":2258:2278   */\n          sub\n            /* \"#utility.yul\":2254:2255   */\n          0x00\n            /* \"#utility.yul\":2243:2252   */\n          dup4\n            /* \"#utility.yul\":2239:2256   */\n          add\n            /* \"#utility.yul\":2232:2279   */\n          mstore\n            /* \"#utility.yul\":2296:2427   */\n          tag_60\n            /* \"#utility.yul\":2422:2426   */\n          dup2\n            /* \"#utility.yul\":2296:2427   */\n          tag_53\n          jump\t// in\n        tag_60:\n            /* \"#utility.yul\":2288:2427   */\n          swap1\n          pop\n            /* \"#utility.yul\":2015:2434   */\n          swap2\n          swap1\n          pop\n          jump\t// out\n            /* \"#utility.yul\":2440:2569   */\n        tag_28:\n            /* \"#utility.yul\":2474:2480   */\n          0x00\n            /* \"#utility.yul\":2501:2521   */\n          tag_62\n          tag_63\n          jump\t// in\n        tag_62:\n            /* \"#utility.yul\":2491:2521   */\n          swap1\n          pop\n            /* \"#utility.yul\":2530:2563   */\n          tag_64\n            /* \"#utility.yul\":2558:2562   */\n          dup3\n            /* \"#utility.yul\":2550:2556   */\n          dup3\n            /* \"#utility.yul\":2530:2563   */\n          tag_65\n          jump\t// in\n        tag_64:\n            /* \"#utility.yul\":2440:2569   */\n          swap2\n          swap1\n          pop\n          jump\t// out\n            /* \"#utility.yul\":2575:2650   */\n        tag_63:\n            /* \"#utility.yul\":2608:2614   */\n          0x00\n            /* \"#utility.yul\":2641:2643   */\n          0x40\n            /* \"#utility.yul\":2635:2644   */\n          mload\n            /* \"#utility.yul\":2625:2644   */\n          swap1\n          pop\n            /* \"#utility.yul\":2575:2650   */\n          swap1\n          jump\t// out\n            /* \"#utility.yul\":2656:2964   */\n        tag_27:\n            /* \"#utility.yul\":2718:2722   */\n          0x00\n            /* \"#utility.yul\":2808:2826   */\n          0xffffffffffffffff\n            /* \"#utility.yul\":2800:2806   */\n          dup3\n            /* \"#utility.yul\":2797:2827   */\n          gt\n            /* \"#utility.yul\":2794:2850   */\n          iszero\n          tag_68\n          jumpi\n            /* \"#utility.yul\":2830:2848   */\n          tag_69\n          tag_70\n          jump\t// in\n        tag_69:\n            /* \"#utility.yul\":2794:2850   */\n        tag_68:\n            /* \"#utility.yul\":2868:2897   */\n          tag_71\n            /* \"#utility.yul\":2890:2896   */\n          dup3\n            /* \"#utility.yul\":2868:2897   */\n          tag_72\n          jump\t// in\n        tag_71:\n            /* \"#utility.yul\":2860:2897   */\n          swap1\n          pop\n            /* \"#utility.yul\":2952:2956   */\n          0x20\n            /* \"#utility.yul\":2946:2950   */\n          dup2\n            /* \"#utility.yul\":2942:2957   */\n          add\n            /* \"#utility.yul\":2934:2957   */\n          swap1\n          pop\n            /* \"#utility.yul\":2656:2964   */\n          swap2\n          swap1\n          pop\n          jump\t// out\n            /* \"#utility.yul\":2970:3139   */\n        tag_56:\n            /* \"#utility.yul\":3054:3065   */\n          0x00\n            /* \"#utility.yul\":3088:3094   */\n          dup3\n            /* \"#utility.yul\":3083:3086   */\n          dup3\n            /* \"#utility.yul\":3076:3095   */\n          mstore\n            /* \"#utility.yul\":3128:3132   */\n          0x20\n            /* \"#utility.yul\":3123:3126   */\n          dup3\n            /* \"#utility.yul\":3119:3133   */\n          add\n            /* \"#utility.yul\":3104:3133   */\n          swap1\n          pop\n            /* \"#utility.yul\":2970:3139   */\n          swap3\n          swap2\n          pop\n          pop\n          jump\t// out\n            /* \"#utility.yul\":3145:3222   */\n        tag_74:\n            /* \"#utility.yul\":3182:3189   */\n          0x00\n            /* \"#utility.yul\":3211:3216   */\n          dup2\n            /* \"#utility.yul\":3200:3216   */\n          swap1\n          pop\n            /* \"#utility.yul\":3145:3222   */\n          swap2\n          swap1\n          pop\n          jump\t// out\n            /* \"#utility.yul\":3228:3535   */\n        tag_33:\n            /* \"#utility.yul\":3296:3297   */\n          0x00\n            /* \"#utility.yul\":3306:3419   */\n        tag_77:\n            /* \"#utility.yul\":3320:3326   */\n          dup4\n            /* \"#utility.yul\":3317:3318   */\n          dup2\n            /* \"#utility.yul\":3314:3327   */\n          lt\n            /* \"#utility.yul\":3306:3419   */\n          iszero\n          tag_79\n          jumpi\n            /* \"#utility.yul\":3405:3406   */\n          dup1\n            /* \"#utility.yul\":3400:3403   */\n          dup3\n            /* \"#utility.yul\":3396:3407   */\n          add\n            /* \"#utility.yul\":3390:3408   */\n          mload\n            /* \"#utility.yul\":3386:3387   */\n          dup2\n            /* \"#utility.yul\":3381:3384   */\n          dup5\n            /* \"#utility.yul\":3377:3388   */\n          add\n            /* \"#utility.yul\":3370:3409   */\n          mstore\n            /* \"#utility.yul\":3342:3344   */\n          0x20\n            /* \"#utility.yul\":3339:3340   */\n          dup2\n            /* \"#utility.yul\":3335:3345   */\n          add\n            /* \"#utility.yul\":3330:3345   */\n          swap1\n          pop\n            /* \"#utility.yul\":3306:3419   */\n          jump(tag_77)\n        tag_79:\n            /* \"#utility.yul\":3437:3443   */\n          dup4\n            /* \"#utility.yul\":3434:3435   */\n          dup2\n            /* \"#utility.yul\":3431:3444   */\n          gt\n            /* \"#utility.yul\":3428:3529   */\n          iszero\n          tag_80\n          jumpi\n            /* \"#utility.yul\":3517:3518   */\n          0x00\n            /* \"#utility.yul\":3508:3514   */\n          dup5\n            /* \"#utility.yul\":3503:3506   */\n          dup5\n            /* \"#utility.yul\":3499:3515   */\n          add\n            /* \"#utility.yul\":3492:3519   */\n          mstore\n            /* \"#utility.yul\":3428:3529   */\n        tag_80:\n            /* \"#utility.yul\":3277:3535   */\n          pop\n            /* \"#utility.yul\":3228:3535   */\n          pop\n          pop\n          pop\n          jump\t// out\n            /* \"#utility.yul\":3867:4148   */\n        tag_65:\n            /* \"#utility.yul\":3950:3977   */\n          tag_87\n            /* \"#utility.yul\":3972:3976   */\n          dup3\n            /* \"#utility.yul\":3950:3977   */\n          tag_72\n          jump\t// in\n        tag_87:\n            /* \"#utility.yul\":3942:3948   */\n          dup2\n            /* \"#utility.yul\":3938:3978   */\n          add\n            /* \"#utility.yul\":4080:4086   */\n          dup2\n            /* \"#utility.yul\":4068:4078   */\n          dup2\n            /* \"#utility.yul\":4065:4087   */\n          lt\n            /* \"#utility.yul\":4044:4062   */\n          0xffffffffffffffff\n            /* \"#utility.yul\":4032:4042   */\n          dup3\n            /* \"#utility.yul\":4029:4063   */\n          gt\n            /* \"#utility.yul\":4026:4088   */\n          or\n            /* \"#utility.yul\":4023:4111   */\n          iszero\n          tag_88\n          jumpi\n            /* \"#utility.yul\":4091:4109   */\n          tag_89\n          tag_70\n          jump\t// in\n        tag_89:\n            /* \"#utility.yul\":4023:4111   */\n        tag_88:\n            /* \"#utility.yul\":4131:4141   */\n          dup1\n            /* \"#utility.yul\":4127:4129   */\n          0x40\n            /* \"#utility.yul\":4120:4142   */\n          mstore\n            /* \"#utility.yul\":3910:4148   */\n          pop\n            /* \"#utility.yul\":3867:4148   */\n          pop\n          pop\n          jump\t// out\n            /* \"#utility.yul\":4340:4520   */\n        tag_70:\n            /* \"#utility.yul\":4388:4465   */\n          0x4e487b7100000000000000000000000000000000000000000000000000000000\n            /* \"#utility.yul\":4385:4386   */\n          0x00\n            /* \"#utility.yul\":4378:4466   */\n          mstore\n            /* \"#utility.yul\":4485:4489   */\n          0x41\n            /* \"#utility.yul\":4482:4483   */\n          0x04\n            /* \"#utility.yul\":4475:4490   */\n          mstore\n            /* \"#utility.yul\":4509:4513   */\n          0x24\n            /* \"#utility.yul\":4506:4507   */\n          0x00\n            /* \"#utility.yul\":4499:4514   */\n          revert\n            /* \"#utility.yul\":4526:4643   */\n        tag_38:\n            /* \"#utility.yul\":4635:4636   */\n          0x00\n            /* \"#utility.yul\":4632:4633   */\n          dup1\n            /* \"#utility.yul\":4625:4637   */\n          revert\n            /* \"#utility.yul\":4649:4766   */\n        tag_31:\n            /* \"#utility.yul\":4758:4759   */\n          0x00\n            /* \"#utility.yul\":4755:4756   */\n          dup1\n            /* \"#utility.yul\":4748:4760   */\n          revert\n            /* \"#utility.yul\":4772:4889   */\n        tag_50:\n            /* \"#utility.yul\":4881:4882   */\n          0x00\n            /* \"#utility.yul\":4878:4879   */\n          dup1\n            /* \"#utility.yul\":4871:4883   */\n          revert\n            /* \"#utility.yul\":4895:5012   */\n        tag_47:\n            /* \"#utility.yul\":5004:5005   */\n          0x00\n            /* \"#utility.yul\":5001:5002   */\n          dup1\n            /* \"#utility.yul\":4994:5006   */\n          revert\n            /* \"#utility.yul\":5018:5120   */\n        tag_72:\n            /* \"#utility.yul\":5059:5065   */\n          0x00\n            /* \"#utility.yul\":5110:5112   */\n          0x1f\n            /* \"#utility.yul\":5106:5113   */\n          not\n            /* \"#utility.yul\":5101:5103   */\n          0x1f\n            /* \"#utility.yul\":5094:5099   */\n          dup4\n            /* \"#utility.yul\":5090:5104   */\n          add\n            /* \"#utility.yul\":5086:5114   */\n          and\n            /* \"#utility.yul\":5076:5114   */\n          swap1\n          pop\n            /* \"#utility.yul\":5018:5120   */\n          swap2\n          swap1\n          pop\n          jump\t// out\n            /* \"#utility.yul\":5126:5281   */\n        tag_58:\n            /* \"#utility.yul\":5266:5273   */\n          0x6572726f72000000000000000000000000000000000000000000000000000000\n            /* \"#utility.yul\":5262:5263   */\n          0x00\n            /* \"#utility.yul\":5254:5260   */\n          dup3\n            /* \"#utility.yul\":5250:5264   */\n          add\n            /* \"#utility.yul\":5243:5274   */\n          mstore\n            /* \"#utility.yul\":5126:5281   */\n          pop\n          jump\t// out\n            /* \"#utility.yul\":5287:5409   */\n        tag_43:\n            /* \"#utility.yul\":5360:5384   */\n          tag_99\n            /* \"#utility.yul\":5378:5383   */\n          dup2\n            /* \"#utility.yul\":5360:5384   */\n          tag_74\n          jump\t// in\n        tag_99:\n            /* \"#utility.yul\":5353:5358   */\n          dup2\n            /* \"#utility.yul\":5350:5385   */\n          eq\n            /* \"#utility.yul\":5340:5403   */\n          tag_100\n          jumpi\n            /* \"#utility.yul\":5399:5400   */\n          0x00\n            /* \"#utility.yul\":5396:5397   */\n          dup1\n            /* \"#utility.yul\":5389:5401   */\n          revert\n            /* \"#utility.yul\":5340:5403   */\n        tag_100:\n            /* \"#utility.yul\":5287:5409   */\n          pop\n          jump\t// out\n        stop\n\n        sub_0: assembly {\n                /* \"lecture/lec28.sol\":138:389  contract character{\r... */\n              mstore(0x40, 0x80)\n              0x00\n              dup1\n              revert\n\n            auxdata: 0xa264697066735822122076fa60eb08b2b3d6263d34d0fe310f792bde79da4bf1c7d03652f9df86a1d95b64736f6c63430008070033\n        }\n    }\n\n    auxdata: 0xa264697066735822122019d7aeb819f992fbdef69dab2fe30f39839e8e8b78a6da0d1c1ec893b9909e9564736f6c63430008070033\n}\n",
				"bytecode": {
					"linkReferences": {},
					"object": "608060405234801561001057600080fd5b506103a2806100206000396000f3fe608060405234801561001057600080fd5b506004361061002b5760003560e01c8063447bce4a14610030575b600080fd5b61004a60048036038101906100459190610122565b610060565b60405161005791906101b0565b60405180910390f35b60006040517f08c379a0000000000000000000000000000000000000000000000000000000008152600401610094906101cb565b60405180910390fd5b60006100b06100ab84610210565b6101eb565b9050828152602081018484840111156100cc576100cb61030c565b5b6100d7848285610268565b509392505050565b600082601f8301126100f4576100f3610307565b5b813561010484826020860161009d565b91505092915050565b60008135905061011c81610355565b92915050565b6000806040838503121561013957610138610316565b5b600083013567ffffffffffffffff81111561015757610156610311565b5b610163858286016100df565b92505060206101748582860161010d565b9150509250929050565b61018781610252565b82525050565b600061019a601d83610241565b91506101a58261032c565b602082019050919050565b60006020820190506101c5600083018461017e565b92915050565b600060208201905081810360008301526101e48161018d565b9050919050565b60006101f5610206565b905061020182826102a7565b919050565b6000604051905090565b600067ffffffffffffffff82111561022b5761022a6102d8565b5b6102348261031b565b9050602081019050919050565b600082825260208201905092915050565b60008115159050919050565b6000819050919050565b82818337600083830152505050565b83811015610292578082015181840152602081019050610277565b838111156102a1576000848401525b50505050565b6102b08261031b565b810181811067ffffffffffffffff821117156102cf576102ce6102d8565b5b80604052505050565b7f4e487b7100000000000000000000000000000000000000000000000000000000600052604160045260246000fd5b600080fd5b600080fd5b600080fd5b600080fd5b6000601f19601f8301169050919050565b7f6572726f727320696e20746865207472792f636174636820626c6f636b000000600082015250565b61035e8161025e565b811461036957600080fd5b5056fea264697066735822122019d7aeb819f992fbdef69dab2fe30f39839e8e8b78a6da0d1c1ec893b9909e9564736f6c63430008070033",
					"opcodes": "PUSH1 0x80 PUSH1 0x40 MSTORE CALLVALUE DUP1 ISZERO PUSH2 0x10 JUMPI PUSH1 0x0 DUP1 REVERT JUMPDEST POP PUSH2 0x3A2 DUP1 PUSH2 0x20 PUSH1 0x0 CODECOPY PUSH1 0x0 RETURN INVALID PUSH1 0x80 PUSH1 0x40 MSTORE CALLVALUE DUP1 ISZERO PUSH2 0x10 JUMPI PUSH1 0x0 DUP1 REVERT JUMPDEST POP PUSH1 0x4 CALLDATASIZE LT PUSH2 0x2B JUMPI PUSH1 0x0 CALLDATALOAD PUSH1 0xE0 SHR DUP1 PUSH4 0x447BCE4A EQ PUSH2 0x30 JUMPI JUMPDEST PUSH1 0x0 DUP1 REVERT JUMPDEST PUSH2 0x4A PUSH1 0x4 DUP1 CALLDATASIZE SUB DUP2 ADD SWAP1 PUSH2 0x45 SWAP2 SWAP1 PUSH2 0x122 JUMP JUMPDEST PUSH2 0x60 JUMP JUMPDEST PUSH1 0x40 MLOAD PUSH2 0x57 SWAP2 SWAP1 PUSH2 0x1B0 JUMP JUMPDEST PUSH1 0x40 MLOAD DUP1 SWAP2 SUB SWAP1 RETURN JUMPDEST PUSH1 0x0 PUSH1 0x40 MLOAD PUSH32 0x8C379A000000000000000000000000000000000000000000000000000000000 DUP2 MSTORE PUSH1 0x4 ADD PUSH2 0x94 SWAP1 PUSH2 0x1CB JUMP JUMPDEST PUSH1 0x40 MLOAD DUP1 SWAP2 SUB SWAP1 REVERT JUMPDEST PUSH1 0x0 PUSH2 0xB0 PUSH2 0xAB DUP5 PUSH2 0x210 JUMP JUMPDEST PUSH2 0x1EB JUMP JUMPDEST SWAP1 POP DUP3 DUP2 MSTORE PUSH1 0x20 DUP2 ADD DUP5 DUP5 DUP5 ADD GT ISZERO PUSH2 0xCC JUMPI PUSH2 0xCB PUSH2 0x30C JUMP JUMPDEST JUMPDEST PUSH2 0xD7 DUP5 DUP3 DUP6 PUSH2 0x268 JUMP JUMPDEST POP SWAP4 SWAP3 POP POP POP JUMP JUMPDEST PUSH1 0x0 DUP3 PUSH1 0x1F DUP4 ADD SLT PUSH2 0xF4 JUMPI PUSH2 0xF3 PUSH2 0x307 JUMP JUMPDEST JUMPDEST DUP2 CALLDATALOAD PUSH2 0x104 DUP5 DUP3 PUSH1 0x20 DUP7 ADD PUSH2 0x9D JUMP JUMPDEST SWAP2 POP POP SWAP3 SWAP2 POP POP JUMP JUMPDEST PUSH1 0x0 DUP2 CALLDATALOAD SWAP1 POP PUSH2 0x11C DUP2 PUSH2 0x355 JUMP JUMPDEST SWAP3 SWAP2 POP POP JUMP JUMPDEST PUSH1 0x0 DUP1 PUSH1 0x40 DUP4 DUP6 SUB SLT ISZERO PUSH2 0x139 JUMPI PUSH2 0x138 PUSH2 0x316 JUMP JUMPDEST JUMPDEST PUSH1 0x0 DUP4 ADD CALLDATALOAD PUSH8 0xFFFFFFFFFFFFFFFF DUP2 GT ISZERO PUSH2 0x157 JUMPI PUSH2 0x156 PUSH2 0x311 JUMP JUMPDEST JUMPDEST PUSH2 0x163 DUP6 DUP3 DUP7 ADD PUSH2 0xDF JUMP JUMPDEST SWAP3 POP POP PUSH1 0x20 PUSH2 0x174 DUP6 DUP3 DUP7 ADD PUSH2 0x10D JUMP JUMPDEST SWAP2 POP POP SWAP3 POP SWAP3 SWAP1 POP JUMP JUMPDEST PUSH2 0x187 DUP2 PUSH2 0x252 JUMP JUMPDEST DUP3 MSTORE POP POP JUMP JUMPDEST PUSH1 0x0 PUSH2 0x19A PUSH1 0x1D DUP4 PUSH2 0x241 JUMP JUMPDEST SWAP2 POP PUSH2 0x1A5 DUP3 PUSH2 0x32C JUMP JUMPDEST PUSH1 0x20 DUP3 ADD SWAP1 POP SWAP2 SWAP1 POP JUMP JUMPDEST PUSH1 0x0 PUSH1 0x20 DUP3 ADD SWAP1 POP PUSH2 0x1C5 PUSH1 0x0 DUP4 ADD DUP5 PUSH2 0x17E JUMP JUMPDEST SWAP3 SWAP2 POP POP JUMP JUMPDEST PUSH1 0x0 PUSH1 0x20 DUP3 ADD SWAP1 POP DUP2 DUP2 SUB PUSH1 0x0 DUP4 ADD MSTORE PUSH2 0x1E4 DUP2 PUSH2 0x18D JUMP JUMPDEST SWAP1 POP SWAP2 SWAP1 POP JUMP JUMPDEST PUSH1 0x0 PUSH2 0x1F5 PUSH2 0x206 JUMP JUMPDEST SWAP1 POP PUSH2 0x201 DUP3 DUP3 PUSH2 0x2A7 JUMP JUMPDEST SWAP2 SWAP1 POP JUMP JUMPDEST PUSH1 0x0 PUSH1 0x40 MLOAD SWAP1 POP SWAP1 JUMP JUMPDEST PUSH1 0x0 PUSH8 0xFFFFFFFFFFFFFFFF DUP3 GT ISZERO PUSH2 0x22B JUMPI PUSH2 0x22A PUSH2 0x2D8 JUMP JUMPDEST JUMPDEST PUSH2 0x234 DUP3 PUSH2 0x31B JUMP JUMPDEST SWAP1 POP PUSH1 0x20 DUP2 ADD SWAP1 POP SWAP2 SWAP1 POP JUMP JUMPDEST PUSH1 0x0 DUP3 DUP3 MSTORE PUSH1 0x20 DUP3 ADD SWAP1 POP SWAP3 SWAP2 POP POP JUMP JUMPDEST PUSH1 0x0 DUP2 ISZERO ISZERO SWAP1 POP SWAP2 SWAP1 POP JUMP JUMPDEST PUSH1 0x0 DUP2 SWAP1 POP SWAP2 SWAP1 POP JUMP JUMPDEST DUP3 DUP2 DUP4 CALLDATACOPY PUSH1 0x0 DUP4 DUP4 ADD MSTORE POP POP POP JUMP JUMPDEST DUP4 DUP2 LT ISZERO PUSH2 0x292 JUMPI DUP1 DUP3 ADD MLOAD DUP2 DUP5 ADD MSTORE PUSH1 0x20 DUP2 ADD SWAP1 POP PUSH2 0x277 JUMP JUMPDEST DUP4 DUP2 GT ISZERO PUSH2 0x2A1 JUMPI PUSH1 0x0 DUP5 DUP5 ADD MSTORE JUMPDEST POP POP POP POP JUMP JUMPDEST PUSH2 0x2B0 DUP3 PUSH2 0x31B JUMP JUMPDEST DUP2 ADD DUP2 DUP2 LT PUSH8 0xFFFFFFFFFFFFFFFF DUP3 GT OR ISZERO PUSH2 0x2CF JUMPI PUSH2 0x2CE PUSH2 0x2D8 JUMP JUMPDEST JUMPDEST DUP1 PUSH1 0x40 MSTORE POP POP POP JUMP JUMPDEST PUSH32 0x4E487B7100000000000000000000000000000000000000000000000000000000 PUSH1 0x0 MSTORE PUSH1 0x41 PUSH1 0x4 MSTORE PUSH1 0x24 PUSH1 0x0 REVERT JUMPDEST PUSH1 0x0 DUP1 REVERT JUMPDEST PUSH1 0x0 DUP1 REVERT JUMPDEST PUSH1 0x0 DUP1 REVERT JUMPDEST PUSH1 0x0 DUP1 REVERT JUMPDEST PUSH1 0x0 PUSH1 0x1F NOT PUSH1 0x1F DUP4 ADD AND SWAP1 POP SWAP2 SWAP1 POP JUMP JUMPDEST PUSH32 0x6572726F727320696E20746865207472792F636174636820626C6F636B000000 PUSH1 0x0 DUP3 ADD MSTORE POP JUMP JUMPDEST PUSH2 0x35E DUP2 PUSH2 0x25E JUMP JUMPDEST DUP2 EQ PUSH2 0x369 JUMPI PUSH1 0x0 DUP1 REVERT JUMPDEST POP JUMP INVALID LOG2 PUSH5 0x6970667358 0x22 SLT KECCAK256 NOT 0xD7 0xAE 0xB8 NOT 0xF9 SWAP3 0xFB 0xDE 0xF6 SWAP14 0xAB 0x2F 0xE3 0xF CODECOPY DUP4 SWAP15 DUP15 DUP12 PUSH25 0xA6DA0D1C1EC893B9909E9564736F6C63430008070033000000 "
				},
				"gasEstimates": {
					"creation": {
						"codeDepositCost": "186000",
						"executionCost": "232",
						"totalCost": "186232"
					},
					"external": {
						"playTryCatch(string,uint256)": "infinite"
					}
				},
				"methodIdentifiers": {
					"playTryCatch(string,uint256)": "447bce4a"
				}
			},
			"userdoc": {
				"kind": "user",
				"methods": {},
				"version": 1
			}
		}
	}
}