{
	"lecture/lec27.sol": {
		"math": {
			"abi": [
				{
					"inputs": [
						{
							"internalType": "uint256",
							"name": "_num1",
							"type": "uint256"
						},
						{
							"internalType": "uint256",
							"name": "_num2",
							"type": "uint256"
						}
					],
					"name": "division",
					"outputs": [
						{
							"internalType": "uint256",
							"name": "",
							"type": "uint256"
						}
					],
					"stateMutability": "pure",
					"type": "function"
				}
			],
			"devdoc": {
				"kind": "dev",
				"methods": {},
				"version": 1
			},
			"evm": {
				"assembly": "    /* \"lecture/lec27.sol\":2765:2968  contract math{\r... */\n  mstore(0x40, 0x80)\n  callvalue\n  dup1\n  iszero\n  tag_1\n  jumpi\n  0x00\n  dup1\n  revert\ntag_1:\n  pop\n  dataSize(sub_0)\n  dup1\n  dataOffset(sub_0)\n  0x00\n  codecopy\n  0x00\n  return\nstop\n\nsub_0: assembly {\n        /* \"lecture/lec27.sol\":2765:2968  contract math{\r... */\n      mstore(0x40, 0x80)\n      callvalue\n      dup1\n      iszero\n      tag_1\n      jumpi\n      0x00\n      dup1\n      revert\n    tag_1:\n      pop\n      jumpi(tag_2, lt(calldatasize, 0x04))\n      shr(0xe0, calldataload(0x00))\n      dup1\n      0xe0068052\n      eq\n      tag_3\n      jumpi\n    tag_2:\n      0x00\n      dup1\n      revert\n        /* \"lecture/lec27.sol\":2787:2965  function division(uint256 _num1, uint256 _num2) public pure returns(uint256){\r... */\n    tag_3:\n      tag_4\n      0x04\n      dup1\n      calldatasize\n      sub\n      dup2\n      add\n      swap1\n      tag_5\n      swap2\n      swap1\n      tag_6\n      jump\t// in\n    tag_5:\n      tag_7\n      jump\t// in\n    tag_4:\n      mload(0x40)\n      tag_8\n      swap2\n      swap1\n      tag_9\n      jump\t// in\n    tag_8:\n      mload(0x40)\n      dup1\n      swap2\n      sub\n      swap1\n      return\n    tag_7:\n        /* \"lecture/lec27.sol\":2855:2862  uint256 */\n      0x00\n        /* \"lecture/lec27.sol\":2890:2892  10 */\n      0x0a\n        /* \"lecture/lec27.sol\":2882:2887  _num1 */\n      dup4\n        /* \"lecture/lec27.sol\":2882:2892  _num1 < 10 */\n      lt\n        /* \"lecture/lec27.sol\":2874:2928  require(_num1 < 10, \"num1 should not be more than 10\") */\n      tag_11\n      jumpi\n      mload(0x40)\n      0x08c379a000000000000000000000000000000000000000000000000000000000\n      dup2\n      mstore\n      0x04\n      add\n      tag_12\n      swap1\n      tag_13\n      jump\t// in\n    tag_12:\n      mload(0x40)\n      dup1\n      swap2\n      sub\n      swap1\n      revert\n    tag_11:\n        /* \"lecture/lec27.sol\":2952:2957  _num1 */\n      dup3\n        /* \"lecture/lec27.sol\":2946:2951  _num1 */\n      dup4\n        /* \"lecture/lec27.sol\":2946:2957  _num1/_num1 */\n      tag_14\n      swap2\n      swap1\n      tag_15\n      jump\t// in\n    tag_14:\n        /* \"lecture/lec27.sol\":2939:2957  return _num1/_num1 */\n      swap1\n      pop\n        /* \"lecture/lec27.sol\":2787:2965  function division(uint256 _num1, uint256 _num2) public pure returns(uint256){\r... */\n      swap3\n      swap2\n      pop\n      pop\n      jump\t// out\n        /* \"#utility.yul\":7:146   */\n    tag_17:\n        /* \"#utility.yul\":53:58   */\n      0x00\n        /* \"#utility.yul\":91:97   */\n      dup2\n        /* \"#utility.yul\":78:98   */\n      calldataload\n        /* \"#utility.yul\":69:98   */\n      swap1\n      pop\n        /* \"#utility.yul\":107:140   */\n      tag_19\n        /* \"#utility.yul\":134:139   */\n      dup2\n        /* \"#utility.yul\":107:140   */\n      tag_20\n      jump\t// in\n    tag_19:\n        /* \"#utility.yul\":7:146   */\n      swap3\n      swap2\n      pop\n      pop\n      jump\t// out\n        /* \"#utility.yul\":152:626   */\n    tag_6:\n        /* \"#utility.yul\":220:226   */\n      0x00\n        /* \"#utility.yul\":228:234   */\n      dup1\n        /* \"#utility.yul\":277:279   */\n      0x40\n        /* \"#utility.yul\":265:274   */\n      dup4\n        /* \"#utility.yul\":256:263   */\n      dup6\n        /* \"#utility.yul\":252:275   */\n      sub\n        /* \"#utility.yul\":248:280   */\n      slt\n        /* \"#utility.yul\":245:364   */\n      iszero\n      tag_22\n      jumpi\n        /* \"#utility.yul\":283:362   */\n      tag_23\n      tag_24\n      jump\t// in\n    tag_23:\n        /* \"#utility.yul\":245:364   */\n    tag_22:\n        /* \"#utility.yul\":403:404   */\n      0x00\n        /* \"#utility.yul\":428:481   */\n      tag_25\n        /* \"#utility.yul\":473:480   */\n      dup6\n        /* \"#utility.yul\":464:470   */\n      dup3\n        /* \"#utility.yul\":453:462   */\n      dup7\n        /* \"#utility.yul\":449:471   */\n      add\n        /* \"#utility.yul\":428:481   */\n      tag_17\n      jump\t// in\n    tag_25:\n        /* \"#utility.yul\":418:481   */\n      swap3\n      pop\n        /* \"#utility.yul\":374:491   */\n      pop\n        /* \"#utility.yul\":530:532   */\n      0x20\n        /* \"#utility.yul\":556:609   */\n      tag_26\n        /* \"#utility.yul\":601:608   */\n      dup6\n        /* \"#utility.yul\":592:598   */\n      dup3\n        /* \"#utility.yul\":581:590   */\n      dup7\n        /* \"#utility.yul\":577:599   */\n      add\n        /* \"#utility.yul\":556:609   */\n      tag_17\n      jump\t// in\n    tag_26:\n        /* \"#utility.yul\":546:609   */\n      swap2\n      pop\n        /* \"#utility.yul\":501:619   */\n      pop\n        /* \"#utility.yul\":152:626   */\n      swap3\n      pop\n      swap3\n      swap1\n      pop\n      jump\t// out\n        /* \"#utility.yul\":632:998   */\n    tag_27:\n        /* \"#utility.yul\":774:777   */\n      0x00\n        /* \"#utility.yul\":795:862   */\n      tag_29\n        /* \"#utility.yul\":859:861   */\n      0x1f\n        /* \"#utility.yul\":854:857   */\n      dup4\n        /* \"#utility.yul\":795:862   */\n      tag_30\n      jump\t// in\n    tag_29:\n        /* \"#utility.yul\":788:862   */\n      swap2\n      pop\n        /* \"#utility.yul\":871:964   */\n      tag_31\n        /* \"#utility.yul\":960:963   */\n      dup3\n        /* \"#utility.yul\":871:964   */\n      tag_32\n      jump\t// in\n    tag_31:\n        /* \"#utility.yul\":989:991   */\n      0x20\n        /* \"#utility.yul\":984:987   */\n      dup3\n        /* \"#utility.yul\":980:992   */\n      add\n        /* \"#utility.yul\":973:992   */\n      swap1\n      pop\n        /* \"#utility.yul\":632:998   */\n      swap2\n      swap1\n      pop\n      jump\t// out\n        /* \"#utility.yul\":1004:1122   */\n    tag_33:\n        /* \"#utility.yul\":1091:1115   */\n      tag_35\n        /* \"#utility.yul\":1109:1114   */\n      dup2\n        /* \"#utility.yul\":1091:1115   */\n      tag_36\n      jump\t// in\n    tag_35:\n        /* \"#utility.yul\":1086:1089   */\n      dup3\n        /* \"#utility.yul\":1079:1116   */\n      mstore\n        /* \"#utility.yul\":1004:1122   */\n      pop\n      pop\n      jump\t// out\n        /* \"#utility.yul\":1128:1547   */\n    tag_13:\n        /* \"#utility.yul\":1294:1298   */\n      0x00\n        /* \"#utility.yul\":1332:1334   */\n      0x20\n        /* \"#utility.yul\":1321:1330   */\n      dup3\n        /* \"#utility.yul\":1317:1335   */\n      add\n        /* \"#utility.yul\":1309:1335   */\n      swap1\n      pop\n        /* \"#utility.yul\":1381:1390   */\n      dup2\n        /* \"#utility.yul\":1375:1379   */\n      dup2\n        /* \"#utility.yul\":1371:1391   */\n      sub\n        /* \"#utility.yul\":1367:1368   */\n      0x00\n        /* \"#utility.yul\":1356:1365   */\n      dup4\n        /* \"#utility.yul\":1352:1369   */\n      add\n        /* \"#utility.yul\":1345:1392   */\n      mstore\n        /* \"#utility.yul\":1409:1540   */\n      tag_38\n        /* \"#utility.yul\":1535:1539   */\n      dup2\n        /* \"#utility.yul\":1409:1540   */\n      tag_27\n      jump\t// in\n    tag_38:\n        /* \"#utility.yul\":1401:1540   */\n      swap1\n      pop\n        /* \"#utility.yul\":1128:1547   */\n      swap2\n      swap1\n      pop\n      jump\t// out\n        /* \"#utility.yul\":1553:1775   */\n    tag_9:\n        /* \"#utility.yul\":1646:1650   */\n      0x00\n        /* \"#utility.yul\":1684:1686   */\n      0x20\n        /* \"#utility.yul\":1673:1682   */\n      dup3\n        /* \"#utility.yul\":1669:1687   */\n      add\n        /* \"#utility.yul\":1661:1687   */\n      swap1\n      pop\n        /* \"#utility.yul\":1697:1768   */\n      tag_40\n        /* \"#utility.yul\":1765:1766   */\n      0x00\n        /* \"#utility.yul\":1754:1763   */\n      dup4\n        /* \"#utility.yul\":1750:1767   */\n      add\n        /* \"#utility.yul\":1741:1747   */\n      dup5\n        /* \"#utility.yul\":1697:1768   */\n      tag_33\n      jump\t// in\n    tag_40:\n        /* \"#utility.yul\":1553:1775   */\n      swap3\n      swap2\n      pop\n      pop\n      jump\t// out\n        /* \"#utility.yul\":1862:2031   */\n    tag_30:\n        /* \"#utility.yul\":1946:1957   */\n      0x00\n        /* \"#utility.yul\":1980:1986   */\n      dup3\n        /* \"#utility.yul\":1975:1978   */\n      dup3\n        /* \"#utility.yul\":1968:1987   */\n      mstore\n        /* \"#utility.yul\":2020:2024   */\n      0x20\n        /* \"#utility.yul\":2015:2018   */\n      dup3\n        /* \"#utility.yul\":2011:2025   */\n      add\n        /* \"#utility.yul\":1996:2025   */\n      swap1\n      pop\n        /* \"#utility.yul\":1862:2031   */\n      swap3\n      swap2\n      pop\n      pop\n      jump\t// out\n        /* \"#utility.yul\":2037:2222   */\n    tag_15:\n        /* \"#utility.yul\":2077:2078   */\n      0x00\n        /* \"#utility.yul\":2094:2114   */\n      tag_45\n        /* \"#utility.yul\":2112:2113   */\n      dup3\n        /* \"#utility.yul\":2094:2114   */\n      tag_36\n      jump\t// in\n    tag_45:\n        /* \"#utility.yul\":2089:2114   */\n      swap2\n      pop\n        /* \"#utility.yul\":2128:2148   */\n      tag_46\n        /* \"#utility.yul\":2146:2147   */\n      dup4\n        /* \"#utility.yul\":2128:2148   */\n      tag_36\n      jump\t// in\n    tag_46:\n        /* \"#utility.yul\":2123:2148   */\n      swap3\n      pop\n        /* \"#utility.yul\":2167:2168   */\n      dup3\n        /* \"#utility.yul\":2157:2192   */\n      tag_47\n      jumpi\n        /* \"#utility.yul\":2172:2190   */\n      tag_48\n      tag_49\n      jump\t// in\n    tag_48:\n        /* \"#utility.yul\":2157:2192   */\n    tag_47:\n        /* \"#utility.yul\":2214:2215   */\n      dup3\n        /* \"#utility.yul\":2211:2212   */\n      dup3\n        /* \"#utility.yul\":2207:2216   */\n      div\n        /* \"#utility.yul\":2202:2216   */\n      swap1\n      pop\n        /* \"#utility.yul\":2037:2222   */\n      swap3\n      swap2\n      pop\n      pop\n      jump\t// out\n        /* \"#utility.yul\":2228:2305   */\n    tag_36:\n        /* \"#utility.yul\":2265:2272   */\n      0x00\n        /* \"#utility.yul\":2294:2299   */\n      dup2\n        /* \"#utility.yul\":2283:2299   */\n      swap1\n      pop\n        /* \"#utility.yul\":2228:2305   */\n      swap2\n      swap1\n      pop\n      jump\t// out\n        /* \"#utility.yul\":2497:2677   */\n    tag_49:\n        /* \"#utility.yul\":2545:2622   */\n      0x4e487b7100000000000000000000000000000000000000000000000000000000\n        /* \"#utility.yul\":2542:2543   */\n      0x00\n        /* \"#utility.yul\":2535:2623   */\n      mstore\n        /* \"#utility.yul\":2642:2646   */\n      0x12\n        /* \"#utility.yul\":2639:2640   */\n      0x04\n        /* \"#utility.yul\":2632:2647   */\n      mstore\n        /* \"#utility.yul\":2666:2670   */\n      0x24\n        /* \"#utility.yul\":2663:2664   */\n      0x00\n        /* \"#utility.yul\":2656:2671   */\n      revert\n        /* \"#utility.yul\":2806:2923   */\n    tag_24:\n        /* \"#utility.yul\":2915:2916   */\n      0x00\n        /* \"#utility.yul\":2912:2913   */\n      dup1\n        /* \"#utility.yul\":2905:2917   */\n      revert\n        /* \"#utility.yul\":2929:3110   */\n    tag_32:\n        /* \"#utility.yul\":3069:3102   */\n      0x6e756d312073686f756c64206e6f74206265206d6f7265207468616e20313000\n        /* \"#utility.yul\":3065:3066   */\n      0x00\n        /* \"#utility.yul\":3057:3063   */\n      dup3\n        /* \"#utility.yul\":3053:3067   */\n      add\n        /* \"#utility.yul\":3046:3103   */\n      mstore\n        /* \"#utility.yul\":2929:3110   */\n      pop\n      jump\t// out\n        /* \"#utility.yul\":3116:3238   */\n    tag_20:\n        /* \"#utility.yul\":3189:3213   */\n      tag_59\n        /* \"#utility.yul\":3207:3212   */\n      dup2\n        /* \"#utility.yul\":3189:3213   */\n      tag_36\n      jump\t// in\n    tag_59:\n        /* \"#utility.yul\":3182:3187   */\n      dup2\n        /* \"#utility.yul\":3179:3214   */\n      eq\n        /* \"#utility.yul\":3169:3232   */\n      tag_60\n      jumpi\n        /* \"#utility.yul\":3228:3229   */\n      0x00\n        /* \"#utility.yul\":3225:3226   */\n      dup1\n        /* \"#utility.yul\":3218:3230   */\n      revert\n        /* \"#utility.yul\":3169:3232   */\n    tag_60:\n        /* \"#utility.yul\":3116:3238   */\n      pop\n      jump\t// out\n\n    auxdata: 0xa2646970667358221220a24f4ec89f14c0f6463cfa865ab556ca8fa426211ec5a04a48d26c4b5295fc4a64736f6c63430008070033\n}\n",
				"bytecode": {
					"linkReferences": {},
					"object": "608060405234801561001057600080fd5b50610271806100206000396000f3fe608060405234801561001057600080fd5b506004361061002b5760003560e01c8063e006805214610030575b600080fd5b61004a600480360381019061004591906100ce565b610060565b6040516100579190610160565b60405180910390f35b6000600a83106100a5576040517f08c379a000000000000000000000000000000000000000000000000000000000815260040161009c90610140565b60405180910390fd5b82836100b1919061018c565b905092915050565b6000813590506100c881610224565b92915050565b600080604083850312156100e5576100e46101f6565b5b60006100f3858286016100b9565b9250506020610104858286016100b9565b9150509250929050565b600061011b601f8361017b565b9150610126826101fb565b602082019050919050565b61013a816101bd565b82525050565b600060208201905081810360008301526101598161010e565b9050919050565b60006020820190506101756000830184610131565b92915050565b600082825260208201905092915050565b6000610197826101bd565b91506101a2836101bd565b9250826101b2576101b16101c7565b5b828204905092915050565b6000819050919050565b7f4e487b7100000000000000000000000000000000000000000000000000000000600052601260045260246000fd5b600080fd5b7f6e756d312073686f756c64206e6f74206265206d6f7265207468616e20313000600082015250565b61022d816101bd565b811461023857600080fd5b5056fea2646970667358221220a24f4ec89f14c0f6463cfa865ab556ca8fa426211ec5a04a48d26c4b5295fc4a64736f6c63430008070033",
					"opcodes": "PUSH1 0x80 PUSH1 0x40 MSTORE CALLVALUE DUP1 ISZERO PUSH2 0x10 JUMPI PUSH1 0x0 DUP1 REVERT JUMPDEST POP PUSH2 0x271 DUP1 PUSH2 0x20 PUSH1 0x0 CODECOPY PUSH1 0x0 RETURN INVALID PUSH1 0x80 PUSH1 0x40 MSTORE CALLVALUE DUP1 ISZERO PUSH2 0x10 JUMPI PUSH1 0x0 DUP1 REVERT JUMPDEST POP PUSH1 0x4 CALLDATASIZE LT PUSH2 0x2B JUMPI PUSH1 0x0 CALLDATALOAD PUSH1 0xE0 SHR DUP1 PUSH4 0xE0068052 EQ PUSH2 0x30 JUMPI JUMPDEST PUSH1 0x0 DUP1 REVERT JUMPDEST PUSH2 0x4A PUSH1 0x4 DUP1 CALLDATASIZE SUB DUP2 ADD SWAP1 PUSH2 0x45 SWAP2 SWAP1 PUSH2 0xCE JUMP JUMPDEST PUSH2 0x60 JUMP JUMPDEST PUSH1 0x40 MLOAD PUSH2 0x57 SWAP2 SWAP1 PUSH2 0x160 JUMP JUMPDEST PUSH1 0x40 MLOAD DUP1 SWAP2 SUB SWAP1 RETURN JUMPDEST PUSH1 0x0 PUSH1 0xA DUP4 LT PUSH2 0xA5 JUMPI PUSH1 0x40 MLOAD PUSH32 0x8C379A000000000000000000000000000000000000000000000000000000000 DUP2 MSTORE PUSH1 0x4 ADD PUSH2 0x9C SWAP1 PUSH2 0x140 JUMP JUMPDEST PUSH1 0x40 MLOAD DUP1 SWAP2 SUB SWAP1 REVERT JUMPDEST DUP3 DUP4 PUSH2 0xB1 SWAP2 SWAP1 PUSH2 0x18C JUMP JUMPDEST SWAP1 POP SWAP3 SWAP2 POP POP JUMP JUMPDEST PUSH1 0x0 DUP2 CALLDATALOAD SWAP1 POP PUSH2 0xC8 DUP2 PUSH2 0x224 JUMP JUMPDEST SWAP3 SWAP2 POP POP JUMP JUMPDEST PUSH1 0x0 DUP1 PUSH1 0x40 DUP4 DUP6 SUB SLT ISZERO PUSH2 0xE5 JUMPI PUSH2 0xE4 PUSH2 0x1F6 JUMP JUMPDEST JUMPDEST PUSH1 0x0 PUSH2 0xF3 DUP6 DUP3 DUP7 ADD PUSH2 0xB9 JUMP JUMPDEST SWAP3 POP POP PUSH1 0x20 PUSH2 0x104 DUP6 DUP3 DUP7 ADD PUSH2 0xB9 JUMP JUMPDEST SWAP2 POP POP SWAP3 POP SWAP3 SWAP1 POP JUMP JUMPDEST PUSH1 0x0 PUSH2 0x11B PUSH1 0x1F DUP4 PUSH2 0x17B JUMP JUMPDEST SWAP2 POP PUSH2 0x126 DUP3 PUSH2 0x1FB JUMP JUMPDEST PUSH1 0x20 DUP3 ADD SWAP1 POP SWAP2 SWAP1 POP JUMP JUMPDEST PUSH2 0x13A DUP2 PUSH2 0x1BD JUMP JUMPDEST DUP3 MSTORE POP POP JUMP JUMPDEST PUSH1 0x0 PUSH1 0x20 DUP3 ADD SWAP1 POP DUP2 DUP2 SUB PUSH1 0x0 DUP4 ADD MSTORE PUSH2 0x159 DUP2 PUSH2 0x10E JUMP JUMPDEST SWAP1 POP SWAP2 SWAP1 POP JUMP JUMPDEST PUSH1 0x0 PUSH1 0x20 DUP3 ADD SWAP1 POP PUSH2 0x175 PUSH1 0x0 DUP4 ADD DUP5 PUSH2 0x131 JUMP JUMPDEST SWAP3 SWAP2 POP POP JUMP JUMPDEST PUSH1 0x0 DUP3 DUP3 MSTORE PUSH1 0x20 DUP3 ADD SWAP1 POP SWAP3 SWAP2 POP POP JUMP JUMPDEST PUSH1 0x0 PUSH2 0x197 DUP3 PUSH2 0x1BD JUMP JUMPDEST SWAP2 POP PUSH2 0x1A2 DUP4 PUSH2 0x1BD JUMP JUMPDEST SWAP3 POP DUP3 PUSH2 0x1B2 JUMPI PUSH2 0x1B1 PUSH2 0x1C7 JUMP JUMPDEST JUMPDEST DUP3 DUP3 DIV SWAP1 POP SWAP3 SWAP2 POP POP JUMP JUMPDEST PUSH1 0x0 DUP2 SWAP1 POP SWAP2 SWAP1 POP JUMP JUMPDEST PUSH32 0x4E487B7100000000000000000000000000000000000000000000000000000000 PUSH1 0x0 MSTORE PUSH1 0x12 PUSH1 0x4 MSTORE PUSH1 0x24 PUSH1 0x0 REVERT JUMPDEST PUSH1 0x0 DUP1 REVERT JUMPDEST PUSH32 0x6E756D312073686F756C64206E6F74206265206D6F7265207468616E20313000 PUSH1 0x0 DUP3 ADD MSTORE POP JUMP JUMPDEST PUSH2 0x22D DUP2 PUSH2 0x1BD JUMP JUMPDEST DUP2 EQ PUSH2 0x238 JUMPI PUSH1 0x0 DUP1 REVERT JUMPDEST POP JUMP INVALID LOG2 PUSH5 0x6970667358 0x22 SLT KECCAK256 LOG2 0x4F 0x4E 0xC8 SWAP16 EQ 0xC0 0xF6 CHAINID EXTCODECOPY STATICCALL DUP7 GAS 0xB5 JUMP 0xCA DUP16 LOG4 0x26 0x21 0x1E 0xC5 LOG0 0x4A BASEFEE 0xD2 PUSH13 0x4B5295FC4A64736F6C63430008 SMOD STOP CALLER "
				},
				"gasEstimates": {
					"creation": {
						"codeDepositCost": "125000",
						"executionCost": "171",
						"totalCost": "125171"
					},
					"external": {
						"division(uint256,uint256)": "infinite"
					}
				},
				"methodIdentifiers": {
					"division(uint256,uint256)": "e0068052"
				}
			},
			"userdoc": {
				"kind": "user",
				"methods": {},
				"version": 1
			}
		}
	}
}