{
	"lecture/lec27.sol": {
		"runner": {
			"abi": [
				{
					"anonymous": false,
					"inputs": [
						{
							"indexed": false,
							"internalType": "string",
							"name": "_name",
							"type": "string"
						},
						{
							"indexed": false,
							"internalType": "string",
							"name": "_err",
							"type": "string"
						}
					],
					"name": "catchErr",
					"type": "event"
				},
				{
					"anonymous": false,
					"inputs": [
						{
							"indexed": false,
							"internalType": "string",
							"name": "_name",
							"type": "string"
						},
						{
							"indexed": false,
							"internalType": "bytes",
							"name": "_err",
							"type": "bytes"
						}
					],
					"name": "catchLowLevelErr",
					"type": "event"
				},
				{
					"anonymous": false,
					"inputs": [
						{
							"indexed": false,
							"internalType": "string",
							"name": "_name",
							"type": "string"
						},
						{
							"indexed": false,
							"internalType": "uint256",
							"name": "_err",
							"type": "uint256"
						}
					],
					"name": "catchPanic",
					"type": "event"
				},
				{
					"inputs": [],
					"name": "mathInstance",
					"outputs": [
						{
							"internalType": "contract math",
							"name": "",
							"type": "address"
						}
					],
					"stateMutability": "view",
					"type": "function"
				},
				{
					"inputs": [
						{
							"internalType": "uint256",
							"name": "_num1",
							"type": "uint256"
						},
						{
							"internalType": "uint256",
							"name": "_num2",
							"type": "uint256"
						}
					],
					"name": "playTryCatch",
					"outputs": [
						{
							"internalType": "uint256",
							"name": "",
							"type": "uint256"
						},
						{
							"internalType": "bool",
							"name": "",
							"type": "bool"
						}
					],
					"stateMutability": "nonpayable",
					"type": "function"
				}
			],
			"devdoc": {
				"kind": "dev",
				"methods": {},
				"version": 1
			},
			"evm": {
				"assembly": "    /* \"lecture/lec27.sol\":2972:3681  contract runner{\r... */\n  mstore(0x40, 0x80)\n    /* \"lecture/lec27.sol\":3177:3187  new math() */\n  mload(0x40)\n  tag_1\n  swap1\n  tag_2\n  jump\t// in\ntag_1:\n  mload(0x40)\n  dup1\n  swap2\n  sub\n  swap1\n  0x00\n  create\n  dup1\n  iszero\n  dup1\n  iszero\n  tag_3\n  jumpi\n  returndatasize\n  0x00\n  dup1\n  returndatacopy\n  revert(0x00, returndatasize)\ntag_3:\n  pop\n    /* \"lecture/lec27.sol\":3150:3187  math public mathInstance = new math() */\n  0x00\n  dup1\n  0x0100\n  exp\n  dup2\n  sload\n  dup2\n  0xffffffffffffffffffffffffffffffffffffffff\n  mul\n  not\n  and\n  swap1\n  dup4\n  0xffffffffffffffffffffffffffffffffffffffff\n  and\n  mul\n  or\n  swap1\n  sstore\n  pop\n    /* \"lecture/lec27.sol\":2972:3681  contract runner{\r... */\n  callvalue\n  dup1\n  iszero\n  tag_4\n  jumpi\n  0x00\n  dup1\n  revert\ntag_4:\n  pop\n  jump(tag_5)\ntag_2:\n  dataSize(sub_1)\n  dup1\n  dataOffset(sub_1)\n  dup4\n  codecopy\n  add\n  swap1\n  jump\t// out\ntag_5:\n  dataSize(sub_0)\n  dup1\n  dataOffset(sub_0)\n  0x00\n  codecopy\n  0x00\n  return\nstop\n\nsub_0: assembly {\n        /* \"lecture/lec27.sol\":2972:3681  contract runner{\r... */\n      mstore(0x40, 0x80)\n      callvalue\n      dup1\n      iszero\n      tag_1\n      jumpi\n      0x00\n      dup1\n      revert\n    tag_1:\n      pop\n      jumpi(tag_2, lt(calldatasize, 0x04))\n      shr(0xe0, calldataload(0x00))\n      dup1\n      0x0fc6b51c\n      eq\n      tag_3\n      jumpi\n      dup1\n      0x90560610\n      eq\n      tag_4\n      jumpi\n    tag_2:\n      0x00\n      dup1\n      revert\n        /* \"lecture/lec27.sol\":3196:3678  function playTryCatch(uint256 _num1, uint256 _num2) public returns(uint256, bool){\r... */\n    tag_3:\n      tag_5\n      0x04\n      dup1\n      calldatasize\n      sub\n      dup2\n      add\n      swap1\n      tag_6\n      swap2\n      swap1\n      tag_7\n      jump\t// in\n    tag_6:\n      tag_8\n      jump\t// in\n    tag_5:\n      mload(0x40)\n      tag_9\n      swap3\n      swap2\n      swap1\n      tag_10\n      jump\t// in\n    tag_9:\n      mload(0x40)\n      dup1\n      swap2\n      sub\n      swap1\n      return\n        /* \"lecture/lec27.sol\":3150:3187  math public mathInstance = new math() */\n    tag_4:\n      tag_11\n      tag_12\n      jump\t// in\n    tag_11:\n      mload(0x40)\n      tag_13\n      swap2\n      swap1\n      tag_14\n      jump\t// in\n    tag_13:\n      mload(0x40)\n      dup1\n      swap2\n      sub\n      swap1\n      return\n        /* \"lecture/lec27.sol\":3196:3678  function playTryCatch(uint256 _num1, uint256 _num2) public returns(uint256, bool){\r... */\n    tag_8:\n        /* \"lecture/lec27.sol\":3263:3270  uint256 */\n      0x00\n        /* \"lecture/lec27.sol\":3272:3276  bool */\n      dup1\n        /* \"lecture/lec27.sol\":3302:3314  mathInstance */\n      0x00\n      dup1\n      sload\n      swap1\n      0x0100\n      exp\n      swap1\n      div\n      0xffffffffffffffffffffffffffffffffffffffff\n      and\n        /* \"lecture/lec27.sol\":3302:3323  mathInstance.division */\n      0xffffffffffffffffffffffffffffffffffffffff\n      and\n      0xe0068052\n        /* \"lecture/lec27.sol\":3324:3329  _num1 */\n      dup6\n        /* \"lecture/lec27.sol\":3331:3336  _num2 */\n      dup6\n        /* \"lecture/lec27.sol\":3302:3337  mathInstance.division(_num1, _num2) */\n      mload(0x40)\n      dup4\n      0xffffffff\n      and\n      0xe0\n      shl\n      dup2\n      mstore\n      0x04\n      add\n      tag_16\n      swap3\n      swap2\n      swap1\n      tag_17\n      jump\t// in\n    tag_16:\n      0x20\n      mload(0x40)\n      dup1\n      dup4\n      sub\n      dup2\n      dup7\n      dup1\n      extcodesize\n      iszero\n      dup1\n      iszero\n      tag_18\n      jumpi\n      0x00\n      dup1\n      revert\n    tag_18:\n      pop\n      gas\n      staticcall\n      swap3\n      pop\n      pop\n      pop\n      dup1\n      iszero\n      tag_19\n      jumpi\n      pop\n      mload(0x40)\n      returndatasize\n      not(0x1f)\n      0x1f\n      dup3\n      add\n      and\n      dup3\n      add\n      dup1\n      0x40\n      mstore\n      pop\n      dup2\n      add\n      swap1\n      tag_20\n      swap2\n      swap1\n      tag_21\n      jump\t// in\n    tag_20:\n      0x01\n    tag_19:\n        /* \"lecture/lec27.sol\":3298:3671  try mathInstance.division(_num1, _num2) returns(uint256 value){\r... */\n      tag_22\n      jumpi\n      tag_26\n      tag_27\n      jump\t// in\n    tag_26:\n      dup1\n      0x08c379a0\n      eq\n      iszero\n      tag_25\n      jumpi\n      pop\n      tag_28\n      tag_29\n      jump\t// in\n    tag_28:\n      dup1\n      tag_30\n      jumpi\n      pop\n      jump(tag_24)\n    tag_30:\n        /* \"lecture/lec27.sol\":3458:3490  catchErr(\"revert/require\", _err) */\n      0x1a105f82e7a73e98ff8b7e5e0479a23ba4df818edeafeec2e4bdfe52624b3ba1\n        /* \"lecture/lec27.sol\":3485:3489  _err */\n      dup2\n        /* \"lecture/lec27.sol\":3458:3490  catchErr(\"revert/require\", _err) */\n      mload(0x40)\n      tag_31\n      swap2\n      swap1\n      tag_32\n      jump\t// in\n    tag_31:\n      mload(0x40)\n      dup1\n      swap2\n      sub\n      swap1\n      log1\n        /* \"lecture/lec27.sol\":3512:3513  0 */\n      0x00\n        /* \"lecture/lec27.sol\":3515:3520  false */\n      dup1\n        /* \"lecture/lec27.sol\":3505:3521  return(0, false) */\n      swap3\n      pop\n      swap3\n      pop\n      pop\n      jump(tag_15)\n        /* \"lecture/lec27.sol\":3298:3671  try mathInstance.division(_num1, _num2) returns(uint256 value){\r... */\n    tag_25:\n      0x4e487b71\n      eq\n      iszero\n      tag_24\n      jumpi\n      tag_33\n      tag_34\n      jump\t// in\n    tag_33:\n      swap1\n      tag_35\n      jumpi\n      pop\n      jump(tag_24)\n    tag_35:\n        /* \"lecture/lec27.sol\":3585:3628  catchPanic(\"assertError/Panic\", _errorCode) */\n      0xa999f44f5ca01f1755a1d8c28c08bdb6b5bff8c080bb72cc38486ebae8c928a6\n        /* \"lecture/lec27.sol\":3617:3627  _errorCode */\n      dup2\n        /* \"lecture/lec27.sol\":3585:3628  catchPanic(\"assertError/Panic\", _errorCode) */\n      mload(0x40)\n      tag_36\n      swap2\n      swap1\n      tag_37\n      jump\t// in\n    tag_36:\n      mload(0x40)\n      dup1\n      swap2\n      sub\n      swap1\n      log1\n        /* \"lecture/lec27.sol\":3650:3651  0 */\n      0x00\n        /* \"lecture/lec27.sol\":3653:3658  false */\n      dup1\n        /* \"lecture/lec27.sol\":3643:3659  return(0, false) */\n      swap3\n      pop\n      swap3\n      pop\n      pop\n      jump(tag_15)\n        /* \"lecture/lec27.sol\":3298:3671  try mathInstance.division(_num1, _num2) returns(uint256 value){\r... */\n    tag_24:\n      returndatasize\n      0x00\n      dup1\n      returndatacopy\n      revert(0x00, returndatasize)\n    tag_22:\n        /* \"lecture/lec27.sol\":3382:3387  value */\n      dup1\n        /* \"lecture/lec27.sol\":3389:3393  true */\n      0x01\n        /* \"lecture/lec27.sol\":3375:3394  return(value, true) */\n      swap3\n      pop\n      swap3\n      pop\n      pop\n        /* \"lecture/lec27.sol\":3196:3678  function playTryCatch(uint256 _num1, uint256 _num2) public returns(uint256, bool){\r... */\n    tag_15:\n      swap3\n      pop\n      swap3\n      swap1\n      pop\n      jump\t// out\n        /* \"lecture/lec27.sol\":3150:3187  math public mathInstance = new math() */\n    tag_12:\n      0x00\n      dup1\n      sload\n      swap1\n      0x0100\n      exp\n      swap1\n      div\n      0xffffffffffffffffffffffffffffffffffffffff\n      and\n      dup2\n      jump\t// out\n        /* \"#utility.yul\":7:146   */\n    tag_40:\n        /* \"#utility.yul\":53:58   */\n      0x00\n        /* \"#utility.yul\":91:97   */\n      dup2\n        /* \"#utility.yul\":78:98   */\n      calldataload\n        /* \"#utility.yul\":69:98   */\n      swap1\n      pop\n        /* \"#utility.yul\":107:140   */\n      tag_42\n        /* \"#utility.yul\":134:139   */\n      dup2\n        /* \"#utility.yul\":107:140   */\n      tag_43\n      jump\t// in\n    tag_42:\n        /* \"#utility.yul\":7:146   */\n      swap3\n      swap2\n      pop\n      pop\n      jump\t// out\n        /* \"#utility.yul\":152:295   */\n    tag_44:\n        /* \"#utility.yul\":209:214   */\n      0x00\n        /* \"#utility.yul\":240:246   */\n      dup2\n        /* \"#utility.yul\":234:247   */\n      mload\n        /* \"#utility.yul\":225:247   */\n      swap1\n      pop\n        /* \"#utility.yul\":256:289   */\n      tag_46\n        /* \"#utility.yul\":283:288   */\n      dup2\n        /* \"#utility.yul\":256:289   */\n      tag_43\n      jump\t// in\n    tag_46:\n        /* \"#utility.yul\":152:295   */\n      swap3\n      swap2\n      pop\n      pop\n      jump\t// out\n        /* \"#utility.yul\":301:652   */\n    tag_21:\n        /* \"#utility.yul\":371:377   */\n      0x00\n        /* \"#utility.yul\":420:422   */\n      0x20\n        /* \"#utility.yul\":408:417   */\n      dup3\n        /* \"#utility.yul\":399:406   */\n      dup5\n        /* \"#utility.yul\":395:418   */\n      sub\n        /* \"#utility.yul\":391:423   */\n      slt\n        /* \"#utility.yul\":388:507   */\n      iszero\n      tag_48\n      jumpi\n        /* \"#utility.yul\":426:505   */\n      tag_49\n      tag_50\n      jump\t// in\n    tag_49:\n        /* \"#utility.yul\":388:507   */\n    tag_48:\n        /* \"#utility.yul\":546:547   */\n      0x00\n        /* \"#utility.yul\":571:635   */\n      tag_51\n        /* \"#utility.yul\":627:634   */\n      dup5\n        /* \"#utility.yul\":618:624   */\n      dup3\n        /* \"#utility.yul\":607:616   */\n      dup6\n        /* \"#utility.yul\":603:625   */\n      add\n        /* \"#utility.yul\":571:635   */\n      tag_44\n      jump\t// in\n    tag_51:\n        /* \"#utility.yul\":561:635   */\n      swap2\n      pop\n        /* \"#utility.yul\":517:645   */\n      pop\n        /* \"#utility.yul\":301:652   */\n      swap3\n      swap2\n      pop\n      pop\n      jump\t// out\n        /* \"#utility.yul\":658:1132   */\n    tag_7:\n        /* \"#utility.yul\":726:732   */\n      0x00\n        /* \"#utility.yul\":734:740   */\n      dup1\n        /* \"#utility.yul\":783:785   */\n      0x40\n        /* \"#utility.yul\":771:780   */\n      dup4\n        /* \"#utility.yul\":762:769   */\n      dup6\n        /* \"#utility.yul\":758:781   */\n      sub\n        /* \"#utility.yul\":754:786   */\n      slt\n        /* \"#utility.yul\":751:870   */\n      iszero\n      tag_53\n      jumpi\n        /* \"#utility.yul\":789:868   */\n      tag_54\n      tag_50\n      jump\t// in\n    tag_54:\n        /* \"#utility.yul\":751:870   */\n    tag_53:\n        /* \"#utility.yul\":909:910   */\n      0x00\n        /* \"#utility.yul\":934:987   */\n      tag_55\n        /* \"#utility.yul\":979:986   */\n      dup6\n        /* \"#utility.yul\":970:976   */\n      dup3\n        /* \"#utility.yul\":959:968   */\n      dup7\n        /* \"#utility.yul\":955:977   */\n      add\n        /* \"#utility.yul\":934:987   */\n      tag_40\n      jump\t// in\n    tag_55:\n        /* \"#utility.yul\":924:987   */\n      swap3\n      pop\n        /* \"#utility.yul\":880:997   */\n      pop\n        /* \"#utility.yul\":1036:1038   */\n      0x20\n        /* \"#utility.yul\":1062:1115   */\n      tag_56\n        /* \"#utility.yul\":1107:1114   */\n      dup6\n        /* \"#utility.yul\":1098:1104   */\n      dup3\n        /* \"#utility.yul\":1087:1096   */\n      dup7\n        /* \"#utility.yul\":1083:1105   */\n      add\n        /* \"#utility.yul\":1062:1115   */\n      tag_40\n      jump\t// in\n    tag_56:\n        /* \"#utility.yul\":1052:1115   */\n      swap2\n      pop\n        /* \"#utility.yul\":1007:1125   */\n      pop\n        /* \"#utility.yul\":658:1132   */\n      swap3\n      pop\n      swap3\n      swap1\n      pop\n      jump\t// out\n        /* \"#utility.yul\":1138:1247   */\n    tag_57:\n        /* \"#utility.yul\":1219:1240   */\n      tag_59\n        /* \"#utility.yul\":1234:1239   */\n      dup2\n        /* \"#utility.yul\":1219:1240   */\n      tag_60\n      jump\t// in\n    tag_59:\n        /* \"#utility.yul\":1214:1217   */\n      dup3\n        /* \"#utility.yul\":1207:1241   */\n      mstore\n        /* \"#utility.yul\":1138:1247   */\n      pop\n      pop\n      jump\t// out\n        /* \"#utility.yul\":1253:1406   */\n    tag_61:\n        /* \"#utility.yul\":1351:1399   */\n      tag_63\n        /* \"#utility.yul\":1393:1398   */\n      dup2\n        /* \"#utility.yul\":1351:1399   */\n      tag_64\n      jump\t// in\n    tag_63:\n        /* \"#utility.yul\":1346:1349   */\n      dup3\n        /* \"#utility.yul\":1339:1400   */\n      mstore\n        /* \"#utility.yul\":1253:1406   */\n      pop\n      pop\n      jump\t// out\n        /* \"#utility.yul\":1412:1776   */\n    tag_65:\n        /* \"#utility.yul\":1500:1503   */\n      0x00\n        /* \"#utility.yul\":1528:1567   */\n      tag_67\n        /* \"#utility.yul\":1561:1566   */\n      dup3\n        /* \"#utility.yul\":1528:1567   */\n      tag_68\n      jump\t// in\n    tag_67:\n        /* \"#utility.yul\":1583:1654   */\n      tag_69\n        /* \"#utility.yul\":1647:1653   */\n      dup2\n        /* \"#utility.yul\":1642:1645   */\n      dup6\n        /* \"#utility.yul\":1583:1654   */\n      tag_70\n      jump\t// in\n    tag_69:\n        /* \"#utility.yul\":1576:1654   */\n      swap4\n      pop\n        /* \"#utility.yul\":1663:1715   */\n      tag_71\n        /* \"#utility.yul\":1708:1714   */\n      dup2\n        /* \"#utility.yul\":1703:1706   */\n      dup6\n        /* \"#utility.yul\":1696:1700   */\n      0x20\n        /* \"#utility.yul\":1689:1694   */\n      dup7\n        /* \"#utility.yul\":1685:1701   */\n      add\n        /* \"#utility.yul\":1663:1715   */\n      tag_72\n      jump\t// in\n    tag_71:\n        /* \"#utility.yul\":1740:1769   */\n      tag_73\n        /* \"#utility.yul\":1762:1768   */\n      dup2\n        /* \"#utility.yul\":1740:1769   */\n      tag_74\n      jump\t// in\n    tag_73:\n        /* \"#utility.yul\":1735:1738   */\n      dup5\n        /* \"#utility.yul\":1731:1770   */\n      add\n        /* \"#utility.yul\":1724:1770   */\n      swap2\n      pop\n        /* \"#utility.yul\":1504:1776   */\n      pop\n        /* \"#utility.yul\":1412:1776   */\n      swap3\n      swap2\n      pop\n      pop\n      jump\t// out\n        /* \"#utility.yul\":1782:2148   */\n    tag_75:\n        /* \"#utility.yul\":1924:1927   */\n      0x00\n        /* \"#utility.yul\":1945:2012   */\n      tag_77\n        /* \"#utility.yul\":2009:2011   */\n      0x0e\n        /* \"#utility.yul\":2004:2007   */\n      dup4\n        /* \"#utility.yul\":1945:2012   */\n      tag_70\n      jump\t// in\n    tag_77:\n        /* \"#utility.yul\":1938:2012   */\n      swap2\n      pop\n        /* \"#utility.yul\":2021:2114   */\n      tag_78\n        /* \"#utility.yul\":2110:2113   */\n      dup3\n        /* \"#utility.yul\":2021:2114   */\n      tag_79\n      jump\t// in\n    tag_78:\n        /* \"#utility.yul\":2139:2141   */\n      0x20\n        /* \"#utility.yul\":2134:2137   */\n      dup3\n        /* \"#utility.yul\":2130:2142   */\n      add\n        /* \"#utility.yul\":2123:2142   */\n      swap1\n      pop\n        /* \"#utility.yul\":1782:2148   */\n      swap2\n      swap1\n      pop\n      jump\t// out\n        /* \"#utility.yul\":2154:2520   */\n    tag_80:\n        /* \"#utility.yul\":2296:2299   */\n      0x00\n        /* \"#utility.yul\":2317:2384   */\n      tag_82\n        /* \"#utility.yul\":2381:2383   */\n      0x11\n        /* \"#utility.yul\":2376:2379   */\n      dup4\n        /* \"#utility.yul\":2317:2384   */\n      tag_70\n      jump\t// in\n    tag_82:\n        /* \"#utility.yul\":2310:2384   */\n      swap2\n      pop\n        /* \"#utility.yul\":2393:2486   */\n      tag_83\n        /* \"#utility.yul\":2482:2485   */\n      dup3\n        /* \"#utility.yul\":2393:2486   */\n      tag_84\n      jump\t// in\n    tag_83:\n        /* \"#utility.yul\":2511:2513   */\n      0x20\n        /* \"#utility.yul\":2506:2509   */\n      dup3\n        /* \"#utility.yul\":2502:2514   */\n      add\n        /* \"#utility.yul\":2495:2514   */\n      swap1\n      pop\n        /* \"#utility.yul\":2154:2520   */\n      swap2\n      swap1\n      pop\n      jump\t// out\n        /* \"#utility.yul\":2526:2644   */\n    tag_85:\n        /* \"#utility.yul\":2613:2637   */\n      tag_87\n        /* \"#utility.yul\":2631:2636   */\n      dup2\n        /* \"#utility.yul\":2613:2637   */\n      tag_88\n      jump\t// in\n    tag_87:\n        /* \"#utility.yul\":2608:2611   */\n      dup3\n        /* \"#utility.yul\":2601:2638   */\n      mstore\n        /* \"#utility.yul\":2526:2644   */\n      pop\n      pop\n      jump\t// out\n        /* \"#utility.yul\":2650:2894   */\n    tag_14:\n        /* \"#utility.yul\":2754:2758   */\n      0x00\n        /* \"#utility.yul\":2792:2794   */\n      0x20\n        /* \"#utility.yul\":2781:2790   */\n      dup3\n        /* \"#utility.yul\":2777:2795   */\n      add\n        /* \"#utility.yul\":2769:2795   */\n      swap1\n      pop\n        /* \"#utility.yul\":2805:2887   */\n      tag_90\n        /* \"#utility.yul\":2884:2885   */\n      0x00\n        /* \"#utility.yul\":2873:2882   */\n      dup4\n        /* \"#utility.yul\":2869:2886   */\n      add\n        /* \"#utility.yul\":2860:2866   */\n      dup5\n        /* \"#utility.yul\":2805:2887   */\n      tag_61\n      jump\t// in\n    tag_90:\n        /* \"#utility.yul\":2650:2894   */\n      swap3\n      swap2\n      pop\n      pop\n      jump\t// out\n        /* \"#utility.yul\":2900:3520   */\n    tag_32:\n        /* \"#utility.yul\":3114:3118   */\n      0x00\n        /* \"#utility.yul\":3152:3154   */\n      0x40\n        /* \"#utility.yul\":3141:3150   */\n      dup3\n        /* \"#utility.yul\":3137:3155   */\n      add\n        /* \"#utility.yul\":3129:3155   */\n      swap1\n      pop\n        /* \"#utility.yul\":3201:3210   */\n      dup2\n        /* \"#utility.yul\":3195:3199   */\n      dup2\n        /* \"#utility.yul\":3191:3211   */\n      sub\n        /* \"#utility.yul\":3187:3188   */\n      0x00\n        /* \"#utility.yul\":3176:3185   */\n      dup4\n        /* \"#utility.yul\":3172:3189   */\n      add\n        /* \"#utility.yul\":3165:3212   */\n      mstore\n        /* \"#utility.yul\":3229:3360   */\n      tag_92\n        /* \"#utility.yul\":3355:3359   */\n      dup2\n        /* \"#utility.yul\":3229:3360   */\n      tag_75\n      jump\t// in\n    tag_92:\n        /* \"#utility.yul\":3221:3360   */\n      swap1\n      pop\n        /* \"#utility.yul\":3407:3416   */\n      dup2\n        /* \"#utility.yul\":3401:3405   */\n      dup2\n        /* \"#utility.yul\":3397:3417   */\n      sub\n        /* \"#utility.yul\":3392:3394   */\n      0x20\n        /* \"#utility.yul\":3381:3390   */\n      dup4\n        /* \"#utility.yul\":3377:3395   */\n      add\n        /* \"#utility.yul\":3370:3418   */\n      mstore\n        /* \"#utility.yul\":3435:3513   */\n      tag_93\n        /* \"#utility.yul\":3508:3512   */\n      dup2\n        /* \"#utility.yul\":3499:3505   */\n      dup5\n        /* \"#utility.yul\":3435:3513   */\n      tag_65\n      jump\t// in\n    tag_93:\n        /* \"#utility.yul\":3427:3513   */\n      swap1\n      pop\n        /* \"#utility.yul\":2900:3520   */\n      swap3\n      swap2\n      pop\n      pop\n      jump\t// out\n        /* \"#utility.yul\":3526:4055   */\n    tag_37:\n        /* \"#utility.yul\":3720:3724   */\n      0x00\n        /* \"#utility.yul\":3758:3760   */\n      0x40\n        /* \"#utility.yul\":3747:3756   */\n      dup3\n        /* \"#utility.yul\":3743:3761   */\n      add\n        /* \"#utility.yul\":3735:3761   */\n      swap1\n      pop\n        /* \"#utility.yul\":3807:3816   */\n      dup2\n        /* \"#utility.yul\":3801:3805   */\n      dup2\n        /* \"#utility.yul\":3797:3817   */\n      sub\n        /* \"#utility.yul\":3793:3794   */\n      0x00\n        /* \"#utility.yul\":3782:3791   */\n      dup4\n        /* \"#utility.yul\":3778:3795   */\n      add\n        /* \"#utility.yul\":3771:3818   */\n      mstore\n        /* \"#utility.yul\":3835:3966   */\n      tag_95\n        /* \"#utility.yul\":3961:3965   */\n      dup2\n        /* \"#utility.yul\":3835:3966   */\n      tag_80\n      jump\t// in\n    tag_95:\n        /* \"#utility.yul\":3827:3966   */\n      swap1\n      pop\n        /* \"#utility.yul\":3976:4048   */\n      tag_96\n        /* \"#utility.yul\":4044:4046   */\n      0x20\n        /* \"#utility.yul\":4033:4042   */\n      dup4\n        /* \"#utility.yul\":4029:4047   */\n      add\n        /* \"#utility.yul\":4020:4026   */\n      dup5\n        /* \"#utility.yul\":3976:4048   */\n      tag_85\n      jump\t// in\n    tag_96:\n        /* \"#utility.yul\":3526:4055   */\n      swap3\n      swap2\n      pop\n      pop\n      jump\t// out\n        /* \"#utility.yul\":4061:4381   */\n    tag_10:\n        /* \"#utility.yul\":4176:4180   */\n      0x00\n        /* \"#utility.yul\":4214:4216   */\n      0x40\n        /* \"#utility.yul\":4203:4212   */\n      dup3\n        /* \"#utility.yul\":4199:4217   */\n      add\n        /* \"#utility.yul\":4191:4217   */\n      swap1\n      pop\n        /* \"#utility.yul\":4227:4298   */\n      tag_98\n        /* \"#utility.yul\":4295:4296   */\n      0x00\n        /* \"#utility.yul\":4284:4293   */\n      dup4\n        /* \"#utility.yul\":4280:4297   */\n      add\n        /* \"#utility.yul\":4271:4277   */\n      dup6\n        /* \"#utility.yul\":4227:4298   */\n      tag_85\n      jump\t// in\n    tag_98:\n        /* \"#utility.yul\":4308:4374   */\n      tag_99\n        /* \"#utility.yul\":4370:4372   */\n      0x20\n        /* \"#utility.yul\":4359:4368   */\n      dup4\n        /* \"#utility.yul\":4355:4373   */\n      add\n        /* \"#utility.yul\":4346:4352   */\n      dup5\n        /* \"#utility.yul\":4308:4374   */\n      tag_57\n      jump\t// in\n    tag_99:\n        /* \"#utility.yul\":4061:4381   */\n      swap4\n      swap3\n      pop\n      pop\n      pop\n      jump\t// out\n        /* \"#utility.yul\":4387:4719   */\n    tag_17:\n        /* \"#utility.yul\":4508:4512   */\n      0x00\n        /* \"#utility.yul\":4546:4548   */\n      0x40\n        /* \"#utility.yul\":4535:4544   */\n      dup3\n        /* \"#utility.yul\":4531:4549   */\n      add\n        /* \"#utility.yul\":4523:4549   */\n      swap1\n      pop\n        /* \"#utility.yul\":4559:4630   */\n      tag_101\n        /* \"#utility.yul\":4627:4628   */\n      0x00\n        /* \"#utility.yul\":4616:4625   */\n      dup4\n        /* \"#utility.yul\":4612:4629   */\n      add\n        /* \"#utility.yul\":4603:4609   */\n      dup6\n        /* \"#utility.yul\":4559:4630   */\n      tag_85\n      jump\t// in\n    tag_101:\n        /* \"#utility.yul\":4640:4712   */\n      tag_102\n        /* \"#utility.yul\":4708:4710   */\n      0x20\n        /* \"#utility.yul\":4697:4706   */\n      dup4\n        /* \"#utility.yul\":4693:4711   */\n      add\n        /* \"#utility.yul\":4684:4690   */\n      dup5\n        /* \"#utility.yul\":4640:4712   */\n      tag_85\n      jump\t// in\n    tag_102:\n        /* \"#utility.yul\":4387:4719   */\n      swap4\n      swap3\n      pop\n      pop\n      pop\n      jump\t// out\n        /* \"#utility.yul\":4725:4800   */\n    tag_103:\n        /* \"#utility.yul\":4758:4764   */\n      0x00\n        /* \"#utility.yul\":4791:4793   */\n      0x40\n        /* \"#utility.yul\":4785:4794   */\n      mload\n        /* \"#utility.yul\":4775:4794   */\n      swap1\n      pop\n        /* \"#utility.yul\":4725:4800   */\n      swap1\n      jump\t// out\n        /* \"#utility.yul\":4806:4905   */\n    tag_68:\n        /* \"#utility.yul\":4858:4864   */\n      0x00\n        /* \"#utility.yul\":4892:4897   */\n      dup2\n        /* \"#utility.yul\":4886:4898   */\n      mload\n        /* \"#utility.yul\":4876:4898   */\n      swap1\n      pop\n        /* \"#utility.yul\":4806:4905   */\n      swap2\n      swap1\n      pop\n      jump\t// out\n        /* \"#utility.yul\":4911:5080   */\n    tag_70:\n        /* \"#utility.yul\":4995:5006   */\n      0x00\n        /* \"#utility.yul\":5029:5035   */\n      dup3\n        /* \"#utility.yul\":5024:5027   */\n      dup3\n        /* \"#utility.yul\":5017:5036   */\n      mstore\n        /* \"#utility.yul\":5069:5073   */\n      0x20\n        /* \"#utility.yul\":5064:5067   */\n      dup3\n        /* \"#utility.yul\":5060:5074   */\n      add\n        /* \"#utility.yul\":5045:5074   */\n      swap1\n      pop\n        /* \"#utility.yul\":4911:5080   */\n      swap3\n      swap2\n      pop\n      pop\n      jump\t// out\n        /* \"#utility.yul\":5086:5176   */\n    tag_60:\n        /* \"#utility.yul\":5120:5127   */\n      0x00\n        /* \"#utility.yul\":5163:5168   */\n      dup2\n        /* \"#utility.yul\":5156:5169   */\n      iszero\n        /* \"#utility.yul\":5149:5170   */\n      iszero\n        /* \"#utility.yul\":5138:5170   */\n      swap1\n      pop\n        /* \"#utility.yul\":5086:5176   */\n      swap2\n      swap1\n      pop\n      jump\t// out\n        /* \"#utility.yul\":5182:5308   */\n    tag_108:\n        /* \"#utility.yul\":5219:5226   */\n      0x00\n        /* \"#utility.yul\":5259:5301   */\n      0xffffffffffffffffffffffffffffffffffffffff\n        /* \"#utility.yul\":5252:5257   */\n      dup3\n        /* \"#utility.yul\":5248:5302   */\n      and\n        /* \"#utility.yul\":5237:5302   */\n      swap1\n      pop\n        /* \"#utility.yul\":5182:5308   */\n      swap2\n      swap1\n      pop\n      jump\t// out\n        /* \"#utility.yul\":5314:5391   */\n    tag_88:\n        /* \"#utility.yul\":5351:5358   */\n      0x00\n        /* \"#utility.yul\":5380:5385   */\n      dup2\n        /* \"#utility.yul\":5369:5385   */\n      swap1\n      pop\n        /* \"#utility.yul\":5314:5391   */\n      swap2\n      swap1\n      pop\n      jump\t// out\n        /* \"#utility.yul\":5397:5534   */\n    tag_64:\n        /* \"#utility.yul\":5458:5467   */\n      0x00\n        /* \"#utility.yul\":5491:5528   */\n      tag_112\n        /* \"#utility.yul\":5522:5527   */\n      dup3\n        /* \"#utility.yul\":5491:5528   */\n      tag_113\n      jump\t// in\n    tag_112:\n        /* \"#utility.yul\":5478:5528   */\n      swap1\n      pop\n        /* \"#utility.yul\":5397:5534   */\n      swap2\n      swap1\n      pop\n      jump\t// out\n        /* \"#utility.yul\":5540:5666   */\n    tag_113:\n        /* \"#utility.yul\":5590:5599   */\n      0x00\n        /* \"#utility.yul\":5623:5660   */\n      tag_115\n        /* \"#utility.yul\":5654:5659   */\n      dup3\n        /* \"#utility.yul\":5623:5660   */\n      tag_116\n      jump\t// in\n    tag_115:\n        /* \"#utility.yul\":5610:5660   */\n      swap1\n      pop\n        /* \"#utility.yul\":5540:5666   */\n      swap2\n      swap1\n      pop\n      jump\t// out\n        /* \"#utility.yul\":5672:5785   */\n    tag_116:\n        /* \"#utility.yul\":5722:5731   */\n      0x00\n        /* \"#utility.yul\":5755:5779   */\n      tag_118\n        /* \"#utility.yul\":5773:5778   */\n      dup3\n        /* \"#utility.yul\":5755:5779   */\n      tag_108\n      jump\t// in\n    tag_118:\n        /* \"#utility.yul\":5742:5779   */\n      swap1\n      pop\n        /* \"#utility.yul\":5672:5785   */\n      swap2\n      swap1\n      pop\n      jump\t// out\n        /* \"#utility.yul\":5791:6098   */\n    tag_72:\n        /* \"#utility.yul\":5859:5860   */\n      0x00\n        /* \"#utility.yul\":5869:5982   */\n    tag_120:\n        /* \"#utility.yul\":5883:5889   */\n      dup4\n        /* \"#utility.yul\":5880:5881   */\n      dup2\n        /* \"#utility.yul\":5877:5890   */\n      lt\n        /* \"#utility.yul\":5869:5982   */\n      iszero\n      tag_122\n      jumpi\n        /* \"#utility.yul\":5968:5969   */\n      dup1\n        /* \"#utility.yul\":5963:5966   */\n      dup3\n        /* \"#utility.yul\":5959:5970   */\n      add\n        /* \"#utility.yul\":5953:5971   */\n      mload\n        /* \"#utility.yul\":5949:5950   */\n      dup2\n        /* \"#utility.yul\":5944:5947   */\n      dup5\n        /* \"#utility.yul\":5940:5951   */\n      add\n        /* \"#utility.yul\":5933:5972   */\n      mstore\n        /* \"#utility.yul\":5905:5907   */\n      0x20\n        /* \"#utility.yul\":5902:5903   */\n      dup2\n        /* \"#utility.yul\":5898:5908   */\n      add\n        /* \"#utility.yul\":5893:5908   */\n      swap1\n      pop\n        /* \"#utility.yul\":5869:5982   */\n      jump(tag_120)\n    tag_122:\n        /* \"#utility.yul\":6000:6006   */\n      dup4\n        /* \"#utility.yul\":5997:5998   */\n      dup2\n        /* \"#utility.yul\":5994:6007   */\n      gt\n        /* \"#utility.yul\":5991:6092   */\n      iszero\n      tag_123\n      jumpi\n        /* \"#utility.yul\":6080:6081   */\n      0x00\n        /* \"#utility.yul\":6071:6077   */\n      dup5\n        /* \"#utility.yul\":6066:6069   */\n      dup5\n        /* \"#utility.yul\":6062:6078   */\n      add\n        /* \"#utility.yul\":6055:6082   */\n      mstore\n        /* \"#utility.yul\":5991:6092   */\n    tag_123:\n        /* \"#utility.yul\":5840:6098   */\n      pop\n        /* \"#utility.yul\":5791:6098   */\n      pop\n      pop\n      pop\n      jump\t// out\n        /* \"#utility.yul\":6104:6385   */\n    tag_124:\n        /* \"#utility.yul\":6187:6214   */\n      tag_126\n        /* \"#utility.yul\":6209:6213   */\n      dup3\n        /* \"#utility.yul\":6187:6214   */\n      tag_74\n      jump\t// in\n    tag_126:\n        /* \"#utility.yul\":6179:6185   */\n      dup2\n        /* \"#utility.yul\":6175:6215   */\n      add\n        /* \"#utility.yul\":6317:6323   */\n      dup2\n        /* \"#utility.yul\":6305:6315   */\n      dup2\n        /* \"#utility.yul\":6302:6324   */\n      lt\n        /* \"#utility.yul\":6281:6299   */\n      0xffffffffffffffff\n        /* \"#utility.yul\":6269:6279   */\n      dup3\n        /* \"#utility.yul\":6266:6300   */\n      gt\n        /* \"#utility.yul\":6263:6325   */\n      or\n        /* \"#utility.yul\":6260:6348   */\n      iszero\n      tag_127\n      jumpi\n        /* \"#utility.yul\":6328:6346   */\n      tag_128\n      tag_129\n      jump\t// in\n    tag_128:\n        /* \"#utility.yul\":6260:6348   */\n    tag_127:\n        /* \"#utility.yul\":6368:6378   */\n      dup1\n        /* \"#utility.yul\":6364:6366   */\n      0x40\n        /* \"#utility.yul\":6357:6379   */\n      mstore\n        /* \"#utility.yul\":6147:6385   */\n      pop\n        /* \"#utility.yul\":6104:6385   */\n      pop\n      pop\n      jump\t// out\n        /* \"#utility.yul\":6391:6571   */\n    tag_129:\n        /* \"#utility.yul\":6439:6516   */\n      0x4e487b7100000000000000000000000000000000000000000000000000000000\n        /* \"#utility.yul\":6436:6437   */\n      0x00\n        /* \"#utility.yul\":6429:6517   */\n      mstore\n        /* \"#utility.yul\":6536:6540   */\n      0x41\n        /* \"#utility.yul\":6533:6534   */\n      0x04\n        /* \"#utility.yul\":6526:6541   */\n      mstore\n        /* \"#utility.yul\":6560:6564   */\n      0x24\n        /* \"#utility.yul\":6557:6558   */\n      0x00\n        /* \"#utility.yul\":6550:6565   */\n      revert\n        /* \"#utility.yul\":6577:6760   */\n    tag_27:\n        /* \"#utility.yul\":6612:6615   */\n      0x00\n        /* \"#utility.yul\":6650:6651   */\n      0x03\n        /* \"#utility.yul\":6632:6648   */\n      returndatasize\n        /* \"#utility.yul\":6629:6652   */\n      gt\n        /* \"#utility.yul\":6626:6754   */\n      iszero\n      tag_132\n      jumpi\n        /* \"#utility.yul\":6688:6689   */\n      0x04\n        /* \"#utility.yul\":6685:6686   */\n      0x00\n        /* \"#utility.yul\":6682:6683   */\n      dup1\n        /* \"#utility.yul\":6667:6690   */\n      returndatacopy\n        /* \"#utility.yul\":6710:6744   */\n      tag_133\n        /* \"#utility.yul\":6741:6742   */\n      0x00\n        /* \"#utility.yul\":6735:6743   */\n      mload\n        /* \"#utility.yul\":6710:6744   */\n      tag_134\n      jump\t// in\n    tag_133:\n        /* \"#utility.yul\":6703:6744   */\n      swap1\n      pop\n        /* \"#utility.yul\":6626:6754   */\n    tag_132:\n        /* \"#utility.yul\":6577:6760   */\n      swap1\n      jump\t// out\n        /* \"#utility.yul\":6889:7006   */\n    tag_50:\n        /* \"#utility.yul\":6998:6999   */\n      0x00\n        /* \"#utility.yul\":6995:6996   */\n      dup1\n        /* \"#utility.yul\":6988:7000   */\n      revert\n        /* \"#utility.yul\":7012:7114   */\n    tag_74:\n        /* \"#utility.yul\":7053:7059   */\n      0x00\n        /* \"#utility.yul\":7104:7106   */\n      0x1f\n        /* \"#utility.yul\":7100:7107   */\n      not\n        /* \"#utility.yul\":7095:7097   */\n      0x1f\n        /* \"#utility.yul\":7088:7093   */\n      dup4\n        /* \"#utility.yul\":7084:7098   */\n      add\n        /* \"#utility.yul\":7080:7108   */\n      and\n        /* \"#utility.yul\":7070:7108   */\n      swap1\n      pop\n        /* \"#utility.yul\":7012:7114   */\n      swap2\n      swap1\n      pop\n      jump\t// out\n        /* \"#utility.yul\":7120:7226   */\n    tag_134:\n        /* \"#utility.yul\":7164:7172   */\n      0x00\n        /* \"#utility.yul\":7213:7218   */\n      dup2\n        /* \"#utility.yul\":7208:7211   */\n      0xe0\n        /* \"#utility.yul\":7204:7219   */\n      shr\n        /* \"#utility.yul\":7183:7219   */\n      swap1\n      pop\n        /* \"#utility.yul\":7120:7226   */\n      swap2\n      swap1\n      pop\n      jump\t// out\n        /* \"#utility.yul\":7232:7396   */\n    tag_79:\n        /* \"#utility.yul\":7372:7388   */\n      0x7265766572742f72657175697265000000000000000000000000000000000000\n        /* \"#utility.yul\":7368:7369   */\n      0x00\n        /* \"#utility.yul\":7360:7366   */\n      dup3\n        /* \"#utility.yul\":7356:7370   */\n      add\n        /* \"#utility.yul\":7349:7389   */\n      mstore\n        /* \"#utility.yul\":7232:7396   */\n      pop\n      jump\t// out\n        /* \"#utility.yul\":7402:7569   */\n    tag_84:\n        /* \"#utility.yul\":7542:7561   */\n      0x6173736572744572726f722f50616e6963000000000000000000000000000000\n        /* \"#utility.yul\":7538:7539   */\n      0x00\n        /* \"#utility.yul\":7530:7536   */\n      dup3\n        /* \"#utility.yul\":7526:7540   */\n      add\n        /* \"#utility.yul\":7519:7562   */\n      mstore\n        /* \"#utility.yul\":7402:7569   */\n      pop\n      jump\t// out\n        /* \"#utility.yul\":7575:8286   */\n    tag_29:\n        /* \"#utility.yul\":7614:7617   */\n      0x00\n        /* \"#utility.yul\":7652:7656   */\n      0x44\n        /* \"#utility.yul\":7634:7650   */\n      returndatasize\n        /* \"#utility.yul\":7631:7657   */\n      lt\n        /* \"#utility.yul\":7628:7667   */\n      iszero\n      tag_143\n      jumpi\n        /* \"#utility.yul\":7660:7665   */\n      jump(tag_142)\n        /* \"#utility.yul\":7628:7667   */\n    tag_143:\n        /* \"#utility.yul\":7689:7709   */\n      tag_144\n      tag_103\n      jump\t// in\n    tag_144:\n        /* \"#utility.yul\":7764:7765   */\n      0x04\n        /* \"#utility.yul\":7746:7762   */\n      returndatasize\n        /* \"#utility.yul\":7742:7766   */\n      sub\n        /* \"#utility.yul\":7739:7740   */\n      0x04\n        /* \"#utility.yul\":7733:7737   */\n      dup3\n        /* \"#utility.yul\":7718:7767   */\n      returndatacopy\n        /* \"#utility.yul\":7797:7801   */\n      dup1\n        /* \"#utility.yul\":7791:7802   */\n      mload\n        /* \"#utility.yul\":7896:7912   */\n      returndatasize\n        /* \"#utility.yul\":7889:7893   */\n      0x24\n        /* \"#utility.yul\":7881:7887   */\n      dup3\n        /* \"#utility.yul\":7877:7894   */\n      add\n        /* \"#utility.yul\":7874:7913   */\n      gt\n        /* \"#utility.yul\":7841:7859   */\n      0xffffffffffffffff\n        /* \"#utility.yul\":7833:7839   */\n      dup3\n        /* \"#utility.yul\":7830:7860   */\n      gt\n        /* \"#utility.yul\":7814:7927   */\n      or\n        /* \"#utility.yul\":7811:7957   */\n      iszero\n      tag_145\n      jumpi\n        /* \"#utility.yul\":7942:7947   */\n      pop\n      pop\n      jump(tag_142)\n        /* \"#utility.yul\":7811:7957   */\n    tag_145:\n        /* \"#utility.yul\":7988:7994   */\n      dup1\n        /* \"#utility.yul\":7982:7986   */\n      dup3\n        /* \"#utility.yul\":7978:7995   */\n      add\n        /* \"#utility.yul\":8024:8027   */\n      dup1\n        /* \"#utility.yul\":8018:8028   */\n      mload\n        /* \"#utility.yul\":8051:8069   */\n      0xffffffffffffffff\n        /* \"#utility.yul\":8043:8049   */\n      dup2\n        /* \"#utility.yul\":8040:8070   */\n      gt\n        /* \"#utility.yul\":8037:8080   */\n      iszero\n      tag_146\n      jumpi\n        /* \"#utility.yul\":8073:8078   */\n      pop\n      pop\n      pop\n      pop\n      jump(tag_142)\n        /* \"#utility.yul\":8037:8080   */\n    tag_146:\n        /* \"#utility.yul\":8121:8127   */\n      dup1\n        /* \"#utility.yul\":8114:8118   */\n      0x20\n        /* \"#utility.yul\":8109:8112   */\n      dup4\n        /* \"#utility.yul\":8105:8119   */\n      add\n        /* \"#utility.yul\":8101:8128   */\n      add\n        /* \"#utility.yul\":8180:8181   */\n      0x04\n        /* \"#utility.yul\":8162:8178   */\n      returndatasize\n        /* \"#utility.yul\":8158:8182   */\n      sub\n        /* \"#utility.yul\":8152:8156   */\n      dup6\n        /* \"#utility.yul\":8148:8183   */\n      add\n        /* \"#utility.yul\":8143:8146   */\n      dup2\n        /* \"#utility.yul\":8140:8184   */\n      gt\n        /* \"#utility.yul\":8137:8194   */\n      iszero\n      tag_147\n      jumpi\n        /* \"#utility.yul\":8187:8192   */\n      pop\n      pop\n      pop\n      pop\n      pop\n      jump(tag_142)\n        /* \"#utility.yul\":8137:8194   */\n    tag_147:\n        /* \"#utility.yul\":8204:8261   */\n      tag_148\n        /* \"#utility.yul\":8252:8258   */\n      dup3\n        /* \"#utility.yul\":8246:8250   */\n      0x20\n        /* \"#utility.yul\":8242:8259   */\n      add\n        /* \"#utility.yul\":8234:8240   */\n      dup6\n        /* \"#utility.yul\":8230:8260   */\n      add\n        /* \"#utility.yul\":8224:8228   */\n      dup7\n        /* \"#utility.yul\":8204:8261   */\n      tag_124\n      jump\t// in\n    tag_148:\n        /* \"#utility.yul\":8277:8280   */\n      dup3\n        /* \"#utility.yul\":8270:8280   */\n      swap6\n      pop\n        /* \"#utility.yul\":7618:8286   */\n      pop\n      pop\n      pop\n      pop\n      pop\n        /* \"#utility.yul\":7575:8286   */\n    tag_142:\n      swap1\n      jump\t// out\n        /* \"#utility.yul\":8292:8492   */\n    tag_34:\n        /* \"#utility.yul\":8328:8335   */\n      0x00\n        /* \"#utility.yul\":8337:8341   */\n      dup1\n        /* \"#utility.yul\":8376:8380   */\n      0x23\n        /* \"#utility.yul\":8358:8374   */\n      returndatasize\n        /* \"#utility.yul\":8355:8381   */\n      gt\n        /* \"#utility.yul\":8352:8486   */\n      iszero\n      tag_150\n      jumpi\n        /* \"#utility.yul\":8417:8421   */\n      0x20\n        /* \"#utility.yul\":8414:8415   */\n      0x04\n        /* \"#utility.yul\":8411:8412   */\n      0x00\n        /* \"#utility.yul\":8396:8422   */\n      returndatacopy\n        /* \"#utility.yul\":8446:8447   */\n      0x01\n        /* \"#utility.yul\":8435:8447   */\n      swap2\n      pop\n        /* \"#utility.yul\":8474:8475   */\n      0x00\n        /* \"#utility.yul\":8468:8476   */\n      mload\n        /* \"#utility.yul\":8460:8476   */\n      swap1\n      pop\n        /* \"#utility.yul\":8352:8486   */\n    tag_150:\n        /* \"#utility.yul\":8292:8492   */\n      swap1\n      swap2\n      jump\t// out\n        /* \"#utility.yul\":8498:8620   */\n    tag_43:\n        /* \"#utility.yul\":8571:8595   */\n      tag_152\n        /* \"#utility.yul\":8589:8594   */\n      dup2\n        /* \"#utility.yul\":8571:8595   */\n      tag_88\n      jump\t// in\n    tag_152:\n        /* \"#utility.yul\":8564:8569   */\n      dup2\n        /* \"#utility.yul\":8561:8596   */\n      eq\n        /* \"#utility.yul\":8551:8614   */\n      tag_153\n      jumpi\n        /* \"#utility.yul\":8610:8611   */\n      0x00\n        /* \"#utility.yul\":8607:8608   */\n      dup1\n        /* \"#utility.yul\":8600:8612   */\n      revert\n        /* \"#utility.yul\":8551:8614   */\n    tag_153:\n        /* \"#utility.yul\":8498:8620   */\n      pop\n      jump\t// out\n\n    auxdata: 0xa2646970667358221220677905de608aee22b8cc823c7f863f8f80d7d641561de89021775eb6ec9c6d3564736f6c63430008070033\n}\n\nsub_1: assembly {\n        /* \"lecture/lec27.sol\":2765:2968  contract math{\r... */\n      mstore(0x40, 0x80)\n      callvalue\n      dup1\n      iszero\n      tag_1\n      jumpi\n      0x00\n      dup1\n      revert\n    tag_1:\n      pop\n      dataSize(sub_0)\n      dup1\n      dataOffset(sub_0)\n      0x00\n      codecopy\n      0x00\n      return\n    stop\n\n    sub_0: assembly {\n            /* \"lecture/lec27.sol\":2765:2968  contract math{\r... */\n          mstore(0x40, 0x80)\n          callvalue\n          dup1\n          iszero\n          tag_1\n          jumpi\n          0x00\n          dup1\n          revert\n        tag_1:\n          pop\n          jumpi(tag_2, lt(calldatasize, 0x04))\n          shr(0xe0, calldataload(0x00))\n          dup1\n          0xe0068052\n          eq\n          tag_3\n          jumpi\n        tag_2:\n          0x00\n          dup1\n          revert\n            /* \"lecture/lec27.sol\":2787:2965  function division(uint256 _num1, uint256 _num2) public pure returns(uint256){\r... */\n        tag_3:\n          tag_4\n          0x04\n          dup1\n          calldatasize\n          sub\n          dup2\n          add\n          swap1\n          tag_5\n          swap2\n          swap1\n          tag_6\n          jump\t// in\n        tag_5:\n          tag_7\n          jump\t// in\n        tag_4:\n          mload(0x40)\n          tag_8\n          swap2\n          swap1\n          tag_9\n          jump\t// in\n        tag_8:\n          mload(0x40)\n          dup1\n          swap2\n          sub\n          swap1\n          return\n        tag_7:\n            /* \"lecture/lec27.sol\":2855:2862  uint256 */\n          0x00\n            /* \"lecture/lec27.sol\":2890:2892  10 */\n          0x0a\n            /* \"lecture/lec27.sol\":2882:2887  _num1 */\n          dup4\n            /* \"lecture/lec27.sol\":2882:2892  _num1 < 10 */\n          lt\n            /* \"lecture/lec27.sol\":2874:2928  require(_num1 < 10, \"num1 should not be more than 10\") */\n          tag_11\n          jumpi\n          mload(0x40)\n          0x08c379a000000000000000000000000000000000000000000000000000000000\n          dup2\n          mstore\n          0x04\n          add\n          tag_12\n          swap1\n          tag_13\n          jump\t// in\n        tag_12:\n          mload(0x40)\n          dup1\n          swap2\n          sub\n          swap1\n          revert\n        tag_11:\n            /* \"lecture/lec27.sol\":2952:2957  _num1 */\n          dup3\n            /* \"lecture/lec27.sol\":2946:2951  _num1 */\n          dup4\n            /* \"lecture/lec27.sol\":2946:2957  _num1/_num1 */\n          tag_14\n          swap2\n          swap1\n          tag_15\n          jump\t// in\n        tag_14:\n            /* \"lecture/lec27.sol\":2939:2957  return _num1/_num1 */\n          swap1\n          pop\n            /* \"lecture/lec27.sol\":2787:2965  function division(uint256 _num1, uint256 _num2) public pure returns(uint256){\r... */\n          swap3\n          swap2\n          pop\n          pop\n          jump\t// out\n            /* \"#utility.yul\":7:146   */\n        tag_17:\n            /* \"#utility.yul\":53:58   */\n          0x00\n            /* \"#utility.yul\":91:97   */\n          dup2\n            /* \"#utility.yul\":78:98   */\n          calldataload\n            /* \"#utility.yul\":69:98   */\n          swap1\n          pop\n            /* \"#utility.yul\":107:140   */\n          tag_19\n            /* \"#utility.yul\":134:139   */\n          dup2\n            /* \"#utility.yul\":107:140   */\n          tag_20\n          jump\t// in\n        tag_19:\n            /* \"#utility.yul\":7:146   */\n          swap3\n          swap2\n          pop\n          pop\n          jump\t// out\n            /* \"#utility.yul\":152:626   */\n        tag_6:\n            /* \"#utility.yul\":220:226   */\n          0x00\n            /* \"#utility.yul\":228:234   */\n          dup1\n            /* \"#utility.yul\":277:279   */\n          0x40\n            /* \"#utility.yul\":265:274   */\n          dup4\n            /* \"#utility.yul\":256:263   */\n          dup6\n            /* \"#utility.yul\":252:275   */\n          sub\n            /* \"#utility.yul\":248:280   */\n          slt\n            /* \"#utility.yul\":245:364   */\n          iszero\n          tag_22\n          jumpi\n            /* \"#utility.yul\":283:362   */\n          tag_23\n          tag_24\n          jump\t// in\n        tag_23:\n            /* \"#utility.yul\":245:364   */\n        tag_22:\n            /* \"#utility.yul\":403:404   */\n          0x00\n            /* \"#utility.yul\":428:481   */\n          tag_25\n            /* \"#utility.yul\":473:480   */\n          dup6\n            /* \"#utility.yul\":464:470   */\n          dup3\n            /* \"#utility.yul\":453:462   */\n          dup7\n            /* \"#utility.yul\":449:471   */\n          add\n            /* \"#utility.yul\":428:481   */\n          tag_17\n          jump\t// in\n        tag_25:\n            /* \"#utility.yul\":418:481   */\n          swap3\n          pop\n            /* \"#utility.yul\":374:491   */\n          pop\n            /* \"#utility.yul\":530:532   */\n          0x20\n            /* \"#utility.yul\":556:609   */\n          tag_26\n            /* \"#utility.yul\":601:608   */\n          dup6\n            /* \"#utility.yul\":592:598   */\n          dup3\n            /* \"#utility.yul\":581:590   */\n          dup7\n            /* \"#utility.yul\":577:599   */\n          add\n            /* \"#utility.yul\":556:609   */\n          tag_17\n          jump\t// in\n        tag_26:\n            /* \"#utility.yul\":546:609   */\n          swap2\n          pop\n            /* \"#utility.yul\":501:619   */\n          pop\n            /* \"#utility.yul\":152:626   */\n          swap3\n          pop\n          swap3\n          swap1\n          pop\n          jump\t// out\n            /* \"#utility.yul\":632:998   */\n        tag_27:\n            /* \"#utility.yul\":774:777   */\n          0x00\n            /* \"#utility.yul\":795:862   */\n          tag_29\n            /* \"#utility.yul\":859:861   */\n          0x1f\n            /* \"#utility.yul\":854:857   */\n          dup4\n            /* \"#utility.yul\":795:862   */\n          tag_30\n          jump\t// in\n        tag_29:\n            /* \"#utility.yul\":788:862   */\n          swap2\n          pop\n            /* \"#utility.yul\":871:964   */\n          tag_31\n            /* \"#utility.yul\":960:963   */\n          dup3\n            /* \"#utility.yul\":871:964   */\n          tag_32\n          jump\t// in\n        tag_31:\n            /* \"#utility.yul\":989:991   */\n          0x20\n            /* \"#utility.yul\":984:987   */\n          dup3\n            /* \"#utility.yul\":980:992   */\n          add\n            /* \"#utility.yul\":973:992   */\n          swap1\n          pop\n            /* \"#utility.yul\":632:998   */\n          swap2\n          swap1\n          pop\n          jump\t// out\n            /* \"#utility.yul\":1004:1122   */\n        tag_33:\n            /* \"#utility.yul\":1091:1115   */\n          tag_35\n            /* \"#utility.yul\":1109:1114   */\n          dup2\n            /* \"#utility.yul\":1091:1115   */\n          tag_36\n          jump\t// in\n        tag_35:\n            /* \"#utility.yul\":1086:1089   */\n          dup3\n            /* \"#utility.yul\":1079:1116   */\n          mstore\n            /* \"#utility.yul\":1004:1122   */\n          pop\n          pop\n          jump\t// out\n            /* \"#utility.yul\":1128:1547   */\n        tag_13:\n            /* \"#utility.yul\":1294:1298   */\n          0x00\n            /* \"#utility.yul\":1332:1334   */\n          0x20\n            /* \"#utility.yul\":1321:1330   */\n          dup3\n            /* \"#utility.yul\":1317:1335   */\n          add\n            /* \"#utility.yul\":1309:1335   */\n          swap1\n          pop\n            /* \"#utility.yul\":1381:1390   */\n          dup2\n            /* \"#utility.yul\":1375:1379   */\n          dup2\n            /* \"#utility.yul\":1371:1391   */\n          sub\n            /* \"#utility.yul\":1367:1368   */\n          0x00\n            /* \"#utility.yul\":1356:1365   */\n          dup4\n            /* \"#utility.yul\":1352:1369   */\n          add\n            /* \"#utility.yul\":1345:1392   */\n          mstore\n            /* \"#utility.yul\":1409:1540   */\n          tag_38\n            /* \"#utility.yul\":1535:1539   */\n          dup2\n            /* \"#utility.yul\":1409:1540   */\n          tag_27\n          jump\t// in\n        tag_38:\n            /* \"#utility.yul\":1401:1540   */\n          swap1\n          pop\n            /* \"#utility.yul\":1128:1547   */\n          swap2\n          swap1\n          pop\n          jump\t// out\n            /* \"#utility.yul\":1553:1775   */\n        tag_9:\n            /* \"#utility.yul\":1646:1650   */\n          0x00\n            /* \"#utility.yul\":1684:1686   */\n          0x20\n            /* \"#utility.yul\":1673:1682   */\n          dup3\n            /* \"#utility.yul\":1669:1687   */\n          add\n            /* \"#utility.yul\":1661:1687   */\n          swap1\n          pop\n            /* \"#utility.yul\":1697:1768   */\n          tag_40\n            /* \"#utility.yul\":1765:1766   */\n          0x00\n            /* \"#utility.yul\":1754:1763   */\n          dup4\n            /* \"#utility.yul\":1750:1767   */\n          add\n            /* \"#utility.yul\":1741:1747   */\n          dup5\n            /* \"#utility.yul\":1697:1768   */\n          tag_33\n          jump\t// in\n        tag_40:\n            /* \"#utility.yul\":1553:1775   */\n          swap3\n          swap2\n          pop\n          pop\n          jump\t// out\n            /* \"#utility.yul\":1862:2031   */\n        tag_30:\n            /* \"#utility.yul\":1946:1957   */\n          0x00\n            /* \"#utility.yul\":1980:1986   */\n          dup3\n            /* \"#utility.yul\":1975:1978   */\n          dup3\n            /* \"#utility.yul\":1968:1987   */\n          mstore\n            /* \"#utility.yul\":2020:2024   */\n          0x20\n            /* \"#utility.yul\":2015:2018   */\n          dup3\n            /* \"#utility.yul\":2011:2025   */\n          add\n            /* \"#utility.yul\":1996:2025   */\n          swap1\n          pop\n            /* \"#utility.yul\":1862:2031   */\n          swap3\n          swap2\n          pop\n          pop\n          jump\t// out\n            /* \"#utility.yul\":2037:2222   */\n        tag_15:\n            /* \"#utility.yul\":2077:2078   */\n          0x00\n            /* \"#utility.yul\":2094:2114   */\n          tag_45\n            /* \"#utility.yul\":2112:2113   */\n          dup3\n            /* \"#utility.yul\":2094:2114   */\n          tag_36\n          jump\t// in\n        tag_45:\n            /* \"#utility.yul\":2089:2114   */\n          swap2\n          pop\n            /* \"#utility.yul\":2128:2148   */\n          tag_46\n            /* \"#utility.yul\":2146:2147   */\n          dup4\n            /* \"#utility.yul\":2128:2148   */\n          tag_36\n          jump\t// in\n        tag_46:\n            /* \"#utility.yul\":2123:2148   */\n          swap3\n          pop\n            /* \"#utility.yul\":2167:2168   */\n          dup3\n            /* \"#utility.yul\":2157:2192   */\n          tag_47\n          jumpi\n            /* \"#utility.yul\":2172:2190   */\n          tag_48\n          tag_49\n          jump\t// in\n        tag_48:\n            /* \"#utility.yul\":2157:2192   */\n        tag_47:\n            /* \"#utility.yul\":2214:2215   */\n          dup3\n            /* \"#utility.yul\":2211:2212   */\n          dup3\n            /* \"#utility.yul\":2207:2216   */\n          div\n            /* \"#utility.yul\":2202:2216   */\n          swap1\n          pop\n            /* \"#utility.yul\":2037:2222   */\n          swap3\n          swap2\n          pop\n          pop\n          jump\t// out\n            /* \"#utility.yul\":2228:2305   */\n        tag_36:\n            /* \"#utility.yul\":2265:2272   */\n          0x00\n            /* \"#utility.yul\":2294:2299   */\n          dup2\n            /* \"#utility.yul\":2283:2299   */\n          swap1\n          pop\n            /* \"#utility.yul\":2228:2305   */\n          swap2\n          swap1\n          pop\n          jump\t// out\n            /* \"#utility.yul\":2497:2677   */\n        tag_49:\n            /* \"#utility.yul\":2545:2622   */\n          0x4e487b7100000000000000000000000000000000000000000000000000000000\n            /* \"#utility.yul\":2542:2543   */\n          0x00\n            /* \"#utility.yul\":2535:2623   */\n          mstore\n            /* \"#utility.yul\":2642:2646   */\n          0x12\n            /* \"#utility.yul\":2639:2640   */\n          0x04\n            /* \"#utility.yul\":2632:2647   */\n          mstore\n            /* \"#utility.yul\":2666:2670   */\n          0x24\n            /* \"#utility.yul\":2663:2664   */\n          0x00\n            /* \"#utility.yul\":2656:2671   */\n          revert\n            /* \"#utility.yul\":2806:2923   */\n        tag_24:\n            /* \"#utility.yul\":2915:2916   */\n          0x00\n            /* \"#utility.yul\":2912:2913   */\n          dup1\n            /* \"#utility.yul\":2905:2917   */\n          revert\n            /* \"#utility.yul\":2929:3110   */\n        tag_32:\n            /* \"#utility.yul\":3069:3102   */\n          0x6e756d312073686f756c64206e6f74206265206d6f7265207468616e20313000\n            /* \"#utility.yul\":3065:3066   */\n          0x00\n            /* \"#utility.yul\":3057:3063   */\n          dup3\n            /* \"#utility.yul\":3053:3067   */\n          add\n            /* \"#utility.yul\":3046:3103   */\n          mstore\n            /* \"#utility.yul\":2929:3110   */\n          pop\n          jump\t// out\n            /* \"#utility.yul\":3116:3238   */\n        tag_20:\n            /* \"#utility.yul\":3189:3213   */\n          tag_59\n            /* \"#utility.yul\":3207:3212   */\n          dup2\n            /* \"#utility.yul\":3189:3213   */\n          tag_36\n          jump\t// in\n        tag_59:\n            /* \"#utility.yul\":3182:3187   */\n          dup2\n            /* \"#utility.yul\":3179:3214   */\n          eq\n            /* \"#utility.yul\":3169:3232   */\n          tag_60\n          jumpi\n            /* \"#utility.yul\":3228:3229   */\n          0x00\n            /* \"#utility.yul\":3225:3226   */\n          dup1\n            /* \"#utility.yul\":3218:3230   */\n          revert\n            /* \"#utility.yul\":3169:3232   */\n        tag_60:\n            /* \"#utility.yul\":3116:3238   */\n          pop\n          jump\t// out\n\n        auxdata: 0xa2646970667358221220a24f4ec89f14c0f6463cfa865ab556ca8fa426211ec5a04a48d26c4b5295fc4a64736f6c63430008070033\n    }\n}\n",
				"bytecode": {
					"linkReferences": {},
					"object": "60806040526040516100109061007e565b604051809103906000f08015801561002c573d6000803e3d6000fd5b506000806101000a81548173ffffffffffffffffffffffffffffffffffffffff021916908373ffffffffffffffffffffffffffffffffffffffff16021790555034801561007857600080fd5b5061008b565b610291806107ae83390190565b6107148061009a6000396000f3fe608060405234801561001057600080fd5b50600436106100365760003560e01c80630fc6b51c1461003b578063905606101461006c575b600080fd5b61005560048036038101906100509190610298565b61008a565b604051610063929190610402565b60405180910390f35b61007461021d565b6040516100819190610384565b60405180910390f35b60008060008054906101000a900473ffffffffffffffffffffffffffffffffffffffff1673ffffffffffffffffffffffffffffffffffffffff1663e006805285856040518363ffffffff1660e01b81526004016100e892919061042b565b60206040518083038186803b15801561010057600080fd5b505afa92505050801561013157506040513d601f19601f8201168201806040525081019061012e919061026b565b60015b61020d5761013d610579565b806308c379a014156101a15750610152610610565b8061015d5750610203565b7f1a105f82e7a73e98ff8b7e5e0479a23ba4df818edeafeec2e4bdfe52624b3ba18160405161018c919061039f565b60405180910390a16000809250925050610216565b634e487b711415610203576101b46106a6565b906101bf5750610203565b7fa999f44f5ca01f1755a1d8c28c08bdb6b5bff8c080bb72cc38486ebae8c928a6816040516101ee91906103d4565b60405180910390a16000809250925050610216565b3d6000803e3d6000fd5b80600192509250505b9250929050565b60008054906101000a900473ffffffffffffffffffffffffffffffffffffffff1681565b600081359050610250816106c7565b92915050565b600081519050610265816106c7565b92915050565b6000602082840312156102815761028061059b565b5b600061028f84828501610256565b91505092915050565b600080604083850312156102af576102ae61059b565b5b60006102bd85828601610241565b92505060206102ce85828601610241565b9150509250929050565b6102e18161047a565b82525050565b6102f0816104b0565b82525050565b60006103018261045e565b61030b8185610469565b935061031b8185602086016104e6565b610324816105a0565b840191505092915050565b600061033c600e83610469565b9150610347826105be565b602082019050919050565b600061035f601183610469565b915061036a826105e7565b602082019050919050565b61037e816104a6565b82525050565b600060208201905061039960008301846102e7565b92915050565b600060408201905081810360008301526103b88161032f565b905081810360208301526103cc81846102f6565b905092915050565b600060408201905081810360008301526103ed81610352565b90506103fc6020830184610375565b92915050565b60006040820190506104176000830185610375565b61042460208301846102d8565b9392505050565b60006040820190506104406000830185610375565b61044d6020830184610375565b9392505050565b6000604051905090565b600081519050919050565b600082825260208201905092915050565b60008115159050919050565b600073ffffffffffffffffffffffffffffffffffffffff82169050919050565b6000819050919050565b60006104bb826104c2565b9050919050565b60006104cd826104d4565b9050919050565b60006104df82610486565b9050919050565b60005b838110156105045780820151818401526020810190506104e9565b83811115610513576000848401525b50505050565b610522826105a0565b810181811067ffffffffffffffff821117156105415761054061054a565b5b80604052505050565b7f4e487b7100000000000000000000000000000000000000000000000000000000600052604160045260246000fd5b600060033d11156105985760046000803e6105956000516105b1565b90505b90565b600080fd5b6000601f19601f8301169050919050565b60008160e01c9050919050565b7f7265766572742f72657175697265000000000000000000000000000000000000600082015250565b7f6173736572744572726f722f50616e6963000000000000000000000000000000600082015250565b600060443d1015610620576106a3565b610628610454565b60043d036004823e80513d602482011167ffffffffffffffff821117156106505750506106a3565b808201805167ffffffffffffffff81111561066e57505050506106a3565b80602083010160043d03850181111561068b5750505050506106a3565b61069a82602001850186610519565b82955050505050505b90565b60008060233d11156106c3576020600460003e6001915060005190505b9091565b6106d0816104a6565b81146106db57600080fd5b5056fea2646970667358221220677905de608aee22b8cc823c7f863f8f80d7d641561de89021775eb6ec9c6d3564736f6c63430008070033608060405234801561001057600080fd5b50610271806100206000396000f3fe608060405234801561001057600080fd5b506004361061002b5760003560e01c8063e006805214610030575b600080fd5b61004a600480360381019061004591906100ce565b610060565b6040516100579190610160565b60405180910390f35b6000600a83106100a5576040517f08c379a000000000000000000000000000000000000000000000000000000000815260040161009c90610140565b60405180910390fd5b82836100b1919061018c565b905092915050565b6000813590506100c881610224565b92915050565b600080604083850312156100e5576100e46101f6565b5b60006100f3858286016100b9565b9250506020610104858286016100b9565b9150509250929050565b600061011b601f8361017b565b9150610126826101fb565b602082019050919050565b61013a816101bd565b82525050565b600060208201905081810360008301526101598161010e565b9050919050565b60006020820190506101756000830184610131565b92915050565b600082825260208201905092915050565b6000610197826101bd565b91506101a2836101bd565b9250826101b2576101b16101c7565b5b828204905092915050565b6000819050919050565b7f4e487b7100000000000000000000000000000000000000000000000000000000600052601260045260246000fd5b600080fd5b7f6e756d312073686f756c64206e6f74206265206d6f7265207468616e20313000600082015250565b61022d816101bd565b811461023857600080fd5b5056fea2646970667358221220a24f4ec89f14c0f6463cfa865ab556ca8fa426211ec5a04a48d26c4b5295fc4a64736f6c63430008070033",
					"opcodes": "PUSH1 0x80 PUSH1 0x40 MSTORE PUSH1 0x40 MLOAD PUSH2 0x10 SWAP1 PUSH2 0x7E JUMP JUMPDEST PUSH1 0x40 MLOAD DUP1 SWAP2 SUB SWAP1 PUSH1 0x0 CREATE DUP1 ISZERO DUP1 ISZERO PUSH2 0x2C JUMPI RETURNDATASIZE PUSH1 0x0 DUP1 RETURNDATACOPY RETURNDATASIZE PUSH1 0x0 REVERT JUMPDEST POP PUSH1 0x0 DUP1 PUSH2 0x100 EXP DUP2 SLOAD DUP2 PUSH20 0xFFFFFFFFFFFFFFFFFFFFFFFFFFFFFFFFFFFFFFFF MUL NOT AND SWAP1 DUP4 PUSH20 0xFFFFFFFFFFFFFFFFFFFFFFFFFFFFFFFFFFFFFFFF AND MUL OR SWAP1 SSTORE POP CALLVALUE DUP1 ISZERO PUSH2 0x78 JUMPI PUSH1 0x0 DUP1 REVERT JUMPDEST POP PUSH2 0x8B JUMP JUMPDEST PUSH2 0x291 DUP1 PUSH2 0x7AE DUP4 CODECOPY ADD SWAP1 JUMP JUMPDEST PUSH2 0x714 DUP1 PUSH2 0x9A PUSH1 0x0 CODECOPY PUSH1 0x0 RETURN INVALID PUSH1 0x80 PUSH1 0x40 MSTORE CALLVALUE DUP1 ISZERO PUSH2 0x10 JUMPI PUSH1 0x0 DUP1 REVERT JUMPDEST POP PUSH1 0x4 CALLDATASIZE LT PUSH2 0x36 JUMPI PUSH1 0x0 CALLDATALOAD PUSH1 0xE0 SHR DUP1 PUSH4 0xFC6B51C EQ PUSH2 0x3B JUMPI DUP1 PUSH4 0x90560610 EQ PUSH2 0x6C JUMPI JUMPDEST PUSH1 0x0 DUP1 REVERT JUMPDEST PUSH2 0x55 PUSH1 0x4 DUP1 CALLDATASIZE SUB DUP2 ADD SWAP1 PUSH2 0x50 SWAP2 SWAP1 PUSH2 0x298 JUMP JUMPDEST PUSH2 0x8A JUMP JUMPDEST PUSH1 0x40 MLOAD PUSH2 0x63 SWAP3 SWAP2 SWAP1 PUSH2 0x402 JUMP JUMPDEST PUSH1 0x40 MLOAD DUP1 SWAP2 SUB SWAP1 RETURN JUMPDEST PUSH2 0x74 PUSH2 0x21D JUMP JUMPDEST PUSH1 0x40 MLOAD PUSH2 0x81 SWAP2 SWAP1 PUSH2 0x384 JUMP JUMPDEST PUSH1 0x40 MLOAD DUP1 SWAP2 SUB SWAP1 RETURN JUMPDEST PUSH1 0x0 DUP1 PUSH1 0x0 DUP1 SLOAD SWAP1 PUSH2 0x100 EXP SWAP1 DIV PUSH20 0xFFFFFFFFFFFFFFFFFFFFFFFFFFFFFFFFFFFFFFFF AND PUSH20 0xFFFFFFFFFFFFFFFFFFFFFFFFFFFFFFFFFFFFFFFF AND PUSH4 0xE0068052 DUP6 DUP6 PUSH1 0x40 MLOAD DUP4 PUSH4 0xFFFFFFFF AND PUSH1 0xE0 SHL DUP2 MSTORE PUSH1 0x4 ADD PUSH2 0xE8 SWAP3 SWAP2 SWAP1 PUSH2 0x42B JUMP JUMPDEST PUSH1 0x20 PUSH1 0x40 MLOAD DUP1 DUP4 SUB DUP2 DUP7 DUP1 EXTCODESIZE ISZERO DUP1 ISZERO PUSH2 0x100 JUMPI PUSH1 0x0 DUP1 REVERT JUMPDEST POP GAS STATICCALL SWAP3 POP POP POP DUP1 ISZERO PUSH2 0x131 JUMPI POP PUSH1 0x40 MLOAD RETURNDATASIZE PUSH1 0x1F NOT PUSH1 0x1F DUP3 ADD AND DUP3 ADD DUP1 PUSH1 0x40 MSTORE POP DUP2 ADD SWAP1 PUSH2 0x12E SWAP2 SWAP1 PUSH2 0x26B JUMP JUMPDEST PUSH1 0x1 JUMPDEST PUSH2 0x20D JUMPI PUSH2 0x13D PUSH2 0x579 JUMP JUMPDEST DUP1 PUSH4 0x8C379A0 EQ ISZERO PUSH2 0x1A1 JUMPI POP PUSH2 0x152 PUSH2 0x610 JUMP JUMPDEST DUP1 PUSH2 0x15D JUMPI POP PUSH2 0x203 JUMP JUMPDEST PUSH32 0x1A105F82E7A73E98FF8B7E5E0479A23BA4DF818EDEAFEEC2E4BDFE52624B3BA1 DUP2 PUSH1 0x40 MLOAD PUSH2 0x18C SWAP2 SWAP1 PUSH2 0x39F JUMP JUMPDEST PUSH1 0x40 MLOAD DUP1 SWAP2 SUB SWAP1 LOG1 PUSH1 0x0 DUP1 SWAP3 POP SWAP3 POP POP PUSH2 0x216 JUMP JUMPDEST PUSH4 0x4E487B71 EQ ISZERO PUSH2 0x203 JUMPI PUSH2 0x1B4 PUSH2 0x6A6 JUMP JUMPDEST SWAP1 PUSH2 0x1BF JUMPI POP PUSH2 0x203 JUMP JUMPDEST PUSH32 0xA999F44F5CA01F1755A1D8C28C08BDB6B5BFF8C080BB72CC38486EBAE8C928A6 DUP2 PUSH1 0x40 MLOAD PUSH2 0x1EE SWAP2 SWAP1 PUSH2 0x3D4 JUMP JUMPDEST PUSH1 0x40 MLOAD DUP1 SWAP2 SUB SWAP1 LOG1 PUSH1 0x0 DUP1 SWAP3 POP SWAP3 POP POP PUSH2 0x216 JUMP JUMPDEST RETURNDATASIZE PUSH1 0x0 DUP1 RETURNDATACOPY RETURNDATASIZE PUSH1 0x0 REVERT JUMPDEST DUP1 PUSH1 0x1 SWAP3 POP SWAP3 POP POP JUMPDEST SWAP3 POP SWAP3 SWAP1 POP JUMP JUMPDEST PUSH1 0x0 DUP1 SLOAD SWAP1 PUSH2 0x100 EXP SWAP1 DIV PUSH20 0xFFFFFFFFFFFFFFFFFFFFFFFFFFFFFFFFFFFFFFFF AND DUP2 JUMP JUMPDEST PUSH1 0x0 DUP2 CALLDATALOAD SWAP1 POP PUSH2 0x250 DUP2 PUSH2 0x6C7 JUMP JUMPDEST SWAP3 SWAP2 POP POP JUMP JUMPDEST PUSH1 0x0 DUP2 MLOAD SWAP1 POP PUSH2 0x265 DUP2 PUSH2 0x6C7 JUMP JUMPDEST SWAP3 SWAP2 POP POP JUMP JUMPDEST PUSH1 0x0 PUSH1 0x20 DUP3 DUP5 SUB SLT ISZERO PUSH2 0x281 JUMPI PUSH2 0x280 PUSH2 0x59B JUMP JUMPDEST JUMPDEST PUSH1 0x0 PUSH2 0x28F DUP5 DUP3 DUP6 ADD PUSH2 0x256 JUMP JUMPDEST SWAP2 POP POP SWAP3 SWAP2 POP POP JUMP JUMPDEST PUSH1 0x0 DUP1 PUSH1 0x40 DUP4 DUP6 SUB SLT ISZERO PUSH2 0x2AF JUMPI PUSH2 0x2AE PUSH2 0x59B JUMP JUMPDEST JUMPDEST PUSH1 0x0 PUSH2 0x2BD DUP6 DUP3 DUP7 ADD PUSH2 0x241 JUMP JUMPDEST SWAP3 POP POP PUSH1 0x20 PUSH2 0x2CE DUP6 DUP3 DUP7 ADD PUSH2 0x241 JUMP JUMPDEST SWAP2 POP POP SWAP3 POP SWAP3 SWAP1 POP JUMP JUMPDEST PUSH2 0x2E1 DUP2 PUSH2 0x47A JUMP JUMPDEST DUP3 MSTORE POP POP JUMP JUMPDEST PUSH2 0x2F0 DUP2 PUSH2 0x4B0 JUMP JUMPDEST DUP3 MSTORE POP POP JUMP JUMPDEST PUSH1 0x0 PUSH2 0x301 DUP3 PUSH2 0x45E JUMP JUMPDEST PUSH2 0x30B DUP2 DUP6 PUSH2 0x469 JUMP JUMPDEST SWAP4 POP PUSH2 0x31B DUP2 DUP6 PUSH1 0x20 DUP7 ADD PUSH2 0x4E6 JUMP JUMPDEST PUSH2 0x324 DUP2 PUSH2 0x5A0 JUMP JUMPDEST DUP5 ADD SWAP2 POP POP SWAP3 SWAP2 POP POP JUMP JUMPDEST PUSH1 0x0 PUSH2 0x33C PUSH1 0xE DUP4 PUSH2 0x469 JUMP JUMPDEST SWAP2 POP PUSH2 0x347 DUP3 PUSH2 0x5BE JUMP JUMPDEST PUSH1 0x20 DUP3 ADD SWAP1 POP SWAP2 SWAP1 POP JUMP JUMPDEST PUSH1 0x0 PUSH2 0x35F PUSH1 0x11 DUP4 PUSH2 0x469 JUMP JUMPDEST SWAP2 POP PUSH2 0x36A DUP3 PUSH2 0x5E7 JUMP JUMPDEST PUSH1 0x20 DUP3 ADD SWAP1 POP SWAP2 SWAP1 POP JUMP JUMPDEST PUSH2 0x37E DUP2 PUSH2 0x4A6 JUMP JUMPDEST DUP3 MSTORE POP POP JUMP JUMPDEST PUSH1 0x0 PUSH1 0x20 DUP3 ADD SWAP1 POP PUSH2 0x399 PUSH1 0x0 DUP4 ADD DUP5 PUSH2 0x2E7 JUMP JUMPDEST SWAP3 SWAP2 POP POP JUMP JUMPDEST PUSH1 0x0 PUSH1 0x40 DUP3 ADD SWAP1 POP DUP2 DUP2 SUB PUSH1 0x0 DUP4 ADD MSTORE PUSH2 0x3B8 DUP2 PUSH2 0x32F JUMP JUMPDEST SWAP1 POP DUP2 DUP2 SUB PUSH1 0x20 DUP4 ADD MSTORE PUSH2 0x3CC DUP2 DUP5 PUSH2 0x2F6 JUMP JUMPDEST SWAP1 POP SWAP3 SWAP2 POP POP JUMP JUMPDEST PUSH1 0x0 PUSH1 0x40 DUP3 ADD SWAP1 POP DUP2 DUP2 SUB PUSH1 0x0 DUP4 ADD MSTORE PUSH2 0x3ED DUP2 PUSH2 0x352 JUMP JUMPDEST SWAP1 POP PUSH2 0x3FC PUSH1 0x20 DUP4 ADD DUP5 PUSH2 0x375 JUMP JUMPDEST SWAP3 SWAP2 POP POP JUMP JUMPDEST PUSH1 0x0 PUSH1 0x40 DUP3 ADD SWAP1 POP PUSH2 0x417 PUSH1 0x0 DUP4 ADD DUP6 PUSH2 0x375 JUMP JUMPDEST PUSH2 0x424 PUSH1 0x20 DUP4 ADD DUP5 PUSH2 0x2D8 JUMP JUMPDEST SWAP4 SWAP3 POP POP POP JUMP JUMPDEST PUSH1 0x0 PUSH1 0x40 DUP3 ADD SWAP1 POP PUSH2 0x440 PUSH1 0x0 DUP4 ADD DUP6 PUSH2 0x375 JUMP JUMPDEST PUSH2 0x44D PUSH1 0x20 DUP4 ADD DUP5 PUSH2 0x375 JUMP JUMPDEST SWAP4 SWAP3 POP POP POP JUMP JUMPDEST PUSH1 0x0 PUSH1 0x40 MLOAD SWAP1 POP SWAP1 JUMP JUMPDEST PUSH1 0x0 DUP2 MLOAD SWAP1 POP SWAP2 SWAP1 POP JUMP JUMPDEST PUSH1 0x0 DUP3 DUP3 MSTORE PUSH1 0x20 DUP3 ADD SWAP1 POP SWAP3 SWAP2 POP POP JUMP JUMPDEST PUSH1 0x0 DUP2 ISZERO ISZERO SWAP1 POP SWAP2 SWAP1 POP JUMP JUMPDEST PUSH1 0x0 PUSH20 0xFFFFFFFFFFFFFFFFFFFFFFFFFFFFFFFFFFFFFFFF DUP3 AND SWAP1 POP SWAP2 SWAP1 POP JUMP JUMPDEST PUSH1 0x0 DUP2 SWAP1 POP SWAP2 SWAP1 POP JUMP JUMPDEST PUSH1 0x0 PUSH2 0x4BB DUP3 PUSH2 0x4C2 JUMP JUMPDEST SWAP1 POP SWAP2 SWAP1 POP JUMP JUMPDEST PUSH1 0x0 PUSH2 0x4CD DUP3 PUSH2 0x4D4 JUMP JUMPDEST SWAP1 POP SWAP2 SWAP1 POP JUMP JUMPDEST PUSH1 0x0 PUSH2 0x4DF DUP3 PUSH2 0x486 JUMP JUMPDEST SWAP1 POP SWAP2 SWAP1 POP JUMP JUMPDEST PUSH1 0x0 JUMPDEST DUP4 DUP2 LT ISZERO PUSH2 0x504 JUMPI DUP1 DUP3 ADD MLOAD DUP2 DUP5 ADD MSTORE PUSH1 0x20 DUP2 ADD SWAP1 POP PUSH2 0x4E9 JUMP JUMPDEST DUP4 DUP2 GT ISZERO PUSH2 0x513 JUMPI PUSH1 0x0 DUP5 DUP5 ADD MSTORE JUMPDEST POP POP POP POP JUMP JUMPDEST PUSH2 0x522 DUP3 PUSH2 0x5A0 JUMP JUMPDEST DUP2 ADD DUP2 DUP2 LT PUSH8 0xFFFFFFFFFFFFFFFF DUP3 GT OR ISZERO PUSH2 0x541 JUMPI PUSH2 0x540 PUSH2 0x54A JUMP JUMPDEST JUMPDEST DUP1 PUSH1 0x40 MSTORE POP POP POP JUMP JUMPDEST PUSH32 0x4E487B7100000000000000000000000000000000000000000000000000000000 PUSH1 0x0 MSTORE PUSH1 0x41 PUSH1 0x4 MSTORE PUSH1 0x24 PUSH1 0x0 REVERT JUMPDEST PUSH1 0x0 PUSH1 0x3 RETURNDATASIZE GT ISZERO PUSH2 0x598 JUMPI PUSH1 0x4 PUSH1 0x0 DUP1 RETURNDATACOPY PUSH2 0x595 PUSH1 0x0 MLOAD PUSH2 0x5B1 JUMP JUMPDEST SWAP1 POP JUMPDEST SWAP1 JUMP JUMPDEST PUSH1 0x0 DUP1 REVERT JUMPDEST PUSH1 0x0 PUSH1 0x1F NOT PUSH1 0x1F DUP4 ADD AND SWAP1 POP SWAP2 SWAP1 POP JUMP JUMPDEST PUSH1 0x0 DUP2 PUSH1 0xE0 SHR SWAP1 POP SWAP2 SWAP1 POP JUMP JUMPDEST PUSH32 0x7265766572742F72657175697265000000000000000000000000000000000000 PUSH1 0x0 DUP3 ADD MSTORE POP JUMP JUMPDEST PUSH32 0x6173736572744572726F722F50616E6963000000000000000000000000000000 PUSH1 0x0 DUP3 ADD MSTORE POP JUMP JUMPDEST PUSH1 0x0 PUSH1 0x44 RETURNDATASIZE LT ISZERO PUSH2 0x620 JUMPI PUSH2 0x6A3 JUMP JUMPDEST PUSH2 0x628 PUSH2 0x454 JUMP JUMPDEST PUSH1 0x4 RETURNDATASIZE SUB PUSH1 0x4 DUP3 RETURNDATACOPY DUP1 MLOAD RETURNDATASIZE PUSH1 0x24 DUP3 ADD GT PUSH8 0xFFFFFFFFFFFFFFFF DUP3 GT OR ISZERO PUSH2 0x650 JUMPI POP POP PUSH2 0x6A3 JUMP JUMPDEST DUP1 DUP3 ADD DUP1 MLOAD PUSH8 0xFFFFFFFFFFFFFFFF DUP2 GT ISZERO PUSH2 0x66E JUMPI POP POP POP POP PUSH2 0x6A3 JUMP JUMPDEST DUP1 PUSH1 0x20 DUP4 ADD ADD PUSH1 0x4 RETURNDATASIZE SUB DUP6 ADD DUP2 GT ISZERO PUSH2 0x68B JUMPI POP POP POP POP POP PUSH2 0x6A3 JUMP JUMPDEST PUSH2 0x69A DUP3 PUSH1 0x20 ADD DUP6 ADD DUP7 PUSH2 0x519 JUMP JUMPDEST DUP3 SWAP6 POP POP POP POP POP POP JUMPDEST SWAP1 JUMP JUMPDEST PUSH1 0x0 DUP1 PUSH1 0x23 RETURNDATASIZE GT ISZERO PUSH2 0x6C3 JUMPI PUSH1 0x20 PUSH1 0x4 PUSH1 0x0 RETURNDATACOPY PUSH1 0x1 SWAP2 POP PUSH1 0x0 MLOAD SWAP1 POP JUMPDEST SWAP1 SWAP2 JUMP JUMPDEST PUSH2 0x6D0 DUP2 PUSH2 0x4A6 JUMP JUMPDEST DUP2 EQ PUSH2 0x6DB JUMPI PUSH1 0x0 DUP1 REVERT JUMPDEST POP JUMP INVALID LOG2 PUSH5 0x6970667358 0x22 SLT KECCAK256 PUSH8 0x7905DE608AEE22B8 0xCC DUP3 EXTCODECOPY PUSH32 0x863F8F80D7D641561DE89021775EB6EC9C6D3564736F6C634300080700336080 PUSH1 0x40 MSTORE CALLVALUE DUP1 ISZERO PUSH2 0x10 JUMPI PUSH1 0x0 DUP1 REVERT JUMPDEST POP PUSH2 0x271 DUP1 PUSH2 0x20 PUSH1 0x0 CODECOPY PUSH1 0x0 RETURN INVALID PUSH1 0x80 PUSH1 0x40 MSTORE CALLVALUE DUP1 ISZERO PUSH2 0x10 JUMPI PUSH1 0x0 DUP1 REVERT JUMPDEST POP PUSH1 0x4 CALLDATASIZE LT PUSH2 0x2B JUMPI PUSH1 0x0 CALLDATALOAD PUSH1 0xE0 SHR DUP1 PUSH4 0xE0068052 EQ PUSH2 0x30 JUMPI JUMPDEST PUSH1 0x0 DUP1 REVERT JUMPDEST PUSH2 0x4A PUSH1 0x4 DUP1 CALLDATASIZE SUB DUP2 ADD SWAP1 PUSH2 0x45 SWAP2 SWAP1 PUSH2 0xCE JUMP JUMPDEST PUSH2 0x60 JUMP JUMPDEST PUSH1 0x40 MLOAD PUSH2 0x57 SWAP2 SWAP1 PUSH2 0x160 JUMP JUMPDEST PUSH1 0x40 MLOAD DUP1 SWAP2 SUB SWAP1 RETURN JUMPDEST PUSH1 0x0 PUSH1 0xA DUP4 LT PUSH2 0xA5 JUMPI PUSH1 0x40 MLOAD PUSH32 0x8C379A000000000000000000000000000000000000000000000000000000000 DUP2 MSTORE PUSH1 0x4 ADD PUSH2 0x9C SWAP1 PUSH2 0x140 JUMP JUMPDEST PUSH1 0x40 MLOAD DUP1 SWAP2 SUB SWAP1 REVERT JUMPDEST DUP3 DUP4 PUSH2 0xB1 SWAP2 SWAP1 PUSH2 0x18C JUMP JUMPDEST SWAP1 POP SWAP3 SWAP2 POP POP JUMP JUMPDEST PUSH1 0x0 DUP2 CALLDATALOAD SWAP1 POP PUSH2 0xC8 DUP2 PUSH2 0x224 JUMP JUMPDEST SWAP3 SWAP2 POP POP JUMP JUMPDEST PUSH1 0x0 DUP1 PUSH1 0x40 DUP4 DUP6 SUB SLT ISZERO PUSH2 0xE5 JUMPI PUSH2 0xE4 PUSH2 0x1F6 JUMP JUMPDEST JUMPDEST PUSH1 0x0 PUSH2 0xF3 DUP6 DUP3 DUP7 ADD PUSH2 0xB9 JUMP JUMPDEST SWAP3 POP POP PUSH1 0x20 PUSH2 0x104 DUP6 DUP3 DUP7 ADD PUSH2 0xB9 JUMP JUMPDEST SWAP2 POP POP SWAP3 POP SWAP3 SWAP1 POP JUMP JUMPDEST PUSH1 0x0 PUSH2 0x11B PUSH1 0x1F DUP4 PUSH2 0x17B JUMP JUMPDEST SWAP2 POP PUSH2 0x126 DUP3 PUSH2 0x1FB JUMP JUMPDEST PUSH1 0x20 DUP3 ADD SWAP1 POP SWAP2 SWAP1 POP JUMP JUMPDEST PUSH2 0x13A DUP2 PUSH2 0x1BD JUMP JUMPDEST DUP3 MSTORE POP POP JUMP JUMPDEST PUSH1 0x0 PUSH1 0x20 DUP3 ADD SWAP1 POP DUP2 DUP2 SUB PUSH1 0x0 DUP4 ADD MSTORE PUSH2 0x159 DUP2 PUSH2 0x10E JUMP JUMPDEST SWAP1 POP SWAP2 SWAP1 POP JUMP JUMPDEST PUSH1 0x0 PUSH1 0x20 DUP3 ADD SWAP1 POP PUSH2 0x175 PUSH1 0x0 DUP4 ADD DUP5 PUSH2 0x131 JUMP JUMPDEST SWAP3 SWAP2 POP POP JUMP JUMPDEST PUSH1 0x0 DUP3 DUP3 MSTORE PUSH1 0x20 DUP3 ADD SWAP1 POP SWAP3 SWAP2 POP POP JUMP JUMPDEST PUSH1 0x0 PUSH2 0x197 DUP3 PUSH2 0x1BD JUMP JUMPDEST SWAP2 POP PUSH2 0x1A2 DUP4 PUSH2 0x1BD JUMP JUMPDEST SWAP3 POP DUP3 PUSH2 0x1B2 JUMPI PUSH2 0x1B1 PUSH2 0x1C7 JUMP JUMPDEST JUMPDEST DUP3 DUP3 DIV SWAP1 POP SWAP3 SWAP2 POP POP JUMP JUMPDEST PUSH1 0x0 DUP2 SWAP1 POP SWAP2 SWAP1 POP JUMP JUMPDEST PUSH32 0x4E487B7100000000000000000000000000000000000000000000000000000000 PUSH1 0x0 MSTORE PUSH1 0x12 PUSH1 0x4 MSTORE PUSH1 0x24 PUSH1 0x0 REVERT JUMPDEST PUSH1 0x0 DUP1 REVERT JUMPDEST PUSH32 0x6E756D312073686F756C64206E6F74206265206D6F7265207468616E20313000 PUSH1 0x0 DUP3 ADD MSTORE POP JUMP JUMPDEST PUSH2 0x22D DUP2 PUSH2 0x1BD JUMP JUMPDEST DUP2 EQ PUSH2 0x238 JUMPI PUSH1 0x0 DUP1 REVERT JUMPDEST POP JUMP INVALID LOG2 PUSH5 0x6970667358 0x22 SLT KECCAK256 LOG2 0x4F 0x4E 0xC8 SWAP16 EQ 0xC0 0xF6 CHAINID EXTCODECOPY STATICCALL DUP7 GAS 0xB5 JUMP 0xCA DUP16 LOG4 0x26 0x21 0x1E 0xC5 LOG0 0x4A BASEFEE 0xD2 PUSH13 0x4B5295FC4A64736F6C63430008 SMOD STOP CALLER "
				},
				"gasEstimates": {
					"creation": {
						"codeDepositCost": "362400",
						"executionCost": "infinite",
						"totalCost": "infinite"
					},
					"external": {
						"mathInstance()": "2597",
						"playTryCatch(uint256,uint256)": "infinite"
					}
				},
				"methodIdentifiers": {
					"mathInstance()": "90560610",
					"playTryCatch(uint256,uint256)": "0fc6b51c"
				}
			},
			"userdoc": {
				"kind": "user",
				"methods": {},
				"version": 1
			}
		}
	}
}