{
	"lecture/lec32.sol": {
		"lec32": {
			"abi": [
				{
					"anonymous": false,
					"inputs": [
						{
							"indexed": false,
							"internalType": "uint256",
							"name": "_value",
							"type": "uint256"
						}
					],
					"name": "howMuch",
					"type": "event"
				},
				{
					"inputs": [
						{
							"internalType": "address payable",
							"name": "_to",
							"type": "address"
						}
					],
					"name": "sendNow",
					"outputs": [],
					"stateMutability": "payable",
					"type": "function"
				},
				{
					"inputs": [
						{
							"internalType": "address payable",
							"name": "_to",
							"type": "address"
						}
					],
					"name": "transferNow",
					"outputs": [],
					"stateMutability": "payable",
					"type": "function"
				},
				{
					"inputs": [
						{
							"internalType": "uint256",
							"name": "_second",
							"type": "uint256"
						}
					],
					"name": "trasnlateClock",
					"outputs": [
						{
							"internalType": "uint256",
							"name": "",
							"type": "uint256"
						},
						{
							"internalType": "uint256",
							"name": "",
							"type": "uint256"
						},
						{
							"internalType": "uint256",
							"name": "",
							"type": "uint256"
						}
					],
					"stateMutability": "pure",
					"type": "function"
				}
			],
			"devdoc": {
				"kind": "dev",
				"methods": {},
				"version": 1
			},
			"evm": {
				"assembly": "    /* \"lecture/lec32.sol\":157:1614  contract lec32{\r... */\n  mstore(0x40, 0x80)\n  callvalue\n  dup1\n  iszero\n  tag_1\n  jumpi\n  0x00\n  dup1\n  revert\ntag_1:\n  pop\n  dataSize(sub_0)\n  dup1\n  dataOffset(sub_0)\n  0x00\n  codecopy\n  0x00\n  return\nstop\n\nsub_0: assembly {\n        /* \"lecture/lec32.sol\":157:1614  contract lec32{\r... */\n      mstore(0x40, 0x80)\n      jumpi(tag_1, lt(calldatasize, 0x04))\n      shr(0xe0, calldataload(0x00))\n      dup1\n      0x0b1fa23f\n      eq\n      tag_2\n      jumpi\n      dup1\n      0x56a967b4\n      eq\n      tag_3\n      jumpi\n      dup1\n      0x5d9f3a17\n      eq\n      tag_4\n      jumpi\n    tag_1:\n      0x00\n      dup1\n      revert\n        /* \"lecture/lec32.sol\":1035:1220  function sendNow(address payable _to) public payable{\r... */\n    tag_2:\n      tag_5\n      0x04\n      dup1\n      calldatasize\n      sub\n      dup2\n      add\n      swap1\n      tag_6\n      swap2\n      swap1\n      tag_7\n      jump\t// in\n    tag_6:\n      tag_8\n      jump\t// in\n    tag_5:\n      stop\n        /* \"lecture/lec32.sol\":1228:1360  function transferNow(address payable _to) public payable{\r... */\n    tag_3:\n      tag_9\n      0x04\n      dup1\n      calldatasize\n      sub\n      dup2\n      add\n      swap1\n      tag_10\n      swap2\n      swap1\n      tag_7\n      jump\t// in\n    tag_10:\n      tag_11\n      jump\t// in\n    tag_9:\n      stop\n        /* \"lecture/lec32.sol\":1372:1611  function trasnlateClock(uint256 _second) public pure returns(uint256, uint256, uint256){\r... */\n    tag_4:\n      callvalue\n      dup1\n      iszero\n      tag_12\n      jumpi\n      0x00\n      dup1\n      revert\n    tag_12:\n      pop\n      tag_13\n      0x04\n      dup1\n      calldatasize\n      sub\n      dup2\n      add\n      swap1\n      tag_14\n      swap2\n      swap1\n      tag_15\n      jump\t// in\n    tag_14:\n      tag_16\n      jump\t// in\n    tag_13:\n      mload(0x40)\n      tag_17\n      swap4\n      swap3\n      swap2\n      swap1\n      tag_18\n      jump\t// in\n    tag_17:\n      mload(0x40)\n      dup1\n      swap2\n      sub\n      swap1\n      return\n        /* \"lecture/lec32.sol\":1035:1220  function sendNow(address payable _to) public payable{\r... */\n    tag_8:\n        /* \"lecture/lec32.sol\":1098:1107  bool sent */\n      0x00\n        /* \"lecture/lec32.sol\":1110:1113  _to */\n      dup2\n        /* \"lecture/lec32.sol\":1110:1118  _to.send */\n      0xffffffffffffffffffffffffffffffffffffffff\n      and\n        /* \"lecture/lec32.sol\":1110:1129  _to.send(msg.value) */\n      0x08fc\n        /* \"lecture/lec32.sol\":1119:1128  msg.value */\n      callvalue\n        /* \"lecture/lec32.sol\":1110:1129  _to.send(msg.value) */\n      swap1\n      dup2\n      iszero\n      mul\n      swap1\n      mload(0x40)\n      0x00\n      mload(0x40)\n      dup1\n      dup4\n      sub\n      dup2\n      dup6\n      dup9\n      dup9\n      call\n      swap4\n      pop\n      pop\n      pop\n      pop\n        /* \"lecture/lec32.sol\":1098:1129  bool sent = _to.send(msg.value) */\n      swap1\n      pop\n        /* \"lecture/lec32.sol\":1148:1152  sent */\n      dup1\n        /* \"lecture/lec32.sol\":1140:1178  require(sent, \"Failed to send either\") */\n      tag_21\n      jumpi\n      mload(0x40)\n      0x08c379a000000000000000000000000000000000000000000000000000000000\n      dup2\n      mstore\n      0x04\n      add\n      tag_22\n      swap1\n      tag_23\n      jump\t// in\n    tag_22:\n      mload(0x40)\n      dup1\n      swap2\n      sub\n      swap1\n      revert\n    tag_21:\n        /* \"lecture/lec32.sol\":1194:1212  howMuch(msg.value) */\n      0xe4f740571b79610deff27ca80ef3046de224a7fc42e82177a0d9919cd5b7a8d9\n        /* \"lecture/lec32.sol\":1202:1211  msg.value */\n      callvalue\n        /* \"lecture/lec32.sol\":1194:1212  howMuch(msg.value) */\n      mload(0x40)\n      tag_24\n      swap2\n      swap1\n      tag_25\n      jump\t// in\n    tag_24:\n      mload(0x40)\n      dup1\n      swap2\n      sub\n      swap1\n      log1\n        /* \"lecture/lec32.sol\":1087:1220  {\r... */\n      pop\n        /* \"lecture/lec32.sol\":1035:1220  function sendNow(address payable _to) public payable{\r... */\n      pop\n      jump\t// out\n        /* \"lecture/lec32.sol\":1228:1360  function transferNow(address payable _to) public payable{\r... */\n    tag_11:\n        /* \"lecture/lec32.sol\":1295:1298  _to */\n      dup1\n        /* \"lecture/lec32.sol\":1295:1307  _to.transfer */\n      0xffffffffffffffffffffffffffffffffffffffff\n      and\n        /* \"lecture/lec32.sol\":1295:1318  _to.transfer(msg.value) */\n      0x08fc\n        /* \"lecture/lec32.sol\":1308:1317  msg.value */\n      callvalue\n        /* \"lecture/lec32.sol\":1295:1318  _to.transfer(msg.value) */\n      swap1\n      dup2\n      iszero\n      mul\n      swap1\n      mload(0x40)\n      0x00\n      mload(0x40)\n      dup1\n      dup4\n      sub\n      dup2\n      dup6\n      dup9\n      dup9\n      call\n      swap4\n      pop\n      pop\n      pop\n      pop\n      iszero\n      dup1\n      iszero\n      tag_28\n      jumpi\n      returndatasize\n      0x00\n      dup1\n      returndatacopy\n      revert(0x00, returndatasize)\n    tag_28:\n      pop\n        /* \"lecture/lec32.sol\":1334:1352  howMuch(msg.value) */\n      0xe4f740571b79610deff27ca80ef3046de224a7fc42e82177a0d9919cd5b7a8d9\n        /* \"lecture/lec32.sol\":1342:1351  msg.value */\n      callvalue\n        /* \"lecture/lec32.sol\":1334:1352  howMuch(msg.value) */\n      mload(0x40)\n      tag_29\n      swap2\n      swap1\n      tag_25\n      jump\t// in\n    tag_29:\n      mload(0x40)\n      dup1\n      swap2\n      sub\n      swap1\n      log1\n        /* \"lecture/lec32.sol\":1228:1360  function transferNow(address payable _to) public payable{\r... */\n      pop\n      jump\t// out\n        /* \"lecture/lec32.sol\":1372:1611  function trasnlateClock(uint256 _second) public pure returns(uint256, uint256, uint256){\r... */\n    tag_16:\n        /* \"lecture/lec32.sol\":1433:1440  uint256 */\n      0x00\n        /* \"lecture/lec32.sol\":1442:1449  uint256 */\n      dup1\n        /* \"lecture/lec32.sol\":1451:1458  uint256 */\n      0x00\n        /* \"lecture/lec32.sol\":1470:1484  uint256 second */\n      dup1\n        /* \"lecture/lec32.sol\":1495:1497  60 */\n      0x3c\n        /* \"lecture/lec32.sol\":1487:1494  _second */\n      dup6\n        /* \"lecture/lec32.sol\":1487:1497  _second%60 */\n      tag_31\n      swap2\n      swap1\n      tag_32\n      jump\t// in\n    tag_31:\n        /* \"lecture/lec32.sol\":1470:1497  uint256 second = _second%60 */\n      swap1\n      pop\n        /* \"lecture/lec32.sol\":1508:1519  uint256 min */\n      0x00\n        /* \"lecture/lec32.sol\":1530:1532  60 */\n      0x3c\n        /* \"lecture/lec32.sol\":1522:1529  _second */\n      dup7\n        /* \"lecture/lec32.sol\":1522:1532  _second/60 */\n      tag_33\n      swap2\n      swap1\n      tag_34\n      jump\t// in\n    tag_33:\n        /* \"lecture/lec32.sol\":1508:1532  uint256 min = _second/60 */\n      swap1\n      pop\n        /* \"lecture/lec32.sol\":1543:1555  uint256 hour */\n      0x00\n        /* \"lecture/lec32.sol\":1562:1564  60 */\n      0x3c\n        /* \"lecture/lec32.sol\":1558:1561  min */\n      dup3\n        /* \"lecture/lec32.sol\":1558:1564  min/60 */\n      tag_35\n      swap2\n      swap1\n      tag_34\n      jump\t// in\n    tag_35:\n        /* \"lecture/lec32.sol\":1543:1564  uint256 hour = min/60 */\n      swap1\n      pop\n        /* \"lecture/lec32.sol\":1585:1591  second */\n      dup3\n        /* \"lecture/lec32.sol\":1593:1596  min */\n      dup3\n        /* \"lecture/lec32.sol\":1598:1602  hour */\n      dup3\n        /* \"lecture/lec32.sol\":1577:1603  return (second, min, hour) */\n      swap6\n      pop\n      swap6\n      pop\n      swap6\n      pop\n      pop\n      pop\n      pop\n        /* \"lecture/lec32.sol\":1372:1611  function trasnlateClock(uint256 _second) public pure returns(uint256, uint256, uint256){\r... */\n      swap2\n      swap4\n      swap1\n      swap3\n      pop\n      jump\t// out\n        /* \"#utility.yul\":7:162   */\n    tag_37:\n        /* \"#utility.yul\":61:66   */\n      0x00\n        /* \"#utility.yul\":99:105   */\n      dup2\n        /* \"#utility.yul\":86:106   */\n      calldataload\n        /* \"#utility.yul\":77:106   */\n      swap1\n      pop\n        /* \"#utility.yul\":115:156   */\n      tag_39\n        /* \"#utility.yul\":150:155   */\n      dup2\n        /* \"#utility.yul\":115:156   */\n      tag_40\n      jump\t// in\n    tag_39:\n        /* \"#utility.yul\":7:162   */\n      swap3\n      swap2\n      pop\n      pop\n      jump\t// out\n        /* \"#utility.yul\":168:307   */\n    tag_41:\n        /* \"#utility.yul\":214:219   */\n      0x00\n        /* \"#utility.yul\":252:258   */\n      dup2\n        /* \"#utility.yul\":239:259   */\n      calldataload\n        /* \"#utility.yul\":230:259   */\n      swap1\n      pop\n        /* \"#utility.yul\":268:301   */\n      tag_43\n        /* \"#utility.yul\":295:300   */\n      dup2\n        /* \"#utility.yul\":268:301   */\n      tag_44\n      jump\t// in\n    tag_43:\n        /* \"#utility.yul\":168:307   */\n      swap3\n      swap2\n      pop\n      pop\n      jump\t// out\n        /* \"#utility.yul\":313:658   */\n    tag_7:\n        /* \"#utility.yul\":380:386   */\n      0x00\n        /* \"#utility.yul\":429:431   */\n      0x20\n        /* \"#utility.yul\":417:426   */\n      dup3\n        /* \"#utility.yul\":408:415   */\n      dup5\n        /* \"#utility.yul\":404:427   */\n      sub\n        /* \"#utility.yul\":400:432   */\n      slt\n        /* \"#utility.yul\":397:516   */\n      iszero\n      tag_46\n      jumpi\n        /* \"#utility.yul\":435:514   */\n      tag_47\n      tag_48\n      jump\t// in\n    tag_47:\n        /* \"#utility.yul\":397:516   */\n    tag_46:\n        /* \"#utility.yul\":555:556   */\n      0x00\n        /* \"#utility.yul\":580:641   */\n      tag_49\n        /* \"#utility.yul\":633:640   */\n      dup5\n        /* \"#utility.yul\":624:630   */\n      dup3\n        /* \"#utility.yul\":613:622   */\n      dup6\n        /* \"#utility.yul\":609:631   */\n      add\n        /* \"#utility.yul\":580:641   */\n      tag_37\n      jump\t// in\n    tag_49:\n        /* \"#utility.yul\":570:641   */\n      swap2\n      pop\n        /* \"#utility.yul\":526:651   */\n      pop\n        /* \"#utility.yul\":313:658   */\n      swap3\n      swap2\n      pop\n      pop\n      jump\t// out\n        /* \"#utility.yul\":664:993   */\n    tag_15:\n        /* \"#utility.yul\":723:729   */\n      0x00\n        /* \"#utility.yul\":772:774   */\n      0x20\n        /* \"#utility.yul\":760:769   */\n      dup3\n        /* \"#utility.yul\":751:758   */\n      dup5\n        /* \"#utility.yul\":747:770   */\n      sub\n        /* \"#utility.yul\":743:775   */\n      slt\n        /* \"#utility.yul\":740:859   */\n      iszero\n      tag_51\n      jumpi\n        /* \"#utility.yul\":778:857   */\n      tag_52\n      tag_48\n      jump\t// in\n    tag_52:\n        /* \"#utility.yul\":740:859   */\n    tag_51:\n        /* \"#utility.yul\":898:899   */\n      0x00\n        /* \"#utility.yul\":923:976   */\n      tag_53\n        /* \"#utility.yul\":968:975   */\n      dup5\n        /* \"#utility.yul\":959:965   */\n      dup3\n        /* \"#utility.yul\":948:957   */\n      dup6\n        /* \"#utility.yul\":944:966   */\n      add\n        /* \"#utility.yul\":923:976   */\n      tag_41\n      jump\t// in\n    tag_53:\n        /* \"#utility.yul\":913:976   */\n      swap2\n      pop\n        /* \"#utility.yul\":869:986   */\n      pop\n        /* \"#utility.yul\":664:993   */\n      swap3\n      swap2\n      pop\n      pop\n      jump\t// out\n        /* \"#utility.yul\":999:1365   */\n    tag_54:\n        /* \"#utility.yul\":1141:1144   */\n      0x00\n        /* \"#utility.yul\":1162:1229   */\n      tag_56\n        /* \"#utility.yul\":1226:1228   */\n      0x15\n        /* \"#utility.yul\":1221:1224   */\n      dup4\n        /* \"#utility.yul\":1162:1229   */\n      tag_57\n      jump\t// in\n    tag_56:\n        /* \"#utility.yul\":1155:1229   */\n      swap2\n      pop\n        /* \"#utility.yul\":1238:1331   */\n      tag_58\n        /* \"#utility.yul\":1327:1330   */\n      dup3\n        /* \"#utility.yul\":1238:1331   */\n      tag_59\n      jump\t// in\n    tag_58:\n        /* \"#utility.yul\":1356:1358   */\n      0x20\n        /* \"#utility.yul\":1351:1354   */\n      dup3\n        /* \"#utility.yul\":1347:1359   */\n      add\n        /* \"#utility.yul\":1340:1359   */\n      swap1\n      pop\n        /* \"#utility.yul\":999:1365   */\n      swap2\n      swap1\n      pop\n      jump\t// out\n        /* \"#utility.yul\":1371:1489   */\n    tag_60:\n        /* \"#utility.yul\":1458:1482   */\n      tag_62\n        /* \"#utility.yul\":1476:1481   */\n      dup2\n        /* \"#utility.yul\":1458:1482   */\n      tag_63\n      jump\t// in\n    tag_62:\n        /* \"#utility.yul\":1453:1456   */\n      dup3\n        /* \"#utility.yul\":1446:1483   */\n      mstore\n        /* \"#utility.yul\":1371:1489   */\n      pop\n      pop\n      jump\t// out\n        /* \"#utility.yul\":1495:1914   */\n    tag_23:\n        /* \"#utility.yul\":1661:1665   */\n      0x00\n        /* \"#utility.yul\":1699:1701   */\n      0x20\n        /* \"#utility.yul\":1688:1697   */\n      dup3\n        /* \"#utility.yul\":1684:1702   */\n      add\n        /* \"#utility.yul\":1676:1702   */\n      swap1\n      pop\n        /* \"#utility.yul\":1748:1757   */\n      dup2\n        /* \"#utility.yul\":1742:1746   */\n      dup2\n        /* \"#utility.yul\":1738:1758   */\n      sub\n        /* \"#utility.yul\":1734:1735   */\n      0x00\n        /* \"#utility.yul\":1723:1732   */\n      dup4\n        /* \"#utility.yul\":1719:1736   */\n      add\n        /* \"#utility.yul\":1712:1759   */\n      mstore\n        /* \"#utility.yul\":1776:1907   */\n      tag_65\n        /* \"#utility.yul\":1902:1906   */\n      dup2\n        /* \"#utility.yul\":1776:1907   */\n      tag_54\n      jump\t// in\n    tag_65:\n        /* \"#utility.yul\":1768:1907   */\n      swap1\n      pop\n        /* \"#utility.yul\":1495:1914   */\n      swap2\n      swap1\n      pop\n      jump\t// out\n        /* \"#utility.yul\":1920:2142   */\n    tag_25:\n        /* \"#utility.yul\":2013:2017   */\n      0x00\n        /* \"#utility.yul\":2051:2053   */\n      0x20\n        /* \"#utility.yul\":2040:2049   */\n      dup3\n        /* \"#utility.yul\":2036:2054   */\n      add\n        /* \"#utility.yul\":2028:2054   */\n      swap1\n      pop\n        /* \"#utility.yul\":2064:2135   */\n      tag_67\n        /* \"#utility.yul\":2132:2133   */\n      0x00\n        /* \"#utility.yul\":2121:2130   */\n      dup4\n        /* \"#utility.yul\":2117:2134   */\n      add\n        /* \"#utility.yul\":2108:2114   */\n      dup5\n        /* \"#utility.yul\":2064:2135   */\n      tag_60\n      jump\t// in\n    tag_67:\n        /* \"#utility.yul\":1920:2142   */\n      swap3\n      swap2\n      pop\n      pop\n      jump\t// out\n        /* \"#utility.yul\":2148:2590   */\n    tag_18:\n        /* \"#utility.yul\":2297:2301   */\n      0x00\n        /* \"#utility.yul\":2335:2337   */\n      0x60\n        /* \"#utility.yul\":2324:2333   */\n      dup3\n        /* \"#utility.yul\":2320:2338   */\n      add\n        /* \"#utility.yul\":2312:2338   */\n      swap1\n      pop\n        /* \"#utility.yul\":2348:2419   */\n      tag_69\n        /* \"#utility.yul\":2416:2417   */\n      0x00\n        /* \"#utility.yul\":2405:2414   */\n      dup4\n        /* \"#utility.yul\":2401:2418   */\n      add\n        /* \"#utility.yul\":2392:2398   */\n      dup7\n        /* \"#utility.yul\":2348:2419   */\n      tag_60\n      jump\t// in\n    tag_69:\n        /* \"#utility.yul\":2429:2501   */\n      tag_70\n        /* \"#utility.yul\":2497:2499   */\n      0x20\n        /* \"#utility.yul\":2486:2495   */\n      dup4\n        /* \"#utility.yul\":2482:2500   */\n      add\n        /* \"#utility.yul\":2473:2479   */\n      dup6\n        /* \"#utility.yul\":2429:2501   */\n      tag_60\n      jump\t// in\n    tag_70:\n        /* \"#utility.yul\":2511:2583   */\n      tag_71\n        /* \"#utility.yul\":2579:2581   */\n      0x40\n        /* \"#utility.yul\":2568:2577   */\n      dup4\n        /* \"#utility.yul\":2564:2582   */\n      add\n        /* \"#utility.yul\":2555:2561   */\n      dup5\n        /* \"#utility.yul\":2511:2583   */\n      tag_60\n      jump\t// in\n    tag_71:\n        /* \"#utility.yul\":2148:2590   */\n      swap5\n      swap4\n      pop\n      pop\n      pop\n      pop\n      jump\t// out\n        /* \"#utility.yul\":2677:2846   */\n    tag_57:\n        /* \"#utility.yul\":2761:2772   */\n      0x00\n        /* \"#utility.yul\":2795:2801   */\n      dup3\n        /* \"#utility.yul\":2790:2793   */\n      dup3\n        /* \"#utility.yul\":2783:2802   */\n      mstore\n        /* \"#utility.yul\":2835:2839   */\n      0x20\n        /* \"#utility.yul\":2830:2833   */\n      dup3\n        /* \"#utility.yul\":2826:2840   */\n      add\n        /* \"#utility.yul\":2811:2840   */\n      swap1\n      pop\n        /* \"#utility.yul\":2677:2846   */\n      swap3\n      swap2\n      pop\n      pop\n      jump\t// out\n        /* \"#utility.yul\":2852:3037   */\n    tag_34:\n        /* \"#utility.yul\":2892:2893   */\n      0x00\n        /* \"#utility.yul\":2909:2929   */\n      tag_76\n        /* \"#utility.yul\":2927:2928   */\n      dup3\n        /* \"#utility.yul\":2909:2929   */\n      tag_63\n      jump\t// in\n    tag_76:\n        /* \"#utility.yul\":2904:2929   */\n      swap2\n      pop\n        /* \"#utility.yul\":2943:2963   */\n      tag_77\n        /* \"#utility.yul\":2961:2962   */\n      dup4\n        /* \"#utility.yul\":2943:2963   */\n      tag_63\n      jump\t// in\n    tag_77:\n        /* \"#utility.yul\":2938:2963   */\n      swap3\n      pop\n        /* \"#utility.yul\":2982:2983   */\n      dup3\n        /* \"#utility.yul\":2972:3007   */\n      tag_78\n      jumpi\n        /* \"#utility.yul\":2987:3005   */\n      tag_79\n      tag_80\n      jump\t// in\n    tag_79:\n        /* \"#utility.yul\":2972:3007   */\n    tag_78:\n        /* \"#utility.yul\":3029:3030   */\n      dup3\n        /* \"#utility.yul\":3026:3027   */\n      dup3\n        /* \"#utility.yul\":3022:3031   */\n      div\n        /* \"#utility.yul\":3017:3031   */\n      swap1\n      pop\n        /* \"#utility.yul\":2852:3037   */\n      swap3\n      swap2\n      pop\n      pop\n      jump\t// out\n        /* \"#utility.yul\":3043:3147   */\n    tag_81:\n        /* \"#utility.yul\":3088:3095   */\n      0x00\n        /* \"#utility.yul\":3117:3141   */\n      tag_83\n        /* \"#utility.yul\":3135:3140   */\n      dup3\n        /* \"#utility.yul\":3117:3141   */\n      tag_84\n      jump\t// in\n    tag_83:\n        /* \"#utility.yul\":3106:3141   */\n      swap1\n      pop\n        /* \"#utility.yul\":3043:3147   */\n      swap2\n      swap1\n      pop\n      jump\t// out\n        /* \"#utility.yul\":3153:3279   */\n    tag_84:\n        /* \"#utility.yul\":3190:3197   */\n      0x00\n        /* \"#utility.yul\":3230:3272   */\n      0xffffffffffffffffffffffffffffffffffffffff\n        /* \"#utility.yul\":3223:3228   */\n      dup3\n        /* \"#utility.yul\":3219:3273   */\n      and\n        /* \"#utility.yul\":3208:3273   */\n      swap1\n      pop\n        /* \"#utility.yul\":3153:3279   */\n      swap2\n      swap1\n      pop\n      jump\t// out\n        /* \"#utility.yul\":3285:3362   */\n    tag_63:\n        /* \"#utility.yul\":3322:3329   */\n      0x00\n        /* \"#utility.yul\":3351:3356   */\n      dup2\n        /* \"#utility.yul\":3340:3356   */\n      swap1\n      pop\n        /* \"#utility.yul\":3285:3362   */\n      swap2\n      swap1\n      pop\n      jump\t// out\n        /* \"#utility.yul\":3368:3544   */\n    tag_32:\n        /* \"#utility.yul\":3400:3401   */\n      0x00\n        /* \"#utility.yul\":3417:3437   */\n      tag_88\n        /* \"#utility.yul\":3435:3436   */\n      dup3\n        /* \"#utility.yul\":3417:3437   */\n      tag_63\n      jump\t// in\n    tag_88:\n        /* \"#utility.yul\":3412:3437   */\n      swap2\n      pop\n        /* \"#utility.yul\":3451:3471   */\n      tag_89\n        /* \"#utility.yul\":3469:3470   */\n      dup4\n        /* \"#utility.yul\":3451:3471   */\n      tag_63\n      jump\t// in\n    tag_89:\n        /* \"#utility.yul\":3446:3471   */\n      swap3\n      pop\n        /* \"#utility.yul\":3490:3491   */\n      dup3\n        /* \"#utility.yul\":3480:3515   */\n      tag_90\n      jumpi\n        /* \"#utility.yul\":3495:3513   */\n      tag_91\n      tag_80\n      jump\t// in\n    tag_91:\n        /* \"#utility.yul\":3480:3515   */\n    tag_90:\n        /* \"#utility.yul\":3536:3537   */\n      dup3\n        /* \"#utility.yul\":3533:3534   */\n      dup3\n        /* \"#utility.yul\":3529:3538   */\n      mod\n        /* \"#utility.yul\":3524:3538   */\n      swap1\n      pop\n        /* \"#utility.yul\":3368:3544   */\n      swap3\n      swap2\n      pop\n      pop\n      jump\t// out\n        /* \"#utility.yul\":3736:3916   */\n    tag_80:\n        /* \"#utility.yul\":3784:3861   */\n      0x4e487b7100000000000000000000000000000000000000000000000000000000\n        /* \"#utility.yul\":3781:3782   */\n      0x00\n        /* \"#utility.yul\":3774:3862   */\n      mstore\n        /* \"#utility.yul\":3881:3885   */\n      0x12\n        /* \"#utility.yul\":3878:3879   */\n      0x04\n        /* \"#utility.yul\":3871:3886   */\n      mstore\n        /* \"#utility.yul\":3905:3909   */\n      0x24\n        /* \"#utility.yul\":3902:3903   */\n      0x00\n        /* \"#utility.yul\":3895:3910   */\n      revert\n        /* \"#utility.yul\":4045:4162   */\n    tag_48:\n        /* \"#utility.yul\":4154:4155   */\n      0x00\n        /* \"#utility.yul\":4151:4152   */\n      dup1\n        /* \"#utility.yul\":4144:4156   */\n      revert\n        /* \"#utility.yul\":4168:4339   */\n    tag_59:\n        /* \"#utility.yul\":4308:4331   */\n      0x4661696c656420746f2073656e64206569746865720000000000000000000000\n        /* \"#utility.yul\":4304:4305   */\n      0x00\n        /* \"#utility.yul\":4296:4302   */\n      dup3\n        /* \"#utility.yul\":4292:4306   */\n      add\n        /* \"#utility.yul\":4285:4332   */\n      mstore\n        /* \"#utility.yul\":4168:4339   */\n      pop\n      jump\t// out\n        /* \"#utility.yul\":4345:4483   */\n    tag_40:\n        /* \"#utility.yul\":4426:4458   */\n      tag_100\n        /* \"#utility.yul\":4452:4457   */\n      dup2\n        /* \"#utility.yul\":4426:4458   */\n      tag_81\n      jump\t// in\n    tag_100:\n        /* \"#utility.yul\":4419:4424   */\n      dup2\n        /* \"#utility.yul\":4416:4459   */\n      eq\n        /* \"#utility.yul\":4406:4477   */\n      tag_101\n      jumpi\n        /* \"#utility.yul\":4473:4474   */\n      0x00\n        /* \"#utility.yul\":4470:4471   */\n      dup1\n        /* \"#utility.yul\":4463:4475   */\n      revert\n        /* \"#utility.yul\":4406:4477   */\n    tag_101:\n        /* \"#utility.yul\":4345:4483   */\n      pop\n      jump\t// out\n        /* \"#utility.yul\":4489:4611   */\n    tag_44:\n        /* \"#utility.yul\":4562:4586   */\n      tag_103\n        /* \"#utility.yul\":4580:4585   */\n      dup2\n        /* \"#utility.yul\":4562:4586   */\n      tag_63\n      jump\t// in\n    tag_103:\n        /* \"#utility.yul\":4555:4560   */\n      dup2\n        /* \"#utility.yul\":4552:4587   */\n      eq\n        /* \"#utility.yul\":4542:4605   */\n      tag_104\n      jumpi\n        /* \"#utility.yul\":4601:4602   */\n      0x00\n        /* \"#utility.yul\":4598:4599   */\n      dup1\n        /* \"#utility.yul\":4591:4603   */\n      revert\n        /* \"#utility.yul\":4542:4605   */\n    tag_104:\n        /* \"#utility.yul\":4489:4611   */\n      pop\n      jump\t// out\n\n    auxdata: 0xa26469706673582212205b7371a54c9d7203885f94110e13ef4252b5c62f027add40c67a099f6d4bd62064736f6c63430008070033\n}\n",
				"bytecode": {
					"linkReferences": {},
					"object": "608060405234801561001057600080fd5b506104c7806100206000396000f3fe6080604052600436106100345760003560e01c80630b1fa23f1461003957806356a967b4146100555780635d9f3a1714610071575b600080fd5b610053600480360381019061004e9190610259565b6100b0565b005b61006f600480360381019061006a9190610259565b610164565b005b34801561007d57600080fd5b5061009860048036038101906100939190610286565b6101e5565b6040516100a793929190610320565b60405180910390f35b60008173ffffffffffffffffffffffffffffffffffffffff166108fc349081150290604051600060405180830381858888f19350505050905080610129576040517f08c379a0000000000000000000000000000000000000000000000000000000008152600401610120906102e5565b60405180910390fd5b7fe4f740571b79610deff27ca80ef3046de224a7fc42e82177a0d9919cd5b7a8d9346040516101589190610305565b60405180910390a15050565b8073ffffffffffffffffffffffffffffffffffffffff166108fc349081150290604051600060405180830381858888f193505050501580156101aa573d6000803e3d6000fd5b507fe4f740571b79610deff27ca80ef3046de224a7fc42e82177a0d9919cd5b7a8d9346040516101da9190610305565b60405180910390a150565b600080600080603c856101f891906103d5565b90506000603c866102099190610368565b90506000603c8261021a9190610368565b90508282829550955095505050509193909250565b60008135905061023e81610463565b92915050565b6000813590506102538161047a565b92915050565b60006020828403121561026f5761026e610435565b5b600061027d8482850161022f565b91505092915050565b60006020828403121561029c5761029b610435565b5b60006102aa84828501610244565b91505092915050565b60006102c0601583610357565b91506102cb8261043a565b602082019050919050565b6102df816103cb565b82525050565b600060208201905081810360008301526102fe816102b3565b9050919050565b600060208201905061031a60008301846102d6565b92915050565b600060608201905061033560008301866102d6565b61034260208301856102d6565b61034f60408301846102d6565b949350505050565b600082825260208201905092915050565b6000610373826103cb565b915061037e836103cb565b92508261038e5761038d610406565b5b828204905092915050565b60006103a4826103ab565b9050919050565b600073ffffffffffffffffffffffffffffffffffffffff82169050919050565b6000819050919050565b60006103e0826103cb565b91506103eb836103cb565b9250826103fb576103fa610406565b5b828206905092915050565b7f4e487b7100000000000000000000000000000000000000000000000000000000600052601260045260246000fd5b600080fd5b7f4661696c656420746f2073656e64206569746865720000000000000000000000600082015250565b61046c81610399565b811461047757600080fd5b50565b610483816103cb565b811461048e57600080fd5b5056fea26469706673582212205b7371a54c9d7203885f94110e13ef4252b5c62f027add40c67a099f6d4bd62064736f6c63430008070033",
					"opcodes": "PUSH1 0x80 PUSH1 0x40 MSTORE CALLVALUE DUP1 ISZERO PUSH2 0x10 JUMPI PUSH1 0x0 DUP1 REVERT JUMPDEST POP PUSH2 0x4C7 DUP1 PUSH2 0x20 PUSH1 0x0 CODECOPY PUSH1 0x0 RETURN INVALID PUSH1 0x80 PUSH1 0x40 MSTORE PUSH1 0x4 CALLDATASIZE LT PUSH2 0x34 JUMPI PUSH1 0x0 CALLDATALOAD PUSH1 0xE0 SHR DUP1 PUSH4 0xB1FA23F EQ PUSH2 0x39 JUMPI DUP1 PUSH4 0x56A967B4 EQ PUSH2 0x55 JUMPI DUP1 PUSH4 0x5D9F3A17 EQ PUSH2 0x71 JUMPI JUMPDEST PUSH1 0x0 DUP1 REVERT JUMPDEST PUSH2 0x53 PUSH1 0x4 DUP1 CALLDATASIZE SUB DUP2 ADD SWAP1 PUSH2 0x4E SWAP2 SWAP1 PUSH2 0x259 JUMP JUMPDEST PUSH2 0xB0 JUMP JUMPDEST STOP JUMPDEST PUSH2 0x6F PUSH1 0x4 DUP1 CALLDATASIZE SUB DUP2 ADD SWAP1 PUSH2 0x6A SWAP2 SWAP1 PUSH2 0x259 JUMP JUMPDEST PUSH2 0x164 JUMP JUMPDEST STOP JUMPDEST CALLVALUE DUP1 ISZERO PUSH2 0x7D JUMPI PUSH1 0x0 DUP1 REVERT JUMPDEST POP PUSH2 0x98 PUSH1 0x4 DUP1 CALLDATASIZE SUB DUP2 ADD SWAP1 PUSH2 0x93 SWAP2 SWAP1 PUSH2 0x286 JUMP JUMPDEST PUSH2 0x1E5 JUMP JUMPDEST PUSH1 0x40 MLOAD PUSH2 0xA7 SWAP4 SWAP3 SWAP2 SWAP1 PUSH2 0x320 JUMP JUMPDEST PUSH1 0x40 MLOAD DUP1 SWAP2 SUB SWAP1 RETURN JUMPDEST PUSH1 0x0 DUP2 PUSH20 0xFFFFFFFFFFFFFFFFFFFFFFFFFFFFFFFFFFFFFFFF AND PUSH2 0x8FC CALLVALUE SWAP1 DUP2 ISZERO MUL SWAP1 PUSH1 0x40 MLOAD PUSH1 0x0 PUSH1 0x40 MLOAD DUP1 DUP4 SUB DUP2 DUP6 DUP9 DUP9 CALL SWAP4 POP POP POP POP SWAP1 POP DUP1 PUSH2 0x129 JUMPI PUSH1 0x40 MLOAD PUSH32 0x8C379A000000000000000000000000000000000000000000000000000000000 DUP2 MSTORE PUSH1 0x4 ADD PUSH2 0x120 SWAP1 PUSH2 0x2E5 JUMP JUMPDEST PUSH1 0x40 MLOAD DUP1 SWAP2 SUB SWAP1 REVERT JUMPDEST PUSH32 0xE4F740571B79610DEFF27CA80EF3046DE224A7FC42E82177A0D9919CD5B7A8D9 CALLVALUE PUSH1 0x40 MLOAD PUSH2 0x158 SWAP2 SWAP1 PUSH2 0x305 JUMP JUMPDEST PUSH1 0x40 MLOAD DUP1 SWAP2 SUB SWAP1 LOG1 POP POP JUMP JUMPDEST DUP1 PUSH20 0xFFFFFFFFFFFFFFFFFFFFFFFFFFFFFFFFFFFFFFFF AND PUSH2 0x8FC CALLVALUE SWAP1 DUP2 ISZERO MUL SWAP1 PUSH1 0x40 MLOAD PUSH1 0x0 PUSH1 0x40 MLOAD DUP1 DUP4 SUB DUP2 DUP6 DUP9 DUP9 CALL SWAP4 POP POP POP POP ISZERO DUP1 ISZERO PUSH2 0x1AA JUMPI RETURNDATASIZE PUSH1 0x0 DUP1 RETURNDATACOPY RETURNDATASIZE PUSH1 0x0 REVERT JUMPDEST POP PUSH32 0xE4F740571B79610DEFF27CA80EF3046DE224A7FC42E82177A0D9919CD5B7A8D9 CALLVALUE PUSH1 0x40 MLOAD PUSH2 0x1DA SWAP2 SWAP1 PUSH2 0x305 JUMP JUMPDEST PUSH1 0x40 MLOAD DUP1 SWAP2 SUB SWAP1 LOG1 POP JUMP JUMPDEST PUSH1 0x0 DUP1 PUSH1 0x0 DUP1 PUSH1 0x3C DUP6 PUSH2 0x1F8 SWAP2 SWAP1 PUSH2 0x3D5 JUMP JUMPDEST SWAP1 POP PUSH1 0x0 PUSH1 0x3C DUP7 PUSH2 0x209 SWAP2 SWAP1 PUSH2 0x368 JUMP JUMPDEST SWAP1 POP PUSH1 0x0 PUSH1 0x3C DUP3 PUSH2 0x21A SWAP2 SWAP1 PUSH2 0x368 JUMP JUMPDEST SWAP1 POP DUP3 DUP3 DUP3 SWAP6 POP SWAP6 POP SWAP6 POP POP POP POP SWAP2 SWAP4 SWAP1 SWAP3 POP JUMP JUMPDEST PUSH1 0x0 DUP2 CALLDATALOAD SWAP1 POP PUSH2 0x23E DUP2 PUSH2 0x463 JUMP JUMPDEST SWAP3 SWAP2 POP POP JUMP JUMPDEST PUSH1 0x0 DUP2 CALLDATALOAD SWAP1 POP PUSH2 0x253 DUP2 PUSH2 0x47A JUMP JUMPDEST SWAP3 SWAP2 POP POP JUMP JUMPDEST PUSH1 0x0 PUSH1 0x20 DUP3 DUP5 SUB SLT ISZERO PUSH2 0x26F JUMPI PUSH2 0x26E PUSH2 0x435 JUMP JUMPDEST JUMPDEST PUSH1 0x0 PUSH2 0x27D DUP5 DUP3 DUP6 ADD PUSH2 0x22F JUMP JUMPDEST SWAP2 POP POP SWAP3 SWAP2 POP POP JUMP JUMPDEST PUSH1 0x0 PUSH1 0x20 DUP3 DUP5 SUB SLT ISZERO PUSH2 0x29C JUMPI PUSH2 0x29B PUSH2 0x435 JUMP JUMPDEST JUMPDEST PUSH1 0x0 PUSH2 0x2AA DUP5 DUP3 DUP6 ADD PUSH2 0x244 JUMP JUMPDEST SWAP2 POP POP SWAP3 SWAP2 POP POP JUMP JUMPDEST PUSH1 0x0 PUSH2 0x2C0 PUSH1 0x15 DUP4 PUSH2 0x357 JUMP JUMPDEST SWAP2 POP PUSH2 0x2CB DUP3 PUSH2 0x43A JUMP JUMPDEST PUSH1 0x20 DUP3 ADD SWAP1 POP SWAP2 SWAP1 POP JUMP JUMPDEST PUSH2 0x2DF DUP2 PUSH2 0x3CB JUMP JUMPDEST DUP3 MSTORE POP POP JUMP JUMPDEST PUSH1 0x0 PUSH1 0x20 DUP3 ADD SWAP1 POP DUP2 DUP2 SUB PUSH1 0x0 DUP4 ADD MSTORE PUSH2 0x2FE DUP2 PUSH2 0x2B3 JUMP JUMPDEST SWAP1 POP SWAP2 SWAP1 POP JUMP JUMPDEST PUSH1 0x0 PUSH1 0x20 DUP3 ADD SWAP1 POP PUSH2 0x31A PUSH1 0x0 DUP4 ADD DUP5 PUSH2 0x2D6 JUMP JUMPDEST SWAP3 SWAP2 POP POP JUMP JUMPDEST PUSH1 0x0 PUSH1 0x60 DUP3 ADD SWAP1 POP PUSH2 0x335 PUSH1 0x0 DUP4 ADD DUP7 PUSH2 0x2D6 JUMP JUMPDEST PUSH2 0x342 PUSH1 0x20 DUP4 ADD DUP6 PUSH2 0x2D6 JUMP JUMPDEST PUSH2 0x34F PUSH1 0x40 DUP4 ADD DUP5 PUSH2 0x2D6 JUMP JUMPDEST SWAP5 SWAP4 POP POP POP POP JUMP JUMPDEST PUSH1 0x0 DUP3 DUP3 MSTORE PUSH1 0x20 DUP3 ADD SWAP1 POP SWAP3 SWAP2 POP POP JUMP JUMPDEST PUSH1 0x0 PUSH2 0x373 DUP3 PUSH2 0x3CB JUMP JUMPDEST SWAP2 POP PUSH2 0x37E DUP4 PUSH2 0x3CB JUMP JUMPDEST SWAP3 POP DUP3 PUSH2 0x38E JUMPI PUSH2 0x38D PUSH2 0x406 JUMP JUMPDEST JUMPDEST DUP3 DUP3 DIV SWAP1 POP SWAP3 SWAP2 POP POP JUMP JUMPDEST PUSH1 0x0 PUSH2 0x3A4 DUP3 PUSH2 0x3AB JUMP JUMPDEST SWAP1 POP SWAP2 SWAP1 POP JUMP JUMPDEST PUSH1 0x0 PUSH20 0xFFFFFFFFFFFFFFFFFFFFFFFFFFFFFFFFFFFFFFFF DUP3 AND SWAP1 POP SWAP2 SWAP1 POP JUMP JUMPDEST PUSH1 0x0 DUP2 SWAP1 POP SWAP2 SWAP1 POP JUMP JUMPDEST PUSH1 0x0 PUSH2 0x3E0 DUP3 PUSH2 0x3CB JUMP JUMPDEST SWAP2 POP PUSH2 0x3EB DUP4 PUSH2 0x3CB JUMP JUMPDEST SWAP3 POP DUP3 PUSH2 0x3FB JUMPI PUSH2 0x3FA PUSH2 0x406 JUMP JUMPDEST JUMPDEST DUP3 DUP3 MOD SWAP1 POP SWAP3 SWAP2 POP POP JUMP JUMPDEST PUSH32 0x4E487B7100000000000000000000000000000000000000000000000000000000 PUSH1 0x0 MSTORE PUSH1 0x12 PUSH1 0x4 MSTORE PUSH1 0x24 PUSH1 0x0 REVERT JUMPDEST PUSH1 0x0 DUP1 REVERT JUMPDEST PUSH32 0x4661696C656420746F2073656E64206569746865720000000000000000000000 PUSH1 0x0 DUP3 ADD MSTORE POP JUMP JUMPDEST PUSH2 0x46C DUP2 PUSH2 0x399 JUMP JUMPDEST DUP2 EQ PUSH2 0x477 JUMPI PUSH1 0x0 DUP1 REVERT JUMPDEST POP JUMP JUMPDEST PUSH2 0x483 DUP2 PUSH2 0x3CB JUMP JUMPDEST DUP2 EQ PUSH2 0x48E JUMPI PUSH1 0x0 DUP1 REVERT JUMPDEST POP JUMP INVALID LOG2 PUSH5 0x6970667358 0x22 SLT KECCAK256 JUMPDEST PUSH20 0x71A54C9D7203885F94110E13EF4252B5C62F027A 0xDD BLOCKHASH 0xC6 PUSH27 0x99F6D4BD62064736F6C6343000807003300000000000000000000 "
				},
				"gasEstimates": {
					"creation": {
						"codeDepositCost": "244600",
						"executionCost": "287",
						"totalCost": "244887"
					},
					"external": {
						"sendNow(address)": "infinite",
						"transferNow(address)": "infinite",
						"trasnlateClock(uint256)": "infinite"
					}
				},
				"methodIdentifiers": {
					"sendNow(address)": "0b1fa23f",
					"transferNow(address)": "56a967b4",
					"trasnlateClock(uint256)": "5d9f3a17"
				}
			},
			"userdoc": {
				"kind": "user",
				"methods": {},
				"version": 1
			}
		}
	}
}