{
	"lecture/lec13.sol": {
		"lec13": {
			"abi": [
				{
					"anonymous": false,
					"inputs": [
						{
							"indexed": false,
							"internalType": "string",
							"name": "name",
							"type": "string"
						},
						{
							"indexed": false,
							"internalType": "uint256",
							"name": "money",
							"type": "uint256"
						}
					],
					"name": "info",
					"type": "event"
				},
				{
					"inputs": [],
					"name": "sendMoney",
					"outputs": [],
					"stateMutability": "nonpayable",
					"type": "function"
				}
			],
			"devdoc": {
				"kind": "dev",
				"methods": {},
				"version": 1
			},
			"evm": {
				"assembly": "    /* \"lecture/lec13.sol\":93:407  contract lec13{\r... */\n  mstore(0x40, 0x80)\n  callvalue\n  dup1\n  iszero\n  tag_1\n  jumpi\n  0x00\n  dup1\n  revert\ntag_1:\n  pop\n  dataSize(sub_0)\n  dup1\n  dataOffset(sub_0)\n  0x00\n  codecopy\n  0x00\n  return\nstop\n\nsub_0: assembly {\n        /* \"lecture/lec13.sol\":93:407  contract lec13{\r... */\n      mstore(0x40, 0x80)\n      callvalue\n      dup1\n      iszero\n      tag_1\n      jumpi\n      0x00\n      dup1\n      revert\n    tag_1:\n      pop\n      jumpi(tag_2, lt(calldatasize, 0x04))\n      shr(0xe0, calldataload(0x00))\n      dup1\n      0xcbedbf5a\n      eq\n      tag_3\n      jumpi\n    tag_2:\n      0x00\n      dup1\n      revert\n        /* \"lecture/lec13.sol\":264:404  function sendMoney() public{\r... */\n    tag_3:\n      tag_4\n      tag_5\n      jump\t// in\n    tag_4:\n      stop\n    tag_5:\n        /* \"lecture/lec13.sol\":371:396  info(\"KimJongHwan\", 1000) */\n      0x473e81062e4ff21e1cd2c2ceaa6b79bd5885f00eb22d9a844ce9fd9685f22ac7\n        /* \"lecture/lec13.sol\":391:395  1000 */\n      0x03e8\n        /* \"lecture/lec13.sol\":371:396  info(\"KimJongHwan\", 1000) */\n      mload(0x40)\n      tag_7\n      swap2\n      swap1\n      tag_8\n      jump\t// in\n    tag_7:\n      mload(0x40)\n      dup1\n      swap2\n      sub\n      swap1\n      log1\n        /* \"lecture/lec13.sol\":264:404  function sendMoney() public{\r... */\n      jump\t// out\n        /* \"#utility.yul\":7:160   */\n    tag_10:\n        /* \"#utility.yul\":105:153   */\n      tag_12\n        /* \"#utility.yul\":147:152   */\n      dup2\n        /* \"#utility.yul\":105:153   */\n      tag_13\n      jump\t// in\n    tag_12:\n        /* \"#utility.yul\":100:103   */\n      dup3\n        /* \"#utility.yul\":93:154   */\n      mstore\n        /* \"#utility.yul\":7:160   */\n      pop\n      pop\n      jump\t// out\n        /* \"#utility.yul\":166:532   */\n    tag_14:\n        /* \"#utility.yul\":308:311   */\n      0x00\n        /* \"#utility.yul\":329:396   */\n      tag_16\n        /* \"#utility.yul\":393:395   */\n      0x0b\n        /* \"#utility.yul\":388:391   */\n      dup4\n        /* \"#utility.yul\":329:396   */\n      tag_17\n      jump\t// in\n    tag_16:\n        /* \"#utility.yul\":322:396   */\n      swap2\n      pop\n        /* \"#utility.yul\":405:498   */\n      tag_18\n        /* \"#utility.yul\":494:497   */\n      dup3\n        /* \"#utility.yul\":405:498   */\n      tag_19\n      jump\t// in\n    tag_18:\n        /* \"#utility.yul\":523:525   */\n      0x20\n        /* \"#utility.yul\":518:521   */\n      dup3\n        /* \"#utility.yul\":514:526   */\n      add\n        /* \"#utility.yul\":507:526   */\n      swap1\n      pop\n        /* \"#utility.yul\":166:532   */\n      swap2\n      swap1\n      pop\n      jump\t// out\n        /* \"#utility.yul\":538:1089   */\n    tag_8:\n        /* \"#utility.yul\":743:747   */\n      0x00\n        /* \"#utility.yul\":781:783   */\n      0x40\n        /* \"#utility.yul\":770:779   */\n      dup3\n        /* \"#utility.yul\":766:784   */\n      add\n        /* \"#utility.yul\":758:784   */\n      swap1\n      pop\n        /* \"#utility.yul\":830:839   */\n      dup2\n        /* \"#utility.yul\":824:828   */\n      dup2\n        /* \"#utility.yul\":820:840   */\n      sub\n        /* \"#utility.yul\":816:817   */\n      0x00\n        /* \"#utility.yul\":805:814   */\n      dup4\n        /* \"#utility.yul\":801:818   */\n      add\n        /* \"#utility.yul\":794:841   */\n      mstore\n        /* \"#utility.yul\":858:989   */\n      tag_21\n        /* \"#utility.yul\":984:988   */\n      dup2\n        /* \"#utility.yul\":858:989   */\n      tag_14\n      jump\t// in\n    tag_21:\n        /* \"#utility.yul\":850:989   */\n      swap1\n      pop\n        /* \"#utility.yul\":999:1082   */\n      tag_22\n        /* \"#utility.yul\":1078:1080   */\n      0x20\n        /* \"#utility.yul\":1067:1076   */\n      dup4\n        /* \"#utility.yul\":1063:1081   */\n      add\n        /* \"#utility.yul\":1054:1060   */\n      dup5\n        /* \"#utility.yul\":999:1082   */\n      tag_10\n      jump\t// in\n    tag_22:\n        /* \"#utility.yul\":538:1089   */\n      swap3\n      swap2\n      pop\n      pop\n      jump\t// out\n        /* \"#utility.yul\":1095:1264   */\n    tag_17:\n        /* \"#utility.yul\":1179:1190   */\n      0x00\n        /* \"#utility.yul\":1213:1219   */\n      dup3\n        /* \"#utility.yul\":1208:1211   */\n      dup3\n        /* \"#utility.yul\":1201:1220   */\n      mstore\n        /* \"#utility.yul\":1253:1257   */\n      0x20\n        /* \"#utility.yul\":1248:1251   */\n      dup3\n        /* \"#utility.yul\":1244:1258   */\n      add\n        /* \"#utility.yul\":1229:1258   */\n      swap1\n      pop\n        /* \"#utility.yul\":1095:1264   */\n      swap3\n      swap2\n      pop\n      pop\n      jump\t// out\n        /* \"#utility.yul\":1270:1347   */\n    tag_24:\n        /* \"#utility.yul\":1307:1314   */\n      0x00\n        /* \"#utility.yul\":1336:1341   */\n      dup2\n        /* \"#utility.yul\":1325:1341   */\n      swap1\n      pop\n        /* \"#utility.yul\":1270:1347   */\n      swap2\n      swap1\n      pop\n      jump\t// out\n        /* \"#utility.yul\":1353:1477   */\n    tag_13:\n        /* \"#utility.yul\":1414:1423   */\n      0x00\n        /* \"#utility.yul\":1447:1471   */\n      tag_27\n        /* \"#utility.yul\":1465:1470   */\n      dup3\n        /* \"#utility.yul\":1447:1471   */\n      tag_24\n      jump\t// in\n    tag_27:\n        /* \"#utility.yul\":1434:1471   */\n      swap1\n      pop\n        /* \"#utility.yul\":1353:1477   */\n      swap2\n      swap1\n      pop\n      jump\t// out\n        /* \"#utility.yul\":1483:1644   */\n    tag_19:\n        /* \"#utility.yul\":1623:1636   */\n      0x4b696d4a6f6e674877616e000000000000000000000000000000000000000000\n        /* \"#utility.yul\":1619:1620   */\n      0x00\n        /* \"#utility.yul\":1611:1617   */\n      dup3\n        /* \"#utility.yul\":1607:1621   */\n      add\n        /* \"#utility.yul\":1600:1637   */\n      mstore\n        /* \"#utility.yul\":1483:1644   */\n      pop\n      jump\t// out\n\n    auxdata: 0xa2646970667358221220efd0fad8f07a4319dd98a8c4cd5e6e31d126cf6086e0aa8ed9901ebb8069cd5e64736f6c63430008070033\n}\n",
				"bytecode": {
					"linkReferences": {},
					"object": "608060405234801561001057600080fd5b50610161806100206000396000f3fe608060405234801561001057600080fd5b506004361061002b5760003560e01c8063cbedbf5a14610030575b600080fd5b61003861003a565b005b7f473e81062e4ff21e1cd2c2ceaa6b79bd5885f00eb22d9a844ce9fd9685f22ac76103e860405161006b91906100a7565b60405180910390a1565b61007e816100f0565b82525050565b6000610091600b836100d5565b915061009c82610102565b602082019050919050565b600060408201905081810360008301526100c081610084565b90506100cf6020830184610075565b92915050565b600082825260208201905092915050565b6000819050919050565b60006100fb826100e6565b9050919050565b7f4b696d4a6f6e674877616e00000000000000000000000000000000000000000060008201525056fea2646970667358221220efd0fad8f07a4319dd98a8c4cd5e6e31d126cf6086e0aa8ed9901ebb8069cd5e64736f6c63430008070033",
					"opcodes": "PUSH1 0x80 PUSH1 0x40 MSTORE CALLVALUE DUP1 ISZERO PUSH2 0x10 JUMPI PUSH1 0x0 DUP1 REVERT JUMPDEST POP PUSH2 0x161 DUP1 PUSH2 0x20 PUSH1 0x0 CODECOPY PUSH1 0x0 RETURN INVALID PUSH1 0x80 PUSH1 0x40 MSTORE CALLVALUE DUP1 ISZERO PUSH2 0x10 JUMPI PUSH1 0x0 DUP1 REVERT JUMPDEST POP PUSH1 0x4 CALLDATASIZE LT PUSH2 0x2B JUMPI PUSH1 0x0 CALLDATALOAD PUSH1 0xE0 SHR DUP1 PUSH4 0xCBEDBF5A EQ PUSH2 0x30 JUMPI JUMPDEST PUSH1 0x0 DUP1 REVERT JUMPDEST PUSH2 0x38 PUSH2 0x3A JUMP JUMPDEST STOP JUMPDEST PUSH32 0x473E81062E4FF21E1CD2C2CEAA6B79BD5885F00EB22D9A844CE9FD9685F22AC7 PUSH2 0x3E8 PUSH1 0x40 MLOAD PUSH2 0x6B SWAP2 SWAP1 PUSH2 0xA7 JUMP JUMPDEST PUSH1 0x40 MLOAD DUP1 SWAP2 SUB SWAP1 LOG1 JUMP JUMPDEST PUSH2 0x7E DUP2 PUSH2 0xF0 JUMP JUMPDEST DUP3 MSTORE POP POP JUMP JUMPDEST PUSH1 0x0 PUSH2 0x91 PUSH1 0xB DUP4 PUSH2 0xD5 JUMP JUMPDEST SWAP2 POP PUSH2 0x9C DUP3 PUSH2 0x102 JUMP JUMPDEST PUSH1 0x20 DUP3 ADD SWAP1 POP SWAP2 SWAP1 POP JUMP JUMPDEST PUSH1 0x0 PUSH1 0x40 DUP3 ADD SWAP1 POP DUP2 DUP2 SUB PUSH1 0x0 DUP4 ADD MSTORE PUSH2 0xC0 DUP2 PUSH2 0x84 JUMP JUMPDEST SWAP1 POP PUSH2 0xCF PUSH1 0x20 DUP4 ADD DUP5 PUSH2 0x75 JUMP JUMPDEST SWAP3 SWAP2 POP POP JUMP JUMPDEST PUSH1 0x0 DUP3 DUP3 MSTORE PUSH1 0x20 DUP3 ADD SWAP1 POP SWAP3 SWAP2 POP POP JUMP JUMPDEST PUSH1 0x0 DUP2 SWAP1 POP SWAP2 SWAP1 POP JUMP JUMPDEST PUSH1 0x0 PUSH2 0xFB DUP3 PUSH2 0xE6 JUMP JUMPDEST SWAP1 POP SWAP2 SWAP1 POP JUMP JUMPDEST PUSH32 0x4B696D4A6F6E674877616E000000000000000000000000000000000000000000 PUSH1 0x0 DUP3 ADD MSTORE POP JUMP INVALID LOG2 PUSH5 0x6970667358 0x22 SLT KECCAK256 0xEF 0xD0 STATICCALL 0xD8 CREATE PUSH27 0x4319DD98A8C4CD5E6E31D126CF6086E0AA8ED9901EBB8069CD5E64 PUSH20 0x6F6C634300080700330000000000000000000000 "
				},
				"gasEstimates": {
					"creation": {
						"codeDepositCost": "70600",
						"executionCost": "123",
						"totalCost": "70723"
					},
					"external": {
						"sendMoney()": "2326"
					}
				},
				"methodIdentifiers": {
					"sendMoney()": "cbedbf5a"
				}
			},
			"userdoc": {
				"kind": "user",
				"methods": {},
				"version": 1
			}
		}
	}
}