{
	"lecture/lec19.sol": {
		"lec19": {
			"abi": [
				{
					"inputs": [
						{
							"internalType": "uint256",
							"name": "_num",
							"type": "uint256"
						}
					],
					"name": "ChangeNum",
					"outputs": [],
					"stateMutability": "nonpayable",
					"type": "function"
				},
				{
					"inputs": [],
					"name": "NumArrayAdd",
					"outputs": [],
					"stateMutability": "nonpayable",
					"type": "function"
				},
				{
					"inputs": [],
					"name": "NumMapAdd",
					"outputs": [],
					"stateMutability": "nonpayable",
					"type": "function"
				},
				{
					"inputs": [],
					"name": "ShowNum",
					"outputs": [
						{
							"internalType": "uint256",
							"name": "",
							"type": "uint256"
						}
					],
					"stateMutability": "view",
					"type": "function"
				},
				{
					"inputs": [],
					"name": "ShowNumArray",
					"outputs": [
						{
							"internalType": "uint256",
							"name": "",
							"type": "uint256"
						}
					],
					"stateMutability": "view",
					"type": "function"
				},
				{
					"inputs": [],
					"name": "ShowNumMap",
					"outputs": [
						{
							"internalType": "uint256",
							"name": "",
							"type": "uint256"
						}
					],
					"stateMutability": "view",
					"type": "function"
				},
				{
					"inputs": [],
					"name": "UpdateArray",
					"outputs": [],
					"stateMutability": "nonpayable",
					"type": "function"
				},
				{
					"inputs": [],
					"name": "UpdateMap",
					"outputs": [],
					"stateMutability": "nonpayable",
					"type": "function"
				},
				{
					"inputs": [],
					"name": "num",
					"outputs": [
						{
							"internalType": "uint256",
							"name": "",
							"type": "uint256"
						}
					],
					"stateMutability": "view",
					"type": "function"
				},
				{
					"inputs": [
						{
							"internalType": "uint256",
							"name": "",
							"type": "uint256"
						}
					],
					"name": "numArray",
					"outputs": [
						{
							"internalType": "uint256",
							"name": "",
							"type": "uint256"
						}
					],
					"stateMutability": "view",
					"type": "function"
				},
				{
					"inputs": [
						{
							"internalType": "uint256",
							"name": "",
							"type": "uint256"
						}
					],
					"name": "numMap",
					"outputs": [
						{
							"internalType": "uint256",
							"name": "",
							"type": "uint256"
						}
					],
					"stateMutability": "view",
					"type": "function"
				}
			],
			"devdoc": {
				"kind": "dev",
				"methods": {},
				"version": 1
			},
			"evm": {
				"assembly": "    /* \"lecture/lec19.sol\":110:1202  contract lec19{\r... */\n  mstore(0x40, 0x80)\n    /* \"lecture/lec19.sol\":152:154  80 */\n  0x50\n    /* \"lecture/lec19.sol\":131:154  uint256 public num = 80 */\n  0x00\n  sstore\n    /* \"lecture/lec19.sol\":110:1202  contract lec19{\r... */\n  callvalue\n  dup1\n  iszero\n  tag_1\n  jumpi\n  0x00\n  dup1\n  revert\ntag_1:\n  pop\n  dataSize(sub_0)\n  dup1\n  dataOffset(sub_0)\n  0x00\n  codecopy\n  0x00\n  return\nstop\n\nsub_0: assembly {\n        /* \"lecture/lec19.sol\":110:1202  contract lec19{\r... */\n      mstore(0x40, 0x80)\n      callvalue\n      dup1\n      iszero\n      tag_1\n      jumpi\n      0x00\n      dup1\n      revert\n    tag_1:\n      pop\n      jumpi(tag_2, lt(calldatasize, 0x04))\n      shr(0xe0, calldataload(0x00))\n      dup1\n      0x6e734738\n      gt\n      tag_14\n      jumpi\n      dup1\n      0x6e734738\n      eq\n      tag_8\n      jumpi\n      dup1\n      0x7b7075b2\n      eq\n      tag_9\n      jumpi\n      dup1\n      0x8d97147d\n      eq\n      tag_10\n      jumpi\n      dup1\n      0xc8f1def6\n      eq\n      tag_11\n      jumpi\n      dup1\n      0xda0c2599\n      eq\n      tag_12\n      jumpi\n      dup1\n      0xe41fd6ff\n      eq\n      tag_13\n      jumpi\n      jump(tag_2)\n    tag_14:\n      dup1\n      0x1490a23f\n      eq\n      tag_3\n      jumpi\n      dup1\n      0x3982075d\n      eq\n      tag_4\n      jumpi\n      dup1\n      0x4e70b1dc\n      eq\n      tag_5\n      jumpi\n      dup1\n      0x5bd1cdbd\n      eq\n      tag_6\n      jumpi\n      dup1\n      0x677c2f05\n      eq\n      tag_7\n      jumpi\n    tag_2:\n      0x00\n      dup1\n      revert\n        /* \"lecture/lec19.sol\":161:200  mapping(uint256=>uint256) public numMap */\n    tag_3:\n      tag_15\n      0x04\n      dup1\n      calldatasize\n      sub\n      dup2\n      add\n      swap1\n      tag_16\n      swap2\n      swap1\n      tag_17\n      jump\t// in\n    tag_16:\n      tag_18\n      jump\t// in\n    tag_15:\n      mload(0x40)\n      tag_19\n      swap2\n      swap1\n      tag_20\n      jump\t// in\n    tag_19:\n      mload(0x40)\n      dup1\n      swap2\n      sub\n      swap1\n      return\n        /* \"lecture/lec19.sol\":588:677  function ShowNumArray() public view returns(uint256){\r... */\n    tag_4:\n      tag_21\n      tag_22\n      jump\t// in\n    tag_21:\n      mload(0x40)\n      tag_23\n      swap2\n      swap1\n      tag_20\n      jump\t// in\n    tag_23:\n      mload(0x40)\n      dup1\n      swap2\n      sub\n      swap1\n      return\n        /* \"lecture/lec19.sol\":131:154  uint256 public num = 80 */\n    tag_5:\n      tag_24\n      tag_25\n      jump\t// in\n    tag_24:\n      mload(0x40)\n      tag_26\n      swap2\n      swap1\n      tag_20\n      jump\t// in\n    tag_26:\n      mload(0x40)\n      dup1\n      swap2\n      sub\n      swap1\n      return\n        /* \"lecture/lec19.sol\":903:964  function UpdateMap() public{\r... */\n    tag_6:\n      tag_27\n      tag_28\n      jump\t// in\n    tag_27:\n      stop\n        /* \"lecture/lec19.sol\":317:393  function ShowNum() public view returns(uint256){\r... */\n    tag_7:\n      tag_29\n      tag_30\n      jump\t// in\n    tag_29:\n      mload(0x40)\n      tag_31\n      swap2\n      swap1\n      tag_20\n      jump\t// in\n    tag_31:\n      mload(0x40)\n      dup1\n      swap2\n      sub\n      swap1\n      return\n        /* \"lecture/lec19.sol\":207:232  uint256[] public numArray */\n    tag_8:\n      tag_32\n      0x04\n      dup1\n      calldatasize\n      sub\n      dup2\n      add\n      swap1\n      tag_33\n      swap2\n      swap1\n      tag_17\n      jump\t// in\n    tag_33:\n      tag_34\n      jump\t// in\n    tag_32:\n      mload(0x40)\n      tag_35\n      swap2\n      swap1\n      tag_20\n      jump\t// in\n    tag_35:\n      mload(0x40)\n      dup1\n      swap2\n      sub\n      swap1\n      return\n        /* \"lecture/lec19.sol\":401:486  function ShowNumMap() public view returns(uint256){\r... */\n    tag_9:\n      tag_36\n      tag_37\n      jump\t// in\n    tag_36:\n      mload(0x40)\n      tag_38\n      swap2\n      swap1\n      tag_20\n      jump\t// in\n    tag_38:\n      mload(0x40)\n      dup1\n      swap2\n      sub\n      swap1\n      return\n        /* \"lecture/lec19.sol\":826:891  function UpdateArray() public{\r... */\n    tag_10:\n      tag_39\n      tag_40\n      jump\t// in\n    tag_39:\n      stop\n        /* \"lecture/lec19.sol\":241:309  function ChangeNum(uint256 _num) public{\r... */\n    tag_11:\n      tag_41\n      0x04\n      dup1\n      calldatasize\n      sub\n      dup2\n      add\n      swap1\n      tag_42\n      swap2\n      swap1\n      tag_17\n      jump\t// in\n    tag_42:\n      tag_43\n      jump\t// in\n    tag_41:\n      stop\n        /* \"lecture/lec19.sol\":685:744  function NumMapAdd() public{\r... */\n    tag_12:\n      tag_44\n      tag_45\n      jump\t// in\n    tag_44:\n      stop\n        /* \"lecture/lec19.sol\":752:818  function NumArrayAdd() public{\r... */\n    tag_13:\n      tag_46\n      tag_47\n      jump\t// in\n    tag_46:\n      stop\n        /* \"lecture/lec19.sol\":161:200  mapping(uint256=>uint256) public numMap */\n    tag_18:\n      mstore(0x20, 0x01)\n      dup1\n      0x00\n      mstore\n      keccak256(0x00, 0x40)\n      0x00\n      swap2\n      pop\n      swap1\n      pop\n      sload\n      dup2\n      jump\t// out\n        /* \"lecture/lec19.sol\":588:677  function ShowNumArray() public view returns(uint256){\r... */\n    tag_22:\n        /* \"lecture/lec19.sol\":632:639  uint256 */\n      0x00\n        /* \"lecture/lec19.sol\":658:666  numArray */\n      0x02\n        /* \"lecture/lec19.sol\":667:668  0 */\n      0x00\n        /* \"lecture/lec19.sol\":658:669  numArray[0] */\n      dup2\n      sload\n      dup2\n      lt\n      tag_49\n      jumpi\n      tag_50\n      tag_51\n      jump\t// in\n    tag_50:\n    tag_49:\n      swap1\n      0x00\n      mstore\n      keccak256(0x00, 0x20)\n      add\n      sload\n        /* \"lecture/lec19.sol\":651:669  return numArray[0] */\n      swap1\n      pop\n        /* \"lecture/lec19.sol\":588:677  function ShowNumArray() public view returns(uint256){\r... */\n      swap1\n      jump\t// out\n        /* \"lecture/lec19.sol\":131:154  uint256 public num = 80 */\n    tag_25:\n      sload(0x00)\n      dup2\n      jump\t// out\n        /* \"lecture/lec19.sol\":903:964  function UpdateMap() public{\r... */\n    tag_28:\n        /* \"lecture/lec19.sol\":953:956  num */\n      sload(0x00)\n        /* \"lecture/lec19.sol\":941:947  numMap */\n      0x01\n        /* \"lecture/lec19.sol\":941:950  numMap[0] */\n      0x00\n        /* \"lecture/lec19.sol\":948:949  0 */\n      dup1\n        /* \"lecture/lec19.sol\":941:950  numMap[0] */\n      dup2\n      mstore\n      0x20\n      add\n      swap1\n      dup2\n      mstore\n      0x20\n      add\n      0x00\n      keccak256\n        /* \"lecture/lec19.sol\":941:956  numMap[0] = num */\n      dup2\n      swap1\n      sstore\n      pop\n        /* \"lecture/lec19.sol\":903:964  function UpdateMap() public{\r... */\n      jump\t// out\n        /* \"lecture/lec19.sol\":317:393  function ShowNum() public view returns(uint256){\r... */\n    tag_30:\n        /* \"lecture/lec19.sol\":356:363  uint256 */\n      0x00\n        /* \"lecture/lec19.sol\":382:385  num */\n      dup1\n      sload\n        /* \"lecture/lec19.sol\":375:385  return num */\n      swap1\n      pop\n        /* \"lecture/lec19.sol\":317:393  function ShowNum() public view returns(uint256){\r... */\n      swap1\n      jump\t// out\n        /* \"lecture/lec19.sol\":207:232  uint256[] public numArray */\n    tag_34:\n      0x02\n      dup2\n      dup2\n      sload\n      dup2\n      lt\n      tag_55\n      jumpi\n      0x00\n      dup1\n      revert\n    tag_55:\n      swap1\n      0x00\n      mstore\n      keccak256(0x00, 0x20)\n      add\n      0x00\n      swap2\n      pop\n      swap1\n      pop\n      sload\n      dup2\n      jump\t// out\n        /* \"lecture/lec19.sol\":401:486  function ShowNumMap() public view returns(uint256){\r... */\n    tag_37:\n        /* \"lecture/lec19.sol\":443:450  uint256 */\n      0x00\n        /* \"lecture/lec19.sol\":469:475  numMap */\n      0x01\n        /* \"lecture/lec19.sol\":469:478  numMap[0] */\n      0x00\n        /* \"lecture/lec19.sol\":476:477  0 */\n      dup1\n        /* \"lecture/lec19.sol\":469:478  numMap[0] */\n      dup2\n      mstore\n      0x20\n      add\n      swap1\n      dup2\n      mstore\n      0x20\n      add\n      0x00\n      keccak256\n      sload\n        /* \"lecture/lec19.sol\":462:478  return numMap[0] */\n      swap1\n      pop\n        /* \"lecture/lec19.sol\":401:486  function ShowNumMap() public view returns(uint256){\r... */\n      swap1\n      jump\t// out\n        /* \"lecture/lec19.sol\":826:891  function UpdateArray() public{\r... */\n    tag_40:\n        /* \"lecture/lec19.sol\":880:883  num */\n      sload(0x00)\n        /* \"lecture/lec19.sol\":866:874  numArray */\n      0x02\n        /* \"lecture/lec19.sol\":875:876  0 */\n      0x00\n        /* \"lecture/lec19.sol\":866:877  numArray[0] */\n      dup2\n      sload\n      dup2\n      lt\n      tag_59\n      jumpi\n      tag_60\n      tag_51\n      jump\t// in\n    tag_60:\n    tag_59:\n      swap1\n      0x00\n      mstore\n      keccak256(0x00, 0x20)\n      add\n        /* \"lecture/lec19.sol\":866:883  numArray[0] = num */\n      dup2\n      swap1\n      sstore\n      pop\n        /* \"lecture/lec19.sol\":826:891  function UpdateArray() public{\r... */\n      jump\t// out\n        /* \"lecture/lec19.sol\":241:309  function ChangeNum(uint256 _num) public{\r... */\n    tag_43:\n        /* \"lecture/lec19.sol\":297:301  _num */\n      dup1\n        /* \"lecture/lec19.sol\":291:294  num */\n      0x00\n        /* \"lecture/lec19.sol\":291:301  num = _num */\n      dup2\n      swap1\n      sstore\n      pop\n        /* \"lecture/lec19.sol\":241:309  function ChangeNum(uint256 _num) public{\r... */\n      pop\n      jump\t// out\n        /* \"lecture/lec19.sol\":685:744  function NumMapAdd() public{\r... */\n    tag_45:\n        /* \"lecture/lec19.sol\":733:736  num */\n      sload(0x00)\n        /* \"lecture/lec19.sol\":723:729  numMap */\n      0x01\n        /* \"lecture/lec19.sol\":723:732  numMap[0] */\n      0x00\n        /* \"lecture/lec19.sol\":730:731  0 */\n      dup1\n        /* \"lecture/lec19.sol\":723:732  numMap[0] */\n      dup2\n      mstore\n      0x20\n      add\n      swap1\n      dup2\n      mstore\n      0x20\n      add\n      0x00\n      keccak256\n        /* \"lecture/lec19.sol\":723:736  numMap[0]=num */\n      dup2\n      swap1\n      sstore\n      pop\n        /* \"lecture/lec19.sol\":685:744  function NumMapAdd() public{\r... */\n      jump\t// out\n        /* \"lecture/lec19.sol\":752:818  function NumArrayAdd() public{\r... */\n    tag_47:\n        /* \"lecture/lec19.sol\":792:800  numArray */\n      0x02\n        /* \"lecture/lec19.sol\":806:809  num */\n      sload(0x00)\n        /* \"lecture/lec19.sol\":792:810  numArray.push(num) */\n      swap1\n      dup1\n      0x01\n      dup2\n      sload\n      add\n      dup1\n      dup3\n      sstore\n      dup1\n      swap2\n      pop\n      pop\n      0x01\n      swap1\n      sub\n      swap1\n      0x00\n      mstore\n      keccak256(0x00, 0x20)\n      add\n      0x00\n      swap1\n      swap2\n      swap1\n      swap2\n      swap1\n      swap2\n      pop\n      sstore\n        /* \"lecture/lec19.sol\":752:818  function NumArrayAdd() public{\r... */\n      jump\t// out\n        /* \"#utility.yul\":7:146   */\n    tag_67:\n        /* \"#utility.yul\":53:58   */\n      0x00\n        /* \"#utility.yul\":91:97   */\n      dup2\n        /* \"#utility.yul\":78:98   */\n      calldataload\n        /* \"#utility.yul\":69:98   */\n      swap1\n      pop\n        /* \"#utility.yul\":107:140   */\n      tag_69\n        /* \"#utility.yul\":134:139   */\n      dup2\n        /* \"#utility.yul\":107:140   */\n      tag_70\n      jump\t// in\n    tag_69:\n        /* \"#utility.yul\":7:146   */\n      swap3\n      swap2\n      pop\n      pop\n      jump\t// out\n        /* \"#utility.yul\":152:481   */\n    tag_17:\n        /* \"#utility.yul\":211:217   */\n      0x00\n        /* \"#utility.yul\":260:262   */\n      0x20\n        /* \"#utility.yul\":248:257   */\n      dup3\n        /* \"#utility.yul\":239:246   */\n      dup5\n        /* \"#utility.yul\":235:258   */\n      sub\n        /* \"#utility.yul\":231:263   */\n      slt\n        /* \"#utility.yul\":228:347   */\n      iszero\n      tag_72\n      jumpi\n        /* \"#utility.yul\":266:345   */\n      tag_73\n      tag_74\n      jump\t// in\n    tag_73:\n        /* \"#utility.yul\":228:347   */\n    tag_72:\n        /* \"#utility.yul\":386:387   */\n      0x00\n        /* \"#utility.yul\":411:464   */\n      tag_75\n        /* \"#utility.yul\":456:463   */\n      dup5\n        /* \"#utility.yul\":447:453   */\n      dup3\n        /* \"#utility.yul\":436:445   */\n      dup6\n        /* \"#utility.yul\":432:454   */\n      add\n        /* \"#utility.yul\":411:464   */\n      tag_67\n      jump\t// in\n    tag_75:\n        /* \"#utility.yul\":401:464   */\n      swap2\n      pop\n        /* \"#utility.yul\":357:474   */\n      pop\n        /* \"#utility.yul\":152:481   */\n      swap3\n      swap2\n      pop\n      pop\n      jump\t// out\n        /* \"#utility.yul\":487:605   */\n    tag_76:\n        /* \"#utility.yul\":574:598   */\n      tag_78\n        /* \"#utility.yul\":592:597   */\n      dup2\n        /* \"#utility.yul\":574:598   */\n      tag_79\n      jump\t// in\n    tag_78:\n        /* \"#utility.yul\":569:572   */\n      dup3\n        /* \"#utility.yul\":562:599   */\n      mstore\n        /* \"#utility.yul\":487:605   */\n      pop\n      pop\n      jump\t// out\n        /* \"#utility.yul\":611:833   */\n    tag_20:\n        /* \"#utility.yul\":704:708   */\n      0x00\n        /* \"#utility.yul\":742:744   */\n      0x20\n        /* \"#utility.yul\":731:740   */\n      dup3\n        /* \"#utility.yul\":727:745   */\n      add\n        /* \"#utility.yul\":719:745   */\n      swap1\n      pop\n        /* \"#utility.yul\":755:826   */\n      tag_81\n        /* \"#utility.yul\":823:824   */\n      0x00\n        /* \"#utility.yul\":812:821   */\n      dup4\n        /* \"#utility.yul\":808:825   */\n      add\n        /* \"#utility.yul\":799:805   */\n      dup5\n        /* \"#utility.yul\":755:826   */\n      tag_76\n      jump\t// in\n    tag_81:\n        /* \"#utility.yul\":611:833   */\n      swap3\n      swap2\n      pop\n      pop\n      jump\t// out\n        /* \"#utility.yul\":920:997   */\n    tag_79:\n        /* \"#utility.yul\":957:964   */\n      0x00\n        /* \"#utility.yul\":986:991   */\n      dup2\n        /* \"#utility.yul\":975:991   */\n      swap1\n      pop\n        /* \"#utility.yul\":920:997   */\n      swap2\n      swap1\n      pop\n      jump\t// out\n        /* \"#utility.yul\":1003:1183   */\n    tag_51:\n        /* \"#utility.yul\":1051:1128   */\n      0x4e487b7100000000000000000000000000000000000000000000000000000000\n        /* \"#utility.yul\":1048:1049   */\n      0x00\n        /* \"#utility.yul\":1041:1129   */\n      mstore\n        /* \"#utility.yul\":1148:1152   */\n      0x32\n        /* \"#utility.yul\":1145:1146   */\n      0x04\n        /* \"#utility.yul\":1138:1153   */\n      mstore\n        /* \"#utility.yul\":1172:1176   */\n      0x24\n        /* \"#utility.yul\":1169:1170   */\n      0x00\n        /* \"#utility.yul\":1162:1177   */\n      revert\n        /* \"#utility.yul\":1312:1429   */\n    tag_74:\n        /* \"#utility.yul\":1421:1422   */\n      0x00\n        /* \"#utility.yul\":1418:1419   */\n      dup1\n        /* \"#utility.yul\":1411:1423   */\n      revert\n        /* \"#utility.yul\":1435:1557   */\n    tag_70:\n        /* \"#utility.yul\":1508:1532   */\n      tag_90\n        /* \"#utility.yul\":1526:1531   */\n      dup2\n        /* \"#utility.yul\":1508:1532   */\n      tag_79\n      jump\t// in\n    tag_90:\n        /* \"#utility.yul\":1501:1506   */\n      dup2\n        /* \"#utility.yul\":1498:1533   */\n      eq\n        /* \"#utility.yul\":1488:1551   */\n      tag_91\n      jumpi\n        /* \"#utility.yul\":1547:1548   */\n      0x00\n        /* \"#utility.yul\":1544:1545   */\n      dup1\n        /* \"#utility.yul\":1537:1549   */\n      revert\n        /* \"#utility.yul\":1488:1551   */\n    tag_91:\n        /* \"#utility.yul\":1435:1557   */\n      pop\n      jump\t// out\n\n    auxdata: 0xa2646970667358221220b9aab650ab173293fa2dce62ecaccd9d75c78e733a3c8a2b724e1c6625a6635d64736f6c63430008070033\n}\n",
				"bytecode": {
					"linkReferences": {},
					"object": "6080604052605060005534801561001557600080fd5b506103e5806100256000396000f3fe608060405234801561001057600080fd5b50600436106100a95760003560e01c80636e734738116100715780636e734738146101425780637b7075b2146101725780638d97147d14610190578063c8f1def61461019a578063da0c2599146101b6578063e41fd6ff146101c0576100a9565b80631490a23f146100ae5780633982075d146100de5780634e70b1dc146100fc5780635bd1cdbd1461011a578063677c2f0514610124575b600080fd5b6100c860048036038101906100c39190610303565b6101ca565b6040516100d5919061033f565b60405180910390f35b6100e66101e2565b6040516100f3919061033f565b60405180910390f35b610104610209565b604051610111919061033f565b60405180910390f35b61012261020f565b005b61012c61022b565b604051610139919061033f565b60405180910390f35b61015c60048036038101906101579190610303565b610234565b604051610169919061033f565b60405180910390f35b61017a610258565b604051610187919061033f565b60405180910390f35b610198610273565b005b6101b460048036038101906101af9190610303565b61029b565b005b6101be6102a5565b005b6101c86102c1565b005b60016020528060005260406000206000915090505481565b600060026000815481106101f9576101f8610364565b5b9060005260206000200154905090565b60005481565b6000546001600080815260200190815260200160002081905550565b60008054905090565b6002818154811061024457600080fd5b906000526020600020016000915090505481565b60006001600080815260200190815260200160002054905090565b600054600260008154811061028b5761028a610364565b5b9060005260206000200181905550565b8060008190555050565b6000546001600080815260200190815260200160002081905550565b60026000549080600181540180825580915050600190039060005260206000200160009091909190915055565b6000813590506102fd81610398565b92915050565b60006020828403121561031957610318610393565b5b6000610327848285016102ee565b91505092915050565b6103398161035a565b82525050565b60006020820190506103546000830184610330565b92915050565b6000819050919050565b7f4e487b7100000000000000000000000000000000000000000000000000000000600052603260045260246000fd5b600080fd5b6103a18161035a565b81146103ac57600080fd5b5056fea2646970667358221220b9aab650ab173293fa2dce62ecaccd9d75c78e733a3c8a2b724e1c6625a6635d64736f6c63430008070033",
					"opcodes": "PUSH1 0x80 PUSH1 0x40 MSTORE PUSH1 0x50 PUSH1 0x0 SSTORE CALLVALUE DUP1 ISZERO PUSH2 0x15 JUMPI PUSH1 0x0 DUP1 REVERT JUMPDEST POP PUSH2 0x3E5 DUP1 PUSH2 0x25 PUSH1 0x0 CODECOPY PUSH1 0x0 RETURN INVALID PUSH1 0x80 PUSH1 0x40 MSTORE CALLVALUE DUP1 ISZERO PUSH2 0x10 JUMPI PUSH1 0x0 DUP1 REVERT JUMPDEST POP PUSH1 0x4 CALLDATASIZE LT PUSH2 0xA9 JUMPI PUSH1 0x0 CALLDATALOAD PUSH1 0xE0 SHR DUP1 PUSH4 0x6E734738 GT PUSH2 0x71 JUMPI DUP1 PUSH4 0x6E734738 EQ PUSH2 0x142 JUMPI DUP1 PUSH4 0x7B7075B2 EQ PUSH2 0x172 JUMPI DUP1 PUSH4 0x8D97147D EQ PUSH2 0x190 JUMPI DUP1 PUSH4 0xC8F1DEF6 EQ PUSH2 0x19A JUMPI DUP1 PUSH4 0xDA0C2599 EQ PUSH2 0x1B6 JUMPI DUP1 PUSH4 0xE41FD6FF EQ PUSH2 0x1C0 JUMPI PUSH2 0xA9 JUMP JUMPDEST DUP1 PUSH4 0x1490A23F EQ PUSH2 0xAE JUMPI DUP1 PUSH4 0x3982075D EQ PUSH2 0xDE JUMPI DUP1 PUSH4 0x4E70B1DC EQ PUSH2 0xFC JUMPI DUP1 PUSH4 0x5BD1CDBD EQ PUSH2 0x11A JUMPI DUP1 PUSH4 0x677C2F05 EQ PUSH2 0x124 JUMPI JUMPDEST PUSH1 0x0 DUP1 REVERT JUMPDEST PUSH2 0xC8 PUSH1 0x4 DUP1 CALLDATASIZE SUB DUP2 ADD SWAP1 PUSH2 0xC3 SWAP2 SWAP1 PUSH2 0x303 JUMP JUMPDEST PUSH2 0x1CA JUMP JUMPDEST PUSH1 0x40 MLOAD PUSH2 0xD5 SWAP2 SWAP1 PUSH2 0x33F JUMP JUMPDEST PUSH1 0x40 MLOAD DUP1 SWAP2 SUB SWAP1 RETURN JUMPDEST PUSH2 0xE6 PUSH2 0x1E2 JUMP JUMPDEST PUSH1 0x40 MLOAD PUSH2 0xF3 SWAP2 SWAP1 PUSH2 0x33F JUMP JUMPDEST PUSH1 0x40 MLOAD DUP1 SWAP2 SUB SWAP1 RETURN JUMPDEST PUSH2 0x104 PUSH2 0x209 JUMP JUMPDEST PUSH1 0x40 MLOAD PUSH2 0x111 SWAP2 SWAP1 PUSH2 0x33F JUMP JUMPDEST PUSH1 0x40 MLOAD DUP1 SWAP2 SUB SWAP1 RETURN JUMPDEST PUSH2 0x122 PUSH2 0x20F JUMP JUMPDEST STOP JUMPDEST PUSH2 0x12C PUSH2 0x22B JUMP JUMPDEST PUSH1 0x40 MLOAD PUSH2 0x139 SWAP2 SWAP1 PUSH2 0x33F JUMP JUMPDEST PUSH1 0x40 MLOAD DUP1 SWAP2 SUB SWAP1 RETURN JUMPDEST PUSH2 0x15C PUSH1 0x4 DUP1 CALLDATASIZE SUB DUP2 ADD SWAP1 PUSH2 0x157 SWAP2 SWAP1 PUSH2 0x303 JUMP JUMPDEST PUSH2 0x234 JUMP JUMPDEST PUSH1 0x40 MLOAD PUSH2 0x169 SWAP2 SWAP1 PUSH2 0x33F JUMP JUMPDEST PUSH1 0x40 MLOAD DUP1 SWAP2 SUB SWAP1 RETURN JUMPDEST PUSH2 0x17A PUSH2 0x258 JUMP JUMPDEST PUSH1 0x40 MLOAD PUSH2 0x187 SWAP2 SWAP1 PUSH2 0x33F JUMP JUMPDEST PUSH1 0x40 MLOAD DUP1 SWAP2 SUB SWAP1 RETURN JUMPDEST PUSH2 0x198 PUSH2 0x273 JUMP JUMPDEST STOP JUMPDEST PUSH2 0x1B4 PUSH1 0x4 DUP1 CALLDATASIZE SUB DUP2 ADD SWAP1 PUSH2 0x1AF SWAP2 SWAP1 PUSH2 0x303 JUMP JUMPDEST PUSH2 0x29B JUMP JUMPDEST STOP JUMPDEST PUSH2 0x1BE PUSH2 0x2A5 JUMP JUMPDEST STOP JUMPDEST PUSH2 0x1C8 PUSH2 0x2C1 JUMP JUMPDEST STOP JUMPDEST PUSH1 0x1 PUSH1 0x20 MSTORE DUP1 PUSH1 0x0 MSTORE PUSH1 0x40 PUSH1 0x0 KECCAK256 PUSH1 0x0 SWAP2 POP SWAP1 POP SLOAD DUP2 JUMP JUMPDEST PUSH1 0x0 PUSH1 0x2 PUSH1 0x0 DUP2 SLOAD DUP2 LT PUSH2 0x1F9 JUMPI PUSH2 0x1F8 PUSH2 0x364 JUMP JUMPDEST JUMPDEST SWAP1 PUSH1 0x0 MSTORE PUSH1 0x20 PUSH1 0x0 KECCAK256 ADD SLOAD SWAP1 POP SWAP1 JUMP JUMPDEST PUSH1 0x0 SLOAD DUP2 JUMP JUMPDEST PUSH1 0x0 SLOAD PUSH1 0x1 PUSH1 0x0 DUP1 DUP2 MSTORE PUSH1 0x20 ADD SWAP1 DUP2 MSTORE PUSH1 0x20 ADD PUSH1 0x0 KECCAK256 DUP2 SWAP1 SSTORE POP JUMP JUMPDEST PUSH1 0x0 DUP1 SLOAD SWAP1 POP SWAP1 JUMP JUMPDEST PUSH1 0x2 DUP2 DUP2 SLOAD DUP2 LT PUSH2 0x244 JUMPI PUSH1 0x0 DUP1 REVERT JUMPDEST SWAP1 PUSH1 0x0 MSTORE PUSH1 0x20 PUSH1 0x0 KECCAK256 ADD PUSH1 0x0 SWAP2 POP SWAP1 POP SLOAD DUP2 JUMP JUMPDEST PUSH1 0x0 PUSH1 0x1 PUSH1 0x0 DUP1 DUP2 MSTORE PUSH1 0x20 ADD SWAP1 DUP2 MSTORE PUSH1 0x20 ADD PUSH1 0x0 KECCAK256 SLOAD SWAP1 POP SWAP1 JUMP JUMPDEST PUSH1 0x0 SLOAD PUSH1 0x2 PUSH1 0x0 DUP2 SLOAD DUP2 LT PUSH2 0x28B JUMPI PUSH2 0x28A PUSH2 0x364 JUMP JUMPDEST JUMPDEST SWAP1 PUSH1 0x0 MSTORE PUSH1 0x20 PUSH1 0x0 KECCAK256 ADD DUP2 SWAP1 SSTORE POP JUMP JUMPDEST DUP1 PUSH1 0x0 DUP2 SWAP1 SSTORE POP POP JUMP JUMPDEST PUSH1 0x0 SLOAD PUSH1 0x1 PUSH1 0x0 DUP1 DUP2 MSTORE PUSH1 0x20 ADD SWAP1 DUP2 MSTORE PUSH1 0x20 ADD PUSH1 0x0 KECCAK256 DUP2 SWAP1 SSTORE POP JUMP JUMPDEST PUSH1 0x2 PUSH1 0x0 SLOAD SWAP1 DUP1 PUSH1 0x1 DUP2 SLOAD ADD DUP1 DUP3 SSTORE DUP1 SWAP2 POP POP PUSH1 0x1 SWAP1 SUB SWAP1 PUSH1 0x0 MSTORE PUSH1 0x20 PUSH1 0x0 KECCAK256 ADD PUSH1 0x0 SWAP1 SWAP2 SWAP1 SWAP2 SWAP1 SWAP2 POP SSTORE JUMP JUMPDEST PUSH1 0x0 DUP2 CALLDATALOAD SWAP1 POP PUSH2 0x2FD DUP2 PUSH2 0x398 JUMP JUMPDEST SWAP3 SWAP2 POP POP JUMP JUMPDEST PUSH1 0x0 PUSH1 0x20 DUP3 DUP5 SUB SLT ISZERO PUSH2 0x319 JUMPI PUSH2 0x318 PUSH2 0x393 JUMP JUMPDEST JUMPDEST PUSH1 0x0 PUSH2 0x327 DUP5 DUP3 DUP6 ADD PUSH2 0x2EE JUMP JUMPDEST SWAP2 POP POP SWAP3 SWAP2 POP POP JUMP JUMPDEST PUSH2 0x339 DUP2 PUSH2 0x35A JUMP JUMPDEST DUP3 MSTORE POP POP JUMP JUMPDEST PUSH1 0x0 PUSH1 0x20 DUP3 ADD SWAP1 POP PUSH2 0x354 PUSH1 0x0 DUP4 ADD DUP5 PUSH2 0x330 JUMP JUMPDEST SWAP3 SWAP2 POP POP JUMP JUMPDEST PUSH1 0x0 DUP2 SWAP1 POP SWAP2 SWAP1 POP JUMP JUMPDEST PUSH32 0x4E487B7100000000000000000000000000000000000000000000000000000000 PUSH1 0x0 MSTORE PUSH1 0x32 PUSH1 0x4 MSTORE PUSH1 0x24 PUSH1 0x0 REVERT JUMPDEST PUSH1 0x0 DUP1 REVERT JUMPDEST PUSH2 0x3A1 DUP2 PUSH2 0x35A JUMP JUMPDEST DUP2 EQ PUSH2 0x3AC JUMPI PUSH1 0x0 DUP1 REVERT JUMPDEST POP JUMP INVALID LOG2 PUSH5 0x6970667358 0x22 SLT KECCAK256 0xB9 0xAA 0xB6 POP 0xAB OR ORIGIN SWAP4 STATICCALL 0x2D 0xCE PUSH3 0xECACCD SWAP14 PUSH22 0xC78E733A3C8A2B724E1C6625A6635D64736F6C634300 ADDMOD SMOD STOP CALLER "
				},
				"gasEstimates": {
					"creation": {
						"codeDepositCost": "199400",
						"executionCost": "22351",
						"totalCost": "221751"
					},
					"external": {
						"ChangeNum(uint256)": "22586",
						"NumArrayAdd()": "48777",
						"NumMapAdd()": "24524",
						"ShowNum()": "2526",
						"ShowNumArray()": "4640",
						"ShowNumMap()": "2537",
						"UpdateArray()": "26582",
						"UpdateMap()": "24503",
						"num()": "2474",
						"numArray(uint256)": "infinite",
						"numMap(uint256)": "infinite"
					}
				},
				"methodIdentifiers": {
					"ChangeNum(uint256)": "c8f1def6",
					"NumArrayAdd()": "e41fd6ff",
					"NumMapAdd()": "da0c2599",
					"ShowNum()": "677c2f05",
					"ShowNumArray()": "3982075d",
					"ShowNumMap()": "7b7075b2",
					"UpdateArray()": "8d97147d",
					"UpdateMap()": "5bd1cdbd",
					"num()": "4e70b1dc",
					"numArray(uint256)": "6e734738",
					"numMap(uint256)": "1490a23f"
				}
			},
			"userdoc": {
				"kind": "user",
				"methods": {},
				"version": 1
			}
		}
	}
}