{
	"lecture/lec02.sol": {
		"lec2": {
			"abi": [
				{
					"inputs": [],
					"name": "addr",
					"outputs": [
						{
							"internalType": "address",
							"name": "",
							"type": "address"
						}
					],
					"stateMutability": "view",
					"type": "function"
				},
				{
					"inputs": [],
					"name": "b",
					"outputs": [
						{
							"internalType": "bool",
							"name": "",
							"type": "bool"
						}
					],
					"stateMutability": "view",
					"type": "function"
				},
				{
					"inputs": [],
					"name": "b1",
					"outputs": [
						{
							"internalType": "bool",
							"name": "",
							"type": "bool"
						}
					],
					"stateMutability": "view",
					"type": "function"
				},
				{
					"inputs": [],
					"name": "b2",
					"outputs": [
						{
							"internalType": "bool",
							"name": "",
							"type": "bool"
						}
					],
					"stateMutability": "view",
					"type": "function"
				},
				{
					"inputs": [],
					"name": "b3",
					"outputs": [
						{
							"internalType": "bool",
							"name": "",
							"type": "bool"
						}
					],
					"stateMutability": "view",
					"type": "function"
				},
				{
					"inputs": [],
					"name": "b4",
					"outputs": [
						{
							"internalType": "bool",
							"name": "",
							"type": "bool"
						}
					],
					"stateMutability": "view",
					"type": "function"
				},
				{
					"inputs": [],
					"name": "bt",
					"outputs": [
						{
							"internalType": "bytes4",
							"name": "",
							"type": "bytes4"
						}
					],
					"stateMutability": "view",
					"type": "function"
				},
				{
					"inputs": [],
					"name": "bt2",
					"outputs": [
						{
							"internalType": "bytes",
							"name": "",
							"type": "bytes"
						}
					],
					"stateMutability": "view",
					"type": "function"
				},
				{
					"inputs": [],
					"name": "it",
					"outputs": [
						{
							"internalType": "int8",
							"name": "",
							"type": "int8"
						}
					],
					"stateMutability": "view",
					"type": "function"
				},
				{
					"inputs": [],
					"name": "uit",
					"outputs": [
						{
							"internalType": "uint256",
							"name": "",
							"type": "uint256"
						}
					],
					"stateMutability": "view",
					"type": "function"
				}
			],
			"devdoc": {
				"kind": "dev",
				"methods": {},
				"version": 1
			},
			"evm": {
				"assembly": "    /* \"lecture/lec02.sol\":88:992  contract lec2{\r... */\n  mstore(0x40, 0x80)\n    /* \"lecture/lec02.sol\":355:360  false */\n  0x00\n    /* \"lecture/lec02.sol\":339:360  bool public b = false */\n  dup1\n  exp(0x0100, 0x00)\n  dup2\n  sload\n  dup2\n  0xff\n  mul\n  not\n  and\n  swap1\n  dup4\n  iszero\n  iszero\n  mul\n  or\n  swap1\n  sstore\n  pop\n    /* \"lecture/lec02.sol\":406:411  false */\n  0x00\n    /* \"lecture/lec02.sol\":405:411  !false */\n  iszero\n    /* \"lecture/lec02.sol\":388:411  bool public b1 = !false */\n  0x00\n  exp(0x0100, 0x01)\n  dup2\n  sload\n  dup2\n  0xff\n  mul\n  not\n  and\n  swap1\n  dup4\n  iszero\n  iszero\n  mul\n  or\n  swap1\n  sstore\n  pop\n    /* \"lecture/lec02.sol\":442:447  false */\n  0x00\n    /* \"lecture/lec02.sol\":442:455  false || true */\n  dup1\n  tag_1\n  jumpi\n  pop\n    /* \"lecture/lec02.sol\":451:455  true */\n  0x01\n    /* \"lecture/lec02.sol\":442:455  false || true */\ntag_1:\n    /* \"lecture/lec02.sol\":425:455  bool public b2 = false || true */\n  0x00\n  exp(0x0100, 0x02)\n  dup2\n  sload\n  dup2\n  0xff\n  mul\n  not\n  and\n  swap1\n  dup4\n  iszero\n  iszero\n  mul\n  or\n  swap1\n  sstore\n  pop\n    /* \"lecture/lec02.sol\":495:499  true */\n  0x01\n    /* \"lecture/lec02.sol\":486:499  false == true */\n  iszero\n  iszero\n    /* \"lecture/lec02.sol\":486:491  false */\n  0x00\n    /* \"lecture/lec02.sol\":486:499  false == true */\n  iszero\n  iszero\n  eq\n    /* \"lecture/lec02.sol\":469:499  bool public b3 = false == true */\n  0x00\n  exp(0x0100, 0x03)\n  dup2\n  sload\n  dup2\n  0xff\n  mul\n  not\n  and\n  swap1\n  dup4\n  iszero\n  iszero\n  mul\n  or\n  swap1\n  sstore\n  pop\n    /* \"lecture/lec02.sol\":531:536  false */\n  0x00\n    /* \"lecture/lec02.sol\":531:544  false && true */\n  dup1\n  iszero\n  tag_2\n  jumpi\n  pop\n    /* \"lecture/lec02.sol\":540:544  true */\n  0x01\n    /* \"lecture/lec02.sol\":531:544  false && true */\ntag_2:\n    /* \"lecture/lec02.sol\":514:544  bool public b4 = false && true */\n  0x00\n  exp(0x0100, 0x04)\n  dup2\n  sload\n  dup2\n  0xff\n  mul\n  not\n  and\n  swap1\n  dup4\n  iszero\n  iszero\n  mul\n  or\n  swap1\n  sstore\n  pop\n    /* \"lecture/lec02.sol\":629:639  0x12345678 */\n  0x12345678\n    /* \"lecture/lec02.sol\":610:639  bytes4 public bt = 0x12345678 */\n  0xe0\n  shl\n  0x00\n  exp(0x0100, 0x05)\n  dup2\n  sload\n  dup2\n  0xffffffff\n  mul\n  not\n  and\n  swap1\n  dup4\n  0xe0\n  shr\n  mul\n  or\n  swap1\n  sstore\n  pop\n    /* \"lecture/lec02.sol\":646:673  bytes public bt2 = \"STRING\" */\n  mload(0x40)\n  dup1\n  0x40\n  add\n  0x40\n  mstore\n  dup1\n  0x06\n  dup2\n  mstore\n  0x20\n  add\n  0x535452494e470000000000000000000000000000000000000000000000000000\n  dup2\n  mstore\n  pop\n  0x01\n  swap1\n  dup1\n  mload\n  swap1\n  0x20\n  add\n  swap1\n  tag_3\n  swap3\n  swap2\n  swap1\n  tag_4\n  jump\t// in\ntag_3:\n  pop\n    /* \"lecture/lec02.sol\":721:763  0xd8b934580fcE35a11B58C6D73aDeE468a2833fa8 */\n  0xd8b934580fce35a11b58c6d73adee468a2833fa8\n    /* \"lecture/lec02.sol\":699:763  address public addr = 0xd8b934580fcE35a11B58C6D73aDeE468a2833fa8 */\n  0x02\n  exp(0x0100, 0x00)\n  dup2\n  sload\n  dup2\n  0xffffffffffffffffffffffffffffffffffffffff\n  mul\n  not\n  and\n  swap1\n  dup4\n  0xffffffffffffffffffffffffffffffffffffffff\n  and\n  mul\n  or\n  swap1\n  sstore\n  pop\n    /* \"lecture/lec02.sol\":865:866  4 */\n  0x04\n    /* \"lecture/lec02.sol\":848:866  int8 public it = 4 */\n  0x02\n  exp(0x0100, 0x14)\n  dup2\n  sload\n  dup2\n  0xff\n  mul\n  not\n  and\n  swap1\n  dup4\n  0x00\n  signextend\n  0xff\n  and\n  mul\n  or\n  swap1\n  sstore\n  pop\n    /* \"lecture/lec02.sol\":921:927  132213 */\n  0x020475\n    /* \"lecture/lec02.sol\":900:927  uint256 public uit = 132213 */\n  0x03\n  sstore\n    /* \"lecture/lec02.sol\":88:992  contract lec2{\r... */\n  callvalue\n  dup1\n  iszero\n  tag_5\n  jumpi\n  0x00\n  dup1\n  revert\ntag_5:\n  pop\n  jump(tag_6)\ntag_4:\n  dup3\n  dup1\n  sload\n  tag_7\n  swap1\n  tag_8\n  jump\t// in\ntag_7:\n  swap1\n  0x00\n  mstore\n  keccak256(0x00, 0x20)\n  swap1\n  0x1f\n  add\n  0x20\n  swap1\n  div\n  dup2\n  add\n  swap3\n  dup3\n  tag_10\n  jumpi\n  0x00\n  dup6\n  sstore\n  jump(tag_9)\ntag_10:\n  dup3\n  0x1f\n  lt\n  tag_11\n  jumpi\n  dup1\n  mload\n  not(0xff)\n  and\n  dup4\n  dup1\n  add\n  or\n  dup6\n  sstore\n  jump(tag_9)\ntag_11:\n  dup3\n  dup1\n  add\n  0x01\n  add\n  dup6\n  sstore\n  dup3\n  iszero\n  tag_9\n  jumpi\n  swap2\n  dup3\n  add\ntag_12:\n  dup3\n  dup2\n  gt\n  iszero\n  tag_13\n  jumpi\n  dup3\n  mload\n  dup3\n  sstore\n  swap2\n  0x20\n  add\n  swap2\n  swap1\n  0x01\n  add\n  swap1\n  jump(tag_12)\ntag_13:\ntag_9:\n  pop\n  swap1\n  pop\n  tag_14\n  swap2\n  swap1\n  tag_15\n  jump\t// in\ntag_14:\n  pop\n  swap1\n  jump\t// out\ntag_15:\ntag_16:\n  dup1\n  dup3\n  gt\n  iszero\n  tag_17\n  jumpi\n  0x00\n  dup2\n  0x00\n  swap1\n  sstore\n  pop\n  0x01\n  add\n  jump(tag_16)\ntag_17:\n  pop\n  swap1\n  jump\t// out\n    /* \"#utility.yul\":7:327   */\ntag_8:\n    /* \"#utility.yul\":51:57   */\n  0x00\n    /* \"#utility.yul\":88:89   */\n  0x02\n    /* \"#utility.yul\":82:86   */\n  dup3\n    /* \"#utility.yul\":78:90   */\n  div\n    /* \"#utility.yul\":68:90   */\n  swap1\n  pop\n    /* \"#utility.yul\":135:136   */\n  0x01\n    /* \"#utility.yul\":129:133   */\n  dup3\n    /* \"#utility.yul\":125:137   */\n  and\n    /* \"#utility.yul\":156:174   */\n  dup1\n    /* \"#utility.yul\":146:227   */\n  tag_20\n  jumpi\n    /* \"#utility.yul\":212:216   */\n  0x7f\n    /* \"#utility.yul\":204:210   */\n  dup3\n    /* \"#utility.yul\":200:217   */\n  and\n    /* \"#utility.yul\":190:217   */\n  swap2\n  pop\n    /* \"#utility.yul\":146:227   */\ntag_20:\n    /* \"#utility.yul\":274:276   */\n  0x20\n    /* \"#utility.yul\":266:272   */\n  dup3\n    /* \"#utility.yul\":263:277   */\n  lt\n    /* \"#utility.yul\":243:261   */\n  dup2\n    /* \"#utility.yul\":240:278   */\n  eq\n    /* \"#utility.yul\":237:321   */\n  iszero\n  tag_21\n  jumpi\n    /* \"#utility.yul\":293:311   */\n  tag_22\n  tag_23\n  jump\t// in\ntag_22:\n    /* \"#utility.yul\":237:321   */\ntag_21:\n    /* \"#utility.yul\":58:327   */\n  pop\n    /* \"#utility.yul\":7:327   */\n  swap2\n  swap1\n  pop\n  jump\t// out\n    /* \"#utility.yul\":333:513   */\ntag_23:\n    /* \"#utility.yul\":381:458   */\n  0x4e487b7100000000000000000000000000000000000000000000000000000000\n    /* \"#utility.yul\":378:379   */\n  0x00\n    /* \"#utility.yul\":371:459   */\n  mstore\n    /* \"#utility.yul\":478:482   */\n  0x22\n    /* \"#utility.yul\":475:476   */\n  0x04\n    /* \"#utility.yul\":468:483   */\n  mstore\n    /* \"#utility.yul\":502:506   */\n  0x24\n    /* \"#utility.yul\":499:500   */\n  0x00\n    /* \"#utility.yul\":492:507   */\n  revert\n    /* \"lecture/lec02.sol\":88:992  contract lec2{\r... */\ntag_6:\n  dataSize(sub_0)\n  dup1\n  dataOffset(sub_0)\n  0x00\n  codecopy\n  0x00\n  return\nstop\n\nsub_0: assembly {\n        /* \"lecture/lec02.sol\":88:992  contract lec2{\r... */\n      mstore(0x40, 0x80)\n      callvalue\n      dup1\n      iszero\n      tag_1\n      jumpi\n      0x00\n      dup1\n      revert\n    tag_1:\n      pop\n      jumpi(tag_2, lt(calldatasize, 0x04))\n      shr(0xe0, calldataload(0x00))\n      dup1\n      0x699ad9ad\n      gt\n      tag_13\n      jumpi\n      dup1\n      0x699ad9ad\n      eq\n      tag_8\n      jumpi\n      dup1\n      0x767800de\n      eq\n      tag_9\n      jumpi\n      dup1\n      0xac9c1959\n      eq\n      tag_10\n      jumpi\n      dup1\n      0xe9b61909\n      eq\n      tag_11\n      jumpi\n      dup1\n      0xee495002\n      eq\n      tag_12\n      jumpi\n      jump(tag_2)\n    tag_13:\n      dup1\n      0x0add6ef2\n      eq\n      tag_3\n      jumpi\n      dup1\n      0x2c622fae\n      eq\n      tag_4\n      jumpi\n      dup1\n      0x3db3fb0a\n      eq\n      tag_5\n      jumpi\n      dup1\n      0x4df7e3d0\n      eq\n      tag_6\n      jumpi\n      dup1\n      0x5ce692f2\n      eq\n      tag_7\n      jumpi\n    tag_2:\n      0x00\n      dup1\n      revert\n        /* \"lecture/lec02.sol\":425:455  bool public b2 = false || true */\n    tag_3:\n      tag_14\n      tag_15\n      jump\t// in\n    tag_14:\n      mload(0x40)\n      tag_16\n      swap2\n      swap1\n      tag_17\n      jump\t// in\n    tag_16:\n      mload(0x40)\n      dup1\n      swap2\n      sub\n      swap1\n      return\n        /* \"lecture/lec02.sol\":646:673  bytes public bt2 = \"STRING\" */\n    tag_4:\n      tag_18\n      tag_19\n      jump\t// in\n    tag_18:\n      mload(0x40)\n      tag_20\n      swap2\n      swap1\n      tag_21\n      jump\t// in\n    tag_20:\n      mload(0x40)\n      dup1\n      swap2\n      sub\n      swap1\n      return\n        /* \"lecture/lec02.sol\":514:544  bool public b4 = false && true */\n    tag_5:\n      tag_22\n      tag_23\n      jump\t// in\n    tag_22:\n      mload(0x40)\n      tag_24\n      swap2\n      swap1\n      tag_17\n      jump\t// in\n    tag_24:\n      mload(0x40)\n      dup1\n      swap2\n      sub\n      swap1\n      return\n        /* \"lecture/lec02.sol\":339:360  bool public b = false */\n    tag_6:\n      tag_25\n      tag_26\n      jump\t// in\n    tag_25:\n      mload(0x40)\n      tag_27\n      swap2\n      swap1\n      tag_17\n      jump\t// in\n    tag_27:\n      mload(0x40)\n      dup1\n      swap2\n      sub\n      swap1\n      return\n        /* \"lecture/lec02.sol\":848:866  int8 public it = 4 */\n    tag_7:\n      tag_28\n      tag_29\n      jump\t// in\n    tag_28:\n      mload(0x40)\n      tag_30\n      swap2\n      swap1\n      tag_31\n      jump\t// in\n    tag_30:\n      mload(0x40)\n      dup1\n      swap2\n      sub\n      swap1\n      return\n        /* \"lecture/lec02.sol\":900:927  uint256 public uit = 132213 */\n    tag_8:\n      tag_32\n      tag_33\n      jump\t// in\n    tag_32:\n      mload(0x40)\n      tag_34\n      swap2\n      swap1\n      tag_35\n      jump\t// in\n    tag_34:\n      mload(0x40)\n      dup1\n      swap2\n      sub\n      swap1\n      return\n        /* \"lecture/lec02.sol\":699:763  address public addr = 0xd8b934580fcE35a11B58C6D73aDeE468a2833fa8 */\n    tag_9:\n      tag_36\n      tag_37\n      jump\t// in\n    tag_36:\n      mload(0x40)\n      tag_38\n      swap2\n      swap1\n      tag_39\n      jump\t// in\n    tag_38:\n      mload(0x40)\n      dup1\n      swap2\n      sub\n      swap1\n      return\n        /* \"lecture/lec02.sol\":610:639  bytes4 public bt = 0x12345678 */\n    tag_10:\n      tag_40\n      tag_41\n      jump\t// in\n    tag_40:\n      mload(0x40)\n      tag_42\n      swap2\n      swap1\n      tag_43\n      jump\t// in\n    tag_42:\n      mload(0x40)\n      dup1\n      swap2\n      sub\n      swap1\n      return\n        /* \"lecture/lec02.sol\":469:499  bool public b3 = false == true */\n    tag_11:\n      tag_44\n      tag_45\n      jump\t// in\n    tag_44:\n      mload(0x40)\n      tag_46\n      swap2\n      swap1\n      tag_17\n      jump\t// in\n    tag_46:\n      mload(0x40)\n      dup1\n      swap2\n      sub\n      swap1\n      return\n        /* \"lecture/lec02.sol\":388:411  bool public b1 = !false */\n    tag_12:\n      tag_47\n      tag_48\n      jump\t// in\n    tag_47:\n      mload(0x40)\n      tag_49\n      swap2\n      swap1\n      tag_17\n      jump\t// in\n    tag_49:\n      mload(0x40)\n      dup1\n      swap2\n      sub\n      swap1\n      return\n        /* \"lecture/lec02.sol\":425:455  bool public b2 = false || true */\n    tag_15:\n      0x00\n      0x02\n      swap1\n      sload\n      swap1\n      0x0100\n      exp\n      swap1\n      div\n      0xff\n      and\n      dup2\n      jump\t// out\n        /* \"lecture/lec02.sol\":646:673  bytes public bt2 = \"STRING\" */\n    tag_19:\n      0x01\n      dup1\n      sload\n      tag_50\n      swap1\n      tag_51\n      jump\t// in\n    tag_50:\n      dup1\n      0x1f\n      add\n      0x20\n      dup1\n      swap2\n      div\n      mul\n      0x20\n      add\n      mload(0x40)\n      swap1\n      dup2\n      add\n      0x40\n      mstore\n      dup1\n      swap3\n      swap2\n      swap1\n      dup2\n      dup2\n      mstore\n      0x20\n      add\n      dup3\n      dup1\n      sload\n      tag_52\n      swap1\n      tag_51\n      jump\t// in\n    tag_52:\n      dup1\n      iszero\n      tag_53\n      jumpi\n      dup1\n      0x1f\n      lt\n      tag_54\n      jumpi\n      0x0100\n      dup1\n      dup4\n      sload\n      div\n      mul\n      dup4\n      mstore\n      swap2\n      0x20\n      add\n      swap2\n      jump(tag_53)\n    tag_54:\n      dup3\n      add\n      swap2\n      swap1\n      0x00\n      mstore\n      keccak256(0x00, 0x20)\n      swap1\n    tag_55:\n      dup2\n      sload\n      dup2\n      mstore\n      swap1\n      0x01\n      add\n      swap1\n      0x20\n      add\n      dup1\n      dup4\n      gt\n      tag_55\n      jumpi\n      dup3\n      swap1\n      sub\n      0x1f\n      and\n      dup3\n      add\n      swap2\n    tag_53:\n      pop\n      pop\n      pop\n      pop\n      pop\n      dup2\n      jump\t// out\n        /* \"lecture/lec02.sol\":514:544  bool public b4 = false && true */\n    tag_23:\n      0x00\n      0x04\n      swap1\n      sload\n      swap1\n      0x0100\n      exp\n      swap1\n      div\n      0xff\n      and\n      dup2\n      jump\t// out\n        /* \"lecture/lec02.sol\":339:360  bool public b = false */\n    tag_26:\n      0x00\n      dup1\n      sload\n      swap1\n      0x0100\n      exp\n      swap1\n      div\n      0xff\n      and\n      dup2\n      jump\t// out\n        /* \"lecture/lec02.sol\":848:866  int8 public it = 4 */\n    tag_29:\n      0x02\n      0x14\n      swap1\n      sload\n      swap1\n      0x0100\n      exp\n      swap1\n      div\n      0x00\n      signextend\n      dup2\n      jump\t// out\n        /* \"lecture/lec02.sol\":900:927  uint256 public uit = 132213 */\n    tag_33:\n      sload(0x03)\n      dup2\n      jump\t// out\n        /* \"lecture/lec02.sol\":699:763  address public addr = 0xd8b934580fcE35a11B58C6D73aDeE468a2833fa8 */\n    tag_37:\n      0x02\n      0x00\n      swap1\n      sload\n      swap1\n      0x0100\n      exp\n      swap1\n      div\n      0xffffffffffffffffffffffffffffffffffffffff\n      and\n      dup2\n      jump\t// out\n        /* \"lecture/lec02.sol\":610:639  bytes4 public bt = 0x12345678 */\n    tag_41:\n      0x00\n      0x05\n      swap1\n      sload\n      swap1\n      0x0100\n      exp\n      swap1\n      div\n      0xe0\n      shl\n      dup2\n      jump\t// out\n        /* \"lecture/lec02.sol\":469:499  bool public b3 = false == true */\n    tag_45:\n      0x00\n      0x03\n      swap1\n      sload\n      swap1\n      0x0100\n      exp\n      swap1\n      div\n      0xff\n      and\n      dup2\n      jump\t// out\n        /* \"lecture/lec02.sol\":388:411  bool public b1 = !false */\n    tag_48:\n      0x00\n      0x01\n      swap1\n      sload\n      swap1\n      0x0100\n      exp\n      swap1\n      div\n      0xff\n      and\n      dup2\n      jump\t// out\n        /* \"#utility.yul\":7:125   */\n    tag_57:\n        /* \"#utility.yul\":94:118   */\n      tag_59\n        /* \"#utility.yul\":112:117   */\n      dup2\n        /* \"#utility.yul\":94:118   */\n      tag_60\n      jump\t// in\n    tag_59:\n        /* \"#utility.yul\":89:92   */\n      dup3\n        /* \"#utility.yul\":82:119   */\n      mstore\n        /* \"#utility.yul\":7:125   */\n      pop\n      pop\n      jump\t// out\n        /* \"#utility.yul\":131:240   */\n    tag_61:\n        /* \"#utility.yul\":212:233   */\n      tag_63\n        /* \"#utility.yul\":227:232   */\n      dup2\n        /* \"#utility.yul\":212:233   */\n      tag_64\n      jump\t// in\n    tag_63:\n        /* \"#utility.yul\":207:210   */\n      dup3\n        /* \"#utility.yul\":200:234   */\n      mstore\n        /* \"#utility.yul\":131:240   */\n      pop\n      pop\n      jump\t// out\n        /* \"#utility.yul\":246:361   */\n    tag_65:\n        /* \"#utility.yul\":331:354   */\n      tag_67\n        /* \"#utility.yul\":348:353   */\n      dup2\n        /* \"#utility.yul\":331:354   */\n      tag_68\n      jump\t// in\n    tag_67:\n        /* \"#utility.yul\":326:329   */\n      dup3\n        /* \"#utility.yul\":319:355   */\n      mstore\n        /* \"#utility.yul\":246:361   */\n      pop\n      pop\n      jump\t// out\n        /* \"#utility.yul\":367:727   */\n    tag_69:\n        /* \"#utility.yul\":453:456   */\n      0x00\n        /* \"#utility.yul\":481:519   */\n      tag_71\n        /* \"#utility.yul\":513:518   */\n      dup3\n        /* \"#utility.yul\":481:519   */\n      tag_72\n      jump\t// in\n    tag_71:\n        /* \"#utility.yul\":535:605   */\n      tag_73\n        /* \"#utility.yul\":598:604   */\n      dup2\n        /* \"#utility.yul\":593:596   */\n      dup6\n        /* \"#utility.yul\":535:605   */\n      tag_74\n      jump\t// in\n    tag_73:\n        /* \"#utility.yul\":528:605   */\n      swap4\n      pop\n        /* \"#utility.yul\":614:666   */\n      tag_75\n        /* \"#utility.yul\":659:665   */\n      dup2\n        /* \"#utility.yul\":654:657   */\n      dup6\n        /* \"#utility.yul\":647:651   */\n      0x20\n        /* \"#utility.yul\":640:645   */\n      dup7\n        /* \"#utility.yul\":636:652   */\n      add\n        /* \"#utility.yul\":614:666   */\n      tag_76\n      jump\t// in\n    tag_75:\n        /* \"#utility.yul\":691:720   */\n      tag_77\n        /* \"#utility.yul\":713:719   */\n      dup2\n        /* \"#utility.yul\":691:720   */\n      tag_78\n      jump\t// in\n    tag_77:\n        /* \"#utility.yul\":686:689   */\n      dup5\n        /* \"#utility.yul\":682:721   */\n      add\n        /* \"#utility.yul\":675:721   */\n      swap2\n      pop\n        /* \"#utility.yul\":457:727   */\n      pop\n        /* \"#utility.yul\":367:727   */\n      swap3\n      swap2\n      pop\n      pop\n      jump\t// out\n        /* \"#utility.yul\":733:842   */\n    tag_79:\n        /* \"#utility.yul\":814:835   */\n      tag_81\n        /* \"#utility.yul\":829:834   */\n      dup2\n        /* \"#utility.yul\":814:835   */\n      tag_82\n      jump\t// in\n    tag_81:\n        /* \"#utility.yul\":809:812   */\n      dup3\n        /* \"#utility.yul\":802:836   */\n      mstore\n        /* \"#utility.yul\":733:842   */\n      pop\n      pop\n      jump\t// out\n        /* \"#utility.yul\":848:966   */\n    tag_83:\n        /* \"#utility.yul\":935:959   */\n      tag_85\n        /* \"#utility.yul\":953:958   */\n      dup2\n        /* \"#utility.yul\":935:959   */\n      tag_86\n      jump\t// in\n    tag_85:\n        /* \"#utility.yul\":930:933   */\n      dup3\n        /* \"#utility.yul\":923:960   */\n      mstore\n        /* \"#utility.yul\":848:966   */\n      pop\n      pop\n      jump\t// out\n        /* \"#utility.yul\":972:1194   */\n    tag_39:\n        /* \"#utility.yul\":1065:1069   */\n      0x00\n        /* \"#utility.yul\":1103:1105   */\n      0x20\n        /* \"#utility.yul\":1092:1101   */\n      dup3\n        /* \"#utility.yul\":1088:1106   */\n      add\n        /* \"#utility.yul\":1080:1106   */\n      swap1\n      pop\n        /* \"#utility.yul\":1116:1187   */\n      tag_88\n        /* \"#utility.yul\":1184:1185   */\n      0x00\n        /* \"#utility.yul\":1173:1182   */\n      dup4\n        /* \"#utility.yul\":1169:1186   */\n      add\n        /* \"#utility.yul\":1160:1166   */\n      dup5\n        /* \"#utility.yul\":1116:1187   */\n      tag_57\n      jump\t// in\n    tag_88:\n        /* \"#utility.yul\":972:1194   */\n      swap3\n      swap2\n      pop\n      pop\n      jump\t// out\n        /* \"#utility.yul\":1200:1410   */\n    tag_17:\n        /* \"#utility.yul\":1287:1291   */\n      0x00\n        /* \"#utility.yul\":1325:1327   */\n      0x20\n        /* \"#utility.yul\":1314:1323   */\n      dup3\n        /* \"#utility.yul\":1310:1328   */\n      add\n        /* \"#utility.yul\":1302:1328   */\n      swap1\n      pop\n        /* \"#utility.yul\":1338:1403   */\n      tag_90\n        /* \"#utility.yul\":1400:1401   */\n      0x00\n        /* \"#utility.yul\":1389:1398   */\n      dup4\n        /* \"#utility.yul\":1385:1402   */\n      add\n        /* \"#utility.yul\":1376:1382   */\n      dup5\n        /* \"#utility.yul\":1338:1403   */\n      tag_61\n      jump\t// in\n    tag_90:\n        /* \"#utility.yul\":1200:1410   */\n      swap3\n      swap2\n      pop\n      pop\n      jump\t// out\n        /* \"#utility.yul\":1416:1634   */\n    tag_43:\n        /* \"#utility.yul\":1507:1511   */\n      0x00\n        /* \"#utility.yul\":1545:1547   */\n      0x20\n        /* \"#utility.yul\":1534:1543   */\n      dup3\n        /* \"#utility.yul\":1530:1548   */\n      add\n        /* \"#utility.yul\":1522:1548   */\n      swap1\n      pop\n        /* \"#utility.yul\":1558:1627   */\n      tag_92\n        /* \"#utility.yul\":1624:1625   */\n      0x00\n        /* \"#utility.yul\":1613:1622   */\n      dup4\n        /* \"#utility.yul\":1609:1626   */\n      add\n        /* \"#utility.yul\":1600:1606   */\n      dup5\n        /* \"#utility.yul\":1558:1627   */\n      tag_65\n      jump\t// in\n    tag_92:\n        /* \"#utility.yul\":1416:1634   */\n      swap3\n      swap2\n      pop\n      pop\n      jump\t// out\n        /* \"#utility.yul\":1640:1949   */\n    tag_21:\n        /* \"#utility.yul\":1751:1755   */\n      0x00\n        /* \"#utility.yul\":1789:1791   */\n      0x20\n        /* \"#utility.yul\":1778:1787   */\n      dup3\n        /* \"#utility.yul\":1774:1792   */\n      add\n        /* \"#utility.yul\":1766:1792   */\n      swap1\n      pop\n        /* \"#utility.yul\":1838:1847   */\n      dup2\n        /* \"#utility.yul\":1832:1836   */\n      dup2\n        /* \"#utility.yul\":1828:1848   */\n      sub\n        /* \"#utility.yul\":1824:1825   */\n      0x00\n        /* \"#utility.yul\":1813:1822   */\n      dup4\n        /* \"#utility.yul\":1809:1826   */\n      add\n        /* \"#utility.yul\":1802:1849   */\n      mstore\n        /* \"#utility.yul\":1866:1942   */\n      tag_94\n        /* \"#utility.yul\":1937:1941   */\n      dup2\n        /* \"#utility.yul\":1928:1934   */\n      dup5\n        /* \"#utility.yul\":1866:1942   */\n      tag_69\n      jump\t// in\n    tag_94:\n        /* \"#utility.yul\":1858:1942   */\n      swap1\n      pop\n        /* \"#utility.yul\":1640:1949   */\n      swap3\n      swap2\n      pop\n      pop\n      jump\t// out\n        /* \"#utility.yul\":1955:2165   */\n    tag_31:\n        /* \"#utility.yul\":2042:2046   */\n      0x00\n        /* \"#utility.yul\":2080:2082   */\n      0x20\n        /* \"#utility.yul\":2069:2078   */\n      dup3\n        /* \"#utility.yul\":2065:2083   */\n      add\n        /* \"#utility.yul\":2057:2083   */\n      swap1\n      pop\n        /* \"#utility.yul\":2093:2158   */\n      tag_96\n        /* \"#utility.yul\":2155:2156   */\n      0x00\n        /* \"#utility.yul\":2144:2153   */\n      dup4\n        /* \"#utility.yul\":2140:2157   */\n      add\n        /* \"#utility.yul\":2131:2137   */\n      dup5\n        /* \"#utility.yul\":2093:2158   */\n      tag_79\n      jump\t// in\n    tag_96:\n        /* \"#utility.yul\":1955:2165   */\n      swap3\n      swap2\n      pop\n      pop\n      jump\t// out\n        /* \"#utility.yul\":2171:2393   */\n    tag_35:\n        /* \"#utility.yul\":2264:2268   */\n      0x00\n        /* \"#utility.yul\":2302:2304   */\n      0x20\n        /* \"#utility.yul\":2291:2300   */\n      dup3\n        /* \"#utility.yul\":2287:2305   */\n      add\n        /* \"#utility.yul\":2279:2305   */\n      swap1\n      pop\n        /* \"#utility.yul\":2315:2386   */\n      tag_98\n        /* \"#utility.yul\":2383:2384   */\n      0x00\n        /* \"#utility.yul\":2372:2381   */\n      dup4\n        /* \"#utility.yul\":2368:2385   */\n      add\n        /* \"#utility.yul\":2359:2365   */\n      dup5\n        /* \"#utility.yul\":2315:2386   */\n      tag_83\n      jump\t// in\n    tag_98:\n        /* \"#utility.yul\":2171:2393   */\n      swap3\n      swap2\n      pop\n      pop\n      jump\t// out\n        /* \"#utility.yul\":2399:2497   */\n    tag_72:\n        /* \"#utility.yul\":2450:2456   */\n      0x00\n        /* \"#utility.yul\":2484:2489   */\n      dup2\n        /* \"#utility.yul\":2478:2490   */\n      mload\n        /* \"#utility.yul\":2468:2490   */\n      swap1\n      pop\n        /* \"#utility.yul\":2399:2497   */\n      swap2\n      swap1\n      pop\n      jump\t// out\n        /* \"#utility.yul\":2503:2671   */\n    tag_74:\n        /* \"#utility.yul\":2586:2597   */\n      0x00\n        /* \"#utility.yul\":2620:2626   */\n      dup3\n        /* \"#utility.yul\":2615:2618   */\n      dup3\n        /* \"#utility.yul\":2608:2627   */\n      mstore\n        /* \"#utility.yul\":2660:2664   */\n      0x20\n        /* \"#utility.yul\":2655:2658   */\n      dup3\n        /* \"#utility.yul\":2651:2665   */\n      add\n        /* \"#utility.yul\":2636:2665   */\n      swap1\n      pop\n        /* \"#utility.yul\":2503:2671   */\n      swap3\n      swap2\n      pop\n      pop\n      jump\t// out\n        /* \"#utility.yul\":2677:2773   */\n    tag_60:\n        /* \"#utility.yul\":2714:2721   */\n      0x00\n        /* \"#utility.yul\":2743:2767   */\n      tag_102\n        /* \"#utility.yul\":2761:2766   */\n      dup3\n        /* \"#utility.yul\":2743:2767   */\n      tag_103\n      jump\t// in\n    tag_102:\n        /* \"#utility.yul\":2732:2767   */\n      swap1\n      pop\n        /* \"#utility.yul\":2677:2773   */\n      swap2\n      swap1\n      pop\n      jump\t// out\n        /* \"#utility.yul\":2779:2869   */\n    tag_64:\n        /* \"#utility.yul\":2813:2820   */\n      0x00\n        /* \"#utility.yul\":2856:2861   */\n      dup2\n        /* \"#utility.yul\":2849:2862   */\n      iszero\n        /* \"#utility.yul\":2842:2863   */\n      iszero\n        /* \"#utility.yul\":2831:2863   */\n      swap1\n      pop\n        /* \"#utility.yul\":2779:2869   */\n      swap2\n      swap1\n      pop\n      jump\t// out\n        /* \"#utility.yul\":2875:3024   */\n    tag_68:\n        /* \"#utility.yul\":2911:2918   */\n      0x00\n        /* \"#utility.yul\":2951:3017   */\n      0xffffffff00000000000000000000000000000000000000000000000000000000\n        /* \"#utility.yul\":2944:2949   */\n      dup3\n        /* \"#utility.yul\":2940:3018   */\n      and\n        /* \"#utility.yul\":2929:3018   */\n      swap1\n      pop\n        /* \"#utility.yul\":2875:3024   */\n      swap2\n      swap1\n      pop\n      jump\t// out\n        /* \"#utility.yul\":3030:3119   */\n    tag_82:\n        /* \"#utility.yul\":3064:3071   */\n      0x00\n        /* \"#utility.yul\":3107:3112   */\n      dup2\n        /* \"#utility.yul\":3104:3105   */\n      0x00\n        /* \"#utility.yul\":3093:3113   */\n      signextend\n        /* \"#utility.yul\":3082:3113   */\n      swap1\n      pop\n        /* \"#utility.yul\":3030:3119   */\n      swap2\n      swap1\n      pop\n      jump\t// out\n        /* \"#utility.yul\":3125:3251   */\n    tag_103:\n        /* \"#utility.yul\":3162:3169   */\n      0x00\n        /* \"#utility.yul\":3202:3244   */\n      0xffffffffffffffffffffffffffffffffffffffff\n        /* \"#utility.yul\":3195:3200   */\n      dup3\n        /* \"#utility.yul\":3191:3245   */\n      and\n        /* \"#utility.yul\":3180:3245   */\n      swap1\n      pop\n        /* \"#utility.yul\":3125:3251   */\n      swap2\n      swap1\n      pop\n      jump\t// out\n        /* \"#utility.yul\":3257:3334   */\n    tag_86:\n        /* \"#utility.yul\":3294:3301   */\n      0x00\n        /* \"#utility.yul\":3323:3328   */\n      dup2\n        /* \"#utility.yul\":3312:3328   */\n      swap1\n      pop\n        /* \"#utility.yul\":3257:3334   */\n      swap2\n      swap1\n      pop\n      jump\t// out\n        /* \"#utility.yul\":3340:3647   */\n    tag_76:\n        /* \"#utility.yul\":3408:3409   */\n      0x00\n        /* \"#utility.yul\":3418:3531   */\n    tag_110:\n        /* \"#utility.yul\":3432:3438   */\n      dup4\n        /* \"#utility.yul\":3429:3430   */\n      dup2\n        /* \"#utility.yul\":3426:3439   */\n      lt\n        /* \"#utility.yul\":3418:3531   */\n      iszero\n      tag_112\n      jumpi\n        /* \"#utility.yul\":3517:3518   */\n      dup1\n        /* \"#utility.yul\":3512:3515   */\n      dup3\n        /* \"#utility.yul\":3508:3519   */\n      add\n        /* \"#utility.yul\":3502:3520   */\n      mload\n        /* \"#utility.yul\":3498:3499   */\n      dup2\n        /* \"#utility.yul\":3493:3496   */\n      dup5\n        /* \"#utility.yul\":3489:3500   */\n      add\n        /* \"#utility.yul\":3482:3521   */\n      mstore\n        /* \"#utility.yul\":3454:3456   */\n      0x20\n        /* \"#utility.yul\":3451:3452   */\n      dup2\n        /* \"#utility.yul\":3447:3457   */\n      add\n        /* \"#utility.yul\":3442:3457   */\n      swap1\n      pop\n        /* \"#utility.yul\":3418:3531   */\n      jump(tag_110)\n    tag_112:\n        /* \"#utility.yul\":3549:3555   */\n      dup4\n        /* \"#utility.yul\":3546:3547   */\n      dup2\n        /* \"#utility.yul\":3543:3556   */\n      gt\n        /* \"#utility.yul\":3540:3641   */\n      iszero\n      tag_113\n      jumpi\n        /* \"#utility.yul\":3629:3630   */\n      0x00\n        /* \"#utility.yul\":3620:3626   */\n      dup5\n        /* \"#utility.yul\":3615:3618   */\n      dup5\n        /* \"#utility.yul\":3611:3627   */\n      add\n        /* \"#utility.yul\":3604:3631   */\n      mstore\n        /* \"#utility.yul\":3540:3641   */\n    tag_113:\n        /* \"#utility.yul\":3389:3647   */\n      pop\n        /* \"#utility.yul\":3340:3647   */\n      pop\n      pop\n      pop\n      jump\t// out\n        /* \"#utility.yul\":3653:3973   */\n    tag_51:\n        /* \"#utility.yul\":3697:3703   */\n      0x00\n        /* \"#utility.yul\":3734:3735   */\n      0x02\n        /* \"#utility.yul\":3728:3732   */\n      dup3\n        /* \"#utility.yul\":3724:3736   */\n      div\n        /* \"#utility.yul\":3714:3736   */\n      swap1\n      pop\n        /* \"#utility.yul\":3781:3782   */\n      0x01\n        /* \"#utility.yul\":3775:3779   */\n      dup3\n        /* \"#utility.yul\":3771:3783   */\n      and\n        /* \"#utility.yul\":3802:3820   */\n      dup1\n        /* \"#utility.yul\":3792:3873   */\n      tag_115\n      jumpi\n        /* \"#utility.yul\":3858:3862   */\n      0x7f\n        /* \"#utility.yul\":3850:3856   */\n      dup3\n        /* \"#utility.yul\":3846:3863   */\n      and\n        /* \"#utility.yul\":3836:3863   */\n      swap2\n      pop\n        /* \"#utility.yul\":3792:3873   */\n    tag_115:\n        /* \"#utility.yul\":3920:3922   */\n      0x20\n        /* \"#utility.yul\":3912:3918   */\n      dup3\n        /* \"#utility.yul\":3909:3923   */\n      lt\n        /* \"#utility.yul\":3889:3907   */\n      dup2\n        /* \"#utility.yul\":3886:3924   */\n      eq\n        /* \"#utility.yul\":3883:3967   */\n      iszero\n      tag_116\n      jumpi\n        /* \"#utility.yul\":3939:3957   */\n      tag_117\n      tag_118\n      jump\t// in\n    tag_117:\n        /* \"#utility.yul\":3883:3967   */\n    tag_116:\n        /* \"#utility.yul\":3704:3973   */\n      pop\n        /* \"#utility.yul\":3653:3973   */\n      swap2\n      swap1\n      pop\n      jump\t// out\n        /* \"#utility.yul\":3979:4159   */\n    tag_118:\n        /* \"#utility.yul\":4027:4104   */\n      0x4e487b7100000000000000000000000000000000000000000000000000000000\n        /* \"#utility.yul\":4024:4025   */\n      0x00\n        /* \"#utility.yul\":4017:4105   */\n      mstore\n        /* \"#utility.yul\":4124:4128   */\n      0x22\n        /* \"#utility.yul\":4121:4122   */\n      0x04\n        /* \"#utility.yul\":4114:4129   */\n      mstore\n        /* \"#utility.yul\":4148:4152   */\n      0x24\n        /* \"#utility.yul\":4145:4146   */\n      0x00\n        /* \"#utility.yul\":4138:4153   */\n      revert\n        /* \"#utility.yul\":4165:4267   */\n    tag_78:\n        /* \"#utility.yul\":4206:4212   */\n      0x00\n        /* \"#utility.yul\":4257:4259   */\n      0x1f\n        /* \"#utility.yul\":4253:4260   */\n      not\n        /* \"#utility.yul\":4248:4250   */\n      0x1f\n        /* \"#utility.yul\":4241:4246   */\n      dup4\n        /* \"#utility.yul\":4237:4251   */\n      add\n        /* \"#utility.yul\":4233:4261   */\n      and\n        /* \"#utility.yul\":4223:4261   */\n      swap1\n      pop\n        /* \"#utility.yul\":4165:4267   */\n      swap2\n      swap1\n      pop\n      jump\t// out\n\n    auxdata: 0xa26469706673582212206f19d7fbf7c8ba43d78f3ab38164ddf8d523bb969e55bde17811ac13dd87bb8364736f6c63430008070033\n}\n",
				"bytecode": {
					"linkReferences": {},
					"object": "608060405260008060006101000a81548160ff021916908315150217905550600015600060016101000a81548160ff021916908315150217905550600080610045575060015b600060026101000a81548160ff021916908315150217905550600115156000151514600060036101000a81548160ff0219169083151502179055506000801561008c575060015b600060046101000a81548160ff021916908315150217905550631234567860e01b600060056101000a81548163ffffffff021916908360e01c02179055506040518060400160405280600681526020017f535452494e470000000000000000000000000000000000000000000000000000815250600190805190602001906101159291906101a3565b5073d8b934580fce35a11b58c6d73adee468a2833fa8600260006101000a81548173ffffffffffffffffffffffffffffffffffffffff021916908373ffffffffffffffffffffffffffffffffffffffff1602179055506004600260146101000a81548160ff021916908360000b60ff1602179055506202047560035534801561019d57600080fd5b506102a7565b8280546101af90610246565b90600052602060002090601f0160209004810192826101d15760008555610218565b82601f106101ea57805160ff1916838001178555610218565b82800160010185558215610218579182015b828111156102175782518255916020019190600101906101fc565b5b5090506102259190610229565b5090565b5b8082111561024257600081600090555060010161022a565b5090565b6000600282049050600182168061025e57607f821691505b6020821081141561027257610271610278565b5b50919050565b7f4e487b7100000000000000000000000000000000000000000000000000000000600052602260045260246000fd5b6105b1806102b66000396000f3fe608060405234801561001057600080fd5b506004361061009e5760003560e01c8063699ad9ad11610066578063699ad9ad14610139578063767800de14610157578063ac9c195914610175578063e9b6190914610193578063ee495002146101b15761009e565b80630add6ef2146100a35780632c622fae146100c15780633db3fb0a146100df5780634df7e3d0146100fd5780635ce692f21461011b575b600080fd5b6100ab6101cf565b6040516100b891906103ab565b60405180910390f35b6100c96101e2565b6040516100d691906103e1565b60405180910390f35b6100e7610270565b6040516100f491906103ab565b60405180910390f35b610105610283565b60405161011291906103ab565b60405180910390f35b610123610294565b6040516101309190610403565b60405180910390f35b6101416102a7565b60405161014e919061041e565b60405180910390f35b61015f6102ad565b60405161016c9190610390565b60405180910390f35b61017d6102d3565b60405161018a91906103c6565b60405180910390f35b61019b6102e6565b6040516101a891906103ab565b60405180910390f35b6101b96102f9565b6040516101c691906103ab565b60405180910390f35b600060029054906101000a900460ff1681565b600180546101ef90610509565b80601f016020809104026020016040519081016040528092919081815260200182805461021b90610509565b80156102685780601f1061023d57610100808354040283529160200191610268565b820191906000526020600020905b81548152906001019060200180831161024b57829003601f168201915b505050505081565b600060049054906101000a900460ff1681565b60008054906101000a900460ff1681565b600260149054906101000a900460000b81565b60035481565b600260009054906101000a900473ffffffffffffffffffffffffffffffffffffffff1681565b600060059054906101000a900460e01b81565b600060039054906101000a900460ff1681565b600060019054906101000a900460ff1681565b61031581610455565b82525050565b61032481610467565b82525050565b61033381610473565b82525050565b600061034482610439565b61034e8185610444565b935061035e8185602086016104d6565b6103678161056a565b840191505092915050565b61037b8161049f565b82525050565b61038a816104cc565b82525050565b60006020820190506103a5600083018461030c565b92915050565b60006020820190506103c0600083018461031b565b92915050565b60006020820190506103db600083018461032a565b92915050565b600060208201905081810360008301526103fb8184610339565b905092915050565b60006020820190506104186000830184610372565b92915050565b60006020820190506104336000830184610381565b92915050565b600081519050919050565b600082825260208201905092915050565b6000610460826104ac565b9050919050565b60008115159050919050565b60007fffffffff0000000000000000000000000000000000000000000000000000000082169050919050565b60008160000b9050919050565b600073ffffffffffffffffffffffffffffffffffffffff82169050919050565b6000819050919050565b60005b838110156104f45780820151818401526020810190506104d9565b83811115610503576000848401525b50505050565b6000600282049050600182168061052157607f821691505b602082108114156105355761053461053b565b5b50919050565b7f4e487b7100000000000000000000000000000000000000000000000000000000600052602260045260246000fd5b6000601f19601f830116905091905056fea26469706673582212206f19d7fbf7c8ba43d78f3ab38164ddf8d523bb969e55bde17811ac13dd87bb8364736f6c63430008070033",
					"opcodes": "PUSH1 0x80 PUSH1 0x40 MSTORE PUSH1 0x0 DUP1 PUSH1 0x0 PUSH2 0x100 EXP DUP2 SLOAD DUP2 PUSH1 0xFF MUL NOT AND SWAP1 DUP4 ISZERO ISZERO MUL OR SWAP1 SSTORE POP PUSH1 0x0 ISZERO PUSH1 0x0 PUSH1 0x1 PUSH2 0x100 EXP DUP2 SLOAD DUP2 PUSH1 0xFF MUL NOT AND SWAP1 DUP4 ISZERO ISZERO MUL OR SWAP1 SSTORE POP PUSH1 0x0 DUP1 PUSH2 0x45 JUMPI POP PUSH1 0x1 JUMPDEST PUSH1 0x0 PUSH1 0x2 PUSH2 0x100 EXP DUP2 SLOAD DUP2 PUSH1 0xFF MUL NOT AND SWAP1 DUP4 ISZERO ISZERO MUL OR SWAP1 SSTORE POP PUSH1 0x1 ISZERO ISZERO PUSH1 0x0 ISZERO ISZERO EQ PUSH1 0x0 PUSH1 0x3 PUSH2 0x100 EXP DUP2 SLOAD DUP2 PUSH1 0xFF MUL NOT AND SWAP1 DUP4 ISZERO ISZERO MUL OR SWAP1 SSTORE POP PUSH1 0x0 DUP1 ISZERO PUSH2 0x8C JUMPI POP PUSH1 0x1 JUMPDEST PUSH1 0x0 PUSH1 0x4 PUSH2 0x100 EXP DUP2 SLOAD DUP2 PUSH1 0xFF MUL NOT AND SWAP1 DUP4 ISZERO ISZERO MUL OR SWAP1 SSTORE POP PUSH4 0x12345678 PUSH1 0xE0 SHL PUSH1 0x0 PUSH1 0x5 PUSH2 0x100 EXP DUP2 SLOAD DUP2 PUSH4 0xFFFFFFFF MUL NOT AND SWAP1 DUP4 PUSH1 0xE0 SHR MUL OR SWAP1 SSTORE POP PUSH1 0x40 MLOAD DUP1 PUSH1 0x40 ADD PUSH1 0x40 MSTORE DUP1 PUSH1 0x6 DUP2 MSTORE PUSH1 0x20 ADD PUSH32 0x535452494E470000000000000000000000000000000000000000000000000000 DUP2 MSTORE POP PUSH1 0x1 SWAP1 DUP1 MLOAD SWAP1 PUSH1 0x20 ADD SWAP1 PUSH2 0x115 SWAP3 SWAP2 SWAP1 PUSH2 0x1A3 JUMP JUMPDEST POP PUSH20 0xD8B934580FCE35A11B58C6D73ADEE468A2833FA8 PUSH1 0x2 PUSH1 0x0 PUSH2 0x100 EXP DUP2 SLOAD DUP2 PUSH20 0xFFFFFFFFFFFFFFFFFFFFFFFFFFFFFFFFFFFFFFFF MUL NOT AND SWAP1 DUP4 PUSH20 0xFFFFFFFFFFFFFFFFFFFFFFFFFFFFFFFFFFFFFFFF AND MUL OR SWAP1 SSTORE POP PUSH1 0x4 PUSH1 0x2 PUSH1 0x14 PUSH2 0x100 EXP DUP2 SLOAD DUP2 PUSH1 0xFF MUL NOT AND SWAP1 DUP4 PUSH1 0x0 SIGNEXTEND PUSH1 0xFF AND MUL OR SWAP1 SSTORE POP PUSH3 0x20475 PUSH1 0x3 SSTORE CALLVALUE DUP1 ISZERO PUSH2 0x19D JUMPI PUSH1 0x0 DUP1 REVERT JUMPDEST POP PUSH2 0x2A7 JUMP JUMPDEST DUP3 DUP1 SLOAD PUSH2 0x1AF SWAP1 PUSH2 0x246 JUMP JUMPDEST SWAP1 PUSH1 0x0 MSTORE PUSH1 0x20 PUSH1 0x0 KECCAK256 SWAP1 PUSH1 0x1F ADD PUSH1 0x20 SWAP1 DIV DUP2 ADD SWAP3 DUP3 PUSH2 0x1D1 JUMPI PUSH1 0x0 DUP6 SSTORE PUSH2 0x218 JUMP JUMPDEST DUP3 PUSH1 0x1F LT PUSH2 0x1EA JUMPI DUP1 MLOAD PUSH1 0xFF NOT AND DUP4 DUP1 ADD OR DUP6 SSTORE PUSH2 0x218 JUMP JUMPDEST DUP3 DUP1 ADD PUSH1 0x1 ADD DUP6 SSTORE DUP3 ISZERO PUSH2 0x218 JUMPI SWAP2 DUP3 ADD JUMPDEST DUP3 DUP2 GT ISZERO PUSH2 0x217 JUMPI DUP3 MLOAD DUP3 SSTORE SWAP2 PUSH1 0x20 ADD SWAP2 SWAP1 PUSH1 0x1 ADD SWAP1 PUSH2 0x1FC JUMP JUMPDEST JUMPDEST POP SWAP1 POP PUSH2 0x225 SWAP2 SWAP1 PUSH2 0x229 JUMP JUMPDEST POP SWAP1 JUMP JUMPDEST JUMPDEST DUP1 DUP3 GT ISZERO PUSH2 0x242 JUMPI PUSH1 0x0 DUP2 PUSH1 0x0 SWAP1 SSTORE POP PUSH1 0x1 ADD PUSH2 0x22A JUMP JUMPDEST POP SWAP1 JUMP JUMPDEST PUSH1 0x0 PUSH1 0x2 DUP3 DIV SWAP1 POP PUSH1 0x1 DUP3 AND DUP1 PUSH2 0x25E JUMPI PUSH1 0x7F DUP3 AND SWAP2 POP JUMPDEST PUSH1 0x20 DUP3 LT DUP2 EQ ISZERO PUSH2 0x272 JUMPI PUSH2 0x271 PUSH2 0x278 JUMP JUMPDEST JUMPDEST POP SWAP2 SWAP1 POP JUMP JUMPDEST PUSH32 0x4E487B7100000000000000000000000000000000000000000000000000000000 PUSH1 0x0 MSTORE PUSH1 0x22 PUSH1 0x4 MSTORE PUSH1 0x24 PUSH1 0x0 REVERT JUMPDEST PUSH2 0x5B1 DUP1 PUSH2 0x2B6 PUSH1 0x0 CODECOPY PUSH1 0x0 RETURN INVALID PUSH1 0x80 PUSH1 0x40 MSTORE CALLVALUE DUP1 ISZERO PUSH2 0x10 JUMPI PUSH1 0x0 DUP1 REVERT JUMPDEST POP PUSH1 0x4 CALLDATASIZE LT PUSH2 0x9E JUMPI PUSH1 0x0 CALLDATALOAD PUSH1 0xE0 SHR DUP1 PUSH4 0x699AD9AD GT PUSH2 0x66 JUMPI DUP1 PUSH4 0x699AD9AD EQ PUSH2 0x139 JUMPI DUP1 PUSH4 0x767800DE EQ PUSH2 0x157 JUMPI DUP1 PUSH4 0xAC9C1959 EQ PUSH2 0x175 JUMPI DUP1 PUSH4 0xE9B61909 EQ PUSH2 0x193 JUMPI DUP1 PUSH4 0xEE495002 EQ PUSH2 0x1B1 JUMPI PUSH2 0x9E JUMP JUMPDEST DUP1 PUSH4 0xADD6EF2 EQ PUSH2 0xA3 JUMPI DUP1 PUSH4 0x2C622FAE EQ PUSH2 0xC1 JUMPI DUP1 PUSH4 0x3DB3FB0A EQ PUSH2 0xDF JUMPI DUP1 PUSH4 0x4DF7E3D0 EQ PUSH2 0xFD JUMPI DUP1 PUSH4 0x5CE692F2 EQ PUSH2 0x11B JUMPI JUMPDEST PUSH1 0x0 DUP1 REVERT JUMPDEST PUSH2 0xAB PUSH2 0x1CF JUMP JUMPDEST PUSH1 0x40 MLOAD PUSH2 0xB8 SWAP2 SWAP1 PUSH2 0x3AB JUMP JUMPDEST PUSH1 0x40 MLOAD DUP1 SWAP2 SUB SWAP1 RETURN JUMPDEST PUSH2 0xC9 PUSH2 0x1E2 JUMP JUMPDEST PUSH1 0x40 MLOAD PUSH2 0xD6 SWAP2 SWAP1 PUSH2 0x3E1 JUMP JUMPDEST PUSH1 0x40 MLOAD DUP1 SWAP2 SUB SWAP1 RETURN JUMPDEST PUSH2 0xE7 PUSH2 0x270 JUMP JUMPDEST PUSH1 0x40 MLOAD PUSH2 0xF4 SWAP2 SWAP1 PUSH2 0x3AB JUMP JUMPDEST PUSH1 0x40 MLOAD DUP1 SWAP2 SUB SWAP1 RETURN JUMPDEST PUSH2 0x105 PUSH2 0x283 JUMP JUMPDEST PUSH1 0x40 MLOAD PUSH2 0x112 SWAP2 SWAP1 PUSH2 0x3AB JUMP JUMPDEST PUSH1 0x40 MLOAD DUP1 SWAP2 SUB SWAP1 RETURN JUMPDEST PUSH2 0x123 PUSH2 0x294 JUMP JUMPDEST PUSH1 0x40 MLOAD PUSH2 0x130 SWAP2 SWAP1 PUSH2 0x403 JUMP JUMPDEST PUSH1 0x40 MLOAD DUP1 SWAP2 SUB SWAP1 RETURN JUMPDEST PUSH2 0x141 PUSH2 0x2A7 JUMP JUMPDEST PUSH1 0x40 MLOAD PUSH2 0x14E SWAP2 SWAP1 PUSH2 0x41E JUMP JUMPDEST PUSH1 0x40 MLOAD DUP1 SWAP2 SUB SWAP1 RETURN JUMPDEST PUSH2 0x15F PUSH2 0x2AD JUMP JUMPDEST PUSH1 0x40 MLOAD PUSH2 0x16C SWAP2 SWAP1 PUSH2 0x390 JUMP JUMPDEST PUSH1 0x40 MLOAD DUP1 SWAP2 SUB SWAP1 RETURN JUMPDEST PUSH2 0x17D PUSH2 0x2D3 JUMP JUMPDEST PUSH1 0x40 MLOAD PUSH2 0x18A SWAP2 SWAP1 PUSH2 0x3C6 JUMP JUMPDEST PUSH1 0x40 MLOAD DUP1 SWAP2 SUB SWAP1 RETURN JUMPDEST PUSH2 0x19B PUSH2 0x2E6 JUMP JUMPDEST PUSH1 0x40 MLOAD PUSH2 0x1A8 SWAP2 SWAP1 PUSH2 0x3AB JUMP JUMPDEST PUSH1 0x40 MLOAD DUP1 SWAP2 SUB SWAP1 RETURN JUMPDEST PUSH2 0x1B9 PUSH2 0x2F9 JUMP JUMPDEST PUSH1 0x40 MLOAD PUSH2 0x1C6 SWAP2 SWAP1 PUSH2 0x3AB JUMP JUMPDEST PUSH1 0x40 MLOAD DUP1 SWAP2 SUB SWAP1 RETURN JUMPDEST PUSH1 0x0 PUSH1 0x2 SWAP1 SLOAD SWAP1 PUSH2 0x100 EXP SWAP1 DIV PUSH1 0xFF AND DUP2 JUMP JUMPDEST PUSH1 0x1 DUP1 SLOAD PUSH2 0x1EF SWAP1 PUSH2 0x509 JUMP JUMPDEST DUP1 PUSH1 0x1F ADD PUSH1 0x20 DUP1 SWAP2 DIV MUL PUSH1 0x20 ADD PUSH1 0x40 MLOAD SWAP1 DUP2 ADD PUSH1 0x40 MSTORE DUP1 SWAP3 SWAP2 SWAP1 DUP2 DUP2 MSTORE PUSH1 0x20 ADD DUP3 DUP1 SLOAD PUSH2 0x21B SWAP1 PUSH2 0x509 JUMP JUMPDEST DUP1 ISZERO PUSH2 0x268 JUMPI DUP1 PUSH1 0x1F LT PUSH2 0x23D JUMPI PUSH2 0x100 DUP1 DUP4 SLOAD DIV MUL DUP4 MSTORE SWAP2 PUSH1 0x20 ADD SWAP2 PUSH2 0x268 JUMP JUMPDEST DUP3 ADD SWAP2 SWAP1 PUSH1 0x0 MSTORE PUSH1 0x20 PUSH1 0x0 KECCAK256 SWAP1 JUMPDEST DUP2 SLOAD DUP2 MSTORE SWAP1 PUSH1 0x1 ADD SWAP1 PUSH1 0x20 ADD DUP1 DUP4 GT PUSH2 0x24B JUMPI DUP3 SWAP1 SUB PUSH1 0x1F AND DUP3 ADD SWAP2 JUMPDEST POP POP POP POP POP DUP2 JUMP JUMPDEST PUSH1 0x0 PUSH1 0x4 SWAP1 SLOAD SWAP1 PUSH2 0x100 EXP SWAP1 DIV PUSH1 0xFF AND DUP2 JUMP JUMPDEST PUSH1 0x0 DUP1 SLOAD SWAP1 PUSH2 0x100 EXP SWAP1 DIV PUSH1 0xFF AND DUP2 JUMP JUMPDEST PUSH1 0x2 PUSH1 0x14 SWAP1 SLOAD SWAP1 PUSH2 0x100 EXP SWAP1 DIV PUSH1 0x0 SIGNEXTEND DUP2 JUMP JUMPDEST PUSH1 0x3 SLOAD DUP2 JUMP JUMPDEST PUSH1 0x2 PUSH1 0x0 SWAP1 SLOAD SWAP1 PUSH2 0x100 EXP SWAP1 DIV PUSH20 0xFFFFFFFFFFFFFFFFFFFFFFFFFFFFFFFFFFFFFFFF AND DUP2 JUMP JUMPDEST PUSH1 0x0 PUSH1 0x5 SWAP1 SLOAD SWAP1 PUSH2 0x100 EXP SWAP1 DIV PUSH1 0xE0 SHL DUP2 JUMP JUMPDEST PUSH1 0x0 PUSH1 0x3 SWAP1 SLOAD SWAP1 PUSH2 0x100 EXP SWAP1 DIV PUSH1 0xFF AND DUP2 JUMP JUMPDEST PUSH1 0x0 PUSH1 0x1 SWAP1 SLOAD SWAP1 PUSH2 0x100 EXP SWAP1 DIV PUSH1 0xFF AND DUP2 JUMP JUMPDEST PUSH2 0x315 DUP2 PUSH2 0x455 JUMP JUMPDEST DUP3 MSTORE POP POP JUMP JUMPDEST PUSH2 0x324 DUP2 PUSH2 0x467 JUMP JUMPDEST DUP3 MSTORE POP POP JUMP JUMPDEST PUSH2 0x333 DUP2 PUSH2 0x473 JUMP JUMPDEST DUP3 MSTORE POP POP JUMP JUMPDEST PUSH1 0x0 PUSH2 0x344 DUP3 PUSH2 0x439 JUMP JUMPDEST PUSH2 0x34E DUP2 DUP6 PUSH2 0x444 JUMP JUMPDEST SWAP4 POP PUSH2 0x35E DUP2 DUP6 PUSH1 0x20 DUP7 ADD PUSH2 0x4D6 JUMP JUMPDEST PUSH2 0x367 DUP2 PUSH2 0x56A JUMP JUMPDEST DUP5 ADD SWAP2 POP POP SWAP3 SWAP2 POP POP JUMP JUMPDEST PUSH2 0x37B DUP2 PUSH2 0x49F JUMP JUMPDEST DUP3 MSTORE POP POP JUMP JUMPDEST PUSH2 0x38A DUP2 PUSH2 0x4CC JUMP JUMPDEST DUP3 MSTORE POP POP JUMP JUMPDEST PUSH1 0x0 PUSH1 0x20 DUP3 ADD SWAP1 POP PUSH2 0x3A5 PUSH1 0x0 DUP4 ADD DUP5 PUSH2 0x30C JUMP JUMPDEST SWAP3 SWAP2 POP POP JUMP JUMPDEST PUSH1 0x0 PUSH1 0x20 DUP3 ADD SWAP1 POP PUSH2 0x3C0 PUSH1 0x0 DUP4 ADD DUP5 PUSH2 0x31B JUMP JUMPDEST SWAP3 SWAP2 POP POP JUMP JUMPDEST PUSH1 0x0 PUSH1 0x20 DUP3 ADD SWAP1 POP PUSH2 0x3DB PUSH1 0x0 DUP4 ADD DUP5 PUSH2 0x32A JUMP JUMPDEST SWAP3 SWAP2 POP POP JUMP JUMPDEST PUSH1 0x0 PUSH1 0x20 DUP3 ADD SWAP1 POP DUP2 DUP2 SUB PUSH1 0x0 DUP4 ADD MSTORE PUSH2 0x3FB DUP2 DUP5 PUSH2 0x339 JUMP JUMPDEST SWAP1 POP SWAP3 SWAP2 POP POP JUMP JUMPDEST PUSH1 0x0 PUSH1 0x20 DUP3 ADD SWAP1 POP PUSH2 0x418 PUSH1 0x0 DUP4 ADD DUP5 PUSH2 0x372 JUMP JUMPDEST SWAP3 SWAP2 POP POP JUMP JUMPDEST PUSH1 0x0 PUSH1 0x20 DUP3 ADD SWAP1 POP PUSH2 0x433 PUSH1 0x0 DUP4 ADD DUP5 PUSH2 0x381 JUMP JUMPDEST SWAP3 SWAP2 POP POP JUMP JUMPDEST PUSH1 0x0 DUP2 MLOAD SWAP1 POP SWAP2 SWAP1 POP JUMP JUMPDEST PUSH1 0x0 DUP3 DUP3 MSTORE PUSH1 0x20 DUP3 ADD SWAP1 POP SWAP3 SWAP2 POP POP JUMP JUMPDEST PUSH1 0x0 PUSH2 0x460 DUP3 PUSH2 0x4AC JUMP JUMPDEST SWAP1 POP SWAP2 SWAP1 POP JUMP JUMPDEST PUSH1 0x0 DUP2 ISZERO ISZERO SWAP1 POP SWAP2 SWAP1 POP JUMP JUMPDEST PUSH1 0x0 PUSH32 0xFFFFFFFF00000000000000000000000000000000000000000000000000000000 DUP3 AND SWAP1 POP SWAP2 SWAP1 POP JUMP JUMPDEST PUSH1 0x0 DUP2 PUSH1 0x0 SIGNEXTEND SWAP1 POP SWAP2 SWAP1 POP JUMP JUMPDEST PUSH1 0x0 PUSH20 0xFFFFFFFFFFFFFFFFFFFFFFFFFFFFFFFFFFFFFFFF DUP3 AND SWAP1 POP SWAP2 SWAP1 POP JUMP JUMPDEST PUSH1 0x0 DUP2 SWAP1 POP SWAP2 SWAP1 POP JUMP JUMPDEST PUSH1 0x0 JUMPDEST DUP4 DUP2 LT ISZERO PUSH2 0x4F4 JUMPI DUP1 DUP3 ADD MLOAD DUP2 DUP5 ADD MSTORE PUSH1 0x20 DUP2 ADD SWAP1 POP PUSH2 0x4D9 JUMP JUMPDEST DUP4 DUP2 GT ISZERO PUSH2 0x503 JUMPI PUSH1 0x0 DUP5 DUP5 ADD MSTORE JUMPDEST POP POP POP POP JUMP JUMPDEST PUSH1 0x0 PUSH1 0x2 DUP3 DIV SWAP1 POP PUSH1 0x1 DUP3 AND DUP1 PUSH2 0x521 JUMPI PUSH1 0x7F DUP3 AND SWAP2 POP JUMPDEST PUSH1 0x20 DUP3 LT DUP2 EQ ISZERO PUSH2 0x535 JUMPI PUSH2 0x534 PUSH2 0x53B JUMP JUMPDEST JUMPDEST POP SWAP2 SWAP1 POP JUMP JUMPDEST PUSH32 0x4E487B7100000000000000000000000000000000000000000000000000000000 PUSH1 0x0 MSTORE PUSH1 0x22 PUSH1 0x4 MSTORE PUSH1 0x24 PUSH1 0x0 REVERT JUMPDEST PUSH1 0x0 PUSH1 0x1F NOT PUSH1 0x1F DUP4 ADD AND SWAP1 POP SWAP2 SWAP1 POP JUMP INVALID LOG2 PUSH5 0x6970667358 0x22 SLT KECCAK256 PUSH16 0x19D7FBF7C8BA43D78F3AB38164DDF8D5 0x23 0xBB SWAP7 SWAP15 SSTORE 0xBD 0xE1 PUSH25 0x11AC13DD87BB8364736F6C6343000807003300000000000000 "
				},
				"gasEstimates": {
					"creation": {
						"codeDepositCost": "291400",
						"executionCost": "infinite",
						"totalCost": "infinite"
					},
					"external": {
						"addr()": "2536",
						"b()": "2535",
						"b1()": "2609",
						"b2()": "2522",
						"b3()": "2587",
						"b4()": "2566",
						"bt()": "2565",
						"bt2()": "infinite",
						"it()": "2614",
						"uit()": "2429"
					}
				},
				"methodIdentifiers": {
					"addr()": "767800de",
					"b()": "4df7e3d0",
					"b1()": "ee495002",
					"b2()": "0add6ef2",
					"b3()": "e9b61909",
					"b4()": "3db3fb0a",
					"bt()": "ac9c1959",
					"bt2()": "2c622fae",
					"it()": "5ce692f2",
					"uit()": "699ad9ad"
				}
			},
			"userdoc": {
				"kind": "user",
				"methods": {},
				"version": 1
			}
		}
	}
}